{
  "_format": "hh-sol-artifact-1",
  "contractName": "WaveData",
  "sourceName": "contracts/WaveData.sol",
  "abi": [
    {
      "inputs": [
        {
          "internalType": "string",
          "name": "email",
          "type": "string"
        }
      ],
      "name": "CheckEmail",
      "outputs": [
        {
          "internalType": "string",
          "name": "",
          "type": "string"
        }
      ],
      "stateMutability": "view",
      "type": "function"
    },
    {
      "inputs": [
        {
          "internalType": "string",
          "name": "full_name",
          "type": "string"
        },
        {
          "internalType": "string",
          "name": "email",
          "type": "string"
        },
        {
          "internalType": "string",
          "name": "password",
          "type": "string"
        },
        {
          "internalType": "string",
          "name": "accesstoken",
          "type": "string"
        },
        {
          "internalType": "address",
          "name": "walletaddress_address",
          "type": "address"
        }
      ],
      "name": "CreateAccount",
      "outputs": [],
      "stateMutability": "nonpayable",
      "type": "function"
    },
    {
      "inputs": [
        {
          "internalType": "uint256",
          "name": "survey_id",
          "type": "uint256"
        },
        {
          "internalType": "uint256",
          "name": "user_id",
          "type": "uint256"
        },
        {
          "internalType": "string",
          "name": "date",
          "type": "string"
        },
        {
          "internalType": "uint256",
          "name": "trial_id",
          "type": "uint256"
        }
      ],
      "name": "CreateCompletedSurveys",
      "outputs": [],
      "stateMutability": "nonpayable",
      "type": "function"
    },
    {
      "inputs": [
        {
          "internalType": "uint256",
          "name": "trial_id",
          "type": "uint256"
        },
        {
          "internalType": "uint256",
          "name": "user_id",
          "type": "uint256"
        },
        {
          "internalType": "string",
          "name": "date",
          "type": "string"
        },
        {
          "internalType": "string",
          "name": "given_permission",
          "type": "string"
        }
      ],
      "name": "CreateOngoingTrail",
      "outputs": [],
      "stateMutability": "nonpayable",
      "type": "function"
    },
    {
      "inputs": [
        {
          "internalType": "uint256",
          "name": "survey_id",
          "type": "uint256"
        },
        {
          "internalType": "string",
          "name": "metadata",
          "type": "string"
        }
      ],
      "name": "CreateOrSaveSections",
      "outputs": [],
      "stateMutability": "nonpayable",
      "type": "function"
    },
    {
      "inputs": [
        {
          "internalType": "uint256",
          "name": "trial_id",
          "type": "uint256"
        },
        {
          "internalType": "uint256",
          "name": "user_id",
          "type": "uint256"
        },
        {
          "internalType": "uint256",
          "name": "survey_id",
          "type": "uint256"
        },
        {
          "internalType": "string",
          "name": "section_id",
          "type": "string"
        },
        {
          "internalType": "string",
          "name": "question_id",
          "type": "string"
        },
        {
          "internalType": "string",
          "name": "answer",
          "type": "string"
        }
      ],
      "name": "CreateQuestionAnswer",
      "outputs": [],
      "stateMutability": "nonpayable",
      "type": "function"
    },
    {
      "inputs": [
        {
          "internalType": "uint256",
          "name": "trial_id",
          "type": "uint256"
        },
        {
          "internalType": "uint256",
          "name": "user_id",
          "type": "uint256"
        },
        {
          "internalType": "string",
          "name": "name",
          "type": "string"
        },
        {
          "internalType": "string",
          "name": "description",
          "type": "string"
        },
        {
          "internalType": "string",
          "name": "date",
          "type": "string"
        },
        {
          "internalType": "string",
          "name": "image",
          "type": "string"
        },
        {
          "internalType": "uint256",
          "name": "reward",
          "type": "uint256"
        }
      ],
      "name": "CreateSurvey",
      "outputs": [],
      "stateMutability": "payable",
      "type": "function"
    },
    {
      "inputs": [
        {
          "internalType": "string",
          "name": "name",
          "type": "string"
        },
        {
          "internalType": "string",
          "name": "image",
          "type": "string"
        }
      ],
      "name": "CreateSurveyCategory",
      "outputs": [],
      "stateMutability": "nonpayable",
      "type": "function"
    },
    {
      "inputs": [
        {
          "internalType": "uint256",
          "name": "user_id",
          "type": "uint256"
        },
        {
          "internalType": "string",
          "name": "image",
          "type": "string"
        },
        {
          "internalType": "string",
          "name": "title",
          "type": "string"
        },
        {
          "internalType": "string",
          "name": "description",
          "type": "string"
        },
        {
          "internalType": "string",
          "name": "permission",
          "type": "string"
        },
        {
          "internalType": "uint256",
          "name": "contributors",
          "type": "uint256"
        },
        {
          "internalType": "uint256",
          "name": "audience",
          "type": "uint256"
        },
        {
          "internalType": "uint256",
          "name": "budget",
          "type": "uint256"
        }
      ],
      "name": "CreateTrial",
      "outputs": [],
      "stateMutability": "nonpayable",
      "type": "function"
    },
    {
      "inputs": [
        {
          "internalType": "uint256",
          "name": "user_id",
          "type": "uint256"
        }
      ],
      "name": "GetOngoingTrial",
      "outputs": [
        {
          "internalType": "string",
          "name": "",
          "type": "string"
        }
      ],
      "stateMutability": "view",
      "type": "function"
    },
    {
      "inputs": [
        {
          "internalType": "string",
          "name": "email",
          "type": "string"
        },
        {
          "internalType": "string",
          "name": "password",
          "type": "string"
        }
      ],
      "name": "Login",
      "outputs": [
        {
          "internalType": "string",
          "name": "",
          "type": "string"
        }
      ],
      "stateMutability": "view",
      "type": "function"
    },
    {
      "inputs": [
        {
          "internalType": "uint256",
          "name": "userid",
          "type": "uint256"
        },
        {
          "internalType": "string",
          "name": "accesstoken",
          "type": "string"
        }
      ],
      "name": "UpdateAccessToken",
      "outputs": [],
      "stateMutability": "nonpayable",
      "type": "function"
    },
    {
      "inputs": [
        {
          "internalType": "uint256",
          "name": "trial_id",
          "type": "uint256"
        },
        {
          "internalType": "string",
          "name": "audience_info",
          "type": "string"
        }
      ],
      "name": "UpdateAudience",
      "outputs": [],
      "stateMutability": "nonpayable",
      "type": "function"
    },
    {
      "inputs": [
        {
          "internalType": "uint256",
          "name": "user_id",
          "type": "uint256"
        },
        {
          "internalType": "string",
          "name": "family_name",
          "type": "string"
        },
        {
          "internalType": "string",
          "name": "given_name",
          "type": "string"
        },
        {
          "internalType": "string",
          "name": "identifier",
          "type": "string"
        },
        {
          "internalType": "string",
          "name": "phone",
          "type": "string"
        },
        {
          "internalType": "string",
          "name": "gender",
          "type": "string"
        },
        {
          "internalType": "string",
          "name": "about",
          "type": "string"
        },
        {
          "internalType": "string",
          "name": "patient_id",
          "type": "string"
        },
        {
          "internalType": "address",
          "name": "walletaddress_address",
          "type": "address"
        }
      ],
      "name": "UpdateFhir",
      "outputs": [],
      "stateMutability": "nonpayable",
      "type": "function"
    },
    {
      "inputs": [
        {
          "internalType": "uint256",
          "name": "userid",
          "type": "uint256"
        },
        {
          "internalType": "string",
          "name": "privatekey",
          "type": "string"
        }
      ],
      "name": "UpdatePrivatekey",
      "outputs": [],
      "stateMutability": "nonpayable",
      "type": "function"
    },
    {
      "inputs": [
        {
          "internalType": "uint256",
          "name": "trial_id",
          "type": "uint256"
        },
        {
          "internalType": "string",
          "name": "reward_type",
          "type": "string"
        },
        {
          "internalType": "uint256",
          "name": "reward_price",
          "type": "uint256"
        },
        {
          "internalType": "uint256",
          "name": "total_spending_limit",
          "type": "uint256"
        }
      ],
      "name": "UpdateReward",
      "outputs": [],
      "stateMutability": "nonpayable",
      "type": "function"
    },
    {
      "inputs": [
        {
          "internalType": "uint256",
          "name": "survey_id",
          "type": "uint256"
        },
        {
          "internalType": "string",
          "name": "name",
          "type": "string"
        },
        {
          "internalType": "string",
          "name": "description",
          "type": "string"
        },
        {
          "internalType": "string",
          "name": "image",
          "type": "string"
        },
        {
          "internalType": "uint256",
          "name": "reward",
          "type": "uint256"
        }
      ],
      "name": "UpdateSurvey",
      "outputs": [],
      "stateMutability": "nonpayable",
      "type": "function"
    },
    {
      "inputs": [
        {
          "internalType": "uint256",
          "name": "trial_id",
          "type": "uint256"
        },
        {
          "internalType": "string",
          "name": "image",
          "type": "string"
        },
        {
          "internalType": "string",
          "name": "title",
          "type": "string"
        },
        {
          "internalType": "string",
          "name": "description",
          "type": "string"
        },
        {
          "internalType": "uint256",
          "name": "budget",
          "type": "uint256"
        }
      ],
      "name": "UpdateTrial",
      "outputs": [],
      "stateMutability": "nonpayable",
      "type": "function"
    },
    {
      "inputs": [
        {
          "internalType": "uint256",
          "name": "user_id",
          "type": "uint256"
        },
        {
          "internalType": "string",
          "name": "image",
          "type": "string"
        },
        {
          "internalType": "uint256",
          "name": "credits",
          "type": "uint256"
        }
      ],
      "name": "UpdateUser",
      "outputs": [],
      "stateMutability": "nonpayable",
      "type": "function"
    },
    {
      "inputs": [
        {
          "internalType": "uint256",
          "name": "userid",
          "type": "uint256"
        },
        {
          "internalType": "uint256",
          "name": "amount",
          "type": "uint256"
        }
      ],
      "name": "WithDrawAmount",
      "outputs": [],
      "stateMutability": "nonpayable",
      "type": "function"
    },
    {
      "inputs": [],
      "name": "_AnsweredIds",
      "outputs": [
        {
          "internalType": "uint256",
          "name": "",
          "type": "uint256"
        }
      ],
      "stateMutability": "view",
      "type": "function"
    },
    {
      "inputs": [],
      "name": "_CompletedSurveyIds",
      "outputs": [
        {
          "internalType": "uint256",
          "name": "",
          "type": "uint256"
        }
      ],
      "stateMutability": "view",
      "type": "function"
    },
    {
      "inputs": [],
      "name": "_FhirIds",
      "outputs": [
        {
          "internalType": "uint256",
          "name": "",
          "type": "uint256"
        }
      ],
      "stateMutability": "view",
      "type": "function"
    },
    {
      "inputs": [],
      "name": "_OngoingIds",
      "outputs": [
        {
          "internalType": "uint256",
          "name": "",
          "type": "uint256"
        }
      ],
      "stateMutability": "view",
      "type": "function"
    },
    {
      "inputs": [],
      "name": "_SurveyCategoryIds",
      "outputs": [
        {
          "internalType": "uint256",
          "name": "",
          "type": "uint256"
        }
      ],
      "stateMutability": "view",
      "type": "function"
    },
    {
      "inputs": [],
      "name": "_SurveyIds",
      "outputs": [
        {
          "internalType": "uint256",
          "name": "",
          "type": "uint256"
        }
      ],
      "stateMutability": "view",
      "type": "function"
    },
    {
      "inputs": [],
      "name": "_TrialIds",
      "outputs": [
        {
          "internalType": "uint256",
          "name": "",
          "type": "uint256"
        }
      ],
      "stateMutability": "view",
      "type": "function"
    },
    {
      "inputs": [],
      "name": "_UserIds",
      "outputs": [
        {
          "internalType": "uint256",
          "name": "",
          "type": "uint256"
        }
      ],
      "stateMutability": "view",
      "type": "function"
    },
    {
      "inputs": [
        {
          "internalType": "uint256",
          "name": "",
          "type": "uint256"
        }
      ],
      "name": "_categoryMap",
      "outputs": [
        {
          "internalType": "string",
          "name": "name",
          "type": "string"
        },
        {
          "internalType": "string",
          "name": "image",
          "type": "string"
        }
      ],
      "stateMutability": "view",
      "type": "function"
    },
    {
      "inputs": [
        {
          "internalType": "uint256",
          "name": "",
          "type": "uint256"
        }
      ],
      "name": "_completedsurveyMap",
      "outputs": [
        {
          "internalType": "uint256",
          "name": "completed_survey_id",
          "type": "uint256"
        },
        {
          "internalType": "uint256",
          "name": "trial_id",
          "type": "uint256"
        },
        {
          "internalType": "uint256",
          "name": "user_id",
          "type": "uint256"
        },
        {
          "internalType": "uint256",
          "name": "survey_id",
          "type": "uint256"
        },
        {
          "internalType": "string",
          "name": "date",
          "type": "string"
        }
      ],
      "stateMutability": "view",
      "type": "function"
    },
    {
      "inputs": [
        {
          "internalType": "uint256",
          "name": "",
          "type": "uint256"
        }
      ],
      "name": "_fhirMap",
      "outputs": [
        {
          "internalType": "uint256",
          "name": "user_id",
          "type": "uint256"
        },
        {
          "internalType": "string",
          "name": "family_name",
          "type": "string"
        },
        {
          "internalType": "string",
          "name": "given_name",
          "type": "string"
        },
        {
          "internalType": "string",
          "name": "identifier",
          "type": "string"
        },
        {
          "internalType": "string",
          "name": "phone",
          "type": "string"
        },
        {
          "internalType": "string",
          "name": "gender",
          "type": "string"
        },
        {
          "internalType": "string",
          "name": "about",
          "type": "string"
        },
        {
          "internalType": "string",
          "name": "patient_id",
          "type": "string"
        }
      ],
      "stateMutability": "view",
      "type": "function"
    },
    {
      "inputs": [
        {
          "internalType": "uint256",
          "name": "",
          "type": "uint256"
        }
      ],
      "name": "_ongoingMap",
      "outputs": [
        {
          "internalType": "uint256",
          "name": "ongoing_id",
          "type": "uint256"
        },
        {
          "internalType": "uint256",
          "name": "trial_id",
          "type": "uint256"
        },
        {
          "internalType": "uint256",
          "name": "user_id",
          "type": "uint256"
        },
        {
          "internalType": "string",
          "name": "date",
          "type": "string"
        },
        {
          "internalType": "string",
          "name": "given_permission",
          "type": "string"
        }
      ],
      "stateMutability": "view",
      "type": "function"
    },
    {
      "inputs": [
        {
          "internalType": "uint256",
          "name": "",
          "type": "uint256"
        }
      ],
      "name": "_questionanswerdMap",
      "outputs": [
        {
          "internalType": "uint256",
          "name": "answer_id",
          "type": "uint256"
        },
        {
          "internalType": "uint256",
          "name": "trial_id",
          "type": "uint256"
        },
        {
          "internalType": "uint256",
          "name": "user_id",
          "type": "uint256"
        },
        {
          "internalType": "uint256",
          "name": "survey_id",
          "type": "uint256"
        },
        {
          "internalType": "string",
          "name": "section_id",
          "type": "string"
        },
        {
          "internalType": "string",
          "name": "question_id",
          "type": "string"
        },
        {
          "internalType": "string",
          "name": "answer",
          "type": "string"
        }
      ],
      "stateMutability": "view",
      "type": "function"
    },
    {
      "inputs": [
        {
          "internalType": "uint256",
          "name": "",
          "type": "uint256"
        }
      ],
      "name": "_sectionsMap",
      "outputs": [
        {
          "internalType": "string",
          "name": "",
          "type": "string"
        }
      ],
      "stateMutability": "view",
      "type": "function"
    },
    {
      "inputs": [
        {
          "internalType": "uint256",
          "name": "",
          "type": "uint256"
        }
      ],
      "name": "_surveyMap",
      "outputs": [
        {
          "internalType": "uint256",
          "name": "survey_id",
          "type": "uint256"
        },
        {
          "internalType": "uint256",
          "name": "trial_id",
          "type": "uint256"
        },
        {
          "internalType": "uint256",
          "name": "user_id",
          "type": "uint256"
        },
        {
          "internalType": "string",
          "name": "name",
          "type": "string"
        },
        {
          "internalType": "string",
          "name": "description",
          "type": "string"
        },
        {
          "internalType": "string",
          "name": "date",
          "type": "string"
        },
        {
          "internalType": "string",
          "name": "image",
          "type": "string"
        },
        {
          "internalType": "uint256",
          "name": "reward",
          "type": "uint256"
        },
        {
          "internalType": "uint256",
          "name": "submission",
          "type": "uint256"
        }
      ],
      "stateMutability": "view",
      "type": "function"
    },
    {
      "inputs": [
        {
          "internalType": "uint256",
          "name": "",
          "type": "uint256"
        }
      ],
      "name": "_trialAudienceMap",
      "outputs": [
        {
          "internalType": "string",
          "name": "",
          "type": "string"
        }
      ],
      "stateMutability": "view",
      "type": "function"
    },
    {
      "inputs": [
        {
          "internalType": "uint256",
          "name": "",
          "type": "uint256"
        }
      ],
      "name": "_trialMap",
      "outputs": [
        {
          "internalType": "uint256",
          "name": "trial_id",
          "type": "uint256"
        },
        {
          "internalType": "uint256",
          "name": "user_id",
          "type": "uint256"
        },
        {
          "internalType": "string",
          "name": "image",
          "type": "string"
        },
        {
          "internalType": "string",
          "name": "title",
          "type": "string"
        },
        {
          "internalType": "string",
          "name": "description",
          "type": "string"
        },
        {
          "internalType": "string",
          "name": "permission",
          "type": "string"
        },
        {
          "internalType": "uint256",
          "name": "contributors",
          "type": "uint256"
        },
        {
          "internalType": "uint256",
          "name": "audience",
          "type": "uint256"
        },
        {
          "internalType": "uint256",
          "name": "budget",
          "type": "uint256"
        },
        {
          "internalType": "string",
          "name": "reward_type",
          "type": "string"
        },
        {
          "internalType": "uint256",
          "name": "reward_price",
          "type": "uint256"
        },
        {
          "internalType": "uint256",
          "name": "total_spending_limit",
          "type": "uint256"
        }
      ],
      "stateMutability": "view",
      "type": "function"
    },
    {
      "inputs": [
        {
          "internalType": "uint256",
          "name": "survey_id",
          "type": "uint256"
        }
      ],
      "name": "delete_a_servey",
      "outputs": [],
      "stateMutability": "nonpayable",
      "type": "function"
    },
    {
      "inputs": [
        {
          "internalType": "uint256",
          "name": "trial_id",
          "type": "uint256"
        }
      ],
      "name": "delete_a_trial",
      "outputs": [],
      "stateMutability": "nonpayable",
      "type": "function"
    },
    {
      "inputs": [
        {
          "internalType": "uint256",
          "name": "user_id",
          "type": "uint256"
        }
      ],
      "name": "getAllCompletedSurveysIDByUser",
      "outputs": [
        {
          "internalType": "uint256[]",
          "name": "",
          "type": "uint256[]"
        }
      ],
      "stateMutability": "view",
      "type": "function"
    },
    {
      "inputs": [
        {
          "internalType": "uint256",
          "name": "trial_id",
          "type": "uint256"
        }
      ],
      "name": "getAllSurveysIDByTrial",
      "outputs": [
        {
          "internalType": "uint256[]",
          "name": "",
          "type": "uint256[]"
        }
      ],
      "stateMutability": "view",
      "type": "function"
    },
    {
      "inputs": [
        {
          "internalType": "uint256",
          "name": "user_id",
          "type": "uint256"
        }
      ],
      "name": "getUserAddress",
      "outputs": [
        {
          "internalType": "address",
          "name": "",
          "type": "address"
        }
      ],
      "stateMutability": "view",
      "type": "function"
    },
    {
      "inputs": [
        {
          "internalType": "uint256",
          "name": "user_id",
          "type": "uint256"
        }
      ],
      "name": "getUserDetails",
      "outputs": [
        {
          "internalType": "string",
          "name": "",
          "type": "string"
        },
        {
          "internalType": "uint256",
          "name": "",
          "type": "uint256"
        },
        {
          "internalType": "string",
          "name": "",
          "type": "string"
        },
        {
          "internalType": "string",
          "name": "",
          "type": "string"
        },
        {
          "internalType": "string",
          "name": "",
          "type": "string"
        },
        {
          "internalType": "string",
          "name": "",
          "type": "string"
        },
        {
          "internalType": "uint256",
          "name": "",
          "type": "uint256"
        }
      ],
      "stateMutability": "view",
      "type": "function"
    },
    {
      "inputs": [],
      "name": "owner",
      "outputs": [
        {
          "internalType": "address",
          "name": "",
          "type": "address"
        }
      ],
      "stateMutability": "view",
      "type": "function"
    },
    {
      "inputs": [],
      "name": "reset_all",
      "outputs": [],
      "stateMutability": "nonpayable",
      "type": "function"
    },
    {
      "inputs": [
        {
          "internalType": "uint256",
          "name": "user_id",
          "type": "uint256"
        }
      ],
      "name": "reset_app",
      "outputs": [],
      "stateMutability": "nonpayable",
      "type": "function"
    }
  ],
  "bytecode": "0x608060405234801561001057600080fd5b506154e9806100206000396000f3fe60806040526004361061027d5760003560e01c806390d976e21161014f578063d98860b4116100c1578063eb6b28701161007a578063eb6b2870146109ee578063ebe197ca14610a19578063f0d8e87314610a5d578063f6aaa80414610a9b578063f8b7800f14610adc578063ff99942c14610b195761027d565b8063d98860b4146108c8578063dcdd86d5146108f1578063de7acfd71461091a578063e1da993f1461095f578063e57f973f14610988578063ea7efaa6146109b15761027d565b8063b6e604bd11610113578063b6e604bd14610781578063bed208fe146107ac578063c13b2836146107f4578063ccef421814610837578063cdb9b58f14610874578063ce08988c1461089d5761027d565b806390d976e2146106b0578063ac7aef0e146106ed578063ad23f8f914610718578063ad4bad3814610741578063b16060a61461076a5761027d565b80635f27aea1116101f35780637c15641a116101ac5780637c15641a1461058a5780637d423e10146105b55780638da5cb5b146105de578063902841d41461060957806390b18a781461064657806390d6cf051461066f5761027d565b80635f27aea11461048057806366cad734146104a9578063682d562b146104d25780636c067b481461050f5780636f4fe9c51461053857806370da4ae1146105615761027d565b80632a8caf4a116102455780632a8caf4a1461036f5780633896f130146103ac5780633eebd0d0146103c857806349b9b07b146103f15780634f8b36eb1461042e57806355391705146104575761027d565b806301c66109146102825780631429f775146102ad5780631c1a9f7b146102d85780631e1789561461031b57806329b3642314610344575b600080fd5b34801561028e57600080fd5b50610297610b42565b6040516102a49190614d13565b60405180910390f35b3480156102b957600080fd5b506102c2610b48565b6040516102cf9190614d13565b60405180910390f35b3480156102e457600080fd5b506102ff60048036038101906102fa91906141ab565b610b4e565b6040516103129796959493929190614c61565b60405180910390f35b34801561032757600080fd5b50610342600480360381019061033d91906141ab565b610ecb565b005b34801561035057600080fd5b50610359611062565b6040516103669190614d13565b60405180910390f35b34801561037b57600080fd5b50610396600480360381019061039191906141ab565b611068565b6040516103a39190614c08565b60405180910390f35b6103c660048036038101906103c19190614788565b611108565b005b3480156103d457600080fd5b506103ef60048036038101906103ea9190614626565b61122b565b005b3480156103fd57600080fd5b50610418600480360381019061041391906141ab565b611292565b6040516104259190614be6565b60405180910390f35b34801561043a57600080fd5b5061045560048036038101906104509190614048565b6113aa565b005b34801561046357600080fd5b5061047e600480360381019061047991906144e8565b61142d565b005b34801561048c57600080fd5b506104a760048036038101906104a291906144e8565b6114d0565b005b3480156104b557600080fd5b506104d060048036038101906104cb91906141d8565b611573565b005b3480156104de57600080fd5b506104f960048036038101906104f491906141ab565b61159f565b6040516105069190614be6565b60405180910390f35b34801561051b57600080fd5b506105366004803603810190610531919061491d565b6116b7565b005b34801561054457600080fd5b5061055f600480360381019061055a91906143c2565b6117a3565b005b34801561056d57600080fd5b50610588600480360381019061058391906141ab565b611942565b005b34801561059657600080fd5b5061059f611b0e565b6040516105ac9190614d13565b60405180910390f35b3480156105c157600080fd5b506105dc60048036038101906105d7919061489a565b611b14565b005b3480156105ea57600080fd5b506105f3611c11565b6040516106009190614bcb565b60405180910390f35b34801561061557600080fd5b50610630600480360381019061062b91906141ab565b611c37565b60405161063d9190614c08565b60405180910390f35b34801561065257600080fd5b5061066d600480360381019061066891906141d8565b611cdd565b005b34801561067b57600080fd5b50610696600480360381019061069191906141ab565b611d0c565b6040516106a7959493929190614fc4565b60405180910390f35b3480156106bc57600080fd5b506106d760048036038101906106d291906141ab565b611dca565b6040516106e49190614bcb565b60405180910390f35b3480156106f957600080fd5b50610702611e0a565b60405161070f9190614d13565b60405180910390f35b34801561072457600080fd5b5061073f600480360381019061073a91906141d8565b611e10565b005b34801561074d57600080fd5b50610768600480360381019061076391906140c0565b611e3c565b005b34801561077657600080fd5b5061077f61200d565b005b34801561078d57600080fd5b5061079661255d565b6040516107a39190614d13565b60405180910390f35b3480156107b857600080fd5b506107d360048036038101906107ce91906141ab565b612563565b6040516107eb9c9b9a99989796959493929190614ddd565b60405180910390f35b34801561080057600080fd5b5061081b600480360381019061081691906141ab565b61286b565b60405161082e979695949392919061501e565b60405180910390f35b34801561084357600080fd5b5061085e60048036038101906108599190614048565b612a45565b60405161086b9190614c08565b60405180910390f35b34801561088057600080fd5b5061089b600480360381019061089691906146e9565b612b2d565b005b3480156108a957600080fd5b506108b2612c12565b6040516108bf9190614d13565b60405180910390f35b3480156108d457600080fd5b506108ef60048036038101906108ea9190614234565b612c18565b005b3480156108fd57600080fd5b50610918600480360381019061091391906141ab565b612dc0565b005b34801561092657600080fd5b50610941600480360381019061093c91906141ab565b613090565b60405161095699989796959493929190614f1b565b60405180910390f35b34801561096b57600080fd5b50610986600480360381019061098191906141d8565b6132fe565b005b34801561099457600080fd5b506109af60048036038101906109aa91906145b7565b61332d565b005b3480156109bd57600080fd5b506109d860048036038101906109d391906141ab565b613378565b6040516109e59190614c08565b60405180910390f35b3480156109fa57600080fd5b50610a03613418565b604051610a109190614d13565b60405180910390f35b348015610a2557600080fd5b50610a406004803603810190610a3b91906141ab565b61341e565b604051610a54989796959493929190614d2e565b60405180910390f35b348015610a6957600080fd5b50610a846004803603810190610a7f91906141ab565b61381e565b604051610a92929190614c2a565b60405180910390f35b348015610aa757600080fd5b50610ac26004803603810190610abd91906141ab565b613952565b604051610ad3959493929190614eba565b60405180910390f35b348015610ae857600080fd5b50610b036004803603810190610afe9190613fff565b613a98565b604051610b109190614c08565b60405180910390f35b348015610b2557600080fd5b50610b406004803603810190610b3b91906146a9565b613b43565b005b60065481565b60035481565b60606000606080606080600060086000898152602001908152602001600020600601600860008a815260200190815260200160002060070154600860008b8152602001908152602001600020600101600860008c8152602001908152602001600020600201600860008d8152602001908152602001600020600501600860008e8152602001908152602001600020600801600860008f815260200190815260200160002060090154868054610c0290615275565b80601f0160208091040260200160405190810160405280929190818152602001828054610c2e90615275565b8015610c7b5780601f10610c5057610100808354040283529160200191610c7b565b820191906000526020600020905b815481529060010190602001808311610c5e57829003601f168201915b50505050509650848054610c8e90615275565b80601f0160208091040260200160405190810160405280929190818152602001828054610cba90615275565b8015610d075780601f10610cdc57610100808354040283529160200191610d07565b820191906000526020600020905b815481529060010190602001808311610cea57829003601f168201915b50505050509450838054610d1a90615275565b80601f0160208091040260200160405190810160405280929190818152602001828054610d4690615275565b8015610d935780601f10610d6857610100808354040283529160200191610d93565b820191906000526020600020905b815481529060010190602001808311610d7657829003601f168201915b50505050509350828054610da690615275565b80601f0160208091040260200160405190810160405280929190818152602001828054610dd290615275565b8015610e1f5780601f10610df457610100808354040283529160200191610e1f565b820191906000526020600020905b815481529060010190602001808311610e0257829003601f168201915b50505050509250818054610e3290615275565b80601f0160208091040260200160405190810160405280929190818152602001828054610e5e90615275565b8015610eab5780601f10610e8057610100808354040283529160200191610eab565b820191906000526020600020905b815481529060010190602001808311610e8e57829003601f168201915b505050505091509650965096509650965096509650919395979092949650565b600960008281526020019081526020016000206000808201600090556001820160009055600282016000610eff9190613e82565b600382016000610f0f9190613e82565b600482016000610f1f9190613e82565b600582016000610f2f9190613e82565b600682016000905560078201600090556008820160009055600982016000610f579190613e82565b600a820160009055600b8201600090555050600a60008281526020019081526020016000206000610f889190613e82565b60005b600354811015610fd05781600b6000838152602001908152602001600020600101541415610fbd57610fbc81611942565b5b8080610fc8906152d8565b915050610f8b565b5060005b60055481101561105e5781600f600083815260200190815260200160002060010154141561104b57600f6000828152602001908152602001600020600080820160009055600182016000905560028201600090556003820160006110389190613e82565b6004820160006110489190613e82565b50505b8080611056906152d8565b915050610fd4565b5050565b60045481565b600a602052806000526040600020600091509050805461108790615275565b80601f01602080910402602001604051908101604052809291908181526020018280546110b390615275565b80156111005780601f106110d557610100808354040283529160200191611100565b820191906000526020600020905b8154815290600101906020018083116110e357829003601f168201915b505050505081565b60405180610120016040528060035481526020018881526020018781526020018681526020018581526020018481526020018381526020018281526020016000815250600b60006003548152602001908152602001600020600082015181600001556020820151816001015560408201518160020155606082015181600301908051906020019061119a929190613ec2565b5060808201518160040190805190602001906111b7929190613ec2565b5060a08201518160050190805190602001906111d4929190613ec2565b5060c08201518160060190805190602001906111f1929190613ec2565b5060e0820151816007015561010082015181600801559050506003600081548092919061121d906152d8565b919050555050505050505050565b82600960008681526020019081526020016000206009019080519060200190611255929190613ec2565b508160096000868152602001908152602001600020600a01819055508060096000868152602001908152602001600020600b018190555050505050565b60606000805b6007548110156112e25783601160008381526020019081526020016000206002015414156112cf5781806112cb906152d8565b9250505b80806112da906152d8565b915050611298565b5060008167ffffffffffffffff8111156112ff576112fe6153dd565b5b60405190808252806020026020018201604052801561132d5781602001602082028036833780820191505090505b5090506000805b60075481101561139e57856011600083815260200190815260200160002060020154141561138b57808383815181106113705761136f6153ae565b5b6020026020010181815250508180611387906152d8565b9250505b8080611396906152d8565b915050611334565b50819350505050919050565b604051806040016040528083815260200182815250600c6000600454815260200190815260200160002060008201518160000190805190602001906113f0929190613ec2565b50602082015181600101908051906020019061140d929190613ec2565b5090505060046000815480929190611424906152d8565b91905055505050565b83600960008781526020019081526020016000206002019080519060200190611457929190613ec2565b5082600960008781526020019081526020016000206003019080519060200190611482929190613ec2565b50816009600087815260200190815260200160002060040190805190602001906114ad929190613ec2565b508060096000878152602001908152602001600020600801819055505050505050565b83600b600087815260200190815260200160002060030190805190602001906114fa929190613ec2565b5082600b60008781526020019081526020016000206004019080519060200190611525929190613ec2565b5081600b60008781526020019081526020016000206006019080519060200190611550929190613ec2565b5080600b6000878152602001908152602001600020600701819055505050505050565b80600d6000848152602001908152602001600020908051906020019061159a929190613ec2565b505050565b60606000805b6003548110156115ef5783600b60008381526020019081526020016000206001015414156115dc5781806115d8906152d8565b9250505b80806115e7906152d8565b9150506115a5565b5060008167ffffffffffffffff81111561160c5761160b6153dd565b5b60405190808252806020026020018201604052801561163a5781602001602082028036833780820191505090505b5090506000805b6003548110156116ab5785600b6000838152602001908152602001600020600101541415611698578083838151811061167d5761167c6153ae565b5b6020026020010181815250508180611694906152d8565b9250505b80806116a3906152d8565b915050611641565b50819350505050919050565b6040518060e00160405280600654815260200187815260200186815260200185815260200184815260200183815260200182815250601060006006548152602001908152602001600020600082015181600001556020820151816001015560408201518160020155606082015181600301556080820151816004019080519060200190611745929190613ec2565b5060a0820151816005019080519060200190611762929190613ec2565b5060c082015181600601908051906020019061177f929190613ec2565b5090505060066000815480929190611796906152d8565b9190505550505050505050565b60405180610180016040528060025481526020018981526020018881526020018781526020018681526020018581526020018481526020018381526020018281526020016040518060400160405280600681526020017f7445564d4f5300000000000000000000000000000000000000000000000000008152508152602001600081526020018281525060096000600254815260200190815260200160002060008201518160000155602082015181600101556040820151816002019080519060200190611872929190613ec2565b50606082015181600301908051906020019061188f929190613ec2565b5060808201518160040190805190602001906118ac929190613ec2565b5060a08201518160050190805190602001906118c9929190613ec2565b5060c0820151816006015560e082015181600701556101008201518160080155610120820151816009019080519060200190611906929190613ec2565b5061014082015181600a015561016082015181600b015590505060026000815480929190611933906152d8565b91905055505050505050505050565b600b60008281526020019081526020016000206000808201600090556001820160009055600282016000905560038201600061197e9190613e82565b60048201600061198e9190613e82565b60058201600061199e9190613e82565b6006820160006119ae9190613e82565b600782016000905560088201600090555050600d600082815260200190815260200160002060006119df9190613e82565b60005b600654811015611a84578160106000838152602001908152602001600020600301541415611a715760106000828152602001908152602001600020600080820160009055600182016000905560028201600090556003820160009055600482016000611a4e9190613e82565b600582016000611a5e9190613e82565b600682016000611a6e9190613e82565b50505b8080611a7c906152d8565b9150506119e2565b5060005b600754811015611b0a578160116000838152602001908152602001600020600301541415611af75760116000828152602001908152602001600020600080820160009055600182016000905560028201600090556003820160009055600482016000611af49190613e82565b50505b8080611b02906152d8565b915050611a88565b5050565b60015481565b6040518060a00160405280600754815260200182815260200184815260200185815260200183815250601160006007548152602001908152602001600020600082015181600001556020820151816001015560408201518160020155606082015181600301556080820151816004019080519060200190611b96929190613ec2565b509050506001600b60008681526020019081526020016000206008016000828254611bc1919061516d565b9250508190555081600b60008681526020019081526020016000206005019080519060200190611bf2929190613ec2565b5060076000815480929190611c06906152d8565b919050555050505050565b601260009054906101000a900473ffffffffffffffffffffffffffffffffffffffff1681565b606060005b600554811015611c9e5782600f6000838152602001908152602001600020600201541415611c8b57611c83600f600083815260200190815260200160002060010154613c57565b915050611cd8565b8080611c96906152d8565b915050611c3c565b506040518060400160405280600581526020017f46616c736500000000000000000000000000000000000000000000000000000081525090505b919050565b80600860008481526020019081526020016000206008019080519060200190611d07929190613ec2565b505050565b6011602052806000526040600020600091509050806000015490806001015490806002015490806003015490806004018054611d4790615275565b80601f0160208091040260200160405190810160405280929190818152602001828054611d7390615275565b8015611dc05780601f10611d9557610100808354040283529160200191611dc0565b820191906000526020600020905b815481529060010190602001808311611da357829003601f168201915b5050505050905085565b60006008600083815260200190815260200160002060040160009054906101000a900473ffffffffffffffffffffffffffffffffffffffff169050919050565b60025481565b80600a60008481526020019081526020016000209080519060200190611e37929190613ec2565b505050565b60405180610140016040528060005481526020018681526020018581526020018481526020018273ffffffffffffffffffffffffffffffffffffffff16815260200160405180602001604052806000815250815260200160405180606001604052806028815260200161548c6028913981526020016000815260200183815260200160008152506008600080548152602001908152602001600020600082015181600001556020820151816001019080519060200190611efd929190613ec2565b506040820151816002019080519060200190611f1a929190613ec2565b506060820151816003019080519060200190611f37929190613ec2565b5060808201518160040160006101000a81548173ffffffffffffffffffffffffffffffffffffffff021916908373ffffffffffffffffffffffffffffffffffffffff16021790555060a0820151816005019080519060200190611f9b929190613ec2565b5060c0820151816006019080519060200190611fb8929190613ec2565b5060e08201518160070155610100820151816008019080519060200190611fe0929190613ec2565b506101208201518160090155905050600080815480929190612001906152d8565b91905055505050505050565b60005b6000548110156120e257600860008281526020019081526020016000206000808201600090556001820160006120469190613e82565b6002820160006120569190613e82565b6003820160006120669190613e82565b6004820160006101000a81549073ffffffffffffffffffffffffffffffffffffffff021916905560058201600061209d9190613e82565b6006820160006120ad9190613e82565b60078201600090556008820160006120c59190613e82565b6009820160009055505080806120da906152d8565b915050612010565b5060005b6002548110156121a1576009600082815260200190815260200160002060008082016000905560018201600090556002820160006121249190613e82565b6003820160006121349190613e82565b6004820160006121449190613e82565b6005820160006121549190613e82565b60068201600090556007820160009055600882016000905560098201600061217c9190613e82565b600a820160009055600b82016000905550508080612199906152d8565b9150506120e6565b5060005b6002548110156121e157600a600082815260200190815260200160002060006121ce9190613e82565b80806121d9906152d8565b9150506121a5565b5060005b60035481101561228057600b60008281526020019081526020016000206000808201600090556001820160009055600282016000905560038201600061222b9190613e82565b60048201600061223b9190613e82565b60058201600061224b9190613e82565b60068201600061225b9190613e82565b6007820160009055600882016000905550508080612278906152d8565b9150506121e5565b5060005b6004548110156122d757600c6000828152602001908152602001600020600080820160006122b29190613e82565b6001820160006122c29190613e82565b505080806122cf906152d8565b915050612284565b5060005b60025481101561231757600d600082815260200190815260200160002060006123049190613e82565b808061230f906152d8565b9150506122db565b5060005b6000548110156123c657600e60008281526020019081526020016000206000808201600090556001820160006123519190613e82565b6002820160006123619190613e82565b6003820160006123719190613e82565b6004820160006123819190613e82565b6005820160006123919190613e82565b6006820160006123a19190613e82565b6007820160006123b19190613e82565b505080806123be906152d8565b91505061231b565b5060005b60055481101561243557600f6000828152602001908152602001600020600080820160009055600182016000905560028201600090556003820160006124109190613e82565b6004820160006124209190613e82565b5050808061242d906152d8565b9150506123ca565b5060005b6006548110156124bc57601060008281526020019081526020016000206000808201600090556001820160009055600282016000905560038201600090556004820160006124879190613e82565b6005820160006124979190613e82565b6006820160006124a79190613e82565b505080806124b4906152d8565b915050612439565b5060005b600754811015612523576011600082815260200190815260200160002060008082016000905560018201600090556002820160009055600382016000905560048201600061250e9190613e82565b5050808061251b906152d8565b9150506124c0565b5060008081905550600060028190555060006003819055506000600481905550600060058190555060006006819055506000600781905550565b60075481565b600960205280600052604060002060009150905080600001549080600101549080600201805461259290615275565b80601f01602080910402602001604051908101604052809291908181526020018280546125be90615275565b801561260b5780601f106125e05761010080835404028352916020019161260b565b820191906000526020600020905b8154815290600101906020018083116125ee57829003601f168201915b50505050509080600301805461262090615275565b80601f016020809104026020016040519081016040528092919081815260200182805461264c90615275565b80156126995780601f1061266e57610100808354040283529160200191612699565b820191906000526020600020905b81548152906001019060200180831161267c57829003601f168201915b5050505050908060040180546126ae90615275565b80601f01602080910402602001604051908101604052809291908181526020018280546126da90615275565b80156127275780601f106126fc57610100808354040283529160200191612727565b820191906000526020600020905b81548152906001019060200180831161270a57829003601f168201915b50505050509080600501805461273c90615275565b80601f016020809104026020016040519081016040528092919081815260200182805461276890615275565b80156127b55780601f1061278a576101008083540402835291602001916127b5565b820191906000526020600020905b81548152906001019060200180831161279857829003601f168201915b5050505050908060060154908060070154908060080154908060090180546127dc90615275565b80601f016020809104026020016040519081016040528092919081815260200182805461280890615275565b80156128555780601f1061282a57610100808354040283529160200191612855565b820191906000526020600020905b81548152906001019060200180831161283857829003601f168201915b50505050509080600a01549080600b015490508c565b60106020528060005260406000206000915090508060000154908060010154908060020154908060030154908060040180546128a690615275565b80601f01602080910402602001604051908101604052809291908181526020018280546128d290615275565b801561291f5780601f106128f45761010080835404028352916020019161291f565b820191906000526020600020905b81548152906001019060200180831161290257829003601f168201915b50505050509080600501805461293490615275565b80601f016020809104026020016040519081016040528092919081815260200182805461296090615275565b80156129ad5780601f10612982576101008083540402835291602001916129ad565b820191906000526020600020905b81548152906001019060200180831161299057829003601f168201915b5050505050908060060180546129c290615275565b80601f01602080910402602001604051908101604052809291908181526020018280546129ee90615275565b8015612a3b5780601f10612a1057610100808354040283529160200191612a3b565b820191906000526020600020905b815481529060010190602001808311612a1e57829003601f168201915b5050505050905087565b606060005b600054811015612aed57838051906020012060086000838152602001908152602001600020600201604051612a7f9190614b9f565b6040518091039020148015612ac45750828051906020012060086000838152602001908152602001600020600301604051612aba9190614b9f565b6040518091039020145b15612ada57612ad281613c57565b915050612b27565b8080612ae5906152d8565b915050612a4a565b506040518060400160405280600581526020017f46616c736500000000000000000000000000000000000000000000000000000081525090505b92915050565b6040518060a00160405280600554815260200185815260200184815260200183815260200182815250600f600060055481526020019081526020016000206000820151816000015560208201518160010155604082015181600201556060820151816003019080519060200190612ba5929190613ec2565b506080820151816004019080519060200190612bc2929190613ec2565b509050506001600960008681526020019081526020016000206006016000828254612bed919061516d565b9250508190555060056000815480929190612c07906152d8565b919050555050505050565b60005481565b88600e60008b81526020019081526020016000206000018190555087600e60008b81526020019081526020016000206001019080519060200190612c5d929190613ec2565b5086600e60008b81526020019081526020016000206002019080519060200190612c88929190613ec2565b5085600e60008b81526020019081526020016000206003019080519060200190612cb3929190613ec2565b5084600e60008b81526020019081526020016000206004019080519060200190612cde929190613ec2565b5083600e60008b81526020019081526020016000206005019080519060200190612d09929190613ec2565b5082600e60008b81526020019081526020016000206006019080519060200190612d34929190613ec2565b5081600e60008b81526020019081526020016000206007019080519060200190612d5f929190613ec2565b5080600860008b815260200190815260200160002060040160006101000a81548173ffffffffffffffffffffffffffffffffffffffff021916908373ffffffffffffffffffffffffffffffffffffffff160217905550505050505050505050565b60086000828152602001908152602001600020600080820160009055600182016000612dec9190613e82565b600282016000612dfc9190613e82565b600382016000612e0c9190613e82565b6004820160006101000a81549073ffffffffffffffffffffffffffffffffffffffff0219169055600582016000612e439190613e82565b600682016000612e539190613e82565b6007820160009055600882016000612e6b9190613e82565b60098201600090555050600e6000828152602001908152602001600020600080820160009055600182016000612ea19190613e82565b600282016000612eb19190613e82565b600382016000612ec19190613e82565b600482016000612ed19190613e82565b600582016000612ee19190613e82565b600682016000612ef19190613e82565b600782016000612f019190613e82565b505060005b600554811015612f7157600f600082815260200190815260200160002060008082016000905560018201600090556002820160009055600382016000612f4c9190613e82565b600482016000612f5c9190613e82565b50508080612f69906152d8565b915050612f06565b5060005b600654811015612ff85760106000828152602001908152602001600020600080820160009055600182016000905560028201600090556003820160009055600482016000612fc39190613e82565b600582016000612fd39190613e82565b600682016000612fe39190613e82565b50508080612ff0906152d8565b915050612f75565b5060005b60075481101561305f576011600082815260200190815260200160002060008082016000905560018201600090556002820160009055600382016000905560048201600061304a9190613e82565b50508080613057906152d8565b915050612ffc565b50600160005461306f91906151c3565b60008190555060006005819055506000600681905550600060078190555050565b600b6020528060005260406000206000915090508060000154908060010154908060020154908060030180546130c590615275565b80601f01602080910402602001604051908101604052809291908181526020018280546130f190615275565b801561313e5780601f106131135761010080835404028352916020019161313e565b820191906000526020600020905b81548152906001019060200180831161312157829003601f168201915b50505050509080600401805461315390615275565b80601f016020809104026020016040519081016040528092919081815260200182805461317f90615275565b80156131cc5780601f106131a1576101008083540402835291602001916131cc565b820191906000526020600020905b8154815290600101906020018083116131af57829003601f168201915b5050505050908060050180546131e190615275565b80601f016020809104026020016040519081016040528092919081815260200182805461320d90615275565b801561325a5780601f1061322f5761010080835404028352916020019161325a565b820191906000526020600020905b81548152906001019060200180831161323d57829003601f168201915b50505050509080600601805461326f90615275565b80601f016020809104026020016040519081016040528092919081815260200182805461329b90615275565b80156132e85780601f106132bd576101008083540402835291602001916132e8565b820191906000526020600020905b8154815290600101906020018083116132cb57829003601f168201915b5050505050908060070154908060080154905089565b80600860008481526020019081526020016000206005019080519060200190613328929190613ec2565b505050565b81600860008581526020019081526020016000206006019080519060200190613357929190613ec2565b50806008600085815260200190815260200160002060070181905550505050565b600d602052806000526040600020600091509050805461339790615275565b80601f01602080910402602001604051908101604052809291908181526020018280546133c390615275565b80156134105780601f106133e557610100808354040283529160200191613410565b820191906000526020600020905b8154815290600101906020018083116133f357829003601f168201915b505050505081565b60055481565b600e60205280600052604060002060009150905080600001549080600101805461344790615275565b80601f016020809104026020016040519081016040528092919081815260200182805461347390615275565b80156134c05780601f10613495576101008083540402835291602001916134c0565b820191906000526020600020905b8154815290600101906020018083116134a357829003601f168201915b5050505050908060020180546134d590615275565b80601f016020809104026020016040519081016040528092919081815260200182805461350190615275565b801561354e5780601f106135235761010080835404028352916020019161354e565b820191906000526020600020905b81548152906001019060200180831161353157829003601f168201915b50505050509080600301805461356390615275565b80601f016020809104026020016040519081016040528092919081815260200182805461358f90615275565b80156135dc5780601f106135b1576101008083540402835291602001916135dc565b820191906000526020600020905b8154815290600101906020018083116135bf57829003601f168201915b5050505050908060040180546135f190615275565b80601f016020809104026020016040519081016040528092919081815260200182805461361d90615275565b801561366a5780601f1061363f5761010080835404028352916020019161366a565b820191906000526020600020905b81548152906001019060200180831161364d57829003601f168201915b50505050509080600501805461367f90615275565b80601f01602080910402602001604051908101604052809291908181526020018280546136ab90615275565b80156136f85780601f106136cd576101008083540402835291602001916136f8565b820191906000526020600020905b8154815290600101906020018083116136db57829003601f168201915b50505050509080600601805461370d90615275565b80601f016020809104026020016040519081016040528092919081815260200182805461373990615275565b80156137865780601f1061375b57610100808354040283529160200191613786565b820191906000526020600020905b81548152906001019060200180831161376957829003601f168201915b50505050509080600701805461379b90615275565b80601f01602080910402602001604051908101604052809291908181526020018280546137c790615275565b80156138145780601f106137e957610100808354040283529160200191613814565b820191906000526020600020905b8154815290600101906020018083116137f757829003601f168201915b5050505050905088565b600c60205280600052604060002060009150905080600001805461384190615275565b80601f016020809104026020016040519081016040528092919081815260200182805461386d90615275565b80156138ba5780601f1061388f576101008083540402835291602001916138ba565b820191906000526020600020905b81548152906001019060200180831161389d57829003601f168201915b5050505050908060010180546138cf90615275565b80601f01602080910402602001604051908101604052809291908181526020018280546138fb90615275565b80156139485780601f1061391d57610100808354040283529160200191613948565b820191906000526020600020905b81548152906001019060200180831161392b57829003601f168201915b5050505050905082565b600f60205280600052604060002060009150905080600001549080600101549080600201549080600301805461398790615275565b80601f01602080910402602001604051908101604052809291908181526020018280546139b390615275565b8015613a005780601f106139d557610100808354040283529160200191613a00565b820191906000526020600020905b8154815290600101906020018083116139e357829003601f168201915b505050505090806004018054613a1590615275565b80601f0160208091040260200160405190810160405280929190818152602001828054613a4190615275565b8015613a8e5780601f10613a6357610100808354040283529160200191613a8e565b820191906000526020600020905b815481529060010190602001808311613a7157829003601f168201915b5050505050905085565b606060005b600054811015613b0457828051906020012060086000838152602001908152602001600020600201604051613ad29190614b9f565b60405180910390201415613af157613ae981613c57565b915050613b3e565b8080613afc906152d8565b915050613a9d565b506040518060400160405280600581526020017f46616c736500000000000000000000000000000000000000000000000000000081525090505b919050565b60006008600084815260200190815260200160002060040160009054906101000a900473ffffffffffffffffffffffffffffffffffffffff1673ffffffffffffffffffffffffffffffffffffffff1682604051613b9f90614bb6565b60006040518083038185875af1925050503d8060008114613bdc576040519150601f19603f3d011682016040523d82523d6000602084013e613be1565b606091505b5050905080613c25576040517f08c379a0000000000000000000000000000000000000000000000000000000008152600401613c1c90614cf3565b60405180910390fd5b81600860008581526020019081526020016000206007016000828254613c4b91906151c3565b92505081905550505050565b606060006001613c6684613d2f565b01905060008167ffffffffffffffff811115613c8557613c846153dd565b5b6040519080825280601f01601f191660200182016040528015613cb75781602001600182028036833780820191505090505b509050600082602001820190505b600115613d24578080600190039150507f3031323334353637383961626364656600000000000000000000000000000000600a86061a8153600a8581613d0e57613d0d615350565b5b0494506000851415613d1f57613d24565b613cc5565b819350505050919050565b600080600090507a184f03e93ff9f4daa797ed6e38ed64bf6a1f0100000000000000008310613d8d577a184f03e93ff9f4daa797ed6e38ed64bf6a1f0100000000000000008381613d8357613d82615350565b5b0492506040810190505b6d04ee2d6d415b85acef81000000008310613dca576d04ee2d6d415b85acef81000000008381613dc057613dbf615350565b5b0492506020810190505b662386f26fc100008310613df957662386f26fc100008381613def57613dee615350565b5b0492506010810190505b6305f5e1008310613e22576305f5e1008381613e1857613e17615350565b5b0492506008810190505b6127108310613e47576127108381613e3d57613e3c615350565b5b0492506004810190505b60648310613e6a5760648381613e6057613e5f615350565b5b0492506002810190505b600a8310613e79576001810190505b80915050919050565b508054613e8e90615275565b6000825580601f10613ea05750613ebf565b601f016020900490600052602060002090810190613ebe9190613f48565b5b50565b828054613ece90615275565b90600052602060002090601f016020900481019282613ef05760008555613f37565b82601f10613f0957805160ff1916838001178555613f37565b82800160010185558215613f37579182015b82811115613f36578251825591602001919060010190613f1b565b5b509050613f449190613f48565b5090565b5b80821115613f61576000816000905550600101613f49565b5090565b6000613f78613f73846150c7565b6150a2565b905082815260208101848484011115613f9457613f93615411565b5b613f9f848285615233565b509392505050565b600081359050613fb68161545d565b92915050565b600082601f830112613fd157613fd061540c565b5b8135613fe1848260208601613f65565b91505092915050565b600081359050613ff981615474565b92915050565b6000602082840312156140155761401461541b565b5b600082013567ffffffffffffffff81111561403357614032615416565b5b61403f84828501613fbc565b91505092915050565b6000806040838503121561405f5761405e61541b565b5b600083013567ffffffffffffffff81111561407d5761407c615416565b5b61408985828601613fbc565b925050602083013567ffffffffffffffff8111156140aa576140a9615416565b5b6140b685828601613fbc565b9150509250929050565b600080600080600060a086880312156140dc576140db61541b565b5b600086013567ffffffffffffffff8111156140fa576140f9615416565b5b61410688828901613fbc565b955050602086013567ffffffffffffffff81111561412757614126615416565b5b61413388828901613fbc565b945050604086013567ffffffffffffffff81111561415457614153615416565b5b61416088828901613fbc565b935050606086013567ffffffffffffffff81111561418157614180615416565b5b61418d88828901613fbc565b925050608061419e88828901613fa7565b9150509295509295909350565b6000602082840312156141c1576141c061541b565b5b60006141cf84828501613fea565b91505092915050565b600080604083850312156141ef576141ee61541b565b5b60006141fd85828601613fea565b925050602083013567ffffffffffffffff81111561421e5761421d615416565b5b61422a85828601613fbc565b9150509250929050565b60008060008060008060008060006101208a8c0312156142575761425661541b565b5b60006142658c828d01613fea565b99505060208a013567ffffffffffffffff81111561428657614285615416565b5b6142928c828d01613fbc565b98505060408a013567ffffffffffffffff8111156142b3576142b2615416565b5b6142bf8c828d01613fbc565b97505060608a013567ffffffffffffffff8111156142e0576142df615416565b5b6142ec8c828d01613fbc565b96505060808a013567ffffffffffffffff81111561430d5761430c615416565b5b6143198c828d01613fbc565b95505060a08a013567ffffffffffffffff81111561433a57614339615416565b5b6143468c828d01613fbc565b94505060c08a013567ffffffffffffffff81111561436757614366615416565b5b6143738c828d01613fbc565b93505060e08a013567ffffffffffffffff81111561439457614393615416565b5b6143a08c828d01613fbc565b9250506101006143b28c828d01613fa7565b9150509295985092959850929598565b600080600080600080600080610100898b0312156143e3576143e261541b565b5b60006143f18b828c01613fea565b985050602089013567ffffffffffffffff81111561441257614411615416565b5b61441e8b828c01613fbc565b975050604089013567ffffffffffffffff81111561443f5761443e615416565b5b61444b8b828c01613fbc565b965050606089013567ffffffffffffffff81111561446c5761446b615416565b5b6144788b828c01613fbc565b955050608089013567ffffffffffffffff81111561449957614498615416565b5b6144a58b828c01613fbc565b94505060a06144b68b828c01613fea565b93505060c06144c78b828c01613fea565b92505060e06144d88b828c01613fea565b9150509295985092959890939650565b600080600080600060a086880312156145045761450361541b565b5b600061451288828901613fea565b955050602086013567ffffffffffffffff81111561453357614532615416565b5b61453f88828901613fbc565b945050604086013567ffffffffffffffff8111156145605761455f615416565b5b61456c88828901613fbc565b935050606086013567ffffffffffffffff81111561458d5761458c615416565b5b61459988828901613fbc565b92505060806145aa88828901613fea565b9150509295509295909350565b6000806000606084860312156145d0576145cf61541b565b5b60006145de86828701613fea565b935050602084013567ffffffffffffffff8111156145ff576145fe615416565b5b61460b86828701613fbc565b925050604061461c86828701613fea565b9150509250925092565b600080600080608085870312156146405761463f61541b565b5b600061464e87828801613fea565b945050602085013567ffffffffffffffff81111561466f5761466e615416565b5b61467b87828801613fbc565b935050604061468c87828801613fea565b925050606061469d87828801613fea565b91505092959194509250565b600080604083850312156146c0576146bf61541b565b5b60006146ce85828601613fea565b92505060206146df85828601613fea565b9150509250929050565b600080600080608085870312156147035761470261541b565b5b600061471187828801613fea565b945050602061472287828801613fea565b935050604085013567ffffffffffffffff81111561474357614742615416565b5b61474f87828801613fbc565b925050606085013567ffffffffffffffff8111156147705761476f615416565b5b61477c87828801613fbc565b91505092959194509250565b600080600080600080600060e0888a0312156147a7576147a661541b565b5b60006147b58a828b01613fea565b97505060206147c68a828b01613fea565b965050604088013567ffffffffffffffff8111156147e7576147e6615416565b5b6147f38a828b01613fbc565b955050606088013567ffffffffffffffff81111561481457614813615416565b5b6148208a828b01613fbc565b945050608088013567ffffffffffffffff81111561484157614840615416565b5b61484d8a828b01613fbc565b93505060a088013567ffffffffffffffff81111561486e5761486d615416565b5b61487a8a828b01613fbc565b92505060c061488b8a828b01613fea565b91505092959891949750929550565b600080600080608085870312156148b4576148b361541b565b5b60006148c287828801613fea565b94505060206148d387828801613fea565b935050604085013567ffffffffffffffff8111156148f4576148f3615416565b5b61490087828801613fbc565b925050606061491187828801613fea565b91505092959194509250565b60008060008060008060c0878903121561493a5761493961541b565b5b600061494889828a01613fea565b965050602061495989828a01613fea565b955050604061496a89828a01613fea565b945050606087013567ffffffffffffffff81111561498b5761498a615416565b5b61499789828a01613fbc565b935050608087013567ffffffffffffffff8111156149b8576149b7615416565b5b6149c489828a01613fbc565b92505060a087013567ffffffffffffffff8111156149e5576149e4615416565b5b6149f189828a01613fbc565b9150509295509295509295565b6000614a0a8383614b81565b60208301905092915050565b614a1f816151f7565b82525050565b6000614a308261511d565b614a3a8185615140565b9350614a45836150f8565b8060005b83811015614a76578151614a5d88826149fe565b9750614a6883615133565b925050600181019050614a49565b5085935050505092915050565b60008154614a9081615275565b614a9a8186615151565b94506001821660008114614ab55760018114614ac657614af9565b60ff19831686528186019350614af9565b614acf85615108565b60005b83811015614af157815481890152600182019150602081019050614ad2565b838801955050505b50505092915050565b6000614b0d82615128565b614b17818561515c565b9350614b27818560208601615242565b614b3081615420565b840191505092915050565b6000614b48600b8361515c565b9150614b5382615431565b602082019050919050565b6000614b6b600083615151565b9150614b768261545a565b600082019050919050565b614b8a81615229565b82525050565b614b9981615229565b82525050565b6000614bab8284614a83565b915081905092915050565b6000614bc182614b5e565b9150819050919050565b6000602082019050614be06000830184614a16565b92915050565b60006020820190508181036000830152614c008184614a25565b905092915050565b60006020820190508181036000830152614c228184614b02565b905092915050565b60006040820190508181036000830152614c448185614b02565b90508181036020830152614c588184614b02565b90509392505050565b600060e0820190508181036000830152614c7b818a614b02565b9050614c8a6020830189614b90565b8181036040830152614c9c8188614b02565b90508181036060830152614cb08187614b02565b90508181036080830152614cc48186614b02565b905081810360a0830152614cd88185614b02565b9050614ce760c0830184614b90565b98975050505050505050565b60006020820190508181036000830152614d0c81614b3b565b9050919050565b6000602082019050614d286000830184614b90565b92915050565b600061010082019050614d44600083018b614b90565b8181036020830152614d56818a614b02565b90508181036040830152614d6a8189614b02565b90508181036060830152614d7e8188614b02565b90508181036080830152614d928187614b02565b905081810360a0830152614da68186614b02565b905081810360c0830152614dba8185614b02565b905081810360e0830152614dce8184614b02565b90509998505050505050505050565b600061018082019050614df3600083018f614b90565b614e00602083018e614b90565b8181036040830152614e12818d614b02565b90508181036060830152614e26818c614b02565b90508181036080830152614e3a818b614b02565b905081810360a0830152614e4e818a614b02565b9050614e5d60c0830189614b90565b614e6a60e0830188614b90565b614e78610100830187614b90565b818103610120830152614e8b8186614b02565b9050614e9b610140830185614b90565b614ea9610160830184614b90565b9d9c50505050505050505050505050565b600060a082019050614ecf6000830188614b90565b614edc6020830187614b90565b614ee96040830186614b90565b8181036060830152614efb8185614b02565b90508181036080830152614f0f8184614b02565b90509695505050505050565b600061012082019050614f31600083018c614b90565b614f3e602083018b614b90565b614f4b604083018a614b90565b8181036060830152614f5d8189614b02565b90508181036080830152614f718188614b02565b905081810360a0830152614f858187614b02565b905081810360c0830152614f998186614b02565b9050614fa860e0830185614b90565b614fb6610100830184614b90565b9a9950505050505050505050565b600060a082019050614fd96000830188614b90565b614fe66020830187614b90565b614ff36040830186614b90565b6150006060830185614b90565b81810360808301526150128184614b02565b90509695505050505050565b600060e082019050615033600083018a614b90565b6150406020830189614b90565b61504d6040830188614b90565b61505a6060830187614b90565b818103608083015261506c8186614b02565b905081810360a08301526150808185614b02565b905081810360c08301526150948184614b02565b905098975050505050505050565b60006150ac6150bd565b90506150b882826152a7565b919050565b6000604051905090565b600067ffffffffffffffff8211156150e2576150e16153dd565b5b6150eb82615420565b9050602081019050919050565b6000819050602082019050919050565b60008190508160005260206000209050919050565b600081519050919050565b600081519050919050565b6000602082019050919050565b600082825260208201905092915050565b600081905092915050565b600082825260208201905092915050565b600061517882615229565b915061518383615229565b9250827fffffffffffffffffffffffffffffffffffffffffffffffffffffffffffffffff038211156151b8576151b7615321565b5b828201905092915050565b60006151ce82615229565b91506151d983615229565b9250828210156151ec576151eb615321565b5b828203905092915050565b600061520282615209565b9050919050565b600073ffffffffffffffffffffffffffffffffffffffff82169050919050565b6000819050919050565b82818337600083830152505050565b60005b83811015615260578082015181840152602081019050615245565b8381111561526f576000848401525b50505050565b6000600282049050600182168061528d57607f821691505b602082108114156152a1576152a061537f565b5b50919050565b6152b082615420565b810181811067ffffffffffffffff821117156152cf576152ce6153dd565b5b80604052505050565b60006152e382615229565b91507fffffffffffffffffffffffffffffffffffffffffffffffffffffffffffffffff82141561531657615315615321565b5b600182019050919050565b7f4e487b7100000000000000000000000000000000000000000000000000000000600052601160045260246000fd5b7f4e487b7100000000000000000000000000000000000000000000000000000000600052601260045260246000fd5b7f4e487b7100000000000000000000000000000000000000000000000000000000600052602260045260246000fd5b7f4e487b7100000000000000000000000000000000000000000000000000000000600052603260045260246000fd5b7f4e487b7100000000000000000000000000000000000000000000000000000000600052604160045260246000fd5b600080fd5b600080fd5b600080fd5b600080fd5b6000601f19601f8301169050919050565b7f53656e64206661696c6564000000000000000000000000000000000000000000600082015250565b50565b615466816151f7565b811461547157600080fd5b50565b61547d81615229565b811461548857600080fd5b5056fe68747470733a2f2f692e706f7374696d672e63632f537378477735635a2f706572736f6e2e6a7067a26469706673582212209167ddb647e76f64ddba7852ef4a9787294c35960fa0cc90663d1dc65b65dda364736f6c63430008060033",
  "linkReferences": {},
  "deployedLinkReferences": {}
}