{"contracts/WaveData.sol":{"WaveData":{"abi":[{"inputs":[{"internalType":"string","name":"email","type":"string"}],"name":"CheckEmail","outputs":[{"internalType":"string","name":"","type":"string"}],"stateMutability":"view","type":"function"},{"inputs":[{"internalType":"string","name":"full_name","type":"string"},{"internalType":"string","name":"email","type":"string"},{"internalType":"string","name":"password","type":"string"},{"internalType":"string","name":"accesstoken","type":"string"},{"internalType":"string","name":"walletaddress","type":"string"}],"name":"CreateAccount","outputs":[],"stateMutability":"nonpayable","type":"function"},{"inputs":[{"internalType":"uint256","name":"survey_id","type":"uint256"},{"internalType":"uint256","name":"user_id","type":"uint256"},{"internalType":"string","name":"date","type":"string"},{"internalType":"uint256","name":"trial_id","type":"uint256"}],"name":"CreateCompletedSurveys","outputs":[],"stateMutability":"nonpayable","type":"function"},{"inputs":[{"internalType":"uint256","name":"trial_id","type":"uint256"},{"internalType":"uint256","name":"user_id","type":"uint256"},{"internalType":"string","name":"date","type":"string"},{"internalType":"string","name":"given_permission","type":"string"}],"name":"CreateOngoingTrail","outputs":[],"stateMutability":"nonpayable","type":"function"},{"inputs":[{"internalType":"uint256","name":"survey_id","type":"uint256"},{"internalType":"string","name":"metadata","type":"string"}],"name":"CreateOrSaveSections","outputs":[],"stateMutability":"nonpayable","type":"function"},{"inputs":[{"internalType":"uint256","name":"trial_id","type":"uint256"},{"internalType":"uint256","name":"user_id","type":"uint256"},{"internalType":"uint256","name":"survey_id","type":"uint256"},{"internalType":"string","name":"section_id","type":"string"},{"internalType":"string","name":"question_id","type":"string"},{"internalType":"string","name":"answer","type":"string"}],"name":"CreateQuestionAnswer","outputs":[],"stateMutability":"nonpayable","type":"function"},{"inputs":[{"internalType":"uint256","name":"trial_id","type":"uint256"},{"internalType":"uint256","name":"user_id","type":"uint256"},{"internalType":"string","name":"name","type":"string"},{"internalType":"string","name":"description","type":"string"},{"internalType":"string","name":"date","type":"string"},{"internalType":"string","name":"image","type":"string"},{"internalType":"uint256","name":"reward","type":"uint256"}],"name":"CreateSurvey","outputs":[],"stateMutability":"nonpayable","type":"function"},{"inputs":[{"internalType":"string","name":"name","type":"string"},{"internalType":"string","name":"image","type":"string"}],"name":"CreateSurveyCategory","outputs":[],"stateMutability":"nonpayable","type":"function"},{"inputs":[{"internalType":"uint256","name":"user_id","type":"uint256"},{"internalType":"string","name":"image","type":"string"},{"internalType":"string","name":"title","type":"string"},{"internalType":"string","name":"description","type":"string"},{"internalType":"string","name":"permission","type":"string"},{"internalType":"uint256","name":"contributors","type":"uint256"},{"internalType":"uint256","name":"audience","type":"uint256"},{"internalType":"uint256","name":"budget","type":"uint256"}],"name":"CreateTrial","outputs":[],"stateMutability":"nonpayable","type":"function"},{"inputs":[{"internalType":"uint256","name":"user_id","type":"uint256"}],"name":"GetOngoingTrial","outputs":[{"internalType":"string","name":"","type":"string"}],"stateMutability":"view","type":"function"},{"inputs":[{"internalType":"string","name":"email","type":"string"},{"internalType":"string","name":"password","type":"string"}],"name":"Login","outputs":[{"internalType":"string","name":"","type":"string"}],"stateMutability":"view","type":"function"},{"inputs":[{"internalType":"uint256","name":"userid","type":"uint256"},{"internalType":"string","name":"accesstoken","type":"string"}],"name":"UpdateAccessToken","outputs":[],"stateMutability":"nonpayable","type":"function"},{"inputs":[{"internalType":"uint256","name":"trial_id","type":"uint256"},{"internalType":"string","name":"audience_info","type":"string"}],"name":"UpdateAudience","outputs":[],"stateMutability":"nonpayable","type":"function"},{"inputs":[{"internalType":"uint256","name":"user_id","type":"uint256"},{"internalType":"string","name":"family_name","type":"string"},{"internalType":"string","name":"given_name","type":"string"},{"internalType":"string","name":"identifier","type":"string"},{"internalType":"string","name":"phone","type":"string"},{"internalType":"string","name":"gender","type":"string"},{"internalType":"string","name":"about","type":"string"},{"internalType":"string","name":"patient_id","type":"string"}],"name":"UpdateFhir","outputs":[],"stateMutability":"nonpayable","type":"function"},{"inputs":[{"internalType":"uint256","name":"userid","type":"uint256"},{"internalType":"string","name":"privatekey","type":"string"}],"name":"UpdatePrivatekey","outputs":[],"stateMutability":"nonpayable","type":"function"},{"inputs":[{"internalType":"uint256","name":"trial_id","type":"uint256"},{"internalType":"string","name":"reward_type","type":"string"},{"internalType":"uint256","name":"reward_price","type":"uint256"},{"internalType":"uint256","name":"total_spending_limit","type":"uint256"}],"name":"UpdateReward","outputs":[],"stateMutability":"nonpayable","type":"function"},{"inputs":[{"internalType":"uint256","name":"survey_id","type":"uint256"},{"internalType":"string","name":"name","type":"string"},{"internalType":"string","name":"description","type":"string"},{"internalType":"string","name":"image","type":"string"},{"internalType":"uint256","name":"reward","type":"uint256"}],"name":"UpdateSurvey","outputs":[],"stateMutability":"nonpayable","type":"function"},{"inputs":[{"internalType":"uint256","name":"trial_id","type":"uint256"},{"internalType":"string","name":"image","type":"string"},{"internalType":"string","name":"title","type":"string"},{"internalType":"string","name":"description","type":"string"},{"internalType":"uint256","name":"budget","type":"uint256"}],"name":"UpdateTrial","outputs":[],"stateMutability":"nonpayable","type":"function"},{"inputs":[{"internalType":"uint256","name":"user_id","type":"uint256"},{"internalType":"string","name":"image","type":"string"},{"internalType":"uint256","name":"credits","type":"uint256"}],"name":"UpdateUser","outputs":[],"stateMutability":"nonpayable","type":"function"},{"inputs":[],"name":"_AnsweredIds","outputs":[{"internalType":"uint256","name":"","type":"uint256"}],"stateMutability":"view","type":"function"},{"inputs":[],"name":"_CompletedSurveyIds","outputs":[{"internalType":"uint256","name":"","type":"uint256"}],"stateMutability":"view","type":"function"},{"inputs":[],"name":"_FhirIds","outputs":[{"internalType":"uint256","name":"","type":"uint256"}],"stateMutability":"view","type":"function"},{"inputs":[],"name":"_OngoingIds","outputs":[{"internalType":"uint256","name":"","type":"uint256"}],"stateMutability":"view","type":"function"},{"inputs":[],"name":"_SurveyCategoryIds","outputs":[{"internalType":"uint256","name":"","type":"uint256"}],"stateMutability":"view","type":"function"},{"inputs":[],"name":"_SurveyIds","outputs":[{"internalType":"uint256","name":"","type":"uint256"}],"stateMutability":"view","type":"function"},{"inputs":[],"name":"_TrialIds","outputs":[{"internalType":"uint256","name":"","type":"uint256"}],"stateMutability":"view","type":"function"},{"inputs":[],"name":"_UserIds","outputs":[{"internalType":"uint256","name":"","type":"uint256"}],"stateMutability":"view","type":"function"},{"inputs":[{"internalType":"uint256","name":"","type":"uint256"}],"name":"_categoryMap","outputs":[{"internalType":"string","name":"name","type":"string"},{"internalType":"string","name":"image","type":"string"}],"stateMutability":"view","type":"function"},{"inputs":[{"internalType":"uint256","name":"","type":"uint256"}],"name":"_completedsurveyMap","outputs":[{"internalType":"uint256","name":"completed_survey_id","type":"uint256"},{"internalType":"uint256","name":"trial_id","type":"uint256"},{"internalType":"uint256","name":"user_id","type":"uint256"},{"internalType":"uint256","name":"survey_id","type":"uint256"},{"internalType":"string","name":"date","type":"string"}],"stateMutability":"view","type":"function"},{"inputs":[{"internalType":"uint256","name":"","type":"uint256"}],"name":"_fhirMap","outputs":[{"internalType":"uint256","name":"user_id","type":"uint256"},{"internalType":"string","name":"family_name","type":"string"},{"internalType":"string","name":"given_name","type":"string"},{"internalType":"string","name":"identifier","type":"string"},{"internalType":"string","name":"phone","type":"string"},{"internalType":"string","name":"gender","type":"string"},{"internalType":"string","name":"about","type":"string"},{"internalType":"string","name":"patient_id","type":"string"}],"stateMutability":"view","type":"function"},{"inputs":[{"internalType":"uint256","name":"","type":"uint256"}],"name":"_ongoingMap","outputs":[{"internalType":"uint256","name":"ongoing_id","type":"uint256"},{"internalType":"uint256","name":"trial_id","type":"uint256"},{"internalType":"uint256","name":"user_id","type":"uint256"},{"internalType":"string","name":"date","type":"string"},{"internalType":"string","name":"given_permission","type":"string"}],"stateMutability":"view","type":"function"},{"inputs":[{"internalType":"uint256","name":"","type":"uint256"}],"name":"_questionanswerdMap","outputs":[{"internalType":"uint256","name":"answer_id","type":"uint256"},{"internalType":"uint256","name":"trial_id","type":"uint256"},{"internalType":"uint256","name":"user_id","type":"uint256"},{"internalType":"uint256","name":"survey_id","type":"uint256"},{"internalType":"string","name":"section_id","type":"string"},{"internalType":"string","name":"question_id","type":"string"},{"internalType":"string","name":"answer","type":"string"}],"stateMutability":"view","type":"function"},{"inputs":[{"internalType":"uint256","name":"","type":"uint256"}],"name":"_sectionsMap","outputs":[{"internalType":"string","name":"","type":"string"}],"stateMutability":"view","type":"function"},{"inputs":[{"internalType":"uint256","name":"","type":"uint256"}],"name":"_surveyMap","outputs":[{"internalType":"uint256","name":"survey_id","type":"uint256"},{"internalType":"uint256","name":"trial_id","type":"uint256"},{"internalType":"uint256","name":"user_id","type":"uint256"},{"internalType":"string","name":"name","type":"string"},{"internalType":"string","name":"description","type":"string"},{"internalType":"string","name":"date","type":"string"},{"internalType":"string","name":"image","type":"string"},{"internalType":"uint256","name":"reward","type":"uint256"},{"internalType":"uint256","name":"submission","type":"uint256"}],"stateMutability":"view","type":"function"},{"inputs":[{"internalType":"uint256","name":"","type":"uint256"}],"name":"_trialAudienceMap","outputs":[{"internalType":"string","name":"","type":"string"}],"stateMutability":"view","type":"function"},{"inputs":[{"internalType":"uint256","name":"","type":"uint256"}],"name":"_trialMap","outputs":[{"internalType":"uint256","name":"trial_id","type":"uint256"},{"internalType":"uint256","name":"user_id","type":"uint256"},{"internalType":"string","name":"image","type":"string"},{"internalType":"string","name":"title","type":"string"},{"internalType":"string","name":"description","type":"string"},{"internalType":"string","name":"permission","type":"string"},{"internalType":"uint256","name":"contributors","type":"uint256"},{"internalType":"uint256","name":"audience","type":"uint256"},{"internalType":"uint256","name":"budget","type":"uint256"},{"internalType":"string","name":"reward_type","type":"string"},{"internalType":"uint256","name":"reward_price","type":"uint256"},{"internalType":"uint256","name":"total_spending_limit","type":"uint256"}],"stateMutability":"view","type":"function"},{"inputs":[{"internalType":"uint256","name":"survey_id","type":"uint256"}],"name":"delete_a_servey","outputs":[],"stateMutability":"nonpayable","type":"function"},{"inputs":[{"internalType":"uint256","name":"trial_id","type":"uint256"}],"name":"delete_a_trial","outputs":[],"stateMutability":"nonpayable","type":"function"},{"inputs":[{"internalType":"uint256","name":"user_id","type":"uint256"}],"name":"getAllCompletedSurveysIDByUser","outputs":[{"internalType":"uint256[]","name":"","type":"uint256[]"}],"stateMutability":"view","type":"function"},{"inputs":[{"internalType":"uint256","name":"trial_id","type":"uint256"}],"name":"getAllSurveysIDByTrial","outputs":[{"internalType":"uint256[]","name":"","type":"uint256[]"}],"stateMutability":"view","type":"function"},{"inputs":[{"internalType":"uint256","name":"user_id","type":"uint256"}],"name":"getUserDetails","outputs":[{"internalType":"string","name":"","type":"string"},{"internalType":"uint256","name":"","type":"uint256"},{"internalType":"string","name":"","type":"string"},{"internalType":"string","name":"","type":"string"},{"internalType":"string","name":"","type":"string"},{"internalType":"string","name":"","type":"string"},{"internalType":"uint256","name":"","type":"uint256"}],"stateMutability":"view","type":"function"},{"inputs":[],"name":"owner","outputs":[{"internalType":"address","name":"","type":"address"}],"stateMutability":"view","type":"function"},{"inputs":[],"name":"reset_all","outputs":[],"stateMutability":"nonpayable","type":"function"},{"inputs":[{"internalType":"uint256","name":"user_id","type":"uint256"}],"name":"reset_app","outputs":[],"stateMutability":"nonpayable","type":"function"}],"devdoc":{"kind":"dev","methods":{},"version":1},"evm":{"bytecode":{"linkReferences":{},"object":"608060405234801561001057600080fd5b50614f28806100206000396000f3fe608060405234801561001057600080fd5b50600436106102745760003560e01c806390b18a7811610151578063cfdb2863116100c3578063ea7efaa611610087578063ea7efaa61461078a578063eb6b2870146107ba578063ebe197ca146107d8578063f0d8e8731461080f578063f6aaa80414610840578063f8b7800f1461087457610274565b8063cfdb2863146106e2578063dcdd86d5146106fe578063de7acfd71461071a578063e1da993f14610752578063e57f973f1461076e57610274565b8063b6e604bd11610115578063b6e604bd146105e9578063bed208fe14610607578063c13b283614610642578063ccef421814610678578063cdb9b58f146106a8578063ce08988c146106c457610274565b806390b18a781461055557806390d6cf0514610571578063ac7aef0e146105a5578063ad23f8f9146105c3578063b16060a6146105df57610274565b806355391705116101ea5780636f4fe9c5116101ae5780636f4fe9c51461049557806370da4ae1146104b15780637c15641a146104cd5780637d423e10146104eb5780638da5cb5b14610507578063902841d41461052557610274565b806355391705146103f55780635f27aea11461041157806366cad7341461042d578063682d562b146104495780636c067b481461047957610274565b80632a8caf4a1161023c5780632a8caf4a146103255780633896f130146103555780633eebd0d01461037157806349b9b07b1461038d5780634f8b36eb146103bd57806350b37d64146103d957610274565b806301c66109146102795780631429f775146102975780631c1a9f7b146102b55780631e178956146102eb57806329b3642314610307575b600080fd5b6102816108a4565b60405161028e9190614795565b60405180910390f35b61029f6108aa565b6040516102ac9190614795565b60405180910390f35b6102cf60048036038101906102ca9190613cfc565b6108b0565b6040516102e29796959493929190614703565b60405180910390f35b61030560048036038101906103009190613cfc565b610c2d565b005b61030f610dc4565b60405161031c9190614795565b60405180910390f35b61033f600480360381019061033a9190613cfc565b610dca565b60405161034c91906146aa565b60405180910390f35b61036f600480360381019061036a9190614285565b610e6a565b005b61038b60048036038101906103869190614163565b610f8d565b005b6103a760048036038101906103a29190613cfc565b610ff4565b6040516103b49190614688565b60405180910390f35b6103d760048036038101906103d29190613b7d565b61110c565b005b6103f360048036038101906103ee9190613d85565b61118f565b005b61040f600480360381019061040a9190614025565b6112e1565b005b61042b60048036038101906104269190614025565b611384565b005b61044760048036038101906104429190613d29565b611427565b005b610463600480360381019061045e9190613cfc565b611453565b6040516104709190614688565b60405180910390f35b610493600480360381019061048e919061441a565b61156b565b005b6104af60048036038101906104aa9190613eff565b611657565b005b6104cb60048036038101906104c69190613cfc565b6117f6565b005b6104d56119c2565b6040516104e29190614795565b60405180910390f35b61050560048036038101906105009190614397565b6119c8565b005b61050f611ac5565b60405161051c919061466d565b60405180910390f35b61053f600480360381019061053a9190613cfc565b611aeb565b60405161054c91906146aa565b60405180910390f35b61056f600480360381019061056a9190613d29565b611b91565b005b61058b60048036038101906105869190613cfc565b611bc0565b60405161059c959493929190614a46565b60405180910390f35b6105ad611c7e565b6040516105ba9190614795565b60405180910390f35b6105dd60048036038101906105d89190613d29565b611c84565b005b6105e7611cb0565b005b6105f16121e9565b6040516105fe9190614795565b60405180910390f35b610621600480360381019061061c9190613cfc565b6121ef565b6040516106399c9b9a9998979695949392919061485f565b60405180910390f35b61065c60048036038101906106579190613cfc565b6124f7565b60405161066f9796959493929190614aa0565b60405180910390f35b610692600480360381019061068d9190613b7d565b6126d1565b60405161069f91906146aa565b60405180910390f35b6106c260048036038101906106bd91906141e6565b6127b9565b005b6106cc61289e565b6040516106d99190614795565b60405180910390f35b6106fc60048036038101906106f79190613bf5565b6128a4565b005b61071860048036038101906107139190613cfc565b612a35565b005b610734600480360381019061072f9190613cfc565b612cee565b6040516107499998979695949392919061499d565b60405180910390f35b61076c60048036038101906107679190613d29565b612f5c565b005b610788600480360381019061078391906140f4565b612f8b565b005b6107a4600480360381019061079f9190613cfc565b612fd6565b6040516107b191906146aa565b60405180910390f35b6107c2613076565b6040516107cf9190614795565b60405180910390f35b6107f260048036038101906107ed9190613cfc565b61307c565b6040516108069897969594939291906147b0565b60405180910390f35b61082960048036038101906108249190613cfc565b61347c565b6040516108379291906146cc565b60405180910390f35b61085a60048036038101906108559190613cfc565b6135b0565b60405161086b95949392919061493c565b60405180910390f35b61088e60048036038101906108899190613b34565b6136f6565b60405161089b91906146aa565b60405180910390f35b60065481565b60035481565b60606000606080606080600060086000898152602001908152602001600020600601600860008a815260200190815260200160002060070154600860008b8152602001908152602001600020600101600860008c8152602001908152602001600020600201600860008d8152602001908152602001600020600501600860008e8152602001908152602001600020600801600860008f81526020019081526020016000206009015486805461096490614cf7565b80601f016020809104026020016040519081016040528092919081815260200182805461099090614cf7565b80156109dd5780601f106109b2576101008083540402835291602001916109dd565b820191906000526020600020905b8154815290600101906020018083116109c057829003601f168201915b505050505096508480546109f090614cf7565b80601f0160208091040260200160405190810160405280929190818152602001828054610a1c90614cf7565b8015610a695780601f10610a3e57610100808354040283529160200191610a69565b820191906000526020600020905b815481529060010190602001808311610a4c57829003601f168201915b50505050509450838054610a7c90614cf7565b80601f0160208091040260200160405190810160405280929190818152602001828054610aa890614cf7565b8015610af55780601f10610aca57610100808354040283529160200191610af5565b820191906000526020600020905b815481529060010190602001808311610ad857829003601f168201915b50505050509350828054610b0890614cf7565b80601f0160208091040260200160405190810160405280929190818152602001828054610b3490614cf7565b8015610b815780601f10610b5657610100808354040283529160200191610b81565b820191906000526020600020905b815481529060010190602001808311610b6457829003601f168201915b50505050509250818054610b9490614cf7565b80601f0160208091040260200160405190810160405280929190818152602001828054610bc090614cf7565b8015610c0d5780601f10610be257610100808354040283529160200191610c0d565b820191906000526020600020905b815481529060010190602001808311610bf057829003601f168201915b505050505091509650965096509650965096509650919395979092949650565b600960008281526020019081526020016000206000808201600090556001820160009055600282016000610c6191906139cc565b600382016000610c7191906139cc565b600482016000610c8191906139cc565b600582016000610c9191906139cc565b600682016000905560078201600090556008820160009055600982016000610cb991906139cc565b600a820160009055600b8201600090555050600a60008281526020019081526020016000206000610cea91906139cc565b60005b600354811015610d325781600b6000838152602001908152602001600020600101541415610d1f57610d1e816117f6565b5b8080610d2a90614d5a565b915050610ced565b5060005b600554811015610dc05781600f6000838152602001908152602001600020600101541415610dad57600f600082815260200190815260200160002060008082016000905560018201600090556002820160009055600382016000610d9a91906139cc565b600482016000610daa91906139cc565b50505b8080610db890614d5a565b915050610d36565b5050565b60045481565b600a6020528060005260406000206000915090508054610de990614cf7565b80601f0160208091040260200160405190810160405280929190818152602001828054610e1590614cf7565b8015610e625780601f10610e3757610100808354040283529160200191610e62565b820191906000526020600020905b815481529060010190602001808311610e4557829003601f168201915b505050505081565b60405180610120016040528060035481526020018881526020018781526020018681526020018581526020018481526020018381526020018281526020016000815250600b600060035481526020019081526020016000206000820151816000015560208201518160010155604082015181600201556060820151816003019080519060200190610efc929190613a0c565b506080820151816004019080519060200190610f19929190613a0c565b5060a0820151816005019080519060200190610f36929190613a0c565b5060c0820151816006019080519060200190610f53929190613a0c565b5060e08201518160070155610100820151816008015590505060036000815480929190610f7f90614d5a565b919050555050505050505050565b82600960008681526020019081526020016000206009019080519060200190610fb7929190613a0c565b508160096000868152602001908152602001600020600a01819055508060096000868152602001908152602001600020600b018190555050505050565b60606000805b60075481101561104457836011600083815260200190815260200160002060020154141561103157818061102d90614d5a565b9250505b808061103c90614d5a565b915050610ffa565b5060008167ffffffffffffffff81111561106157611060614e5f565b5b60405190808252806020026020018201604052801561108f5781602001602082028036833780820191505090505b5090506000805b6007548110156111005785601160008381526020019081526020016000206002015414156110ed57808383815181106110d2576110d1614e30565b5b60200260200101818152505081806110e990614d5a565b9250505b80806110f890614d5a565b915050611096565b50819350505050919050565b604051806040016040528083815260200182815250600c600060045481526020019081526020016000206000820151816000019080519060200190611152929190613a0c565b50602082015181600101908051906020019061116f929190613a0c565b509050506004600081548092919061118690614d5a565b91905055505050565b87600e60008a81526020019081526020016000206000018190555086600e60008a815260200190815260200160002060010190805190602001906111d4929190613a0c565b5085600e60008a815260200190815260200160002060020190805190602001906111ff929190613a0c565b5084600e60008a8152602001908152602001600020600301908051906020019061122a929190613a0c565b5083600e60008a81526020019081526020016000206004019080519060200190611255929190613a0c565b5082600e60008a81526020019081526020016000206005019080519060200190611280929190613a0c565b5081600e60008a815260200190815260200160002060060190805190602001906112ab929190613a0c565b5080600e60008a815260200190815260200160002060070190805190602001906112d6929190613a0c565b505050505050505050565b8360096000878152602001908152602001600020600201908051906020019061130b929190613a0c565b5082600960008781526020019081526020016000206003019080519060200190611336929190613a0c565b5081600960008781526020019081526020016000206004019080519060200190611361929190613a0c565b508060096000878152602001908152602001600020600801819055505050505050565b83600b600087815260200190815260200160002060030190805190602001906113ae929190613a0c565b5082600b600087815260200190815260200160002060040190805190602001906113d9929190613a0c565b5081600b60008781526020019081526020016000206006019080519060200190611404929190613a0c565b5080600b6000878152602001908152602001600020600701819055505050505050565b80600d6000848152602001908152602001600020908051906020019061144e929190613a0c565b505050565b60606000805b6003548110156114a35783600b600083815260200190815260200160002060010154141561149057818061148c90614d5a565b9250505b808061149b90614d5a565b915050611459565b5060008167ffffffffffffffff8111156114c0576114bf614e5f565b5b6040519080825280602002602001820160405280156114ee5781602001602082028036833780820191505090505b5090506000805b60035481101561155f5785600b600083815260200190815260200160002060010154141561154c578083838151811061153157611530614e30565b5b602002602001018181525050818061154890614d5a565b9250505b808061155790614d5a565b9150506114f5565b50819350505050919050565b6040518060e001604052806006548152602001878152602001868152602001858152602001848152602001838152602001828152506010600060065481526020019081526020016000206000820151816000015560208201518160010155604082015181600201556060820151816003015560808201518160040190805190602001906115f9929190613a0c565b5060a0820151816005019080519060200190611616929190613a0c565b5060c0820151816006019080519060200190611633929190613a0c565b509050506006600081548092919061164a90614d5a565b9190505550505050505050565b60405180610180016040528060025481526020018981526020018881526020018781526020018681526020018581526020018481526020018381526020018281526020016040518060400160405280600681526020017f7445564d4f5300000000000000000000000000000000000000000000000000008152508152602001600081526020018281525060096000600254815260200190815260200160002060008201518160000155602082015181600101556040820151816002019080519060200190611726929190613a0c565b506060820151816003019080519060200190611743929190613a0c565b506080820151816004019080519060200190611760929190613a0c565b5060a082015181600501908051906020019061177d929190613a0c565b5060c0820151816006015560e0820151816007015561010082015181600801556101208201518160090190805190602001906117ba929190613a0c565b5061014082015181600a015561016082015181600b0155905050600260008154809291906117e790614d5a565b91905055505050505050505050565b600b60008281526020019081526020016000206000808201600090556001820160009055600282016000905560038201600061183291906139cc565b60048201600061184291906139cc565b60058201600061185291906139cc565b60068201600061186291906139cc565b600782016000905560088201600090555050600d6000828152602001908152602001600020600061189391906139cc565b60005b600654811015611938578160106000838152602001908152602001600020600301541415611925576010600082815260200190815260200160002060008082016000905560018201600090556002820160009055600382016000905560048201600061190291906139cc565b60058201600061191291906139cc565b60068201600061192291906139cc565b50505b808061193090614d5a565b915050611896565b5060005b6007548110156119be5781601160008381526020019081526020016000206003015414156119ab57601160008281526020019081526020016000206000808201600090556001820160009055600282016000905560038201600090556004820160006119a891906139cc565b50505b80806119b690614d5a565b91505061193c565b5050565b60015481565b6040518060a00160405280600754815260200182815260200184815260200185815260200183815250601160006007548152602001908152602001600020600082015181600001556020820151816001015560408201518160020155606082015181600301556080820151816004019080519060200190611a4a929190613a0c565b509050506001600b60008681526020019081526020016000206008016000828254611a759190614bef565b9250508190555081600b60008681526020019081526020016000206005019080519060200190611aa6929190613a0c565b5060076000815480929190611aba90614d5a565b919050555050505050565b601260009054906101000a900473ffffffffffffffffffffffffffffffffffffffff1681565b606060005b600554811015611b525782600f6000838152602001908152602001600020600201541415611b3f57611b37600f6000838152602001908152602001600020600101546137a1565b915050611b8c565b8080611b4a90614d5a565b915050611af0565b506040518060400160405280600581526020017f46616c736500000000000000000000000000000000000000000000000000000081525090505b919050565b80600860008481526020019081526020016000206008019080519060200190611bbb929190613a0c565b505050565b6011602052806000526040600020600091509050806000015490806001015490806002015490806003015490806004018054611bfb90614cf7565b80601f0160208091040260200160405190810160405280929190818152602001828054611c2790614cf7565b8015611c745780601f10611c4957610100808354040283529160200191611c74565b820191906000526020600020905b815481529060010190602001808311611c5757829003601f168201915b5050505050905085565b60025481565b80600a60008481526020019081526020016000209080519060200190611cab929190613a0c565b505050565b60005b600054811015611d6e5760086000828152602001908152602001600020600080820160009055600182016000611ce991906139cc565b600282016000611cf991906139cc565b600382016000611d0991906139cc565b600482016000611d1991906139cc565b600582016000611d2991906139cc565b600682016000611d3991906139cc565b6007820160009055600882016000611d5191906139cc565b600982016000905550508080611d6690614d5a565b915050611cb3565b5060005b600254811015611e2d57600960008281526020019081526020016000206000808201600090556001820160009055600282016000611db091906139cc565b600382016000611dc091906139cc565b600482016000611dd091906139cc565b600582016000611de091906139cc565b600682016000905560078201600090556008820160009055600982016000611e0891906139cc565b600a820160009055600b82016000905550508080611e2590614d5a565b915050611d72565b5060005b600254811015611e6d57600a60008281526020019081526020016000206000611e5a91906139cc565b8080611e6590614d5a565b915050611e31565b5060005b600354811015611f0c57600b600082815260200190815260200160002060008082016000905560018201600090556002820160009055600382016000611eb791906139cc565b600482016000611ec791906139cc565b600582016000611ed791906139cc565b600682016000611ee791906139cc565b6007820160009055600882016000905550508080611f0490614d5a565b915050611e71565b5060005b600454811015611f6357600c600082815260200190815260200160002060008082016000611f3e91906139cc565b600182016000611f4e91906139cc565b50508080611f5b90614d5a565b915050611f10565b5060005b600254811015611fa357600d60008281526020019081526020016000206000611f9091906139cc565b8080611f9b90614d5a565b915050611f67565b5060005b60005481101561205257600e6000828152602001908152602001600020600080820160009055600182016000611fdd91906139cc565b600282016000611fed91906139cc565b600382016000611ffd91906139cc565b60048201600061200d91906139cc565b60058201600061201d91906139cc565b60068201600061202d91906139cc565b60078201600061203d91906139cc565b5050808061204a90614d5a565b915050611fa7565b5060005b6005548110156120c157600f60008281526020019081526020016000206000808201600090556001820160009055600282016000905560038201600061209c91906139cc565b6004820160006120ac91906139cc565b505080806120b990614d5a565b915050612056565b5060005b600654811015612148576010600082815260200190815260200160002060008082016000905560018201600090556002820160009055600382016000905560048201600061211391906139cc565b60058201600061212391906139cc565b60068201600061213391906139cc565b5050808061214090614d5a565b9150506120c5565b5060005b6007548110156121af576011600082815260200190815260200160002060008082016000905560018201600090556002820160009055600382016000905560048201600061219a91906139cc565b505080806121a790614d5a565b91505061214c565b5060008081905550600060028190555060006003819055506000600481905550600060058190555060006006819055506000600781905550565b60075481565b600960205280600052604060002060009150905080600001549080600101549080600201805461221e90614cf7565b80601f016020809104026020016040519081016040528092919081815260200182805461224a90614cf7565b80156122975780601f1061226c57610100808354040283529160200191612297565b820191906000526020600020905b81548152906001019060200180831161227a57829003601f168201915b5050505050908060030180546122ac90614cf7565b80601f01602080910402602001604051908101604052809291908181526020018280546122d890614cf7565b80156123255780601f106122fa57610100808354040283529160200191612325565b820191906000526020600020905b81548152906001019060200180831161230857829003601f168201915b50505050509080600401805461233a90614cf7565b80601f016020809104026020016040519081016040528092919081815260200182805461236690614cf7565b80156123b35780601f10612388576101008083540402835291602001916123b3565b820191906000526020600020905b81548152906001019060200180831161239657829003601f168201915b5050505050908060050180546123c890614cf7565b80601f01602080910402602001604051908101604052809291908181526020018280546123f490614cf7565b80156124415780601f1061241657610100808354040283529160200191612441565b820191906000526020600020905b81548152906001019060200180831161242457829003601f168201915b50505050509080600601549080600701549080600801549080600901805461246890614cf7565b80601f016020809104026020016040519081016040528092919081815260200182805461249490614cf7565b80156124e15780601f106124b6576101008083540402835291602001916124e1565b820191906000526020600020905b8154815290600101906020018083116124c457829003601f168201915b50505050509080600a01549080600b015490508c565b601060205280600052604060002060009150905080600001549080600101549080600201549080600301549080600401805461253290614cf7565b80601f016020809104026020016040519081016040528092919081815260200182805461255e90614cf7565b80156125ab5780601f10612580576101008083540402835291602001916125ab565b820191906000526020600020905b81548152906001019060200180831161258e57829003601f168201915b5050505050908060050180546125c090614cf7565b80601f01602080910402602001604051908101604052809291908181526020018280546125ec90614cf7565b80156126395780601f1061260e57610100808354040283529160200191612639565b820191906000526020600020905b81548152906001019060200180831161261c57829003601f168201915b50505050509080600601805461264e90614cf7565b80601f016020809104026020016040519081016040528092919081815260200182805461267a90614cf7565b80156126c75780601f1061269c576101008083540402835291602001916126c7565b820191906000526020600020905b8154815290600101906020018083116126aa57829003601f168201915b5050505050905087565b606060005b6000548110156127795783805190602001206008600083815260200190815260200160002060020160405161270b9190614656565b604051809103902014801561275057508280519060200120600860008381526020019081526020016000206003016040516127469190614656565b6040518091039020145b156127665761275e816137a1565b9150506127b3565b808061277190614d5a565b9150506126d6565b506040518060400160405280600581526020017f46616c736500000000000000000000000000000000000000000000000000000081525090505b92915050565b6040518060a00160405280600554815260200185815260200184815260200183815260200182815250600f600060055481526020019081526020016000206000820151816000015560208201518160010155604082015181600201556060820151816003019080519060200190612831929190613a0c565b50608082015181600401908051906020019061284e929190613a0c565b5090505060016009600086815260200190815260200160002060060160008282546128799190614bef565b925050819055506005600081548092919061289390614d5a565b919050555050505050565b60005481565b6040518061014001604052806000548152602001868152602001858152602001848152602001828152602001604051806020016040528060008152508152602001604051806060016040528060288152602001614ecb602891398152602001600081526020018381526020016000815250600860008054815260200190815260200160002060008201518160000155602082015181600101908051906020019061294f929190613a0c565b50604082015181600201908051906020019061296c929190613a0c565b506060820151816003019080519060200190612989929190613a0c565b5060808201518160040190805190602001906129a6929190613a0c565b5060a08201518160050190805190602001906129c3929190613a0c565b5060c08201518160060190805190602001906129e0929190613a0c565b5060e08201518160070155610100820151816008019080519060200190612a08929190613a0c565b506101208201518160090155905050600080815480929190612a2990614d5a565b91905055505050505050565b60086000828152602001908152602001600020600080820160009055600182016000612a6191906139cc565b600282016000612a7191906139cc565b600382016000612a8191906139cc565b600482016000612a9191906139cc565b600582016000612aa191906139cc565b600682016000612ab191906139cc565b6007820160009055600882016000612ac991906139cc565b60098201600090555050600e6000828152602001908152602001600020600080820160009055600182016000612aff91906139cc565b600282016000612b0f91906139cc565b600382016000612b1f91906139cc565b600482016000612b2f91906139cc565b600582016000612b3f91906139cc565b600682016000612b4f91906139cc565b600782016000612b5f91906139cc565b505060005b600554811015612bcf57600f600082815260200190815260200160002060008082016000905560018201600090556002820160009055600382016000612baa91906139cc565b600482016000612bba91906139cc565b50508080612bc790614d5a565b915050612b64565b5060005b600654811015612c565760106000828152602001908152602001600020600080820160009055600182016000905560028201600090556003820160009055600482016000612c2191906139cc565b600582016000612c3191906139cc565b600682016000612c4191906139cc565b50508080612c4e90614d5a565b915050612bd3565b5060005b600754811015612cbd5760116000828152602001908152602001600020600080820160009055600182016000905560028201600090556003820160009055600482016000612ca891906139cc565b50508080612cb590614d5a565b915050612c5a565b506001600054612ccd9190614c45565b60008190555060006005819055506000600681905550600060078190555050565b600b602052806000526040600020600091509050806000015490806001015490806002015490806003018054612d2390614cf7565b80601f0160208091040260200160405190810160405280929190818152602001828054612d4f90614cf7565b8015612d9c5780601f10612d7157610100808354040283529160200191612d9c565b820191906000526020600020905b815481529060010190602001808311612d7f57829003601f168201915b505050505090806004018054612db190614cf7565b80601f0160208091040260200160405190810160405280929190818152602001828054612ddd90614cf7565b8015612e2a5780601f10612dff57610100808354040283529160200191612e2a565b820191906000526020600020905b815481529060010190602001808311612e0d57829003601f168201915b505050505090806005018054612e3f90614cf7565b80601f0160208091040260200160405190810160405280929190818152602001828054612e6b90614cf7565b8015612eb85780601f10612e8d57610100808354040283529160200191612eb8565b820191906000526020600020905b815481529060010190602001808311612e9b57829003601f168201915b505050505090806006018054612ecd90614cf7565b80601f0160208091040260200160405190810160405280929190818152602001828054612ef990614cf7565b8015612f465780601f10612f1b57610100808354040283529160200191612f46565b820191906000526020600020905b815481529060010190602001808311612f2957829003601f168201915b5050505050908060070154908060080154905089565b80600860008481526020019081526020016000206005019080519060200190612f86929190613a0c565b505050565b81600860008581526020019081526020016000206006019080519060200190612fb5929190613a0c565b50806008600085815260200190815260200160002060070181905550505050565b600d6020528060005260406000206000915090508054612ff590614cf7565b80601f016020809104026020016040519081016040528092919081815260200182805461302190614cf7565b801561306e5780601f106130435761010080835404028352916020019161306e565b820191906000526020600020905b81548152906001019060200180831161305157829003601f168201915b505050505081565b60055481565b600e6020528060005260406000206000915090508060000154908060010180546130a590614cf7565b80601f01602080910402602001604051908101604052809291908181526020018280546130d190614cf7565b801561311e5780601f106130f35761010080835404028352916020019161311e565b820191906000526020600020905b81548152906001019060200180831161310157829003601f168201915b50505050509080600201805461313390614cf7565b80601f016020809104026020016040519081016040528092919081815260200182805461315f90614cf7565b80156131ac5780601f10613181576101008083540402835291602001916131ac565b820191906000526020600020905b81548152906001019060200180831161318f57829003601f168201915b5050505050908060030180546131c190614cf7565b80601f01602080910402602001604051908101604052809291908181526020018280546131ed90614cf7565b801561323a5780601f1061320f5761010080835404028352916020019161323a565b820191906000526020600020905b81548152906001019060200180831161321d57829003601f168201915b50505050509080600401805461324f90614cf7565b80601f016020809104026020016040519081016040528092919081815260200182805461327b90614cf7565b80156132c85780601f1061329d576101008083540402835291602001916132c8565b820191906000526020600020905b8154815290600101906020018083116132ab57829003601f168201915b5050505050908060050180546132dd90614cf7565b80601f016020809104026020016040519081016040528092919081815260200182805461330990614cf7565b80156133565780601f1061332b57610100808354040283529160200191613356565b820191906000526020600020905b81548152906001019060200180831161333957829003601f168201915b50505050509080600601805461336b90614cf7565b80601f016020809104026020016040519081016040528092919081815260200182805461339790614cf7565b80156133e45780601f106133b9576101008083540402835291602001916133e4565b820191906000526020600020905b8154815290600101906020018083116133c757829003601f168201915b5050505050908060070180546133f990614cf7565b80601f016020809104026020016040519081016040528092919081815260200182805461342590614cf7565b80156134725780601f1061344757610100808354040283529160200191613472565b820191906000526020600020905b81548152906001019060200180831161345557829003601f168201915b5050505050905088565b600c60205280600052604060002060009150905080600001805461349f90614cf7565b80601f01602080910402602001604051908101604052809291908181526020018280546134cb90614cf7565b80156135185780601f106134ed57610100808354040283529160200191613518565b820191906000526020600020905b8154815290600101906020018083116134fb57829003601f168201915b50505050509080600101805461352d90614cf7565b80601f016020809104026020016040519081016040528092919081815260200182805461355990614cf7565b80156135a65780601f1061357b576101008083540402835291602001916135a6565b820191906000526020600020905b81548152906001019060200180831161358957829003601f168201915b5050505050905082565b600f6020528060005260406000206000915090508060000154908060010154908060020154908060030180546135e590614cf7565b80601f016020809104026020016040519081016040528092919081815260200182805461361190614cf7565b801561365e5780601f106136335761010080835404028352916020019161365e565b820191906000526020600020905b81548152906001019060200180831161364157829003601f168201915b50505050509080600401805461367390614cf7565b80601f016020809104026020016040519081016040528092919081815260200182805461369f90614cf7565b80156136ec5780601f106136c1576101008083540402835291602001916136ec565b820191906000526020600020905b8154815290600101906020018083116136cf57829003601f168201915b5050505050905085565b606060005b600054811015613762578280519060200120600860008381526020019081526020016000206002016040516137309190614656565b6040518091039020141561374f57613747816137a1565b91505061379c565b808061375a90614d5a565b9150506136fb565b506040518060400160405280600581526020017f46616c736500000000000000000000000000000000000000000000000000000081525090505b919050565b6060600060016137b084613879565b01905060008167ffffffffffffffff8111156137cf576137ce614e5f565b5b6040519080825280601f01601f1916602001820160405280156138015781602001600182028036833780820191505090505b509050600082602001820190505b60011561386e578080600190039150507f3031323334353637383961626364656600000000000000000000000000000000600a86061a8153600a858161385857613857614dd2565b5b04945060008514156138695761386e565b61380f565b819350505050919050565b600080600090507a184f03e93ff9f4daa797ed6e38ed64bf6a1f01000000000000000083106138d7577a184f03e93ff9f4daa797ed6e38ed64bf6a1f01000000000000000083816138cd576138cc614dd2565b5b0492506040810190505b6d04ee2d6d415b85acef81000000008310613914576d04ee2d6d415b85acef8100000000838161390a57613909614dd2565b5b0492506020810190505b662386f26fc10000831061394357662386f26fc10000838161393957613938614dd2565b5b0492506010810190505b6305f5e100831061396c576305f5e100838161396257613961614dd2565b5b0492506008810190505b612710831061399157612710838161398757613986614dd2565b5b0492506004810190505b606483106139b457606483816139aa576139a9614dd2565b5b0492506002810190505b600a83106139c3576001810190505b80915050919050565b5080546139d890614cf7565b6000825580601f106139ea5750613a09565b601f016020900490600052602060002090810190613a089190613a92565b5b50565b828054613a1890614cf7565b90600052602060002090601f016020900481019282613a3a5760008555613a81565b82601f10613a5357805160ff1916838001178555613a81565b82800160010185558215613a81579182015b82811115613a80578251825591602001919060010190613a65565b5b509050613a8e9190613a92565b5090565b5b80821115613aab576000816000905550600101613a93565b5090565b6000613ac2613abd84614b49565b614b24565b905082815260208101848484011115613ade57613add614e93565b5b613ae9848285614cb5565b509392505050565b600082601f830112613b0657613b05614e8e565b5b8135613b16848260208601613aaf565b91505092915050565b600081359050613b2e81614eb3565b92915050565b600060208284031215613b4a57613b49614e9d565b5b600082013567ffffffffffffffff811115613b6857613b67614e98565b5b613b7484828501613af1565b91505092915050565b60008060408385031215613b9457613b93614e9d565b5b600083013567ffffffffffffffff811115613bb257613bb1614e98565b5b613bbe85828601613af1565b925050602083013567ffffffffffffffff811115613bdf57613bde614e98565b5b613beb85828601613af1565b9150509250929050565b600080600080600060a08688031215613c1157613c10614e9d565b5b600086013567ffffffffffffffff811115613c2f57613c2e614e98565b5b613c3b88828901613af1565b955050602086013567ffffffffffffffff811115613c5c57613c5b614e98565b5b613c6888828901613af1565b945050604086013567ffffffffffffffff811115613c8957613c88614e98565b5b613c9588828901613af1565b935050606086013567ffffffffffffffff811115613cb657613cb5614e98565b5b613cc288828901613af1565b925050608086013567ffffffffffffffff811115613ce357613ce2614e98565b5b613cef88828901613af1565b9150509295509295909350565b600060208284031215613d1257613d11614e9d565b5b6000613d2084828501613b1f565b91505092915050565b60008060408385031215613d4057613d3f614e9d565b5b6000613d4e85828601613b1f565b925050602083013567ffffffffffffffff811115613d6f57613d6e614e98565b5b613d7b85828601613af1565b9150509250929050565b600080600080600080600080610100898b031215613da657613da5614e9d565b5b6000613db48b828c01613b1f565b985050602089013567ffffffffffffffff811115613dd557613dd4614e98565b5b613de18b828c01613af1565b975050604089013567ffffffffffffffff811115613e0257613e01614e98565b5b613e0e8b828c01613af1565b965050606089013567ffffffffffffffff811115613e2f57613e2e614e98565b5b613e3b8b828c01613af1565b955050608089013567ffffffffffffffff811115613e5c57613e5b614e98565b5b613e688b828c01613af1565b94505060a089013567ffffffffffffffff811115613e8957613e88614e98565b5b613e958b828c01613af1565b93505060c089013567ffffffffffffffff811115613eb657613eb5614e98565b5b613ec28b828c01613af1565b92505060e089013567ffffffffffffffff811115613ee357613ee2614e98565b5b613eef8b828c01613af1565b9150509295985092959890939650565b600080600080600080600080610100898b031215613f2057613f1f614e9d565b5b6000613f2e8b828c01613b1f565b985050602089013567ffffffffffffffff811115613f4f57613f4e614e98565b5b613f5b8b828c01613af1565b975050604089013567ffffffffffffffff811115613f7c57613f7b614e98565b5b613f888b828c01613af1565b965050606089013567ffffffffffffffff811115613fa957613fa8614e98565b5b613fb58b828c01613af1565b955050608089013567ffffffffffffffff811115613fd657613fd5614e98565b5b613fe28b828c01613af1565b94505060a0613ff38b828c01613b1f565b93505060c06140048b828c01613b1f565b92505060e06140158b828c01613b1f565b9150509295985092959890939650565b600080600080600060a0868803121561404157614040614e9d565b5b600061404f88828901613b1f565b955050602086013567ffffffffffffffff8111156140705761406f614e98565b5b61407c88828901613af1565b945050604086013567ffffffffffffffff81111561409d5761409c614e98565b5b6140a988828901613af1565b935050606086013567ffffffffffffffff8111156140ca576140c9614e98565b5b6140d688828901613af1565b92505060806140e788828901613b1f565b9150509295509295909350565b60008060006060848603121561410d5761410c614e9d565b5b600061411b86828701613b1f565b935050602084013567ffffffffffffffff81111561413c5761413b614e98565b5b61414886828701613af1565b925050604061415986828701613b1f565b9150509250925092565b6000806000806080858703121561417d5761417c614e9d565b5b600061418b87828801613b1f565b945050602085013567ffffffffffffffff8111156141ac576141ab614e98565b5b6141b887828801613af1565b93505060406141c987828801613b1f565b92505060606141da87828801613b1f565b91505092959194509250565b60008060008060808587031215614200576141ff614e9d565b5b600061420e87828801613b1f565b945050602061421f87828801613b1f565b935050604085013567ffffffffffffffff8111156142405761423f614e98565b5b61424c87828801613af1565b925050606085013567ffffffffffffffff81111561426d5761426c614e98565b5b61427987828801613af1565b91505092959194509250565b600080600080600080600060e0888a0312156142a4576142a3614e9d565b5b60006142b28a828b01613b1f565b97505060206142c38a828b01613b1f565b965050604088013567ffffffffffffffff8111156142e4576142e3614e98565b5b6142f08a828b01613af1565b955050606088013567ffffffffffffffff81111561431157614310614e98565b5b61431d8a828b01613af1565b945050608088013567ffffffffffffffff81111561433e5761433d614e98565b5b61434a8a828b01613af1565b93505060a088013567ffffffffffffffff81111561436b5761436a614e98565b5b6143778a828b01613af1565b92505060c06143888a828b01613b1f565b91505092959891949750929550565b600080600080608085870312156143b1576143b0614e9d565b5b60006143bf87828801613b1f565b94505060206143d087828801613b1f565b935050604085013567ffffffffffffffff8111156143f1576143f0614e98565b5b6143fd87828801613af1565b925050606061440e87828801613b1f565b91505092959194509250565b60008060008060008060c0878903121561443757614436614e9d565b5b600061444589828a01613b1f565b965050602061445689828a01613b1f565b955050604061446789828a01613b1f565b945050606087013567ffffffffffffffff81111561448857614487614e98565b5b61449489828a01613af1565b935050608087013567ffffffffffffffff8111156144b5576144b4614e98565b5b6144c189828a01613af1565b92505060a087013567ffffffffffffffff8111156144e2576144e1614e98565b5b6144ee89828a01613af1565b9150509295509295509295565b60006145078383614638565b60208301905092915050565b61451c81614c79565b82525050565b600061452d82614b9f565b6145378185614bc2565b935061454283614b7a565b8060005b8381101561457357815161455a88826144fb565b975061456583614bb5565b925050600181019050614546565b5085935050505092915050565b6000815461458d81614cf7565b6145978186614bd3565b945060018216600081146145b257600181146145c3576145f6565b60ff198316865281860193506145f6565b6145cc85614b8a565b60005b838110156145ee578154818901526001820191506020810190506145cf565b838801955050505b50505092915050565b600061460a82614baa565b6146148185614bde565b9350614624818560208601614cc4565b61462d81614ea2565b840191505092915050565b61464181614cab565b82525050565b61465081614cab565b82525050565b60006146628284614580565b915081905092915050565b60006020820190506146826000830184614513565b92915050565b600060208201905081810360008301526146a28184614522565b905092915050565b600060208201905081810360008301526146c481846145ff565b905092915050565b600060408201905081810360008301526146e681856145ff565b905081810360208301526146fa81846145ff565b90509392505050565b600060e082019050818103600083015261471d818a6145ff565b905061472c6020830189614647565b818103604083015261473e81886145ff565b9050818103606083015261475281876145ff565b9050818103608083015261476681866145ff565b905081810360a083015261477a81856145ff565b905061478960c0830184614647565b98975050505050505050565b60006020820190506147aa6000830184614647565b92915050565b6000610100820190506147c6600083018b614647565b81810360208301526147d8818a6145ff565b905081810360408301526147ec81896145ff565b9050818103606083015261480081886145ff565b9050818103608083015261481481876145ff565b905081810360a083015261482881866145ff565b905081810360c083015261483c81856145ff565b905081810360e083015261485081846145ff565b90509998505050505050505050565b600061018082019050614875600083018f614647565b614882602083018e614647565b8181036040830152614894818d6145ff565b905081810360608301526148a8818c6145ff565b905081810360808301526148bc818b6145ff565b905081810360a08301526148d0818a6145ff565b90506148df60c0830189614647565b6148ec60e0830188614647565b6148fa610100830187614647565b81810361012083015261490d81866145ff565b905061491d610140830185614647565b61492b610160830184614647565b9d9c50505050505050505050505050565b600060a0820190506149516000830188614647565b61495e6020830187614647565b61496b6040830186614647565b818103606083015261497d81856145ff565b9050818103608083015261499181846145ff565b90509695505050505050565b6000610120820190506149b3600083018c614647565b6149c0602083018b614647565b6149cd604083018a614647565b81810360608301526149df81896145ff565b905081810360808301526149f381886145ff565b905081810360a0830152614a0781876145ff565b905081810360c0830152614a1b81866145ff565b9050614a2a60e0830185614647565b614a38610100830184614647565b9a9950505050505050505050565b600060a082019050614a5b6000830188614647565b614a686020830187614647565b614a756040830186614647565b614a826060830185614647565b8181036080830152614a9481846145ff565b90509695505050505050565b600060e082019050614ab5600083018a614647565b614ac26020830189614647565b614acf6040830188614647565b614adc6060830187614647565b8181036080830152614aee81866145ff565b905081810360a0830152614b0281856145ff565b905081810360c0830152614b1681846145ff565b905098975050505050505050565b6000614b2e614b3f565b9050614b3a8282614d29565b919050565b6000604051905090565b600067ffffffffffffffff821115614b6457614b63614e5f565b5b614b6d82614ea2565b9050602081019050919050565b6000819050602082019050919050565b60008190508160005260206000209050919050565b600081519050919050565b600081519050919050565b6000602082019050919050565b600082825260208201905092915050565b600081905092915050565b600082825260208201905092915050565b6000614bfa82614cab565b9150614c0583614cab565b9250827fffffffffffffffffffffffffffffffffffffffffffffffffffffffffffffffff03821115614c3a57614c39614da3565b5b828201905092915050565b6000614c5082614cab565b9150614c5b83614cab565b925082821015614c6e57614c6d614da3565b5b828203905092915050565b6000614c8482614c8b565b9050919050565b600073ffffffffffffffffffffffffffffffffffffffff82169050919050565b6000819050919050565b82818337600083830152505050565b60005b83811015614ce2578082015181840152602081019050614cc7565b83811115614cf1576000848401525b50505050565b60006002820490506001821680614d0f57607f821691505b60208210811415614d2357614d22614e01565b5b50919050565b614d3282614ea2565b810181811067ffffffffffffffff82111715614d5157614d50614e5f565b5b80604052505050565b6000614d6582614cab565b91507fffffffffffffffffffffffffffffffffffffffffffffffffffffffffffffffff821415614d9857614d97614da3565b5b600182019050919050565b7f4e487b7100000000000000000000000000000000000000000000000000000000600052601160045260246000fd5b7f4e487b7100000000000000000000000000000000000000000000000000000000600052601260045260246000fd5b7f4e487b7100000000000000000000000000000000000000000000000000000000600052602260045260246000fd5b7f4e487b7100000000000000000000000000000000000000000000000000000000600052603260045260246000fd5b7f4e487b7100000000000000000000000000000000000000000000000000000000600052604160045260246000fd5b600080fd5b600080fd5b600080fd5b600080fd5b6000601f19601f8301169050919050565b614ebc81614cab565b8114614ec757600080fd5b5056fe68747470733a2f2f692e706f7374696d672e63632f537378477735635a2f706572736f6e2e6a7067a2646970667358221220c238872e8352e8cdb85857a859188715d283c20855a777fcb5b4815250c2546764736f6c63430008060033","opcodes":"PUSH1 0x80 PUSH1 0x40 MSTORE CALLVALUE DUP1 ISZERO PUSH2 0x10 JUMPI PUSH1 0x0 DUP1 REVERT JUMPDEST POP PUSH2 0x4F28 DUP1 PUSH2 0x20 PUSH1 0x0 CODECOPY PUSH1 0x0 RETURN INVALID PUSH1 0x80 PUSH1 0x40 MSTORE CALLVALUE DUP1 ISZERO PUSH2 0x10 JUMPI PUSH1 0x0 DUP1 REVERT JUMPDEST POP PUSH1 0x4 CALLDATASIZE LT PUSH2 0x274 JUMPI PUSH1 0x0 CALLDATALOAD PUSH1 0xE0 SHR DUP1 PUSH4 0x90B18A78 GT PUSH2 0x151 JUMPI DUP1 PUSH4 0xCFDB2863 GT PUSH2 0xC3 JUMPI DUP1 PUSH4 0xEA7EFAA6 GT PUSH2 0x87 JUMPI DUP1 PUSH4 0xEA7EFAA6 EQ PUSH2 0x78A JUMPI DUP1 PUSH4 0xEB6B2870 EQ PUSH2 0x7BA JUMPI DUP1 PUSH4 0xEBE197CA EQ PUSH2 0x7D8 JUMPI DUP1 PUSH4 0xF0D8E873 EQ PUSH2 0x80F JUMPI DUP1 PUSH4 0xF6AAA804 EQ PUSH2 0x840 JUMPI DUP1 PUSH4 0xF8B7800F EQ PUSH2 0x874 JUMPI PUSH2 0x274 JUMP JUMPDEST DUP1 PUSH4 0xCFDB2863 EQ PUSH2 0x6E2 JUMPI DUP1 PUSH4 0xDCDD86D5 EQ PUSH2 0x6FE JUMPI DUP1 PUSH4 0xDE7ACFD7 EQ PUSH2 0x71A JUMPI DUP1 PUSH4 0xE1DA993F EQ PUSH2 0x752 JUMPI DUP1 PUSH4 0xE57F973F EQ PUSH2 0x76E JUMPI PUSH2 0x274 JUMP JUMPDEST DUP1 PUSH4 0xB6E604BD GT PUSH2 0x115 JUMPI DUP1 PUSH4 0xB6E604BD EQ PUSH2 0x5E9 JUMPI DUP1 PUSH4 0xBED208FE EQ PUSH2 0x607 JUMPI DUP1 PUSH4 0xC13B2836 EQ PUSH2 0x642 JUMPI DUP1 PUSH4 0xCCEF4218 EQ PUSH2 0x678 JUMPI DUP1 PUSH4 0xCDB9B58F EQ PUSH2 0x6A8 JUMPI DUP1 PUSH4 0xCE08988C EQ PUSH2 0x6C4 JUMPI PUSH2 0x274 JUMP JUMPDEST DUP1 PUSH4 0x90B18A78 EQ PUSH2 0x555 JUMPI DUP1 PUSH4 0x90D6CF05 EQ PUSH2 0x571 JUMPI DUP1 PUSH4 0xAC7AEF0E EQ PUSH2 0x5A5 JUMPI DUP1 PUSH4 0xAD23F8F9 EQ PUSH2 0x5C3 JUMPI DUP1 PUSH4 0xB16060A6 EQ PUSH2 0x5DF JUMPI PUSH2 0x274 JUMP JUMPDEST DUP1 PUSH4 0x55391705 GT PUSH2 0x1EA JUMPI DUP1 PUSH4 0x6F4FE9C5 GT PUSH2 0x1AE JUMPI DUP1 PUSH4 0x6F4FE9C5 EQ PUSH2 0x495 JUMPI DUP1 PUSH4 0x70DA4AE1 EQ PUSH2 0x4B1 JUMPI DUP1 PUSH4 0x7C15641A EQ PUSH2 0x4CD JUMPI DUP1 PUSH4 0x7D423E10 EQ PUSH2 0x4EB JUMPI DUP1 PUSH4 0x8DA5CB5B EQ PUSH2 0x507 JUMPI DUP1 PUSH4 0x902841D4 EQ PUSH2 0x525 JUMPI PUSH2 0x274 JUMP JUMPDEST DUP1 PUSH4 0x55391705 EQ PUSH2 0x3F5 JUMPI DUP1 PUSH4 0x5F27AEA1 EQ PUSH2 0x411 JUMPI DUP1 PUSH4 0x66CAD734 EQ PUSH2 0x42D JUMPI DUP1 PUSH4 0x682D562B EQ PUSH2 0x449 JUMPI DUP1 PUSH4 0x6C067B48 EQ PUSH2 0x479 JUMPI PUSH2 0x274 JUMP JUMPDEST DUP1 PUSH4 0x2A8CAF4A GT PUSH2 0x23C JUMPI DUP1 PUSH4 0x2A8CAF4A EQ PUSH2 0x325 JUMPI DUP1 PUSH4 0x3896F130 EQ PUSH2 0x355 JUMPI DUP1 PUSH4 0x3EEBD0D0 EQ PUSH2 0x371 JUMPI DUP1 PUSH4 0x49B9B07B EQ PUSH2 0x38D JUMPI DUP1 PUSH4 0x4F8B36EB EQ PUSH2 0x3BD JUMPI DUP1 PUSH4 0x50B37D64 EQ PUSH2 0x3D9 JUMPI PUSH2 0x274 JUMP JUMPDEST DUP1 PUSH4 0x1C66109 EQ PUSH2 0x279 JUMPI DUP1 PUSH4 0x1429F775 EQ PUSH2 0x297 JUMPI DUP1 PUSH4 0x1C1A9F7B EQ PUSH2 0x2B5 JUMPI DUP1 PUSH4 0x1E178956 EQ PUSH2 0x2EB JUMPI DUP1 PUSH4 0x29B36423 EQ PUSH2 0x307 JUMPI JUMPDEST PUSH1 0x0 DUP1 REVERT JUMPDEST PUSH2 0x281 PUSH2 0x8A4 JUMP JUMPDEST PUSH1 0x40 MLOAD PUSH2 0x28E SWAP2 SWAP1 PUSH2 0x4795 JUMP JUMPDEST PUSH1 0x40 MLOAD DUP1 SWAP2 SUB SWAP1 RETURN JUMPDEST PUSH2 0x29F PUSH2 0x8AA JUMP JUMPDEST PUSH1 0x40 MLOAD PUSH2 0x2AC SWAP2 SWAP1 PUSH2 0x4795 JUMP JUMPDEST PUSH1 0x40 MLOAD DUP1 SWAP2 SUB SWAP1 RETURN JUMPDEST PUSH2 0x2CF PUSH1 0x4 DUP1 CALLDATASIZE SUB DUP2 ADD SWAP1 PUSH2 0x2CA SWAP2 SWAP1 PUSH2 0x3CFC JUMP JUMPDEST PUSH2 0x8B0 JUMP JUMPDEST PUSH1 0x40 MLOAD PUSH2 0x2E2 SWAP8 SWAP7 SWAP6 SWAP5 SWAP4 SWAP3 SWAP2 SWAP1 PUSH2 0x4703 JUMP JUMPDEST PUSH1 0x40 MLOAD DUP1 SWAP2 SUB SWAP1 RETURN JUMPDEST PUSH2 0x305 PUSH1 0x4 DUP1 CALLDATASIZE SUB DUP2 ADD SWAP1 PUSH2 0x300 SWAP2 SWAP1 PUSH2 0x3CFC JUMP JUMPDEST PUSH2 0xC2D JUMP JUMPDEST STOP JUMPDEST PUSH2 0x30F PUSH2 0xDC4 JUMP JUMPDEST PUSH1 0x40 MLOAD PUSH2 0x31C SWAP2 SWAP1 PUSH2 0x4795 JUMP JUMPDEST PUSH1 0x40 MLOAD DUP1 SWAP2 SUB SWAP1 RETURN JUMPDEST PUSH2 0x33F PUSH1 0x4 DUP1 CALLDATASIZE SUB DUP2 ADD SWAP1 PUSH2 0x33A SWAP2 SWAP1 PUSH2 0x3CFC JUMP JUMPDEST PUSH2 0xDCA JUMP JUMPDEST PUSH1 0x40 MLOAD PUSH2 0x34C SWAP2 SWAP1 PUSH2 0x46AA JUMP JUMPDEST PUSH1 0x40 MLOAD DUP1 SWAP2 SUB SWAP1 RETURN JUMPDEST PUSH2 0x36F PUSH1 0x4 DUP1 CALLDATASIZE SUB DUP2 ADD SWAP1 PUSH2 0x36A SWAP2 SWAP1 PUSH2 0x4285 JUMP JUMPDEST PUSH2 0xE6A JUMP JUMPDEST STOP JUMPDEST PUSH2 0x38B PUSH1 0x4 DUP1 CALLDATASIZE SUB DUP2 ADD SWAP1 PUSH2 0x386 SWAP2 SWAP1 PUSH2 0x4163 JUMP JUMPDEST PUSH2 0xF8D JUMP JUMPDEST STOP JUMPDEST PUSH2 0x3A7 PUSH1 0x4 DUP1 CALLDATASIZE SUB DUP2 ADD SWAP1 PUSH2 0x3A2 SWAP2 SWAP1 PUSH2 0x3CFC JUMP JUMPDEST PUSH2 0xFF4 JUMP JUMPDEST PUSH1 0x40 MLOAD PUSH2 0x3B4 SWAP2 SWAP1 PUSH2 0x4688 JUMP JUMPDEST PUSH1 0x40 MLOAD DUP1 SWAP2 SUB SWAP1 RETURN JUMPDEST PUSH2 0x3D7 PUSH1 0x4 DUP1 CALLDATASIZE SUB DUP2 ADD SWAP1 PUSH2 0x3D2 SWAP2 SWAP1 PUSH2 0x3B7D JUMP JUMPDEST PUSH2 0x110C JUMP JUMPDEST STOP JUMPDEST PUSH2 0x3F3 PUSH1 0x4 DUP1 CALLDATASIZE SUB DUP2 ADD SWAP1 PUSH2 0x3EE SWAP2 SWAP1 PUSH2 0x3D85 JUMP JUMPDEST PUSH2 0x118F JUMP JUMPDEST STOP JUMPDEST PUSH2 0x40F PUSH1 0x4 DUP1 CALLDATASIZE SUB DUP2 ADD SWAP1 PUSH2 0x40A SWAP2 SWAP1 PUSH2 0x4025 JUMP JUMPDEST PUSH2 0x12E1 JUMP JUMPDEST STOP JUMPDEST PUSH2 0x42B PUSH1 0x4 DUP1 CALLDATASIZE SUB DUP2 ADD SWAP1 PUSH2 0x426 SWAP2 SWAP1 PUSH2 0x4025 JUMP JUMPDEST PUSH2 0x1384 JUMP JUMPDEST STOP JUMPDEST PUSH2 0x447 PUSH1 0x4 DUP1 CALLDATASIZE SUB DUP2 ADD SWAP1 PUSH2 0x442 SWAP2 SWAP1 PUSH2 0x3D29 JUMP JUMPDEST PUSH2 0x1427 JUMP JUMPDEST STOP JUMPDEST PUSH2 0x463 PUSH1 0x4 DUP1 CALLDATASIZE SUB DUP2 ADD SWAP1 PUSH2 0x45E SWAP2 SWAP1 PUSH2 0x3CFC JUMP JUMPDEST PUSH2 0x1453 JUMP JUMPDEST PUSH1 0x40 MLOAD PUSH2 0x470 SWAP2 SWAP1 PUSH2 0x4688 JUMP JUMPDEST PUSH1 0x40 MLOAD DUP1 SWAP2 SUB SWAP1 RETURN JUMPDEST PUSH2 0x493 PUSH1 0x4 DUP1 CALLDATASIZE SUB DUP2 ADD SWAP1 PUSH2 0x48E SWAP2 SWAP1 PUSH2 0x441A JUMP JUMPDEST PUSH2 0x156B JUMP JUMPDEST STOP JUMPDEST PUSH2 0x4AF PUSH1 0x4 DUP1 CALLDATASIZE SUB DUP2 ADD SWAP1 PUSH2 0x4AA SWAP2 SWAP1 PUSH2 0x3EFF JUMP JUMPDEST PUSH2 0x1657 JUMP JUMPDEST STOP JUMPDEST PUSH2 0x4CB PUSH1 0x4 DUP1 CALLDATASIZE SUB DUP2 ADD SWAP1 PUSH2 0x4C6 SWAP2 SWAP1 PUSH2 0x3CFC JUMP JUMPDEST PUSH2 0x17F6 JUMP JUMPDEST STOP JUMPDEST PUSH2 0x4D5 PUSH2 0x19C2 JUMP JUMPDEST PUSH1 0x40 MLOAD PUSH2 0x4E2 SWAP2 SWAP1 PUSH2 0x4795 JUMP JUMPDEST PUSH1 0x40 MLOAD DUP1 SWAP2 SUB SWAP1 RETURN JUMPDEST PUSH2 0x505 PUSH1 0x4 DUP1 CALLDATASIZE SUB DUP2 ADD SWAP1 PUSH2 0x500 SWAP2 SWAP1 PUSH2 0x4397 JUMP JUMPDEST PUSH2 0x19C8 JUMP JUMPDEST STOP JUMPDEST PUSH2 0x50F PUSH2 0x1AC5 JUMP JUMPDEST PUSH1 0x40 MLOAD PUSH2 0x51C SWAP2 SWAP1 PUSH2 0x466D JUMP JUMPDEST PUSH1 0x40 MLOAD DUP1 SWAP2 SUB SWAP1 RETURN JUMPDEST PUSH2 0x53F PUSH1 0x4 DUP1 CALLDATASIZE SUB DUP2 ADD SWAP1 PUSH2 0x53A SWAP2 SWAP1 PUSH2 0x3CFC JUMP JUMPDEST PUSH2 0x1AEB JUMP JUMPDEST PUSH1 0x40 MLOAD PUSH2 0x54C SWAP2 SWAP1 PUSH2 0x46AA JUMP JUMPDEST PUSH1 0x40 MLOAD DUP1 SWAP2 SUB SWAP1 RETURN JUMPDEST PUSH2 0x56F PUSH1 0x4 DUP1 CALLDATASIZE SUB DUP2 ADD SWAP1 PUSH2 0x56A SWAP2 SWAP1 PUSH2 0x3D29 JUMP JUMPDEST PUSH2 0x1B91 JUMP JUMPDEST STOP JUMPDEST PUSH2 0x58B PUSH1 0x4 DUP1 CALLDATASIZE SUB DUP2 ADD SWAP1 PUSH2 0x586 SWAP2 SWAP1 PUSH2 0x3CFC JUMP JUMPDEST PUSH2 0x1BC0 JUMP JUMPDEST PUSH1 0x40 MLOAD PUSH2 0x59C SWAP6 SWAP5 SWAP4 SWAP3 SWAP2 SWAP1 PUSH2 0x4A46 JUMP JUMPDEST PUSH1 0x40 MLOAD DUP1 SWAP2 SUB SWAP1 RETURN JUMPDEST PUSH2 0x5AD PUSH2 0x1C7E JUMP JUMPDEST PUSH1 0x40 MLOAD PUSH2 0x5BA SWAP2 SWAP1 PUSH2 0x4795 JUMP JUMPDEST PUSH1 0x40 MLOAD DUP1 SWAP2 SUB SWAP1 RETURN JUMPDEST PUSH2 0x5DD PUSH1 0x4 DUP1 CALLDATASIZE SUB DUP2 ADD SWAP1 PUSH2 0x5D8 SWAP2 SWAP1 PUSH2 0x3D29 JUMP JUMPDEST PUSH2 0x1C84 JUMP JUMPDEST STOP JUMPDEST PUSH2 0x5E7 PUSH2 0x1CB0 JUMP JUMPDEST STOP JUMPDEST PUSH2 0x5F1 PUSH2 0x21E9 JUMP JUMPDEST PUSH1 0x40 MLOAD PUSH2 0x5FE SWAP2 SWAP1 PUSH2 0x4795 JUMP JUMPDEST PUSH1 0x40 MLOAD DUP1 SWAP2 SUB SWAP1 RETURN JUMPDEST PUSH2 0x621 PUSH1 0x4 DUP1 CALLDATASIZE SUB DUP2 ADD SWAP1 PUSH2 0x61C SWAP2 SWAP1 PUSH2 0x3CFC JUMP JUMPDEST PUSH2 0x21EF JUMP JUMPDEST PUSH1 0x40 MLOAD PUSH2 0x639 SWAP13 SWAP12 SWAP11 SWAP10 SWAP9 SWAP8 SWAP7 SWAP6 SWAP5 SWAP4 SWAP3 SWAP2 SWAP1 PUSH2 0x485F JUMP JUMPDEST PUSH1 0x40 MLOAD DUP1 SWAP2 SUB SWAP1 RETURN JUMPDEST PUSH2 0x65C PUSH1 0x4 DUP1 CALLDATASIZE SUB DUP2 ADD SWAP1 PUSH2 0x657 SWAP2 SWAP1 PUSH2 0x3CFC JUMP JUMPDEST PUSH2 0x24F7 JUMP JUMPDEST PUSH1 0x40 MLOAD PUSH2 0x66F SWAP8 SWAP7 SWAP6 SWAP5 SWAP4 SWAP3 SWAP2 SWAP1 PUSH2 0x4AA0 JUMP JUMPDEST PUSH1 0x40 MLOAD DUP1 SWAP2 SUB SWAP1 RETURN JUMPDEST PUSH2 0x692 PUSH1 0x4 DUP1 CALLDATASIZE SUB DUP2 ADD SWAP1 PUSH2 0x68D SWAP2 SWAP1 PUSH2 0x3B7D JUMP JUMPDEST PUSH2 0x26D1 JUMP JUMPDEST PUSH1 0x40 MLOAD PUSH2 0x69F SWAP2 SWAP1 PUSH2 0x46AA JUMP JUMPDEST PUSH1 0x40 MLOAD DUP1 SWAP2 SUB SWAP1 RETURN JUMPDEST PUSH2 0x6C2 PUSH1 0x4 DUP1 CALLDATASIZE SUB DUP2 ADD SWAP1 PUSH2 0x6BD SWAP2 SWAP1 PUSH2 0x41E6 JUMP JUMPDEST PUSH2 0x27B9 JUMP JUMPDEST STOP JUMPDEST PUSH2 0x6CC PUSH2 0x289E JUMP JUMPDEST PUSH1 0x40 MLOAD PUSH2 0x6D9 SWAP2 SWAP1 PUSH2 0x4795 JUMP JUMPDEST PUSH1 0x40 MLOAD DUP1 SWAP2 SUB SWAP1 RETURN JUMPDEST PUSH2 0x6FC PUSH1 0x4 DUP1 CALLDATASIZE SUB DUP2 ADD SWAP1 PUSH2 0x6F7 SWAP2 SWAP1 PUSH2 0x3BF5 JUMP JUMPDEST PUSH2 0x28A4 JUMP JUMPDEST STOP JUMPDEST PUSH2 0x718 PUSH1 0x4 DUP1 CALLDATASIZE SUB DUP2 ADD SWAP1 PUSH2 0x713 SWAP2 SWAP1 PUSH2 0x3CFC JUMP JUMPDEST PUSH2 0x2A35 JUMP JUMPDEST STOP JUMPDEST PUSH2 0x734 PUSH1 0x4 DUP1 CALLDATASIZE SUB DUP2 ADD SWAP1 PUSH2 0x72F SWAP2 SWAP1 PUSH2 0x3CFC JUMP JUMPDEST PUSH2 0x2CEE JUMP JUMPDEST PUSH1 0x40 MLOAD PUSH2 0x749 SWAP10 SWAP9 SWAP8 SWAP7 SWAP6 SWAP5 SWAP4 SWAP3 SWAP2 SWAP1 PUSH2 0x499D JUMP JUMPDEST PUSH1 0x40 MLOAD DUP1 SWAP2 SUB SWAP1 RETURN JUMPDEST PUSH2 0x76C PUSH1 0x4 DUP1 CALLDATASIZE SUB DUP2 ADD SWAP1 PUSH2 0x767 SWAP2 SWAP1 PUSH2 0x3D29 JUMP JUMPDEST PUSH2 0x2F5C JUMP JUMPDEST STOP JUMPDEST PUSH2 0x788 PUSH1 0x4 DUP1 CALLDATASIZE SUB DUP2 ADD SWAP1 PUSH2 0x783 SWAP2 SWAP1 PUSH2 0x40F4 JUMP JUMPDEST PUSH2 0x2F8B JUMP JUMPDEST STOP JUMPDEST PUSH2 0x7A4 PUSH1 0x4 DUP1 CALLDATASIZE SUB DUP2 ADD SWAP1 PUSH2 0x79F SWAP2 SWAP1 PUSH2 0x3CFC JUMP JUMPDEST PUSH2 0x2FD6 JUMP JUMPDEST PUSH1 0x40 MLOAD PUSH2 0x7B1 SWAP2 SWAP1 PUSH2 0x46AA JUMP JUMPDEST PUSH1 0x40 MLOAD DUP1 SWAP2 SUB SWAP1 RETURN JUMPDEST PUSH2 0x7C2 PUSH2 0x3076 JUMP JUMPDEST PUSH1 0x40 MLOAD PUSH2 0x7CF SWAP2 SWAP1 PUSH2 0x4795 JUMP JUMPDEST PUSH1 0x40 MLOAD DUP1 SWAP2 SUB SWAP1 RETURN JUMPDEST PUSH2 0x7F2 PUSH1 0x4 DUP1 CALLDATASIZE SUB DUP2 ADD SWAP1 PUSH2 0x7ED SWAP2 SWAP1 PUSH2 0x3CFC JUMP JUMPDEST PUSH2 0x307C JUMP JUMPDEST PUSH1 0x40 MLOAD PUSH2 0x806 SWAP9 SWAP8 SWAP7 SWAP6 SWAP5 SWAP4 SWAP3 SWAP2 SWAP1 PUSH2 0x47B0 JUMP JUMPDEST PUSH1 0x40 MLOAD DUP1 SWAP2 SUB SWAP1 RETURN JUMPDEST PUSH2 0x829 PUSH1 0x4 DUP1 CALLDATASIZE SUB DUP2 ADD SWAP1 PUSH2 0x824 SWAP2 SWAP1 PUSH2 0x3CFC JUMP JUMPDEST PUSH2 0x347C JUMP JUMPDEST PUSH1 0x40 MLOAD PUSH2 0x837 SWAP3 SWAP2 SWAP1 PUSH2 0x46CC JUMP JUMPDEST PUSH1 0x40 MLOAD DUP1 SWAP2 SUB SWAP1 RETURN JUMPDEST PUSH2 0x85A PUSH1 0x4 DUP1 CALLDATASIZE SUB DUP2 ADD SWAP1 PUSH2 0x855 SWAP2 SWAP1 PUSH2 0x3CFC JUMP JUMPDEST PUSH2 0x35B0 JUMP JUMPDEST PUSH1 0x40 MLOAD PUSH2 0x86B SWAP6 SWAP5 SWAP4 SWAP3 SWAP2 SWAP1 PUSH2 0x493C JUMP JUMPDEST PUSH1 0x40 MLOAD DUP1 SWAP2 SUB SWAP1 RETURN JUMPDEST PUSH2 0x88E PUSH1 0x4 DUP1 CALLDATASIZE SUB DUP2 ADD SWAP1 PUSH2 0x889 SWAP2 SWAP1 PUSH2 0x3B34 JUMP JUMPDEST PUSH2 0x36F6 JUMP JUMPDEST PUSH1 0x40 MLOAD PUSH2 0x89B SWAP2 SWAP1 PUSH2 0x46AA JUMP JUMPDEST PUSH1 0x40 MLOAD DUP1 SWAP2 SUB SWAP1 RETURN JUMPDEST PUSH1 0x6 SLOAD DUP2 JUMP JUMPDEST PUSH1 0x3 SLOAD DUP2 JUMP JUMPDEST PUSH1 0x60 PUSH1 0x0 PUSH1 0x60 DUP1 PUSH1 0x60 DUP1 PUSH1 0x0 PUSH1 0x8 PUSH1 0x0 DUP10 DUP2 MSTORE PUSH1 0x20 ADD SWAP1 DUP2 MSTORE PUSH1 0x20 ADD PUSH1 0x0 KECCAK256 PUSH1 0x6 ADD PUSH1 0x8 PUSH1 0x0 DUP11 DUP2 MSTORE PUSH1 0x20 ADD SWAP1 DUP2 MSTORE PUSH1 0x20 ADD PUSH1 0x0 KECCAK256 PUSH1 0x7 ADD SLOAD PUSH1 0x8 PUSH1 0x0 DUP12 DUP2 MSTORE PUSH1 0x20 ADD SWAP1 DUP2 MSTORE PUSH1 0x20 ADD PUSH1 0x0 KECCAK256 PUSH1 0x1 ADD PUSH1 0x8 PUSH1 0x0 DUP13 DUP2 MSTORE PUSH1 0x20 ADD SWAP1 DUP2 MSTORE PUSH1 0x20 ADD PUSH1 0x0 KECCAK256 PUSH1 0x2 ADD PUSH1 0x8 PUSH1 0x0 DUP14 DUP2 MSTORE PUSH1 0x20 ADD SWAP1 DUP2 MSTORE PUSH1 0x20 ADD PUSH1 0x0 KECCAK256 PUSH1 0x5 ADD PUSH1 0x8 PUSH1 0x0 DUP15 DUP2 MSTORE PUSH1 0x20 ADD SWAP1 DUP2 MSTORE PUSH1 0x20 ADD PUSH1 0x0 KECCAK256 PUSH1 0x8 ADD PUSH1 0x8 PUSH1 0x0 DUP16 DUP2 MSTORE PUSH1 0x20 ADD SWAP1 DUP2 MSTORE PUSH1 0x20 ADD PUSH1 0x0 KECCAK256 PUSH1 0x9 ADD SLOAD DUP7 DUP1 SLOAD PUSH2 0x964 SWAP1 PUSH2 0x4CF7 JUMP JUMPDEST DUP1 PUSH1 0x1F ADD PUSH1 0x20 DUP1 SWAP2 DIV MUL PUSH1 0x20 ADD PUSH1 0x40 MLOAD SWAP1 DUP2 ADD PUSH1 0x40 MSTORE DUP1 SWAP3 SWAP2 SWAP1 DUP2 DUP2 MSTORE PUSH1 0x20 ADD DUP3 DUP1 SLOAD PUSH2 0x990 SWAP1 PUSH2 0x4CF7 JUMP JUMPDEST DUP1 ISZERO PUSH2 0x9DD JUMPI DUP1 PUSH1 0x1F LT PUSH2 0x9B2 JUMPI PUSH2 0x100 DUP1 DUP4 SLOAD DIV MUL DUP4 MSTORE SWAP2 PUSH1 0x20 ADD SWAP2 PUSH2 0x9DD JUMP JUMPDEST DUP3 ADD SWAP2 SWAP1 PUSH1 0x0 MSTORE PUSH1 0x20 PUSH1 0x0 KECCAK256 SWAP1 JUMPDEST DUP2 SLOAD DUP2 MSTORE SWAP1 PUSH1 0x1 ADD SWAP1 PUSH1 0x20 ADD DUP1 DUP4 GT PUSH2 0x9C0 JUMPI DUP3 SWAP1 SUB PUSH1 0x1F AND DUP3 ADD SWAP2 JUMPDEST POP POP POP POP POP SWAP7 POP DUP5 DUP1 SLOAD PUSH2 0x9F0 SWAP1 PUSH2 0x4CF7 JUMP JUMPDEST DUP1 PUSH1 0x1F ADD PUSH1 0x20 DUP1 SWAP2 DIV MUL PUSH1 0x20 ADD PUSH1 0x40 MLOAD SWAP1 DUP2 ADD PUSH1 0x40 MSTORE DUP1 SWAP3 SWAP2 SWAP1 DUP2 DUP2 MSTORE PUSH1 0x20 ADD DUP3 DUP1 SLOAD PUSH2 0xA1C SWAP1 PUSH2 0x4CF7 JUMP JUMPDEST DUP1 ISZERO PUSH2 0xA69 JUMPI DUP1 PUSH1 0x1F LT PUSH2 0xA3E JUMPI PUSH2 0x100 DUP1 DUP4 SLOAD DIV MUL DUP4 MSTORE SWAP2 PUSH1 0x20 ADD SWAP2 PUSH2 0xA69 JUMP JUMPDEST DUP3 ADD SWAP2 SWAP1 PUSH1 0x0 MSTORE PUSH1 0x20 PUSH1 0x0 KECCAK256 SWAP1 JUMPDEST DUP2 SLOAD DUP2 MSTORE SWAP1 PUSH1 0x1 ADD SWAP1 PUSH1 0x20 ADD DUP1 DUP4 GT PUSH2 0xA4C JUMPI DUP3 SWAP1 SUB PUSH1 0x1F AND DUP3 ADD SWAP2 JUMPDEST POP POP POP POP POP SWAP5 POP DUP4 DUP1 SLOAD PUSH2 0xA7C SWAP1 PUSH2 0x4CF7 JUMP JUMPDEST DUP1 PUSH1 0x1F ADD PUSH1 0x20 DUP1 SWAP2 DIV MUL PUSH1 0x20 ADD PUSH1 0x40 MLOAD SWAP1 DUP2 ADD PUSH1 0x40 MSTORE DUP1 SWAP3 SWAP2 SWAP1 DUP2 DUP2 MSTORE PUSH1 0x20 ADD DUP3 DUP1 SLOAD PUSH2 0xAA8 SWAP1 PUSH2 0x4CF7 JUMP JUMPDEST DUP1 ISZERO PUSH2 0xAF5 JUMPI DUP1 PUSH1 0x1F LT PUSH2 0xACA JUMPI PUSH2 0x100 DUP1 DUP4 SLOAD DIV MUL DUP4 MSTORE SWAP2 PUSH1 0x20 ADD SWAP2 PUSH2 0xAF5 JUMP JUMPDEST DUP3 ADD SWAP2 SWAP1 PUSH1 0x0 MSTORE PUSH1 0x20 PUSH1 0x0 KECCAK256 SWAP1 JUMPDEST DUP2 SLOAD DUP2 MSTORE SWAP1 PUSH1 0x1 ADD SWAP1 PUSH1 0x20 ADD DUP1 DUP4 GT PUSH2 0xAD8 JUMPI DUP3 SWAP1 SUB PUSH1 0x1F AND DUP3 ADD SWAP2 JUMPDEST POP POP POP POP POP SWAP4 POP DUP3 DUP1 SLOAD PUSH2 0xB08 SWAP1 PUSH2 0x4CF7 JUMP JUMPDEST DUP1 PUSH1 0x1F ADD PUSH1 0x20 DUP1 SWAP2 DIV MUL PUSH1 0x20 ADD PUSH1 0x40 MLOAD SWAP1 DUP2 ADD PUSH1 0x40 MSTORE DUP1 SWAP3 SWAP2 SWAP1 DUP2 DUP2 MSTORE PUSH1 0x20 ADD DUP3 DUP1 SLOAD PUSH2 0xB34 SWAP1 PUSH2 0x4CF7 JUMP JUMPDEST DUP1 ISZERO PUSH2 0xB81 JUMPI DUP1 PUSH1 0x1F LT PUSH2 0xB56 JUMPI PUSH2 0x100 DUP1 DUP4 SLOAD DIV MUL DUP4 MSTORE SWAP2 PUSH1 0x20 ADD SWAP2 PUSH2 0xB81 JUMP JUMPDEST DUP3 ADD SWAP2 SWAP1 PUSH1 0x0 MSTORE PUSH1 0x20 PUSH1 0x0 KECCAK256 SWAP1 JUMPDEST DUP2 SLOAD DUP2 MSTORE SWAP1 PUSH1 0x1 ADD SWAP1 PUSH1 0x20 ADD DUP1 DUP4 GT PUSH2 0xB64 JUMPI DUP3 SWAP1 SUB PUSH1 0x1F AND DUP3 ADD SWAP2 JUMPDEST POP POP POP POP POP SWAP3 POP DUP2 DUP1 SLOAD PUSH2 0xB94 SWAP1 PUSH2 0x4CF7 JUMP JUMPDEST DUP1 PUSH1 0x1F ADD PUSH1 0x20 DUP1 SWAP2 DIV MUL PUSH1 0x20 ADD PUSH1 0x40 MLOAD SWAP1 DUP2 ADD PUSH1 0x40 MSTORE DUP1 SWAP3 SWAP2 SWAP1 DUP2 DUP2 MSTORE PUSH1 0x20 ADD DUP3 DUP1 SLOAD PUSH2 0xBC0 SWAP1 PUSH2 0x4CF7 JUMP JUMPDEST DUP1 ISZERO PUSH2 0xC0D JUMPI DUP1 PUSH1 0x1F LT PUSH2 0xBE2 JUMPI PUSH2 0x100 DUP1 DUP4 SLOAD DIV MUL DUP4 MSTORE SWAP2 PUSH1 0x20 ADD SWAP2 PUSH2 0xC0D JUMP JUMPDEST DUP3 ADD SWAP2 SWAP1 PUSH1 0x0 MSTORE PUSH1 0x20 PUSH1 0x0 KECCAK256 SWAP1 JUMPDEST DUP2 SLOAD DUP2 MSTORE SWAP1 PUSH1 0x1 ADD SWAP1 PUSH1 0x20 ADD DUP1 DUP4 GT PUSH2 0xBF0 JUMPI DUP3 SWAP1 SUB PUSH1 0x1F AND DUP3 ADD SWAP2 JUMPDEST POP POP POP POP POP SWAP2 POP SWAP7 POP SWAP7 POP SWAP7 POP SWAP7 POP SWAP7 POP SWAP7 POP SWAP7 POP SWAP2 SWAP4 SWAP6 SWAP8 SWAP1 SWAP3 SWAP5 SWAP7 POP JUMP JUMPDEST PUSH1 0x9 PUSH1 0x0 DUP3 DUP2 MSTORE PUSH1 0x20 ADD SWAP1 DUP2 MSTORE PUSH1 0x20 ADD PUSH1 0x0 KECCAK256 PUSH1 0x0 DUP1 DUP3 ADD PUSH1 0x0 SWAP1 SSTORE PUSH1 0x1 DUP3 ADD PUSH1 0x0 SWAP1 SSTORE PUSH1 0x2 DUP3 ADD PUSH1 0x0 PUSH2 0xC61 SWAP2 SWAP1 PUSH2 0x39CC JUMP JUMPDEST PUSH1 0x3 DUP3 ADD PUSH1 0x0 PUSH2 0xC71 SWAP2 SWAP1 PUSH2 0x39CC JUMP JUMPDEST PUSH1 0x4 DUP3 ADD PUSH1 0x0 PUSH2 0xC81 SWAP2 SWAP1 PUSH2 0x39CC JUMP JUMPDEST PUSH1 0x5 DUP3 ADD PUSH1 0x0 PUSH2 0xC91 SWAP2 SWAP1 PUSH2 0x39CC JUMP JUMPDEST PUSH1 0x6 DUP3 ADD PUSH1 0x0 SWAP1 SSTORE PUSH1 0x7 DUP3 ADD PUSH1 0x0 SWAP1 SSTORE PUSH1 0x8 DUP3 ADD PUSH1 0x0 SWAP1 SSTORE PUSH1 0x9 DUP3 ADD PUSH1 0x0 PUSH2 0xCB9 SWAP2 SWAP1 PUSH2 0x39CC JUMP JUMPDEST PUSH1 0xA DUP3 ADD PUSH1 0x0 SWAP1 SSTORE PUSH1 0xB DUP3 ADD PUSH1 0x0 SWAP1 SSTORE POP POP PUSH1 0xA PUSH1 0x0 DUP3 DUP2 MSTORE PUSH1 0x20 ADD SWAP1 DUP2 MSTORE PUSH1 0x20 ADD PUSH1 0x0 KECCAK256 PUSH1 0x0 PUSH2 0xCEA SWAP2 SWAP1 PUSH2 0x39CC JUMP JUMPDEST PUSH1 0x0 JUMPDEST PUSH1 0x3 SLOAD DUP2 LT ISZERO PUSH2 0xD32 JUMPI DUP2 PUSH1 0xB PUSH1 0x0 DUP4 DUP2 MSTORE PUSH1 0x20 ADD SWAP1 DUP2 MSTORE PUSH1 0x20 ADD PUSH1 0x0 KECCAK256 PUSH1 0x1 ADD SLOAD EQ ISZERO PUSH2 0xD1F JUMPI PUSH2 0xD1E DUP2 PUSH2 0x17F6 JUMP JUMPDEST JUMPDEST DUP1 DUP1 PUSH2 0xD2A SWAP1 PUSH2 0x4D5A JUMP JUMPDEST SWAP2 POP POP PUSH2 0xCED JUMP JUMPDEST POP PUSH1 0x0 JUMPDEST PUSH1 0x5 SLOAD DUP2 LT ISZERO PUSH2 0xDC0 JUMPI DUP2 PUSH1 0xF PUSH1 0x0 DUP4 DUP2 MSTORE PUSH1 0x20 ADD SWAP1 DUP2 MSTORE PUSH1 0x20 ADD PUSH1 0x0 KECCAK256 PUSH1 0x1 ADD SLOAD EQ ISZERO PUSH2 0xDAD JUMPI PUSH1 0xF PUSH1 0x0 DUP3 DUP2 MSTORE PUSH1 0x20 ADD SWAP1 DUP2 MSTORE PUSH1 0x20 ADD PUSH1 0x0 KECCAK256 PUSH1 0x0 DUP1 DUP3 ADD PUSH1 0x0 SWAP1 SSTORE PUSH1 0x1 DUP3 ADD PUSH1 0x0 SWAP1 SSTORE PUSH1 0x2 DUP3 ADD PUSH1 0x0 SWAP1 SSTORE PUSH1 0x3 DUP3 ADD PUSH1 0x0 PUSH2 0xD9A SWAP2 SWAP1 PUSH2 0x39CC JUMP JUMPDEST PUSH1 0x4 DUP3 ADD PUSH1 0x0 PUSH2 0xDAA SWAP2 SWAP1 PUSH2 0x39CC JUMP JUMPDEST POP POP JUMPDEST DUP1 DUP1 PUSH2 0xDB8 SWAP1 PUSH2 0x4D5A JUMP JUMPDEST SWAP2 POP POP PUSH2 0xD36 JUMP JUMPDEST POP POP JUMP JUMPDEST PUSH1 0x4 SLOAD DUP2 JUMP JUMPDEST PUSH1 0xA PUSH1 0x20 MSTORE DUP1 PUSH1 0x0 MSTORE PUSH1 0x40 PUSH1 0x0 KECCAK256 PUSH1 0x0 SWAP2 POP SWAP1 POP DUP1 SLOAD PUSH2 0xDE9 SWAP1 PUSH2 0x4CF7 JUMP JUMPDEST DUP1 PUSH1 0x1F ADD PUSH1 0x20 DUP1 SWAP2 DIV MUL PUSH1 0x20 ADD PUSH1 0x40 MLOAD SWAP1 DUP2 ADD PUSH1 0x40 MSTORE DUP1 SWAP3 SWAP2 SWAP1 DUP2 DUP2 MSTORE PUSH1 0x20 ADD DUP3 DUP1 SLOAD PUSH2 0xE15 SWAP1 PUSH2 0x4CF7 JUMP JUMPDEST DUP1 ISZERO PUSH2 0xE62 JUMPI DUP1 PUSH1 0x1F LT PUSH2 0xE37 JUMPI PUSH2 0x100 DUP1 DUP4 SLOAD DIV MUL DUP4 MSTORE SWAP2 PUSH1 0x20 ADD SWAP2 PUSH2 0xE62 JUMP JUMPDEST DUP3 ADD SWAP2 SWAP1 PUSH1 0x0 MSTORE PUSH1 0x20 PUSH1 0x0 KECCAK256 SWAP1 JUMPDEST DUP2 SLOAD DUP2 MSTORE SWAP1 PUSH1 0x1 ADD SWAP1 PUSH1 0x20 ADD DUP1 DUP4 GT PUSH2 0xE45 JUMPI DUP3 SWAP1 SUB PUSH1 0x1F AND DUP3 ADD SWAP2 JUMPDEST POP POP POP POP POP DUP2 JUMP JUMPDEST PUSH1 0x40 MLOAD DUP1 PUSH2 0x120 ADD PUSH1 0x40 MSTORE DUP1 PUSH1 0x3 SLOAD DUP2 MSTORE PUSH1 0x20 ADD DUP9 DUP2 MSTORE PUSH1 0x20 ADD DUP8 DUP2 MSTORE PUSH1 0x20 ADD DUP7 DUP2 MSTORE PUSH1 0x20 ADD DUP6 DUP2 MSTORE PUSH1 0x20 ADD DUP5 DUP2 MSTORE PUSH1 0x20 ADD DUP4 DUP2 MSTORE PUSH1 0x20 ADD DUP3 DUP2 MSTORE PUSH1 0x20 ADD PUSH1 0x0 DUP2 MSTORE POP PUSH1 0xB PUSH1 0x0 PUSH1 0x3 SLOAD DUP2 MSTORE PUSH1 0x20 ADD SWAP1 DUP2 MSTORE PUSH1 0x20 ADD PUSH1 0x0 KECCAK256 PUSH1 0x0 DUP3 ADD MLOAD DUP2 PUSH1 0x0 ADD SSTORE PUSH1 0x20 DUP3 ADD MLOAD DUP2 PUSH1 0x1 ADD SSTORE PUSH1 0x40 DUP3 ADD MLOAD DUP2 PUSH1 0x2 ADD SSTORE PUSH1 0x60 DUP3 ADD MLOAD DUP2 PUSH1 0x3 ADD SWAP1 DUP1 MLOAD SWAP1 PUSH1 0x20 ADD SWAP1 PUSH2 0xEFC SWAP3 SWAP2 SWAP1 PUSH2 0x3A0C JUMP JUMPDEST POP PUSH1 0x80 DUP3 ADD MLOAD DUP2 PUSH1 0x4 ADD SWAP1 DUP1 MLOAD SWAP1 PUSH1 0x20 ADD SWAP1 PUSH2 0xF19 SWAP3 SWAP2 SWAP1 PUSH2 0x3A0C JUMP JUMPDEST POP PUSH1 0xA0 DUP3 ADD MLOAD DUP2 PUSH1 0x5 ADD SWAP1 DUP1 MLOAD SWAP1 PUSH1 0x20 ADD SWAP1 PUSH2 0xF36 SWAP3 SWAP2 SWAP1 PUSH2 0x3A0C JUMP JUMPDEST POP PUSH1 0xC0 DUP3 ADD MLOAD DUP2 PUSH1 0x6 ADD SWAP1 DUP1 MLOAD SWAP1 PUSH1 0x20 ADD SWAP1 PUSH2 0xF53 SWAP3 SWAP2 SWAP1 PUSH2 0x3A0C JUMP JUMPDEST POP PUSH1 0xE0 DUP3 ADD MLOAD DUP2 PUSH1 0x7 ADD SSTORE PUSH2 0x100 DUP3 ADD MLOAD DUP2 PUSH1 0x8 ADD SSTORE SWAP1 POP POP PUSH1 0x3 PUSH1 0x0 DUP2 SLOAD DUP1 SWAP3 SWAP2 SWAP1 PUSH2 0xF7F SWAP1 PUSH2 0x4D5A JUMP JUMPDEST SWAP2 SWAP1 POP SSTORE POP POP POP POP POP POP POP POP JUMP JUMPDEST DUP3 PUSH1 0x9 PUSH1 0x0 DUP7 DUP2 MSTORE PUSH1 0x20 ADD SWAP1 DUP2 MSTORE PUSH1 0x20 ADD PUSH1 0x0 KECCAK256 PUSH1 0x9 ADD SWAP1 DUP1 MLOAD SWAP1 PUSH1 0x20 ADD SWAP1 PUSH2 0xFB7 SWAP3 SWAP2 SWAP1 PUSH2 0x3A0C JUMP JUMPDEST POP DUP2 PUSH1 0x9 PUSH1 0x0 DUP7 DUP2 MSTORE PUSH1 0x20 ADD SWAP1 DUP2 MSTORE PUSH1 0x20 ADD PUSH1 0x0 KECCAK256 PUSH1 0xA ADD DUP2 SWAP1 SSTORE POP DUP1 PUSH1 0x9 PUSH1 0x0 DUP7 DUP2 MSTORE PUSH1 0x20 ADD SWAP1 DUP2 MSTORE PUSH1 0x20 ADD PUSH1 0x0 KECCAK256 PUSH1 0xB ADD DUP2 SWAP1 SSTORE POP POP POP POP POP JUMP JUMPDEST PUSH1 0x60 PUSH1 0x0 DUP1 JUMPDEST PUSH1 0x7 SLOAD DUP2 LT ISZERO PUSH2 0x1044 JUMPI DUP4 PUSH1 0x11 PUSH1 0x0 DUP4 DUP2 MSTORE PUSH1 0x20 ADD SWAP1 DUP2 MSTORE PUSH1 0x20 ADD PUSH1 0x0 KECCAK256 PUSH1 0x2 ADD SLOAD EQ ISZERO PUSH2 0x1031 JUMPI DUP2 DUP1 PUSH2 0x102D SWAP1 PUSH2 0x4D5A JUMP JUMPDEST SWAP3 POP POP JUMPDEST DUP1 DUP1 PUSH2 0x103C SWAP1 PUSH2 0x4D5A JUMP JUMPDEST SWAP2 POP POP PUSH2 0xFFA JUMP JUMPDEST POP PUSH1 0x0 DUP2 PUSH8 0xFFFFFFFFFFFFFFFF DUP2 GT ISZERO PUSH2 0x1061 JUMPI PUSH2 0x1060 PUSH2 0x4E5F JUMP JUMPDEST JUMPDEST PUSH1 0x40 MLOAD SWAP1 DUP1 DUP3 MSTORE DUP1 PUSH1 0x20 MUL PUSH1 0x20 ADD DUP3 ADD PUSH1 0x40 MSTORE DUP1 ISZERO PUSH2 0x108F JUMPI DUP2 PUSH1 0x20 ADD PUSH1 0x20 DUP3 MUL DUP1 CALLDATASIZE DUP4 CALLDATACOPY DUP1 DUP3 ADD SWAP2 POP POP SWAP1 POP JUMPDEST POP SWAP1 POP PUSH1 0x0 DUP1 JUMPDEST PUSH1 0x7 SLOAD DUP2 LT ISZERO PUSH2 0x1100 JUMPI DUP6 PUSH1 0x11 PUSH1 0x0 DUP4 DUP2 MSTORE PUSH1 0x20 ADD SWAP1 DUP2 MSTORE PUSH1 0x20 ADD PUSH1 0x0 KECCAK256 PUSH1 0x2 ADD SLOAD EQ ISZERO PUSH2 0x10ED JUMPI DUP1 DUP4 DUP4 DUP2 MLOAD DUP2 LT PUSH2 0x10D2 JUMPI PUSH2 0x10D1 PUSH2 0x4E30 JUMP JUMPDEST JUMPDEST PUSH1 0x20 MUL PUSH1 0x20 ADD ADD DUP2 DUP2 MSTORE POP POP DUP2 DUP1 PUSH2 0x10E9 SWAP1 PUSH2 0x4D5A JUMP JUMPDEST SWAP3 POP POP JUMPDEST DUP1 DUP1 PUSH2 0x10F8 SWAP1 PUSH2 0x4D5A JUMP JUMPDEST SWAP2 POP POP PUSH2 0x1096 JUMP JUMPDEST POP DUP2 SWAP4 POP POP POP POP SWAP2 SWAP1 POP JUMP JUMPDEST PUSH1 0x40 MLOAD DUP1 PUSH1 0x40 ADD PUSH1 0x40 MSTORE DUP1 DUP4 DUP2 MSTORE PUSH1 0x20 ADD DUP3 DUP2 MSTORE POP PUSH1 0xC PUSH1 0x0 PUSH1 0x4 SLOAD DUP2 MSTORE PUSH1 0x20 ADD SWAP1 DUP2 MSTORE PUSH1 0x20 ADD PUSH1 0x0 KECCAK256 PUSH1 0x0 DUP3 ADD MLOAD DUP2 PUSH1 0x0 ADD SWAP1 DUP1 MLOAD SWAP1 PUSH1 0x20 ADD SWAP1 PUSH2 0x1152 SWAP3 SWAP2 SWAP1 PUSH2 0x3A0C JUMP JUMPDEST POP PUSH1 0x20 DUP3 ADD MLOAD DUP2 PUSH1 0x1 ADD SWAP1 DUP1 MLOAD SWAP1 PUSH1 0x20 ADD SWAP1 PUSH2 0x116F SWAP3 SWAP2 SWAP1 PUSH2 0x3A0C JUMP JUMPDEST POP SWAP1 POP POP PUSH1 0x4 PUSH1 0x0 DUP2 SLOAD DUP1 SWAP3 SWAP2 SWAP1 PUSH2 0x1186 SWAP1 PUSH2 0x4D5A JUMP JUMPDEST SWAP2 SWAP1 POP SSTORE POP POP POP JUMP JUMPDEST DUP8 PUSH1 0xE PUSH1 0x0 DUP11 DUP2 MSTORE PUSH1 0x20 ADD SWAP1 DUP2 MSTORE PUSH1 0x20 ADD PUSH1 0x0 KECCAK256 PUSH1 0x0 ADD DUP2 SWAP1 SSTORE POP DUP7 PUSH1 0xE PUSH1 0x0 DUP11 DUP2 MSTORE PUSH1 0x20 ADD SWAP1 DUP2 MSTORE PUSH1 0x20 ADD PUSH1 0x0 KECCAK256 PUSH1 0x1 ADD SWAP1 DUP1 MLOAD SWAP1 PUSH1 0x20 ADD SWAP1 PUSH2 0x11D4 SWAP3 SWAP2 SWAP1 PUSH2 0x3A0C JUMP JUMPDEST POP DUP6 PUSH1 0xE PUSH1 0x0 DUP11 DUP2 MSTORE PUSH1 0x20 ADD SWAP1 DUP2 MSTORE PUSH1 0x20 ADD PUSH1 0x0 KECCAK256 PUSH1 0x2 ADD SWAP1 DUP1 MLOAD SWAP1 PUSH1 0x20 ADD SWAP1 PUSH2 0x11FF SWAP3 SWAP2 SWAP1 PUSH2 0x3A0C JUMP JUMPDEST POP DUP5 PUSH1 0xE PUSH1 0x0 DUP11 DUP2 MSTORE PUSH1 0x20 ADD SWAP1 DUP2 MSTORE PUSH1 0x20 ADD PUSH1 0x0 KECCAK256 PUSH1 0x3 ADD SWAP1 DUP1 MLOAD SWAP1 PUSH1 0x20 ADD SWAP1 PUSH2 0x122A SWAP3 SWAP2 SWAP1 PUSH2 0x3A0C JUMP JUMPDEST POP DUP4 PUSH1 0xE PUSH1 0x0 DUP11 DUP2 MSTORE PUSH1 0x20 ADD SWAP1 DUP2 MSTORE PUSH1 0x20 ADD PUSH1 0x0 KECCAK256 PUSH1 0x4 ADD SWAP1 DUP1 MLOAD SWAP1 PUSH1 0x20 ADD SWAP1 PUSH2 0x1255 SWAP3 SWAP2 SWAP1 PUSH2 0x3A0C JUMP JUMPDEST POP DUP3 PUSH1 0xE PUSH1 0x0 DUP11 DUP2 MSTORE PUSH1 0x20 ADD SWAP1 DUP2 MSTORE PUSH1 0x20 ADD PUSH1 0x0 KECCAK256 PUSH1 0x5 ADD SWAP1 DUP1 MLOAD SWAP1 PUSH1 0x20 ADD SWAP1 PUSH2 0x1280 SWAP3 SWAP2 SWAP1 PUSH2 0x3A0C JUMP JUMPDEST POP DUP2 PUSH1 0xE PUSH1 0x0 DUP11 DUP2 MSTORE PUSH1 0x20 ADD SWAP1 DUP2 MSTORE PUSH1 0x20 ADD PUSH1 0x0 KECCAK256 PUSH1 0x6 ADD SWAP1 DUP1 MLOAD SWAP1 PUSH1 0x20 ADD SWAP1 PUSH2 0x12AB SWAP3 SWAP2 SWAP1 PUSH2 0x3A0C JUMP JUMPDEST POP DUP1 PUSH1 0xE PUSH1 0x0 DUP11 DUP2 MSTORE PUSH1 0x20 ADD SWAP1 DUP2 MSTORE PUSH1 0x20 ADD PUSH1 0x0 KECCAK256 PUSH1 0x7 ADD SWAP1 DUP1 MLOAD SWAP1 PUSH1 0x20 ADD SWAP1 PUSH2 0x12D6 SWAP3 SWAP2 SWAP1 PUSH2 0x3A0C JUMP JUMPDEST POP POP POP POP POP POP POP POP POP JUMP JUMPDEST DUP4 PUSH1 0x9 PUSH1 0x0 DUP8 DUP2 MSTORE PUSH1 0x20 ADD SWAP1 DUP2 MSTORE PUSH1 0x20 ADD PUSH1 0x0 KECCAK256 PUSH1 0x2 ADD SWAP1 DUP1 MLOAD SWAP1 PUSH1 0x20 ADD SWAP1 PUSH2 0x130B SWAP3 SWAP2 SWAP1 PUSH2 0x3A0C JUMP JUMPDEST POP DUP3 PUSH1 0x9 PUSH1 0x0 DUP8 DUP2 MSTORE PUSH1 0x20 ADD SWAP1 DUP2 MSTORE PUSH1 0x20 ADD PUSH1 0x0 KECCAK256 PUSH1 0x3 ADD SWAP1 DUP1 MLOAD SWAP1 PUSH1 0x20 ADD SWAP1 PUSH2 0x1336 SWAP3 SWAP2 SWAP1 PUSH2 0x3A0C JUMP JUMPDEST POP DUP2 PUSH1 0x9 PUSH1 0x0 DUP8 DUP2 MSTORE PUSH1 0x20 ADD SWAP1 DUP2 MSTORE PUSH1 0x20 ADD PUSH1 0x0 KECCAK256 PUSH1 0x4 ADD SWAP1 DUP1 MLOAD SWAP1 PUSH1 0x20 ADD SWAP1 PUSH2 0x1361 SWAP3 SWAP2 SWAP1 PUSH2 0x3A0C JUMP JUMPDEST POP DUP1 PUSH1 0x9 PUSH1 0x0 DUP8 DUP2 MSTORE PUSH1 0x20 ADD SWAP1 DUP2 MSTORE PUSH1 0x20 ADD PUSH1 0x0 KECCAK256 PUSH1 0x8 ADD DUP2 SWAP1 SSTORE POP POP POP POP POP POP JUMP JUMPDEST DUP4 PUSH1 0xB PUSH1 0x0 DUP8 DUP2 MSTORE PUSH1 0x20 ADD SWAP1 DUP2 MSTORE PUSH1 0x20 ADD PUSH1 0x0 KECCAK256 PUSH1 0x3 ADD SWAP1 DUP1 MLOAD SWAP1 PUSH1 0x20 ADD SWAP1 PUSH2 0x13AE SWAP3 SWAP2 SWAP1 PUSH2 0x3A0C JUMP JUMPDEST POP DUP3 PUSH1 0xB PUSH1 0x0 DUP8 DUP2 MSTORE PUSH1 0x20 ADD SWAP1 DUP2 MSTORE PUSH1 0x20 ADD PUSH1 0x0 KECCAK256 PUSH1 0x4 ADD SWAP1 DUP1 MLOAD SWAP1 PUSH1 0x20 ADD SWAP1 PUSH2 0x13D9 SWAP3 SWAP2 SWAP1 PUSH2 0x3A0C JUMP JUMPDEST POP DUP2 PUSH1 0xB PUSH1 0x0 DUP8 DUP2 MSTORE PUSH1 0x20 ADD SWAP1 DUP2 MSTORE PUSH1 0x20 ADD PUSH1 0x0 KECCAK256 PUSH1 0x6 ADD SWAP1 DUP1 MLOAD SWAP1 PUSH1 0x20 ADD SWAP1 PUSH2 0x1404 SWAP3 SWAP2 SWAP1 PUSH2 0x3A0C JUMP JUMPDEST POP DUP1 PUSH1 0xB PUSH1 0x0 DUP8 DUP2 MSTORE PUSH1 0x20 ADD SWAP1 DUP2 MSTORE PUSH1 0x20 ADD PUSH1 0x0 KECCAK256 PUSH1 0x7 ADD DUP2 SWAP1 SSTORE POP POP POP POP POP POP JUMP JUMPDEST DUP1 PUSH1 0xD PUSH1 0x0 DUP5 DUP2 MSTORE PUSH1 0x20 ADD SWAP1 DUP2 MSTORE PUSH1 0x20 ADD PUSH1 0x0 KECCAK256 SWAP1 DUP1 MLOAD SWAP1 PUSH1 0x20 ADD SWAP1 PUSH2 0x144E SWAP3 SWAP2 SWAP1 PUSH2 0x3A0C JUMP JUMPDEST POP POP POP JUMP JUMPDEST PUSH1 0x60 PUSH1 0x0 DUP1 JUMPDEST PUSH1 0x3 SLOAD DUP2 LT ISZERO PUSH2 0x14A3 JUMPI DUP4 PUSH1 0xB PUSH1 0x0 DUP4 DUP2 MSTORE PUSH1 0x20 ADD SWAP1 DUP2 MSTORE PUSH1 0x20 ADD PUSH1 0x0 KECCAK256 PUSH1 0x1 ADD SLOAD EQ ISZERO PUSH2 0x1490 JUMPI DUP2 DUP1 PUSH2 0x148C SWAP1 PUSH2 0x4D5A JUMP JUMPDEST SWAP3 POP POP JUMPDEST DUP1 DUP1 PUSH2 0x149B SWAP1 PUSH2 0x4D5A JUMP JUMPDEST SWAP2 POP POP PUSH2 0x1459 JUMP JUMPDEST POP PUSH1 0x0 DUP2 PUSH8 0xFFFFFFFFFFFFFFFF DUP2 GT ISZERO PUSH2 0x14C0 JUMPI PUSH2 0x14BF PUSH2 0x4E5F JUMP JUMPDEST JUMPDEST PUSH1 0x40 MLOAD SWAP1 DUP1 DUP3 MSTORE DUP1 PUSH1 0x20 MUL PUSH1 0x20 ADD DUP3 ADD PUSH1 0x40 MSTORE DUP1 ISZERO PUSH2 0x14EE JUMPI DUP2 PUSH1 0x20 ADD PUSH1 0x20 DUP3 MUL DUP1 CALLDATASIZE DUP4 CALLDATACOPY DUP1 DUP3 ADD SWAP2 POP POP SWAP1 POP JUMPDEST POP SWAP1 POP PUSH1 0x0 DUP1 JUMPDEST PUSH1 0x3 SLOAD DUP2 LT ISZERO PUSH2 0x155F JUMPI DUP6 PUSH1 0xB PUSH1 0x0 DUP4 DUP2 MSTORE PUSH1 0x20 ADD SWAP1 DUP2 MSTORE PUSH1 0x20 ADD PUSH1 0x0 KECCAK256 PUSH1 0x1 ADD SLOAD EQ ISZERO PUSH2 0x154C JUMPI DUP1 DUP4 DUP4 DUP2 MLOAD DUP2 LT PUSH2 0x1531 JUMPI PUSH2 0x1530 PUSH2 0x4E30 JUMP JUMPDEST JUMPDEST PUSH1 0x20 MUL PUSH1 0x20 ADD ADD DUP2 DUP2 MSTORE POP POP DUP2 DUP1 PUSH2 0x1548 SWAP1 PUSH2 0x4D5A JUMP JUMPDEST SWAP3 POP POP JUMPDEST DUP1 DUP1 PUSH2 0x1557 SWAP1 PUSH2 0x4D5A JUMP JUMPDEST SWAP2 POP POP PUSH2 0x14F5 JUMP JUMPDEST POP DUP2 SWAP4 POP POP POP POP SWAP2 SWAP1 POP JUMP JUMPDEST PUSH1 0x40 MLOAD DUP1 PUSH1 0xE0 ADD PUSH1 0x40 MSTORE DUP1 PUSH1 0x6 SLOAD DUP2 MSTORE PUSH1 0x20 ADD DUP8 DUP2 MSTORE PUSH1 0x20 ADD DUP7 DUP2 MSTORE PUSH1 0x20 ADD DUP6 DUP2 MSTORE PUSH1 0x20 ADD DUP5 DUP2 MSTORE PUSH1 0x20 ADD DUP4 DUP2 MSTORE PUSH1 0x20 ADD DUP3 DUP2 MSTORE POP PUSH1 0x10 PUSH1 0x0 PUSH1 0x6 SLOAD DUP2 MSTORE PUSH1 0x20 ADD SWAP1 DUP2 MSTORE PUSH1 0x20 ADD PUSH1 0x0 KECCAK256 PUSH1 0x0 DUP3 ADD MLOAD DUP2 PUSH1 0x0 ADD SSTORE PUSH1 0x20 DUP3 ADD MLOAD DUP2 PUSH1 0x1 ADD SSTORE PUSH1 0x40 DUP3 ADD MLOAD DUP2 PUSH1 0x2 ADD SSTORE PUSH1 0x60 DUP3 ADD MLOAD DUP2 PUSH1 0x3 ADD SSTORE PUSH1 0x80 DUP3 ADD MLOAD DUP2 PUSH1 0x4 ADD SWAP1 DUP1 MLOAD SWAP1 PUSH1 0x20 ADD SWAP1 PUSH2 0x15F9 SWAP3 SWAP2 SWAP1 PUSH2 0x3A0C JUMP JUMPDEST POP PUSH1 0xA0 DUP3 ADD MLOAD DUP2 PUSH1 0x5 ADD SWAP1 DUP1 MLOAD SWAP1 PUSH1 0x20 ADD SWAP1 PUSH2 0x1616 SWAP3 SWAP2 SWAP1 PUSH2 0x3A0C JUMP JUMPDEST POP PUSH1 0xC0 DUP3 ADD MLOAD DUP2 PUSH1 0x6 ADD SWAP1 DUP1 MLOAD SWAP1 PUSH1 0x20 ADD SWAP1 PUSH2 0x1633 SWAP3 SWAP2 SWAP1 PUSH2 0x3A0C JUMP JUMPDEST POP SWAP1 POP POP PUSH1 0x6 PUSH1 0x0 DUP2 SLOAD DUP1 SWAP3 SWAP2 SWAP1 PUSH2 0x164A SWAP1 PUSH2 0x4D5A JUMP JUMPDEST SWAP2 SWAP1 POP SSTORE POP POP POP POP POP POP POP JUMP JUMPDEST PUSH1 0x40 MLOAD DUP1 PUSH2 0x180 ADD PUSH1 0x40 MSTORE DUP1 PUSH1 0x2 SLOAD DUP2 MSTORE PUSH1 0x20 ADD DUP10 DUP2 MSTORE PUSH1 0x20 ADD DUP9 DUP2 MSTORE PUSH1 0x20 ADD DUP8 DUP2 MSTORE PUSH1 0x20 ADD DUP7 DUP2 MSTORE PUSH1 0x20 ADD DUP6 DUP2 MSTORE PUSH1 0x20 ADD DUP5 DUP2 MSTORE PUSH1 0x20 ADD DUP4 DUP2 MSTORE PUSH1 0x20 ADD DUP3 DUP2 MSTORE PUSH1 0x20 ADD PUSH1 0x40 MLOAD DUP1 PUSH1 0x40 ADD PUSH1 0x40 MSTORE DUP1 PUSH1 0x6 DUP2 MSTORE PUSH1 0x20 ADD PUSH32 0x7445564D4F530000000000000000000000000000000000000000000000000000 DUP2 MSTORE POP DUP2 MSTORE PUSH1 0x20 ADD PUSH1 0x0 DUP2 MSTORE PUSH1 0x20 ADD DUP3 DUP2 MSTORE POP PUSH1 0x9 PUSH1 0x0 PUSH1 0x2 SLOAD DUP2 MSTORE PUSH1 0x20 ADD SWAP1 DUP2 MSTORE PUSH1 0x20 ADD PUSH1 0x0 KECCAK256 PUSH1 0x0 DUP3 ADD MLOAD DUP2 PUSH1 0x0 ADD SSTORE PUSH1 0x20 DUP3 ADD MLOAD DUP2 PUSH1 0x1 ADD SSTORE PUSH1 0x40 DUP3 ADD MLOAD DUP2 PUSH1 0x2 ADD SWAP1 DUP1 MLOAD SWAP1 PUSH1 0x20 ADD SWAP1 PUSH2 0x1726 SWAP3 SWAP2 SWAP1 PUSH2 0x3A0C JUMP JUMPDEST POP PUSH1 0x60 DUP3 ADD MLOAD DUP2 PUSH1 0x3 ADD SWAP1 DUP1 MLOAD SWAP1 PUSH1 0x20 ADD SWAP1 PUSH2 0x1743 SWAP3 SWAP2 SWAP1 PUSH2 0x3A0C JUMP JUMPDEST POP PUSH1 0x80 DUP3 ADD MLOAD DUP2 PUSH1 0x4 ADD SWAP1 DUP1 MLOAD SWAP1 PUSH1 0x20 ADD SWAP1 PUSH2 0x1760 SWAP3 SWAP2 SWAP1 PUSH2 0x3A0C JUMP JUMPDEST POP PUSH1 0xA0 DUP3 ADD MLOAD DUP2 PUSH1 0x5 ADD SWAP1 DUP1 MLOAD SWAP1 PUSH1 0x20 ADD SWAP1 PUSH2 0x177D SWAP3 SWAP2 SWAP1 PUSH2 0x3A0C JUMP JUMPDEST POP PUSH1 0xC0 DUP3 ADD MLOAD DUP2 PUSH1 0x6 ADD SSTORE PUSH1 0xE0 DUP3 ADD MLOAD DUP2 PUSH1 0x7 ADD SSTORE PUSH2 0x100 DUP3 ADD MLOAD DUP2 PUSH1 0x8 ADD SSTORE PUSH2 0x120 DUP3 ADD MLOAD DUP2 PUSH1 0x9 ADD SWAP1 DUP1 MLOAD SWAP1 PUSH1 0x20 ADD SWAP1 PUSH2 0x17BA SWAP3 SWAP2 SWAP1 PUSH2 0x3A0C JUMP JUMPDEST POP PUSH2 0x140 DUP3 ADD MLOAD DUP2 PUSH1 0xA ADD SSTORE PUSH2 0x160 DUP3 ADD MLOAD DUP2 PUSH1 0xB ADD SSTORE SWAP1 POP POP PUSH1 0x2 PUSH1 0x0 DUP2 SLOAD DUP1 SWAP3 SWAP2 SWAP1 PUSH2 0x17E7 SWAP1 PUSH2 0x4D5A JUMP JUMPDEST SWAP2 SWAP1 POP SSTORE POP POP POP POP POP POP POP POP POP JUMP JUMPDEST PUSH1 0xB PUSH1 0x0 DUP3 DUP2 MSTORE PUSH1 0x20 ADD SWAP1 DUP2 MSTORE PUSH1 0x20 ADD PUSH1 0x0 KECCAK256 PUSH1 0x0 DUP1 DUP3 ADD PUSH1 0x0 SWAP1 SSTORE PUSH1 0x1 DUP3 ADD PUSH1 0x0 SWAP1 SSTORE PUSH1 0x2 DUP3 ADD PUSH1 0x0 SWAP1 SSTORE PUSH1 0x3 DUP3 ADD PUSH1 0x0 PUSH2 0x1832 SWAP2 SWAP1 PUSH2 0x39CC JUMP JUMPDEST PUSH1 0x4 DUP3 ADD PUSH1 0x0 PUSH2 0x1842 SWAP2 SWAP1 PUSH2 0x39CC JUMP JUMPDEST PUSH1 0x5 DUP3 ADD PUSH1 0x0 PUSH2 0x1852 SWAP2 SWAP1 PUSH2 0x39CC JUMP JUMPDEST PUSH1 0x6 DUP3 ADD PUSH1 0x0 PUSH2 0x1862 SWAP2 SWAP1 PUSH2 0x39CC JUMP JUMPDEST PUSH1 0x7 DUP3 ADD PUSH1 0x0 SWAP1 SSTORE PUSH1 0x8 DUP3 ADD PUSH1 0x0 SWAP1 SSTORE POP POP PUSH1 0xD PUSH1 0x0 DUP3 DUP2 MSTORE PUSH1 0x20 ADD SWAP1 DUP2 MSTORE PUSH1 0x20 ADD PUSH1 0x0 KECCAK256 PUSH1 0x0 PUSH2 0x1893 SWAP2 SWAP1 PUSH2 0x39CC JUMP JUMPDEST PUSH1 0x0 JUMPDEST PUSH1 0x6 SLOAD DUP2 LT ISZERO PUSH2 0x1938 JUMPI DUP2 PUSH1 0x10 PUSH1 0x0 DUP4 DUP2 MSTORE PUSH1 0x20 ADD SWAP1 DUP2 MSTORE PUSH1 0x20 ADD PUSH1 0x0 KECCAK256 PUSH1 0x3 ADD SLOAD EQ ISZERO PUSH2 0x1925 JUMPI PUSH1 0x10 PUSH1 0x0 DUP3 DUP2 MSTORE PUSH1 0x20 ADD SWAP1 DUP2 MSTORE PUSH1 0x20 ADD PUSH1 0x0 KECCAK256 PUSH1 0x0 DUP1 DUP3 ADD PUSH1 0x0 SWAP1 SSTORE PUSH1 0x1 DUP3 ADD PUSH1 0x0 SWAP1 SSTORE PUSH1 0x2 DUP3 ADD PUSH1 0x0 SWAP1 SSTORE PUSH1 0x3 DUP3 ADD PUSH1 0x0 SWAP1 SSTORE PUSH1 0x4 DUP3 ADD PUSH1 0x0 PUSH2 0x1902 SWAP2 SWAP1 PUSH2 0x39CC JUMP JUMPDEST PUSH1 0x5 DUP3 ADD PUSH1 0x0 PUSH2 0x1912 SWAP2 SWAP1 PUSH2 0x39CC JUMP JUMPDEST PUSH1 0x6 DUP3 ADD PUSH1 0x0 PUSH2 0x1922 SWAP2 SWAP1 PUSH2 0x39CC JUMP JUMPDEST POP POP JUMPDEST DUP1 DUP1 PUSH2 0x1930 SWAP1 PUSH2 0x4D5A JUMP JUMPDEST SWAP2 POP POP PUSH2 0x1896 JUMP JUMPDEST POP PUSH1 0x0 JUMPDEST PUSH1 0x7 SLOAD DUP2 LT ISZERO PUSH2 0x19BE JUMPI DUP2 PUSH1 0x11 PUSH1 0x0 DUP4 DUP2 MSTORE PUSH1 0x20 ADD SWAP1 DUP2 MSTORE PUSH1 0x20 ADD PUSH1 0x0 KECCAK256 PUSH1 0x3 ADD SLOAD EQ ISZERO PUSH2 0x19AB JUMPI PUSH1 0x11 PUSH1 0x0 DUP3 DUP2 MSTORE PUSH1 0x20 ADD SWAP1 DUP2 MSTORE PUSH1 0x20 ADD PUSH1 0x0 KECCAK256 PUSH1 0x0 DUP1 DUP3 ADD PUSH1 0x0 SWAP1 SSTORE PUSH1 0x1 DUP3 ADD PUSH1 0x0 SWAP1 SSTORE PUSH1 0x2 DUP3 ADD PUSH1 0x0 SWAP1 SSTORE PUSH1 0x3 DUP3 ADD PUSH1 0x0 SWAP1 SSTORE PUSH1 0x4 DUP3 ADD PUSH1 0x0 PUSH2 0x19A8 SWAP2 SWAP1 PUSH2 0x39CC JUMP JUMPDEST POP POP JUMPDEST DUP1 DUP1 PUSH2 0x19B6 SWAP1 PUSH2 0x4D5A JUMP JUMPDEST SWAP2 POP POP PUSH2 0x193C JUMP JUMPDEST POP POP JUMP JUMPDEST PUSH1 0x1 SLOAD DUP2 JUMP JUMPDEST PUSH1 0x40 MLOAD DUP1 PUSH1 0xA0 ADD PUSH1 0x40 MSTORE DUP1 PUSH1 0x7 SLOAD DUP2 MSTORE PUSH1 0x20 ADD DUP3 DUP2 MSTORE PUSH1 0x20 ADD DUP5 DUP2 MSTORE PUSH1 0x20 ADD DUP6 DUP2 MSTORE PUSH1 0x20 ADD DUP4 DUP2 MSTORE POP PUSH1 0x11 PUSH1 0x0 PUSH1 0x7 SLOAD DUP2 MSTORE PUSH1 0x20 ADD SWAP1 DUP2 MSTORE PUSH1 0x20 ADD PUSH1 0x0 KECCAK256 PUSH1 0x0 DUP3 ADD MLOAD DUP2 PUSH1 0x0 ADD SSTORE PUSH1 0x20 DUP3 ADD MLOAD DUP2 PUSH1 0x1 ADD SSTORE PUSH1 0x40 DUP3 ADD MLOAD DUP2 PUSH1 0x2 ADD SSTORE PUSH1 0x60 DUP3 ADD MLOAD DUP2 PUSH1 0x3 ADD SSTORE PUSH1 0x80 DUP3 ADD MLOAD DUP2 PUSH1 0x4 ADD SWAP1 DUP1 MLOAD SWAP1 PUSH1 0x20 ADD SWAP1 PUSH2 0x1A4A SWAP3 SWAP2 SWAP1 PUSH2 0x3A0C JUMP JUMPDEST POP SWAP1 POP POP PUSH1 0x1 PUSH1 0xB PUSH1 0x0 DUP7 DUP2 MSTORE PUSH1 0x20 ADD SWAP1 DUP2 MSTORE PUSH1 0x20 ADD PUSH1 0x0 KECCAK256 PUSH1 0x8 ADD PUSH1 0x0 DUP3 DUP3 SLOAD PUSH2 0x1A75 SWAP2 SWAP1 PUSH2 0x4BEF JUMP JUMPDEST SWAP3 POP POP DUP2 SWAP1 SSTORE POP DUP2 PUSH1 0xB PUSH1 0x0 DUP7 DUP2 MSTORE PUSH1 0x20 ADD SWAP1 DUP2 MSTORE PUSH1 0x20 ADD PUSH1 0x0 KECCAK256 PUSH1 0x5 ADD SWAP1 DUP1 MLOAD SWAP1 PUSH1 0x20 ADD SWAP1 PUSH2 0x1AA6 SWAP3 SWAP2 SWAP1 PUSH2 0x3A0C JUMP JUMPDEST POP PUSH1 0x7 PUSH1 0x0 DUP2 SLOAD DUP1 SWAP3 SWAP2 SWAP1 PUSH2 0x1ABA SWAP1 PUSH2 0x4D5A JUMP JUMPDEST SWAP2 SWAP1 POP SSTORE POP POP POP POP POP JUMP JUMPDEST PUSH1 0x12 PUSH1 0x0 SWAP1 SLOAD SWAP1 PUSH2 0x100 EXP SWAP1 DIV PUSH20 0xFFFFFFFFFFFFFFFFFFFFFFFFFFFFFFFFFFFFFFFF AND DUP2 JUMP JUMPDEST PUSH1 0x60 PUSH1 0x0 JUMPDEST PUSH1 0x5 SLOAD DUP2 LT ISZERO PUSH2 0x1B52 JUMPI DUP3 PUSH1 0xF PUSH1 0x0 DUP4 DUP2 MSTORE PUSH1 0x20 ADD SWAP1 DUP2 MSTORE PUSH1 0x20 ADD PUSH1 0x0 KECCAK256 PUSH1 0x2 ADD SLOAD EQ ISZERO PUSH2 0x1B3F JUMPI PUSH2 0x1B37 PUSH1 0xF PUSH1 0x0 DUP4 DUP2 MSTORE PUSH1 0x20 ADD SWAP1 DUP2 MSTORE PUSH1 0x20 ADD PUSH1 0x0 KECCAK256 PUSH1 0x1 ADD SLOAD PUSH2 0x37A1 JUMP JUMPDEST SWAP2 POP POP PUSH2 0x1B8C JUMP JUMPDEST DUP1 DUP1 PUSH2 0x1B4A SWAP1 PUSH2 0x4D5A JUMP JUMPDEST SWAP2 POP POP PUSH2 0x1AF0 JUMP JUMPDEST POP PUSH1 0x40 MLOAD DUP1 PUSH1 0x40 ADD PUSH1 0x40 MSTORE DUP1 PUSH1 0x5 DUP2 MSTORE PUSH1 0x20 ADD PUSH32 0x46616C7365000000000000000000000000000000000000000000000000000000 DUP2 MSTORE POP SWAP1 POP JUMPDEST SWAP2 SWAP1 POP JUMP JUMPDEST DUP1 PUSH1 0x8 PUSH1 0x0 DUP5 DUP2 MSTORE PUSH1 0x20 ADD SWAP1 DUP2 MSTORE PUSH1 0x20 ADD PUSH1 0x0 KECCAK256 PUSH1 0x8 ADD SWAP1 DUP1 MLOAD SWAP1 PUSH1 0x20 ADD SWAP1 PUSH2 0x1BBB SWAP3 SWAP2 SWAP1 PUSH2 0x3A0C JUMP JUMPDEST POP POP POP JUMP JUMPDEST PUSH1 0x11 PUSH1 0x20 MSTORE DUP1 PUSH1 0x0 MSTORE PUSH1 0x40 PUSH1 0x0 KECCAK256 PUSH1 0x0 SWAP2 POP SWAP1 POP DUP1 PUSH1 0x0 ADD SLOAD SWAP1 DUP1 PUSH1 0x1 ADD SLOAD SWAP1 DUP1 PUSH1 0x2 ADD SLOAD SWAP1 DUP1 PUSH1 0x3 ADD SLOAD SWAP1 DUP1 PUSH1 0x4 ADD DUP1 SLOAD PUSH2 0x1BFB SWAP1 PUSH2 0x4CF7 JUMP JUMPDEST DUP1 PUSH1 0x1F ADD PUSH1 0x20 DUP1 SWAP2 DIV MUL PUSH1 0x20 ADD PUSH1 0x40 MLOAD SWAP1 DUP2 ADD PUSH1 0x40 MSTORE DUP1 SWAP3 SWAP2 SWAP1 DUP2 DUP2 MSTORE PUSH1 0x20 ADD DUP3 DUP1 SLOAD PUSH2 0x1C27 SWAP1 PUSH2 0x4CF7 JUMP JUMPDEST DUP1 ISZERO PUSH2 0x1C74 JUMPI DUP1 PUSH1 0x1F LT PUSH2 0x1C49 JUMPI PUSH2 0x100 DUP1 DUP4 SLOAD DIV MUL DUP4 MSTORE SWAP2 PUSH1 0x20 ADD SWAP2 PUSH2 0x1C74 JUMP JUMPDEST DUP3 ADD SWAP2 SWAP1 PUSH1 0x0 MSTORE PUSH1 0x20 PUSH1 0x0 KECCAK256 SWAP1 JUMPDEST DUP2 SLOAD DUP2 MSTORE SWAP1 PUSH1 0x1 ADD SWAP1 PUSH1 0x20 ADD DUP1 DUP4 GT PUSH2 0x1C57 JUMPI DUP3 SWAP1 SUB PUSH1 0x1F AND DUP3 ADD SWAP2 JUMPDEST POP POP POP POP POP SWAP1 POP DUP6 JUMP JUMPDEST PUSH1 0x2 SLOAD DUP2 JUMP JUMPDEST DUP1 PUSH1 0xA PUSH1 0x0 DUP5 DUP2 MSTORE PUSH1 0x20 ADD SWAP1 DUP2 MSTORE PUSH1 0x20 ADD PUSH1 0x0 KECCAK256 SWAP1 DUP1 MLOAD SWAP1 PUSH1 0x20 ADD SWAP1 PUSH2 0x1CAB SWAP3 SWAP2 SWAP1 PUSH2 0x3A0C JUMP JUMPDEST POP POP POP JUMP JUMPDEST PUSH1 0x0 JUMPDEST PUSH1 0x0 SLOAD DUP2 LT ISZERO PUSH2 0x1D6E JUMPI PUSH1 0x8 PUSH1 0x0 DUP3 DUP2 MSTORE PUSH1 0x20 ADD SWAP1 DUP2 MSTORE PUSH1 0x20 ADD PUSH1 0x0 KECCAK256 PUSH1 0x0 DUP1 DUP3 ADD PUSH1 0x0 SWAP1 SSTORE PUSH1 0x1 DUP3 ADD PUSH1 0x0 PUSH2 0x1CE9 SWAP2 SWAP1 PUSH2 0x39CC JUMP JUMPDEST PUSH1 0x2 DUP3 ADD PUSH1 0x0 PUSH2 0x1CF9 SWAP2 SWAP1 PUSH2 0x39CC JUMP JUMPDEST PUSH1 0x3 DUP3 ADD PUSH1 0x0 PUSH2 0x1D09 SWAP2 SWAP1 PUSH2 0x39CC JUMP JUMPDEST PUSH1 0x4 DUP3 ADD PUSH1 0x0 PUSH2 0x1D19 SWAP2 SWAP1 PUSH2 0x39CC JUMP JUMPDEST PUSH1 0x5 DUP3 ADD PUSH1 0x0 PUSH2 0x1D29 SWAP2 SWAP1 PUSH2 0x39CC JUMP JUMPDEST PUSH1 0x6 DUP3 ADD PUSH1 0x0 PUSH2 0x1D39 SWAP2 SWAP1 PUSH2 0x39CC JUMP JUMPDEST PUSH1 0x7 DUP3 ADD PUSH1 0x0 SWAP1 SSTORE PUSH1 0x8 DUP3 ADD PUSH1 0x0 PUSH2 0x1D51 SWAP2 SWAP1 PUSH2 0x39CC JUMP JUMPDEST PUSH1 0x9 DUP3 ADD PUSH1 0x0 SWAP1 SSTORE POP POP DUP1 DUP1 PUSH2 0x1D66 SWAP1 PUSH2 0x4D5A JUMP JUMPDEST SWAP2 POP POP PUSH2 0x1CB3 JUMP JUMPDEST POP PUSH1 0x0 JUMPDEST PUSH1 0x2 SLOAD DUP2 LT ISZERO PUSH2 0x1E2D JUMPI PUSH1 0x9 PUSH1 0x0 DUP3 DUP2 MSTORE PUSH1 0x20 ADD SWAP1 DUP2 MSTORE PUSH1 0x20 ADD PUSH1 0x0 KECCAK256 PUSH1 0x0 DUP1 DUP3 ADD PUSH1 0x0 SWAP1 SSTORE PUSH1 0x1 DUP3 ADD PUSH1 0x0 SWAP1 SSTORE PUSH1 0x2 DUP3 ADD PUSH1 0x0 PUSH2 0x1DB0 SWAP2 SWAP1 PUSH2 0x39CC JUMP JUMPDEST PUSH1 0x3 DUP3 ADD PUSH1 0x0 PUSH2 0x1DC0 SWAP2 SWAP1 PUSH2 0x39CC JUMP JUMPDEST PUSH1 0x4 DUP3 ADD PUSH1 0x0 PUSH2 0x1DD0 SWAP2 SWAP1 PUSH2 0x39CC JUMP JUMPDEST PUSH1 0x5 DUP3 ADD PUSH1 0x0 PUSH2 0x1DE0 SWAP2 SWAP1 PUSH2 0x39CC JUMP JUMPDEST PUSH1 0x6 DUP3 ADD PUSH1 0x0 SWAP1 SSTORE PUSH1 0x7 DUP3 ADD PUSH1 0x0 SWAP1 SSTORE PUSH1 0x8 DUP3 ADD PUSH1 0x0 SWAP1 SSTORE PUSH1 0x9 DUP3 ADD PUSH1 0x0 PUSH2 0x1E08 SWAP2 SWAP1 PUSH2 0x39CC JUMP JUMPDEST PUSH1 0xA DUP3 ADD PUSH1 0x0 SWAP1 SSTORE PUSH1 0xB DUP3 ADD PUSH1 0x0 SWAP1 SSTORE POP POP DUP1 DUP1 PUSH2 0x1E25 SWAP1 PUSH2 0x4D5A JUMP JUMPDEST SWAP2 POP POP PUSH2 0x1D72 JUMP JUMPDEST POP PUSH1 0x0 JUMPDEST PUSH1 0x2 SLOAD DUP2 LT ISZERO PUSH2 0x1E6D JUMPI PUSH1 0xA PUSH1 0x0 DUP3 DUP2 MSTORE PUSH1 0x20 ADD SWAP1 DUP2 MSTORE PUSH1 0x20 ADD PUSH1 0x0 KECCAK256 PUSH1 0x0 PUSH2 0x1E5A SWAP2 SWAP1 PUSH2 0x39CC JUMP JUMPDEST DUP1 DUP1 PUSH2 0x1E65 SWAP1 PUSH2 0x4D5A JUMP JUMPDEST SWAP2 POP POP PUSH2 0x1E31 JUMP JUMPDEST POP PUSH1 0x0 JUMPDEST PUSH1 0x3 SLOAD DUP2 LT ISZERO PUSH2 0x1F0C JUMPI PUSH1 0xB PUSH1 0x0 DUP3 DUP2 MSTORE PUSH1 0x20 ADD SWAP1 DUP2 MSTORE PUSH1 0x20 ADD PUSH1 0x0 KECCAK256 PUSH1 0x0 DUP1 DUP3 ADD PUSH1 0x0 SWAP1 SSTORE PUSH1 0x1 DUP3 ADD PUSH1 0x0 SWAP1 SSTORE PUSH1 0x2 DUP3 ADD PUSH1 0x0 SWAP1 SSTORE PUSH1 0x3 DUP3 ADD PUSH1 0x0 PUSH2 0x1EB7 SWAP2 SWAP1 PUSH2 0x39CC JUMP JUMPDEST PUSH1 0x4 DUP3 ADD PUSH1 0x0 PUSH2 0x1EC7 SWAP2 SWAP1 PUSH2 0x39CC JUMP JUMPDEST PUSH1 0x5 DUP3 ADD PUSH1 0x0 PUSH2 0x1ED7 SWAP2 SWAP1 PUSH2 0x39CC JUMP JUMPDEST PUSH1 0x6 DUP3 ADD PUSH1 0x0 PUSH2 0x1EE7 SWAP2 SWAP1 PUSH2 0x39CC JUMP JUMPDEST PUSH1 0x7 DUP3 ADD PUSH1 0x0 SWAP1 SSTORE PUSH1 0x8 DUP3 ADD PUSH1 0x0 SWAP1 SSTORE POP POP DUP1 DUP1 PUSH2 0x1F04 SWAP1 PUSH2 0x4D5A JUMP JUMPDEST SWAP2 POP POP PUSH2 0x1E71 JUMP JUMPDEST POP PUSH1 0x0 JUMPDEST PUSH1 0x4 SLOAD DUP2 LT ISZERO PUSH2 0x1F63 JUMPI PUSH1 0xC PUSH1 0x0 DUP3 DUP2 MSTORE PUSH1 0x20 ADD SWAP1 DUP2 MSTORE PUSH1 0x20 ADD PUSH1 0x0 KECCAK256 PUSH1 0x0 DUP1 DUP3 ADD PUSH1 0x0 PUSH2 0x1F3E SWAP2 SWAP1 PUSH2 0x39CC JUMP JUMPDEST PUSH1 0x1 DUP3 ADD PUSH1 0x0 PUSH2 0x1F4E SWAP2 SWAP1 PUSH2 0x39CC JUMP JUMPDEST POP POP DUP1 DUP1 PUSH2 0x1F5B SWAP1 PUSH2 0x4D5A JUMP JUMPDEST SWAP2 POP POP PUSH2 0x1F10 JUMP JUMPDEST POP PUSH1 0x0 JUMPDEST PUSH1 0x2 SLOAD DUP2 LT ISZERO PUSH2 0x1FA3 JUMPI PUSH1 0xD PUSH1 0x0 DUP3 DUP2 MSTORE PUSH1 0x20 ADD SWAP1 DUP2 MSTORE PUSH1 0x20 ADD PUSH1 0x0 KECCAK256 PUSH1 0x0 PUSH2 0x1F90 SWAP2 SWAP1 PUSH2 0x39CC JUMP JUMPDEST DUP1 DUP1 PUSH2 0x1F9B SWAP1 PUSH2 0x4D5A JUMP JUMPDEST SWAP2 POP POP PUSH2 0x1F67 JUMP JUMPDEST POP PUSH1 0x0 JUMPDEST PUSH1 0x0 SLOAD DUP2 LT ISZERO PUSH2 0x2052 JUMPI PUSH1 0xE PUSH1 0x0 DUP3 DUP2 MSTORE PUSH1 0x20 ADD SWAP1 DUP2 MSTORE PUSH1 0x20 ADD PUSH1 0x0 KECCAK256 PUSH1 0x0 DUP1 DUP3 ADD PUSH1 0x0 SWAP1 SSTORE PUSH1 0x1 DUP3 ADD PUSH1 0x0 PUSH2 0x1FDD SWAP2 SWAP1 PUSH2 0x39CC JUMP JUMPDEST PUSH1 0x2 DUP3 ADD PUSH1 0x0 PUSH2 0x1FED SWAP2 SWAP1 PUSH2 0x39CC JUMP JUMPDEST PUSH1 0x3 DUP3 ADD PUSH1 0x0 PUSH2 0x1FFD SWAP2 SWAP1 PUSH2 0x39CC JUMP JUMPDEST PUSH1 0x4 DUP3 ADD PUSH1 0x0 PUSH2 0x200D SWAP2 SWAP1 PUSH2 0x39CC JUMP JUMPDEST PUSH1 0x5 DUP3 ADD PUSH1 0x0 PUSH2 0x201D SWAP2 SWAP1 PUSH2 0x39CC JUMP JUMPDEST PUSH1 0x6 DUP3 ADD PUSH1 0x0 PUSH2 0x202D SWAP2 SWAP1 PUSH2 0x39CC JUMP JUMPDEST PUSH1 0x7 DUP3 ADD PUSH1 0x0 PUSH2 0x203D SWAP2 SWAP1 PUSH2 0x39CC JUMP JUMPDEST POP POP DUP1 DUP1 PUSH2 0x204A SWAP1 PUSH2 0x4D5A JUMP JUMPDEST SWAP2 POP POP PUSH2 0x1FA7 JUMP JUMPDEST POP PUSH1 0x0 JUMPDEST PUSH1 0x5 SLOAD DUP2 LT ISZERO PUSH2 0x20C1 JUMPI PUSH1 0xF PUSH1 0x0 DUP3 DUP2 MSTORE PUSH1 0x20 ADD SWAP1 DUP2 MSTORE PUSH1 0x20 ADD PUSH1 0x0 KECCAK256 PUSH1 0x0 DUP1 DUP3 ADD PUSH1 0x0 SWAP1 SSTORE PUSH1 0x1 DUP3 ADD PUSH1 0x0 SWAP1 SSTORE PUSH1 0x2 DUP3 ADD PUSH1 0x0 SWAP1 SSTORE PUSH1 0x3 DUP3 ADD PUSH1 0x0 PUSH2 0x209C SWAP2 SWAP1 PUSH2 0x39CC JUMP JUMPDEST PUSH1 0x4 DUP3 ADD PUSH1 0x0 PUSH2 0x20AC SWAP2 SWAP1 PUSH2 0x39CC JUMP JUMPDEST POP POP DUP1 DUP1 PUSH2 0x20B9 SWAP1 PUSH2 0x4D5A JUMP JUMPDEST SWAP2 POP POP PUSH2 0x2056 JUMP JUMPDEST POP PUSH1 0x0 JUMPDEST PUSH1 0x6 SLOAD DUP2 LT ISZERO PUSH2 0x2148 JUMPI PUSH1 0x10 PUSH1 0x0 DUP3 DUP2 MSTORE PUSH1 0x20 ADD SWAP1 DUP2 MSTORE PUSH1 0x20 ADD PUSH1 0x0 KECCAK256 PUSH1 0x0 DUP1 DUP3 ADD PUSH1 0x0 SWAP1 SSTORE PUSH1 0x1 DUP3 ADD PUSH1 0x0 SWAP1 SSTORE PUSH1 0x2 DUP3 ADD PUSH1 0x0 SWAP1 SSTORE PUSH1 0x3 DUP3 ADD PUSH1 0x0 SWAP1 SSTORE PUSH1 0x4 DUP3 ADD PUSH1 0x0 PUSH2 0x2113 SWAP2 SWAP1 PUSH2 0x39CC JUMP JUMPDEST PUSH1 0x5 DUP3 ADD PUSH1 0x0 PUSH2 0x2123 SWAP2 SWAP1 PUSH2 0x39CC JUMP JUMPDEST PUSH1 0x6 DUP3 ADD PUSH1 0x0 PUSH2 0x2133 SWAP2 SWAP1 PUSH2 0x39CC JUMP JUMPDEST POP POP DUP1 DUP1 PUSH2 0x2140 SWAP1 PUSH2 0x4D5A JUMP JUMPDEST SWAP2 POP POP PUSH2 0x20C5 JUMP JUMPDEST POP PUSH1 0x0 JUMPDEST PUSH1 0x7 SLOAD DUP2 LT ISZERO PUSH2 0x21AF JUMPI PUSH1 0x11 PUSH1 0x0 DUP3 DUP2 MSTORE PUSH1 0x20 ADD SWAP1 DUP2 MSTORE PUSH1 0x20 ADD PUSH1 0x0 KECCAK256 PUSH1 0x0 DUP1 DUP3 ADD PUSH1 0x0 SWAP1 SSTORE PUSH1 0x1 DUP3 ADD PUSH1 0x0 SWAP1 SSTORE PUSH1 0x2 DUP3 ADD PUSH1 0x0 SWAP1 SSTORE PUSH1 0x3 DUP3 ADD PUSH1 0x0 SWAP1 SSTORE PUSH1 0x4 DUP3 ADD PUSH1 0x0 PUSH2 0x219A SWAP2 SWAP1 PUSH2 0x39CC JUMP JUMPDEST POP POP DUP1 DUP1 PUSH2 0x21A7 SWAP1 PUSH2 0x4D5A JUMP JUMPDEST SWAP2 POP POP PUSH2 0x214C JUMP JUMPDEST POP PUSH1 0x0 DUP1 DUP2 SWAP1 SSTORE POP PUSH1 0x0 PUSH1 0x2 DUP2 SWAP1 SSTORE POP PUSH1 0x0 PUSH1 0x3 DUP2 SWAP1 SSTORE POP PUSH1 0x0 PUSH1 0x4 DUP2 SWAP1 SSTORE POP PUSH1 0x0 PUSH1 0x5 DUP2 SWAP1 SSTORE POP PUSH1 0x0 PUSH1 0x6 DUP2 SWAP1 SSTORE POP PUSH1 0x0 PUSH1 0x7 DUP2 SWAP1 SSTORE POP JUMP JUMPDEST PUSH1 0x7 SLOAD DUP2 JUMP JUMPDEST PUSH1 0x9 PUSH1 0x20 MSTORE DUP1 PUSH1 0x0 MSTORE PUSH1 0x40 PUSH1 0x0 KECCAK256 PUSH1 0x0 SWAP2 POP SWAP1 POP DUP1 PUSH1 0x0 ADD SLOAD SWAP1 DUP1 PUSH1 0x1 ADD SLOAD SWAP1 DUP1 PUSH1 0x2 ADD DUP1 SLOAD PUSH2 0x221E SWAP1 PUSH2 0x4CF7 JUMP JUMPDEST DUP1 PUSH1 0x1F ADD PUSH1 0x20 DUP1 SWAP2 DIV MUL PUSH1 0x20 ADD PUSH1 0x40 MLOAD SWAP1 DUP2 ADD PUSH1 0x40 MSTORE DUP1 SWAP3 SWAP2 SWAP1 DUP2 DUP2 MSTORE PUSH1 0x20 ADD DUP3 DUP1 SLOAD PUSH2 0x224A SWAP1 PUSH2 0x4CF7 JUMP JUMPDEST DUP1 ISZERO PUSH2 0x2297 JUMPI DUP1 PUSH1 0x1F LT PUSH2 0x226C JUMPI PUSH2 0x100 DUP1 DUP4 SLOAD DIV MUL DUP4 MSTORE SWAP2 PUSH1 0x20 ADD SWAP2 PUSH2 0x2297 JUMP JUMPDEST DUP3 ADD SWAP2 SWAP1 PUSH1 0x0 MSTORE PUSH1 0x20 PUSH1 0x0 KECCAK256 SWAP1 JUMPDEST DUP2 SLOAD DUP2 MSTORE SWAP1 PUSH1 0x1 ADD SWAP1 PUSH1 0x20 ADD DUP1 DUP4 GT PUSH2 0x227A JUMPI DUP3 SWAP1 SUB PUSH1 0x1F AND DUP3 ADD SWAP2 JUMPDEST POP POP POP POP POP SWAP1 DUP1 PUSH1 0x3 ADD DUP1 SLOAD PUSH2 0x22AC SWAP1 PUSH2 0x4CF7 JUMP JUMPDEST DUP1 PUSH1 0x1F ADD PUSH1 0x20 DUP1 SWAP2 DIV MUL PUSH1 0x20 ADD PUSH1 0x40 MLOAD SWAP1 DUP2 ADD PUSH1 0x40 MSTORE DUP1 SWAP3 SWAP2 SWAP1 DUP2 DUP2 MSTORE PUSH1 0x20 ADD DUP3 DUP1 SLOAD PUSH2 0x22D8 SWAP1 PUSH2 0x4CF7 JUMP JUMPDEST DUP1 ISZERO PUSH2 0x2325 JUMPI DUP1 PUSH1 0x1F LT PUSH2 0x22FA JUMPI PUSH2 0x100 DUP1 DUP4 SLOAD DIV MUL DUP4 MSTORE SWAP2 PUSH1 0x20 ADD SWAP2 PUSH2 0x2325 JUMP JUMPDEST DUP3 ADD SWAP2 SWAP1 PUSH1 0x0 MSTORE PUSH1 0x20 PUSH1 0x0 KECCAK256 SWAP1 JUMPDEST DUP2 SLOAD DUP2 MSTORE SWAP1 PUSH1 0x1 ADD SWAP1 PUSH1 0x20 ADD DUP1 DUP4 GT PUSH2 0x2308 JUMPI DUP3 SWAP1 SUB PUSH1 0x1F AND DUP3 ADD SWAP2 JUMPDEST POP POP POP POP POP SWAP1 DUP1 PUSH1 0x4 ADD DUP1 SLOAD PUSH2 0x233A SWAP1 PUSH2 0x4CF7 JUMP JUMPDEST DUP1 PUSH1 0x1F ADD PUSH1 0x20 DUP1 SWAP2 DIV MUL PUSH1 0x20 ADD PUSH1 0x40 MLOAD SWAP1 DUP2 ADD PUSH1 0x40 MSTORE DUP1 SWAP3 SWAP2 SWAP1 DUP2 DUP2 MSTORE PUSH1 0x20 ADD DUP3 DUP1 SLOAD PUSH2 0x2366 SWAP1 PUSH2 0x4CF7 JUMP JUMPDEST DUP1 ISZERO PUSH2 0x23B3 JUMPI DUP1 PUSH1 0x1F LT PUSH2 0x2388 JUMPI PUSH2 0x100 DUP1 DUP4 SLOAD DIV MUL DUP4 MSTORE SWAP2 PUSH1 0x20 ADD SWAP2 PUSH2 0x23B3 JUMP JUMPDEST DUP3 ADD SWAP2 SWAP1 PUSH1 0x0 MSTORE PUSH1 0x20 PUSH1 0x0 KECCAK256 SWAP1 JUMPDEST DUP2 SLOAD DUP2 MSTORE SWAP1 PUSH1 0x1 ADD SWAP1 PUSH1 0x20 ADD DUP1 DUP4 GT PUSH2 0x2396 JUMPI DUP3 SWAP1 SUB PUSH1 0x1F AND DUP3 ADD SWAP2 JUMPDEST POP POP POP POP POP SWAP1 DUP1 PUSH1 0x5 ADD DUP1 SLOAD PUSH2 0x23C8 SWAP1 PUSH2 0x4CF7 JUMP JUMPDEST DUP1 PUSH1 0x1F ADD PUSH1 0x20 DUP1 SWAP2 DIV MUL PUSH1 0x20 ADD PUSH1 0x40 MLOAD SWAP1 DUP2 ADD PUSH1 0x40 MSTORE DUP1 SWAP3 SWAP2 SWAP1 DUP2 DUP2 MSTORE PUSH1 0x20 ADD DUP3 DUP1 SLOAD PUSH2 0x23F4 SWAP1 PUSH2 0x4CF7 JUMP JUMPDEST DUP1 ISZERO PUSH2 0x2441 JUMPI DUP1 PUSH1 0x1F LT PUSH2 0x2416 JUMPI PUSH2 0x100 DUP1 DUP4 SLOAD DIV MUL DUP4 MSTORE SWAP2 PUSH1 0x20 ADD SWAP2 PUSH2 0x2441 JUMP JUMPDEST DUP3 ADD SWAP2 SWAP1 PUSH1 0x0 MSTORE PUSH1 0x20 PUSH1 0x0 KECCAK256 SWAP1 JUMPDEST DUP2 SLOAD DUP2 MSTORE SWAP1 PUSH1 0x1 ADD SWAP1 PUSH1 0x20 ADD DUP1 DUP4 GT PUSH2 0x2424 JUMPI DUP3 SWAP1 SUB PUSH1 0x1F AND DUP3 ADD SWAP2 JUMPDEST POP POP POP POP POP SWAP1 DUP1 PUSH1 0x6 ADD SLOAD SWAP1 DUP1 PUSH1 0x7 ADD SLOAD SWAP1 DUP1 PUSH1 0x8 ADD SLOAD SWAP1 DUP1 PUSH1 0x9 ADD DUP1 SLOAD PUSH2 0x2468 SWAP1 PUSH2 0x4CF7 JUMP JUMPDEST DUP1 PUSH1 0x1F ADD PUSH1 0x20 DUP1 SWAP2 DIV MUL PUSH1 0x20 ADD PUSH1 0x40 MLOAD SWAP1 DUP2 ADD PUSH1 0x40 MSTORE DUP1 SWAP3 SWAP2 SWAP1 DUP2 DUP2 MSTORE PUSH1 0x20 ADD DUP3 DUP1 SLOAD PUSH2 0x2494 SWAP1 PUSH2 0x4CF7 JUMP JUMPDEST DUP1 ISZERO PUSH2 0x24E1 JUMPI DUP1 PUSH1 0x1F LT PUSH2 0x24B6 JUMPI PUSH2 0x100 DUP1 DUP4 SLOAD DIV MUL DUP4 MSTORE SWAP2 PUSH1 0x20 ADD SWAP2 PUSH2 0x24E1 JUMP JUMPDEST DUP3 ADD SWAP2 SWAP1 PUSH1 0x0 MSTORE PUSH1 0x20 PUSH1 0x0 KECCAK256 SWAP1 JUMPDEST DUP2 SLOAD DUP2 MSTORE SWAP1 PUSH1 0x1 ADD SWAP1 PUSH1 0x20 ADD DUP1 DUP4 GT PUSH2 0x24C4 JUMPI DUP3 SWAP1 SUB PUSH1 0x1F AND DUP3 ADD SWAP2 JUMPDEST POP POP POP POP POP SWAP1 DUP1 PUSH1 0xA ADD SLOAD SWAP1 DUP1 PUSH1 0xB ADD SLOAD SWAP1 POP DUP13 JUMP JUMPDEST PUSH1 0x10 PUSH1 0x20 MSTORE DUP1 PUSH1 0x0 MSTORE PUSH1 0x40 PUSH1 0x0 KECCAK256 PUSH1 0x0 SWAP2 POP SWAP1 POP DUP1 PUSH1 0x0 ADD SLOAD SWAP1 DUP1 PUSH1 0x1 ADD SLOAD SWAP1 DUP1 PUSH1 0x2 ADD SLOAD SWAP1 DUP1 PUSH1 0x3 ADD SLOAD SWAP1 DUP1 PUSH1 0x4 ADD DUP1 SLOAD PUSH2 0x2532 SWAP1 PUSH2 0x4CF7 JUMP JUMPDEST DUP1 PUSH1 0x1F ADD PUSH1 0x20 DUP1 SWAP2 DIV MUL PUSH1 0x20 ADD PUSH1 0x40 MLOAD SWAP1 DUP2 ADD PUSH1 0x40 MSTORE DUP1 SWAP3 SWAP2 SWAP1 DUP2 DUP2 MSTORE PUSH1 0x20 ADD DUP3 DUP1 SLOAD PUSH2 0x255E SWAP1 PUSH2 0x4CF7 JUMP JUMPDEST DUP1 ISZERO PUSH2 0x25AB JUMPI DUP1 PUSH1 0x1F LT PUSH2 0x2580 JUMPI PUSH2 0x100 DUP1 DUP4 SLOAD DIV MUL DUP4 MSTORE SWAP2 PUSH1 0x20 ADD SWAP2 PUSH2 0x25AB JUMP JUMPDEST DUP3 ADD SWAP2 SWAP1 PUSH1 0x0 MSTORE PUSH1 0x20 PUSH1 0x0 KECCAK256 SWAP1 JUMPDEST DUP2 SLOAD DUP2 MSTORE SWAP1 PUSH1 0x1 ADD SWAP1 PUSH1 0x20 ADD DUP1 DUP4 GT PUSH2 0x258E JUMPI DUP3 SWAP1 SUB PUSH1 0x1F AND DUP3 ADD SWAP2 JUMPDEST POP POP POP POP POP SWAP1 DUP1 PUSH1 0x5 ADD DUP1 SLOAD PUSH2 0x25C0 SWAP1 PUSH2 0x4CF7 JUMP JUMPDEST DUP1 PUSH1 0x1F ADD PUSH1 0x20 DUP1 SWAP2 DIV MUL PUSH1 0x20 ADD PUSH1 0x40 MLOAD SWAP1 DUP2 ADD PUSH1 0x40 MSTORE DUP1 SWAP3 SWAP2 SWAP1 DUP2 DUP2 MSTORE PUSH1 0x20 ADD DUP3 DUP1 SLOAD PUSH2 0x25EC SWAP1 PUSH2 0x4CF7 JUMP JUMPDEST DUP1 ISZERO PUSH2 0x2639 JUMPI DUP1 PUSH1 0x1F LT PUSH2 0x260E JUMPI PUSH2 0x100 DUP1 DUP4 SLOAD DIV MUL DUP4 MSTORE SWAP2 PUSH1 0x20 ADD SWAP2 PUSH2 0x2639 JUMP JUMPDEST DUP3 ADD SWAP2 SWAP1 PUSH1 0x0 MSTORE PUSH1 0x20 PUSH1 0x0 KECCAK256 SWAP1 JUMPDEST DUP2 SLOAD DUP2 MSTORE SWAP1 PUSH1 0x1 ADD SWAP1 PUSH1 0x20 ADD DUP1 DUP4 GT PUSH2 0x261C JUMPI DUP3 SWAP1 SUB PUSH1 0x1F AND DUP3 ADD SWAP2 JUMPDEST POP POP POP POP POP SWAP1 DUP1 PUSH1 0x6 ADD DUP1 SLOAD PUSH2 0x264E SWAP1 PUSH2 0x4CF7 JUMP JUMPDEST DUP1 PUSH1 0x1F ADD PUSH1 0x20 DUP1 SWAP2 DIV MUL PUSH1 0x20 ADD PUSH1 0x40 MLOAD SWAP1 DUP2 ADD PUSH1 0x40 MSTORE DUP1 SWAP3 SWAP2 SWAP1 DUP2 DUP2 MSTORE PUSH1 0x20 ADD DUP3 DUP1 SLOAD PUSH2 0x267A SWAP1 PUSH2 0x4CF7 JUMP JUMPDEST DUP1 ISZERO PUSH2 0x26C7 JUMPI DUP1 PUSH1 0x1F LT PUSH2 0x269C JUMPI PUSH2 0x100 DUP1 DUP4 SLOAD DIV MUL DUP4 MSTORE SWAP2 PUSH1 0x20 ADD SWAP2 PUSH2 0x26C7 JUMP JUMPDEST DUP3 ADD SWAP2 SWAP1 PUSH1 0x0 MSTORE PUSH1 0x20 PUSH1 0x0 KECCAK256 SWAP1 JUMPDEST DUP2 SLOAD DUP2 MSTORE SWAP1 PUSH1 0x1 ADD SWAP1 PUSH1 0x20 ADD DUP1 DUP4 GT PUSH2 0x26AA JUMPI DUP3 SWAP1 SUB PUSH1 0x1F AND DUP3 ADD SWAP2 JUMPDEST POP POP POP POP POP SWAP1 POP DUP8 JUMP JUMPDEST PUSH1 0x60 PUSH1 0x0 JUMPDEST PUSH1 0x0 SLOAD DUP2 LT ISZERO PUSH2 0x2779 JUMPI DUP4 DUP1 MLOAD SWAP1 PUSH1 0x20 ADD KECCAK256 PUSH1 0x8 PUSH1 0x0 DUP4 DUP2 MSTORE PUSH1 0x20 ADD SWAP1 DUP2 MSTORE PUSH1 0x20 ADD PUSH1 0x0 KECCAK256 PUSH1 0x2 ADD PUSH1 0x40 MLOAD PUSH2 0x270B SWAP2 SWAP1 PUSH2 0x4656 JUMP JUMPDEST PUSH1 0x40 MLOAD DUP1 SWAP2 SUB SWAP1 KECCAK256 EQ DUP1 ISZERO PUSH2 0x2750 JUMPI POP DUP3 DUP1 MLOAD SWAP1 PUSH1 0x20 ADD KECCAK256 PUSH1 0x8 PUSH1 0x0 DUP4 DUP2 MSTORE PUSH1 0x20 ADD SWAP1 DUP2 MSTORE PUSH1 0x20 ADD PUSH1 0x0 KECCAK256 PUSH1 0x3 ADD PUSH1 0x40 MLOAD PUSH2 0x2746 SWAP2 SWAP1 PUSH2 0x4656 JUMP JUMPDEST PUSH1 0x40 MLOAD DUP1 SWAP2 SUB SWAP1 KECCAK256 EQ JUMPDEST ISZERO PUSH2 0x2766 JUMPI PUSH2 0x275E DUP2 PUSH2 0x37A1 JUMP JUMPDEST SWAP2 POP POP PUSH2 0x27B3 JUMP JUMPDEST DUP1 DUP1 PUSH2 0x2771 SWAP1 PUSH2 0x4D5A JUMP JUMPDEST SWAP2 POP POP PUSH2 0x26D6 JUMP JUMPDEST POP PUSH1 0x40 MLOAD DUP1 PUSH1 0x40 ADD PUSH1 0x40 MSTORE DUP1 PUSH1 0x5 DUP2 MSTORE PUSH1 0x20 ADD PUSH32 0x46616C7365000000000000000000000000000000000000000000000000000000 DUP2 MSTORE POP SWAP1 POP JUMPDEST SWAP3 SWAP2 POP POP JUMP JUMPDEST PUSH1 0x40 MLOAD DUP1 PUSH1 0xA0 ADD PUSH1 0x40 MSTORE DUP1 PUSH1 0x5 SLOAD DUP2 MSTORE PUSH1 0x20 ADD DUP6 DUP2 MSTORE PUSH1 0x20 ADD DUP5 DUP2 MSTORE PUSH1 0x20 ADD DUP4 DUP2 MSTORE PUSH1 0x20 ADD DUP3 DUP2 MSTORE POP PUSH1 0xF PUSH1 0x0 PUSH1 0x5 SLOAD DUP2 MSTORE PUSH1 0x20 ADD SWAP1 DUP2 MSTORE PUSH1 0x20 ADD PUSH1 0x0 KECCAK256 PUSH1 0x0 DUP3 ADD MLOAD DUP2 PUSH1 0x0 ADD SSTORE PUSH1 0x20 DUP3 ADD MLOAD DUP2 PUSH1 0x1 ADD SSTORE PUSH1 0x40 DUP3 ADD MLOAD DUP2 PUSH1 0x2 ADD SSTORE PUSH1 0x60 DUP3 ADD MLOAD DUP2 PUSH1 0x3 ADD SWAP1 DUP1 MLOAD SWAP1 PUSH1 0x20 ADD SWAP1 PUSH2 0x2831 SWAP3 SWAP2 SWAP1 PUSH2 0x3A0C JUMP JUMPDEST POP PUSH1 0x80 DUP3 ADD MLOAD DUP2 PUSH1 0x4 ADD SWAP1 DUP1 MLOAD SWAP1 PUSH1 0x20 ADD SWAP1 PUSH2 0x284E SWAP3 SWAP2 SWAP1 PUSH2 0x3A0C JUMP JUMPDEST POP SWAP1 POP POP PUSH1 0x1 PUSH1 0x9 PUSH1 0x0 DUP7 DUP2 MSTORE PUSH1 0x20 ADD SWAP1 DUP2 MSTORE PUSH1 0x20 ADD PUSH1 0x0 KECCAK256 PUSH1 0x6 ADD PUSH1 0x0 DUP3 DUP3 SLOAD PUSH2 0x2879 SWAP2 SWAP1 PUSH2 0x4BEF JUMP JUMPDEST SWAP3 POP POP DUP2 SWAP1 SSTORE POP PUSH1 0x5 PUSH1 0x0 DUP2 SLOAD DUP1 SWAP3 SWAP2 SWAP1 PUSH2 0x2893 SWAP1 PUSH2 0x4D5A JUMP JUMPDEST SWAP2 SWAP1 POP SSTORE POP POP POP POP POP JUMP JUMPDEST PUSH1 0x0 SLOAD DUP2 JUMP JUMPDEST PUSH1 0x40 MLOAD DUP1 PUSH2 0x140 ADD PUSH1 0x40 MSTORE DUP1 PUSH1 0x0 SLOAD DUP2 MSTORE PUSH1 0x20 ADD DUP7 DUP2 MSTORE PUSH1 0x20 ADD DUP6 DUP2 MSTORE PUSH1 0x20 ADD DUP5 DUP2 MSTORE PUSH1 0x20 ADD DUP3 DUP2 MSTORE PUSH1 0x20 ADD PUSH1 0x40 MLOAD DUP1 PUSH1 0x20 ADD PUSH1 0x40 MSTORE DUP1 PUSH1 0x0 DUP2 MSTORE POP DUP2 MSTORE PUSH1 0x20 ADD PUSH1 0x40 MLOAD DUP1 PUSH1 0x60 ADD PUSH1 0x40 MSTORE DUP1 PUSH1 0x28 DUP2 MSTORE PUSH1 0x20 ADD PUSH2 0x4ECB PUSH1 0x28 SWAP2 CODECOPY DUP2 MSTORE PUSH1 0x20 ADD PUSH1 0x0 DUP2 MSTORE PUSH1 0x20 ADD DUP4 DUP2 MSTORE PUSH1 0x20 ADD PUSH1 0x0 DUP2 MSTORE POP PUSH1 0x8 PUSH1 0x0 DUP1 SLOAD DUP2 MSTORE PUSH1 0x20 ADD SWAP1 DUP2 MSTORE PUSH1 0x20 ADD PUSH1 0x0 KECCAK256 PUSH1 0x0 DUP3 ADD MLOAD DUP2 PUSH1 0x0 ADD SSTORE PUSH1 0x20 DUP3 ADD MLOAD DUP2 PUSH1 0x1 ADD SWAP1 DUP1 MLOAD SWAP1 PUSH1 0x20 ADD SWAP1 PUSH2 0x294F SWAP3 SWAP2 SWAP1 PUSH2 0x3A0C JUMP JUMPDEST POP PUSH1 0x40 DUP3 ADD MLOAD DUP2 PUSH1 0x2 ADD SWAP1 DUP1 MLOAD SWAP1 PUSH1 0x20 ADD SWAP1 PUSH2 0x296C SWAP3 SWAP2 SWAP1 PUSH2 0x3A0C JUMP JUMPDEST POP PUSH1 0x60 DUP3 ADD MLOAD DUP2 PUSH1 0x3 ADD SWAP1 DUP1 MLOAD SWAP1 PUSH1 0x20 ADD SWAP1 PUSH2 0x2989 SWAP3 SWAP2 SWAP1 PUSH2 0x3A0C JUMP JUMPDEST POP PUSH1 0x80 DUP3 ADD MLOAD DUP2 PUSH1 0x4 ADD SWAP1 DUP1 MLOAD SWAP1 PUSH1 0x20 ADD SWAP1 PUSH2 0x29A6 SWAP3 SWAP2 SWAP1 PUSH2 0x3A0C JUMP JUMPDEST POP PUSH1 0xA0 DUP3 ADD MLOAD DUP2 PUSH1 0x5 ADD SWAP1 DUP1 MLOAD SWAP1 PUSH1 0x20 ADD SWAP1 PUSH2 0x29C3 SWAP3 SWAP2 SWAP1 PUSH2 0x3A0C JUMP JUMPDEST POP PUSH1 0xC0 DUP3 ADD MLOAD DUP2 PUSH1 0x6 ADD SWAP1 DUP1 MLOAD SWAP1 PUSH1 0x20 ADD SWAP1 PUSH2 0x29E0 SWAP3 SWAP2 SWAP1 PUSH2 0x3A0C JUMP JUMPDEST POP PUSH1 0xE0 DUP3 ADD MLOAD DUP2 PUSH1 0x7 ADD SSTORE PUSH2 0x100 DUP3 ADD MLOAD DUP2 PUSH1 0x8 ADD SWAP1 DUP1 MLOAD SWAP1 PUSH1 0x20 ADD SWAP1 PUSH2 0x2A08 SWAP3 SWAP2 SWAP1 PUSH2 0x3A0C JUMP JUMPDEST POP PUSH2 0x120 DUP3 ADD MLOAD DUP2 PUSH1 0x9 ADD SSTORE SWAP1 POP POP PUSH1 0x0 DUP1 DUP2 SLOAD DUP1 SWAP3 SWAP2 SWAP1 PUSH2 0x2A29 SWAP1 PUSH2 0x4D5A JUMP JUMPDEST SWAP2 SWAP1 POP SSTORE POP POP POP POP POP POP JUMP JUMPDEST PUSH1 0x8 PUSH1 0x0 DUP3 DUP2 MSTORE PUSH1 0x20 ADD SWAP1 DUP2 MSTORE PUSH1 0x20 ADD PUSH1 0x0 KECCAK256 PUSH1 0x0 DUP1 DUP3 ADD PUSH1 0x0 SWAP1 SSTORE PUSH1 0x1 DUP3 ADD PUSH1 0x0 PUSH2 0x2A61 SWAP2 SWAP1 PUSH2 0x39CC JUMP JUMPDEST PUSH1 0x2 DUP3 ADD PUSH1 0x0 PUSH2 0x2A71 SWAP2 SWAP1 PUSH2 0x39CC JUMP JUMPDEST PUSH1 0x3 DUP3 ADD PUSH1 0x0 PUSH2 0x2A81 SWAP2 SWAP1 PUSH2 0x39CC JUMP JUMPDEST PUSH1 0x4 DUP3 ADD PUSH1 0x0 PUSH2 0x2A91 SWAP2 SWAP1 PUSH2 0x39CC JUMP JUMPDEST PUSH1 0x5 DUP3 ADD PUSH1 0x0 PUSH2 0x2AA1 SWAP2 SWAP1 PUSH2 0x39CC JUMP JUMPDEST PUSH1 0x6 DUP3 ADD PUSH1 0x0 PUSH2 0x2AB1 SWAP2 SWAP1 PUSH2 0x39CC JUMP JUMPDEST PUSH1 0x7 DUP3 ADD PUSH1 0x0 SWAP1 SSTORE PUSH1 0x8 DUP3 ADD PUSH1 0x0 PUSH2 0x2AC9 SWAP2 SWAP1 PUSH2 0x39CC JUMP JUMPDEST PUSH1 0x9 DUP3 ADD PUSH1 0x0 SWAP1 SSTORE POP POP PUSH1 0xE PUSH1 0x0 DUP3 DUP2 MSTORE PUSH1 0x20 ADD SWAP1 DUP2 MSTORE PUSH1 0x20 ADD PUSH1 0x0 KECCAK256 PUSH1 0x0 DUP1 DUP3 ADD PUSH1 0x0 SWAP1 SSTORE PUSH1 0x1 DUP3 ADD PUSH1 0x0 PUSH2 0x2AFF SWAP2 SWAP1 PUSH2 0x39CC JUMP JUMPDEST PUSH1 0x2 DUP3 ADD PUSH1 0x0 PUSH2 0x2B0F SWAP2 SWAP1 PUSH2 0x39CC JUMP JUMPDEST PUSH1 0x3 DUP3 ADD PUSH1 0x0 PUSH2 0x2B1F SWAP2 SWAP1 PUSH2 0x39CC JUMP JUMPDEST PUSH1 0x4 DUP3 ADD PUSH1 0x0 PUSH2 0x2B2F SWAP2 SWAP1 PUSH2 0x39CC JUMP JUMPDEST PUSH1 0x5 DUP3 ADD PUSH1 0x0 PUSH2 0x2B3F SWAP2 SWAP1 PUSH2 0x39CC JUMP JUMPDEST PUSH1 0x6 DUP3 ADD PUSH1 0x0 PUSH2 0x2B4F SWAP2 SWAP1 PUSH2 0x39CC JUMP JUMPDEST PUSH1 0x7 DUP3 ADD PUSH1 0x0 PUSH2 0x2B5F SWAP2 SWAP1 PUSH2 0x39CC JUMP JUMPDEST POP POP PUSH1 0x0 JUMPDEST PUSH1 0x5 SLOAD DUP2 LT ISZERO PUSH2 0x2BCF JUMPI PUSH1 0xF PUSH1 0x0 DUP3 DUP2 MSTORE PUSH1 0x20 ADD SWAP1 DUP2 MSTORE PUSH1 0x20 ADD PUSH1 0x0 KECCAK256 PUSH1 0x0 DUP1 DUP3 ADD PUSH1 0x0 SWAP1 SSTORE PUSH1 0x1 DUP3 ADD PUSH1 0x0 SWAP1 SSTORE PUSH1 0x2 DUP3 ADD PUSH1 0x0 SWAP1 SSTORE PUSH1 0x3 DUP3 ADD PUSH1 0x0 PUSH2 0x2BAA SWAP2 SWAP1 PUSH2 0x39CC JUMP JUMPDEST PUSH1 0x4 DUP3 ADD PUSH1 0x0 PUSH2 0x2BBA SWAP2 SWAP1 PUSH2 0x39CC JUMP JUMPDEST POP POP DUP1 DUP1 PUSH2 0x2BC7 SWAP1 PUSH2 0x4D5A JUMP JUMPDEST SWAP2 POP POP PUSH2 0x2B64 JUMP JUMPDEST POP PUSH1 0x0 JUMPDEST PUSH1 0x6 SLOAD DUP2 LT ISZERO PUSH2 0x2C56 JUMPI PUSH1 0x10 PUSH1 0x0 DUP3 DUP2 MSTORE PUSH1 0x20 ADD SWAP1 DUP2 MSTORE PUSH1 0x20 ADD PUSH1 0x0 KECCAK256 PUSH1 0x0 DUP1 DUP3 ADD PUSH1 0x0 SWAP1 SSTORE PUSH1 0x1 DUP3 ADD PUSH1 0x0 SWAP1 SSTORE PUSH1 0x2 DUP3 ADD PUSH1 0x0 SWAP1 SSTORE PUSH1 0x3 DUP3 ADD PUSH1 0x0 SWAP1 SSTORE PUSH1 0x4 DUP3 ADD PUSH1 0x0 PUSH2 0x2C21 SWAP2 SWAP1 PUSH2 0x39CC JUMP JUMPDEST PUSH1 0x5 DUP3 ADD PUSH1 0x0 PUSH2 0x2C31 SWAP2 SWAP1 PUSH2 0x39CC JUMP JUMPDEST PUSH1 0x6 DUP3 ADD PUSH1 0x0 PUSH2 0x2C41 SWAP2 SWAP1 PUSH2 0x39CC JUMP JUMPDEST POP POP DUP1 DUP1 PUSH2 0x2C4E SWAP1 PUSH2 0x4D5A JUMP JUMPDEST SWAP2 POP POP PUSH2 0x2BD3 JUMP JUMPDEST POP PUSH1 0x0 JUMPDEST PUSH1 0x7 SLOAD DUP2 LT ISZERO PUSH2 0x2CBD JUMPI PUSH1 0x11 PUSH1 0x0 DUP3 DUP2 MSTORE PUSH1 0x20 ADD SWAP1 DUP2 MSTORE PUSH1 0x20 ADD PUSH1 0x0 KECCAK256 PUSH1 0x0 DUP1 DUP3 ADD PUSH1 0x0 SWAP1 SSTORE PUSH1 0x1 DUP3 ADD PUSH1 0x0 SWAP1 SSTORE PUSH1 0x2 DUP3 ADD PUSH1 0x0 SWAP1 SSTORE PUSH1 0x3 DUP3 ADD PUSH1 0x0 SWAP1 SSTORE PUSH1 0x4 DUP3 ADD PUSH1 0x0 PUSH2 0x2CA8 SWAP2 SWAP1 PUSH2 0x39CC JUMP JUMPDEST POP POP DUP1 DUP1 PUSH2 0x2CB5 SWAP1 PUSH2 0x4D5A JUMP JUMPDEST SWAP2 POP POP PUSH2 0x2C5A JUMP JUMPDEST POP PUSH1 0x1 PUSH1 0x0 SLOAD PUSH2 0x2CCD SWAP2 SWAP1 PUSH2 0x4C45 JUMP JUMPDEST PUSH1 0x0 DUP2 SWAP1 SSTORE POP PUSH1 0x0 PUSH1 0x5 DUP2 SWAP1 SSTORE POP PUSH1 0x0 PUSH1 0x6 DUP2 SWAP1 SSTORE POP PUSH1 0x0 PUSH1 0x7 DUP2 SWAP1 SSTORE POP POP JUMP JUMPDEST PUSH1 0xB PUSH1 0x20 MSTORE DUP1 PUSH1 0x0 MSTORE PUSH1 0x40 PUSH1 0x0 KECCAK256 PUSH1 0x0 SWAP2 POP SWAP1 POP DUP1 PUSH1 0x0 ADD SLOAD SWAP1 DUP1 PUSH1 0x1 ADD SLOAD SWAP1 DUP1 PUSH1 0x2 ADD SLOAD SWAP1 DUP1 PUSH1 0x3 ADD DUP1 SLOAD PUSH2 0x2D23 SWAP1 PUSH2 0x4CF7 JUMP JUMPDEST DUP1 PUSH1 0x1F ADD PUSH1 0x20 DUP1 SWAP2 DIV MUL PUSH1 0x20 ADD PUSH1 0x40 MLOAD SWAP1 DUP2 ADD PUSH1 0x40 MSTORE DUP1 SWAP3 SWAP2 SWAP1 DUP2 DUP2 MSTORE PUSH1 0x20 ADD DUP3 DUP1 SLOAD PUSH2 0x2D4F SWAP1 PUSH2 0x4CF7 JUMP JUMPDEST DUP1 ISZERO PUSH2 0x2D9C JUMPI DUP1 PUSH1 0x1F LT PUSH2 0x2D71 JUMPI PUSH2 0x100 DUP1 DUP4 SLOAD DIV MUL DUP4 MSTORE SWAP2 PUSH1 0x20 ADD SWAP2 PUSH2 0x2D9C JUMP JUMPDEST DUP3 ADD SWAP2 SWAP1 PUSH1 0x0 MSTORE PUSH1 0x20 PUSH1 0x0 KECCAK256 SWAP1 JUMPDEST DUP2 SLOAD DUP2 MSTORE SWAP1 PUSH1 0x1 ADD SWAP1 PUSH1 0x20 ADD DUP1 DUP4 GT PUSH2 0x2D7F JUMPI DUP3 SWAP1 SUB PUSH1 0x1F AND DUP3 ADD SWAP2 JUMPDEST POP POP POP POP POP SWAP1 DUP1 PUSH1 0x4 ADD DUP1 SLOAD PUSH2 0x2DB1 SWAP1 PUSH2 0x4CF7 JUMP JUMPDEST DUP1 PUSH1 0x1F ADD PUSH1 0x20 DUP1 SWAP2 DIV MUL PUSH1 0x20 ADD PUSH1 0x40 MLOAD SWAP1 DUP2 ADD PUSH1 0x40 MSTORE DUP1 SWAP3 SWAP2 SWAP1 DUP2 DUP2 MSTORE PUSH1 0x20 ADD DUP3 DUP1 SLOAD PUSH2 0x2DDD SWAP1 PUSH2 0x4CF7 JUMP JUMPDEST DUP1 ISZERO PUSH2 0x2E2A JUMPI DUP1 PUSH1 0x1F LT PUSH2 0x2DFF JUMPI PUSH2 0x100 DUP1 DUP4 SLOAD DIV MUL DUP4 MSTORE SWAP2 PUSH1 0x20 ADD SWAP2 PUSH2 0x2E2A JUMP JUMPDEST DUP3 ADD SWAP2 SWAP1 PUSH1 0x0 MSTORE PUSH1 0x20 PUSH1 0x0 KECCAK256 SWAP1 JUMPDEST DUP2 SLOAD DUP2 MSTORE SWAP1 PUSH1 0x1 ADD SWAP1 PUSH1 0x20 ADD DUP1 DUP4 GT PUSH2 0x2E0D JUMPI DUP3 SWAP1 SUB PUSH1 0x1F AND DUP3 ADD SWAP2 JUMPDEST POP POP POP POP POP SWAP1 DUP1 PUSH1 0x5 ADD DUP1 SLOAD PUSH2 0x2E3F SWAP1 PUSH2 0x4CF7 JUMP JUMPDEST DUP1 PUSH1 0x1F ADD PUSH1 0x20 DUP1 SWAP2 DIV MUL PUSH1 0x20 ADD PUSH1 0x40 MLOAD SWAP1 DUP2 ADD PUSH1 0x40 MSTORE DUP1 SWAP3 SWAP2 SWAP1 DUP2 DUP2 MSTORE PUSH1 0x20 ADD DUP3 DUP1 SLOAD PUSH2 0x2E6B SWAP1 PUSH2 0x4CF7 JUMP JUMPDEST DUP1 ISZERO PUSH2 0x2EB8 JUMPI DUP1 PUSH1 0x1F LT PUSH2 0x2E8D JUMPI PUSH2 0x100 DUP1 DUP4 SLOAD DIV MUL DUP4 MSTORE SWAP2 PUSH1 0x20 ADD SWAP2 PUSH2 0x2EB8 JUMP JUMPDEST DUP3 ADD SWAP2 SWAP1 PUSH1 0x0 MSTORE PUSH1 0x20 PUSH1 0x0 KECCAK256 SWAP1 JUMPDEST DUP2 SLOAD DUP2 MSTORE SWAP1 PUSH1 0x1 ADD SWAP1 PUSH1 0x20 ADD DUP1 DUP4 GT PUSH2 0x2E9B JUMPI DUP3 SWAP1 SUB PUSH1 0x1F AND DUP3 ADD SWAP2 JUMPDEST POP POP POP POP POP SWAP1 DUP1 PUSH1 0x6 ADD DUP1 SLOAD PUSH2 0x2ECD SWAP1 PUSH2 0x4CF7 JUMP JUMPDEST DUP1 PUSH1 0x1F ADD PUSH1 0x20 DUP1 SWAP2 DIV MUL PUSH1 0x20 ADD PUSH1 0x40 MLOAD SWAP1 DUP2 ADD PUSH1 0x40 MSTORE DUP1 SWAP3 SWAP2 SWAP1 DUP2 DUP2 MSTORE PUSH1 0x20 ADD DUP3 DUP1 SLOAD PUSH2 0x2EF9 SWAP1 PUSH2 0x4CF7 JUMP JUMPDEST DUP1 ISZERO PUSH2 0x2F46 JUMPI DUP1 PUSH1 0x1F LT PUSH2 0x2F1B JUMPI PUSH2 0x100 DUP1 DUP4 SLOAD DIV MUL DUP4 MSTORE SWAP2 PUSH1 0x20 ADD SWAP2 PUSH2 0x2F46 JUMP JUMPDEST DUP3 ADD SWAP2 SWAP1 PUSH1 0x0 MSTORE PUSH1 0x20 PUSH1 0x0 KECCAK256 SWAP1 JUMPDEST DUP2 SLOAD DUP2 MSTORE SWAP1 PUSH1 0x1 ADD SWAP1 PUSH1 0x20 ADD DUP1 DUP4 GT PUSH2 0x2F29 JUMPI DUP3 SWAP1 SUB PUSH1 0x1F AND DUP3 ADD SWAP2 JUMPDEST POP POP POP POP POP SWAP1 DUP1 PUSH1 0x7 ADD SLOAD SWAP1 DUP1 PUSH1 0x8 ADD SLOAD SWAP1 POP DUP10 JUMP JUMPDEST DUP1 PUSH1 0x8 PUSH1 0x0 DUP5 DUP2 MSTORE PUSH1 0x20 ADD SWAP1 DUP2 MSTORE PUSH1 0x20 ADD PUSH1 0x0 KECCAK256 PUSH1 0x5 ADD SWAP1 DUP1 MLOAD SWAP1 PUSH1 0x20 ADD SWAP1 PUSH2 0x2F86 SWAP3 SWAP2 SWAP1 PUSH2 0x3A0C JUMP JUMPDEST POP POP POP JUMP JUMPDEST DUP2 PUSH1 0x8 PUSH1 0x0 DUP6 DUP2 MSTORE PUSH1 0x20 ADD SWAP1 DUP2 MSTORE PUSH1 0x20 ADD PUSH1 0x0 KECCAK256 PUSH1 0x6 ADD SWAP1 DUP1 MLOAD SWAP1 PUSH1 0x20 ADD SWAP1 PUSH2 0x2FB5 SWAP3 SWAP2 SWAP1 PUSH2 0x3A0C JUMP JUMPDEST POP DUP1 PUSH1 0x8 PUSH1 0x0 DUP6 DUP2 MSTORE PUSH1 0x20 ADD SWAP1 DUP2 MSTORE PUSH1 0x20 ADD PUSH1 0x0 KECCAK256 PUSH1 0x7 ADD DUP2 SWAP1 SSTORE POP POP POP POP JUMP JUMPDEST PUSH1 0xD PUSH1 0x20 MSTORE DUP1 PUSH1 0x0 MSTORE PUSH1 0x40 PUSH1 0x0 KECCAK256 PUSH1 0x0 SWAP2 POP SWAP1 POP DUP1 SLOAD PUSH2 0x2FF5 SWAP1 PUSH2 0x4CF7 JUMP JUMPDEST DUP1 PUSH1 0x1F ADD PUSH1 0x20 DUP1 SWAP2 DIV MUL PUSH1 0x20 ADD PUSH1 0x40 MLOAD SWAP1 DUP2 ADD PUSH1 0x40 MSTORE DUP1 SWAP3 SWAP2 SWAP1 DUP2 DUP2 MSTORE PUSH1 0x20 ADD DUP3 DUP1 SLOAD PUSH2 0x3021 SWAP1 PUSH2 0x4CF7 JUMP JUMPDEST DUP1 ISZERO PUSH2 0x306E JUMPI DUP1 PUSH1 0x1F LT PUSH2 0x3043 JUMPI PUSH2 0x100 DUP1 DUP4 SLOAD DIV MUL DUP4 MSTORE SWAP2 PUSH1 0x20 ADD SWAP2 PUSH2 0x306E JUMP JUMPDEST DUP3 ADD SWAP2 SWAP1 PUSH1 0x0 MSTORE PUSH1 0x20 PUSH1 0x0 KECCAK256 SWAP1 JUMPDEST DUP2 SLOAD DUP2 MSTORE SWAP1 PUSH1 0x1 ADD SWAP1 PUSH1 0x20 ADD DUP1 DUP4 GT PUSH2 0x3051 JUMPI DUP3 SWAP1 SUB PUSH1 0x1F AND DUP3 ADD SWAP2 JUMPDEST POP POP POP POP POP DUP2 JUMP JUMPDEST PUSH1 0x5 SLOAD DUP2 JUMP JUMPDEST PUSH1 0xE PUSH1 0x20 MSTORE DUP1 PUSH1 0x0 MSTORE PUSH1 0x40 PUSH1 0x0 KECCAK256 PUSH1 0x0 SWAP2 POP SWAP1 POP DUP1 PUSH1 0x0 ADD SLOAD SWAP1 DUP1 PUSH1 0x1 ADD DUP1 SLOAD PUSH2 0x30A5 SWAP1 PUSH2 0x4CF7 JUMP JUMPDEST DUP1 PUSH1 0x1F ADD PUSH1 0x20 DUP1 SWAP2 DIV MUL PUSH1 0x20 ADD PUSH1 0x40 MLOAD SWAP1 DUP2 ADD PUSH1 0x40 MSTORE DUP1 SWAP3 SWAP2 SWAP1 DUP2 DUP2 MSTORE PUSH1 0x20 ADD DUP3 DUP1 SLOAD PUSH2 0x30D1 SWAP1 PUSH2 0x4CF7 JUMP JUMPDEST DUP1 ISZERO PUSH2 0x311E JUMPI DUP1 PUSH1 0x1F LT PUSH2 0x30F3 JUMPI PUSH2 0x100 DUP1 DUP4 SLOAD DIV MUL DUP4 MSTORE SWAP2 PUSH1 0x20 ADD SWAP2 PUSH2 0x311E JUMP JUMPDEST DUP3 ADD SWAP2 SWAP1 PUSH1 0x0 MSTORE PUSH1 0x20 PUSH1 0x0 KECCAK256 SWAP1 JUMPDEST DUP2 SLOAD DUP2 MSTORE SWAP1 PUSH1 0x1 ADD SWAP1 PUSH1 0x20 ADD DUP1 DUP4 GT PUSH2 0x3101 JUMPI DUP3 SWAP1 SUB PUSH1 0x1F AND DUP3 ADD SWAP2 JUMPDEST POP POP POP POP POP SWAP1 DUP1 PUSH1 0x2 ADD DUP1 SLOAD PUSH2 0x3133 SWAP1 PUSH2 0x4CF7 JUMP JUMPDEST DUP1 PUSH1 0x1F ADD PUSH1 0x20 DUP1 SWAP2 DIV MUL PUSH1 0x20 ADD PUSH1 0x40 MLOAD SWAP1 DUP2 ADD PUSH1 0x40 MSTORE DUP1 SWAP3 SWAP2 SWAP1 DUP2 DUP2 MSTORE PUSH1 0x20 ADD DUP3 DUP1 SLOAD PUSH2 0x315F SWAP1 PUSH2 0x4CF7 JUMP JUMPDEST DUP1 ISZERO PUSH2 0x31AC JUMPI DUP1 PUSH1 0x1F LT PUSH2 0x3181 JUMPI PUSH2 0x100 DUP1 DUP4 SLOAD DIV MUL DUP4 MSTORE SWAP2 PUSH1 0x20 ADD SWAP2 PUSH2 0x31AC JUMP JUMPDEST DUP3 ADD SWAP2 SWAP1 PUSH1 0x0 MSTORE PUSH1 0x20 PUSH1 0x0 KECCAK256 SWAP1 JUMPDEST DUP2 SLOAD DUP2 MSTORE SWAP1 PUSH1 0x1 ADD SWAP1 PUSH1 0x20 ADD DUP1 DUP4 GT PUSH2 0x318F JUMPI DUP3 SWAP1 SUB PUSH1 0x1F AND DUP3 ADD SWAP2 JUMPDEST POP POP POP POP POP SWAP1 DUP1 PUSH1 0x3 ADD DUP1 SLOAD PUSH2 0x31C1 SWAP1 PUSH2 0x4CF7 JUMP JUMPDEST DUP1 PUSH1 0x1F ADD PUSH1 0x20 DUP1 SWAP2 DIV MUL PUSH1 0x20 ADD PUSH1 0x40 MLOAD SWAP1 DUP2 ADD PUSH1 0x40 MSTORE DUP1 SWAP3 SWAP2 SWAP1 DUP2 DUP2 MSTORE PUSH1 0x20 ADD DUP3 DUP1 SLOAD PUSH2 0x31ED SWAP1 PUSH2 0x4CF7 JUMP JUMPDEST DUP1 ISZERO PUSH2 0x323A JUMPI DUP1 PUSH1 0x1F LT PUSH2 0x320F JUMPI PUSH2 0x100 DUP1 DUP4 SLOAD DIV MUL DUP4 MSTORE SWAP2 PUSH1 0x20 ADD SWAP2 PUSH2 0x323A JUMP JUMPDEST DUP3 ADD SWAP2 SWAP1 PUSH1 0x0 MSTORE PUSH1 0x20 PUSH1 0x0 KECCAK256 SWAP1 JUMPDEST DUP2 SLOAD DUP2 MSTORE SWAP1 PUSH1 0x1 ADD SWAP1 PUSH1 0x20 ADD DUP1 DUP4 GT PUSH2 0x321D JUMPI DUP3 SWAP1 SUB PUSH1 0x1F AND DUP3 ADD SWAP2 JUMPDEST POP POP POP POP POP SWAP1 DUP1 PUSH1 0x4 ADD DUP1 SLOAD PUSH2 0x324F SWAP1 PUSH2 0x4CF7 JUMP JUMPDEST DUP1 PUSH1 0x1F ADD PUSH1 0x20 DUP1 SWAP2 DIV MUL PUSH1 0x20 ADD PUSH1 0x40 MLOAD SWAP1 DUP2 ADD PUSH1 0x40 MSTORE DUP1 SWAP3 SWAP2 SWAP1 DUP2 DUP2 MSTORE PUSH1 0x20 ADD DUP3 DUP1 SLOAD PUSH2 0x327B SWAP1 PUSH2 0x4CF7 JUMP JUMPDEST DUP1 ISZERO PUSH2 0x32C8 JUMPI DUP1 PUSH1 0x1F LT PUSH2 0x329D JUMPI PUSH2 0x100 DUP1 DUP4 SLOAD DIV MUL DUP4 MSTORE SWAP2 PUSH1 0x20 ADD SWAP2 PUSH2 0x32C8 JUMP JUMPDEST DUP3 ADD SWAP2 SWAP1 PUSH1 0x0 MSTORE PUSH1 0x20 PUSH1 0x0 KECCAK256 SWAP1 JUMPDEST DUP2 SLOAD DUP2 MSTORE SWAP1 PUSH1 0x1 ADD SWAP1 PUSH1 0x20 ADD DUP1 DUP4 GT PUSH2 0x32AB JUMPI DUP3 SWAP1 SUB PUSH1 0x1F AND DUP3 ADD SWAP2 JUMPDEST POP POP POP POP POP SWAP1 DUP1 PUSH1 0x5 ADD DUP1 SLOAD PUSH2 0x32DD SWAP1 PUSH2 0x4CF7 JUMP JUMPDEST DUP1 PUSH1 0x1F ADD PUSH1 0x20 DUP1 SWAP2 DIV MUL PUSH1 0x20 ADD PUSH1 0x40 MLOAD SWAP1 DUP2 ADD PUSH1 0x40 MSTORE DUP1 SWAP3 SWAP2 SWAP1 DUP2 DUP2 MSTORE PUSH1 0x20 ADD DUP3 DUP1 SLOAD PUSH2 0x3309 SWAP1 PUSH2 0x4CF7 JUMP JUMPDEST DUP1 ISZERO PUSH2 0x3356 JUMPI DUP1 PUSH1 0x1F LT PUSH2 0x332B JUMPI PUSH2 0x100 DUP1 DUP4 SLOAD DIV MUL DUP4 MSTORE SWAP2 PUSH1 0x20 ADD SWAP2 PUSH2 0x3356 JUMP JUMPDEST DUP3 ADD SWAP2 SWAP1 PUSH1 0x0 MSTORE PUSH1 0x20 PUSH1 0x0 KECCAK256 SWAP1 JUMPDEST DUP2 SLOAD DUP2 MSTORE SWAP1 PUSH1 0x1 ADD SWAP1 PUSH1 0x20 ADD DUP1 DUP4 GT PUSH2 0x3339 JUMPI DUP3 SWAP1 SUB PUSH1 0x1F AND DUP3 ADD SWAP2 JUMPDEST POP POP POP POP POP SWAP1 DUP1 PUSH1 0x6 ADD DUP1 SLOAD PUSH2 0x336B SWAP1 PUSH2 0x4CF7 JUMP JUMPDEST DUP1 PUSH1 0x1F ADD PUSH1 0x20 DUP1 SWAP2 DIV MUL PUSH1 0x20 ADD PUSH1 0x40 MLOAD SWAP1 DUP2 ADD PUSH1 0x40 MSTORE DUP1 SWAP3 SWAP2 SWAP1 DUP2 DUP2 MSTORE PUSH1 0x20 ADD DUP3 DUP1 SLOAD PUSH2 0x3397 SWAP1 PUSH2 0x4CF7 JUMP JUMPDEST DUP1 ISZERO PUSH2 0x33E4 JUMPI DUP1 PUSH1 0x1F LT PUSH2 0x33B9 JUMPI PUSH2 0x100 DUP1 DUP4 SLOAD DIV MUL DUP4 MSTORE SWAP2 PUSH1 0x20 ADD SWAP2 PUSH2 0x33E4 JUMP JUMPDEST DUP3 ADD SWAP2 SWAP1 PUSH1 0x0 MSTORE PUSH1 0x20 PUSH1 0x0 KECCAK256 SWAP1 JUMPDEST DUP2 SLOAD DUP2 MSTORE SWAP1 PUSH1 0x1 ADD SWAP1 PUSH1 0x20 ADD DUP1 DUP4 GT PUSH2 0x33C7 JUMPI DUP3 SWAP1 SUB PUSH1 0x1F AND DUP3 ADD SWAP2 JUMPDEST POP POP POP POP POP SWAP1 DUP1 PUSH1 0x7 ADD DUP1 SLOAD PUSH2 0x33F9 SWAP1 PUSH2 0x4CF7 JUMP JUMPDEST DUP1 PUSH1 0x1F ADD PUSH1 0x20 DUP1 SWAP2 DIV MUL PUSH1 0x20 ADD PUSH1 0x40 MLOAD SWAP1 DUP2 ADD PUSH1 0x40 MSTORE DUP1 SWAP3 SWAP2 SWAP1 DUP2 DUP2 MSTORE PUSH1 0x20 ADD DUP3 DUP1 SLOAD PUSH2 0x3425 SWAP1 PUSH2 0x4CF7 JUMP JUMPDEST DUP1 ISZERO PUSH2 0x3472 JUMPI DUP1 PUSH1 0x1F LT PUSH2 0x3447 JUMPI PUSH2 0x100 DUP1 DUP4 SLOAD DIV MUL DUP4 MSTORE SWAP2 PUSH1 0x20 ADD SWAP2 PUSH2 0x3472 JUMP JUMPDEST DUP3 ADD SWAP2 SWAP1 PUSH1 0x0 MSTORE PUSH1 0x20 PUSH1 0x0 KECCAK256 SWAP1 JUMPDEST DUP2 SLOAD DUP2 MSTORE SWAP1 PUSH1 0x1 ADD SWAP1 PUSH1 0x20 ADD DUP1 DUP4 GT PUSH2 0x3455 JUMPI DUP3 SWAP1 SUB PUSH1 0x1F AND DUP3 ADD SWAP2 JUMPDEST POP POP POP POP POP SWAP1 POP DUP9 JUMP JUMPDEST PUSH1 0xC PUSH1 0x20 MSTORE DUP1 PUSH1 0x0 MSTORE PUSH1 0x40 PUSH1 0x0 KECCAK256 PUSH1 0x0 SWAP2 POP SWAP1 POP DUP1 PUSH1 0x0 ADD DUP1 SLOAD PUSH2 0x349F SWAP1 PUSH2 0x4CF7 JUMP JUMPDEST DUP1 PUSH1 0x1F ADD PUSH1 0x20 DUP1 SWAP2 DIV MUL PUSH1 0x20 ADD PUSH1 0x40 MLOAD SWAP1 DUP2 ADD PUSH1 0x40 MSTORE DUP1 SWAP3 SWAP2 SWAP1 DUP2 DUP2 MSTORE PUSH1 0x20 ADD DUP3 DUP1 SLOAD PUSH2 0x34CB SWAP1 PUSH2 0x4CF7 JUMP JUMPDEST DUP1 ISZERO PUSH2 0x3518 JUMPI DUP1 PUSH1 0x1F LT PUSH2 0x34ED JUMPI PUSH2 0x100 DUP1 DUP4 SLOAD DIV MUL DUP4 MSTORE SWAP2 PUSH1 0x20 ADD SWAP2 PUSH2 0x3518 JUMP JUMPDEST DUP3 ADD SWAP2 SWAP1 PUSH1 0x0 MSTORE PUSH1 0x20 PUSH1 0x0 KECCAK256 SWAP1 JUMPDEST DUP2 SLOAD DUP2 MSTORE SWAP1 PUSH1 0x1 ADD SWAP1 PUSH1 0x20 ADD DUP1 DUP4 GT PUSH2 0x34FB JUMPI DUP3 SWAP1 SUB PUSH1 0x1F AND DUP3 ADD SWAP2 JUMPDEST POP POP POP POP POP SWAP1 DUP1 PUSH1 0x1 ADD DUP1 SLOAD PUSH2 0x352D SWAP1 PUSH2 0x4CF7 JUMP JUMPDEST DUP1 PUSH1 0x1F ADD PUSH1 0x20 DUP1 SWAP2 DIV MUL PUSH1 0x20 ADD PUSH1 0x40 MLOAD SWAP1 DUP2 ADD PUSH1 0x40 MSTORE DUP1 SWAP3 SWAP2 SWAP1 DUP2 DUP2 MSTORE PUSH1 0x20 ADD DUP3 DUP1 SLOAD PUSH2 0x3559 SWAP1 PUSH2 0x4CF7 JUMP JUMPDEST DUP1 ISZERO PUSH2 0x35A6 JUMPI DUP1 PUSH1 0x1F LT PUSH2 0x357B JUMPI PUSH2 0x100 DUP1 DUP4 SLOAD DIV MUL DUP4 MSTORE SWAP2 PUSH1 0x20 ADD SWAP2 PUSH2 0x35A6 JUMP JUMPDEST DUP3 ADD SWAP2 SWAP1 PUSH1 0x0 MSTORE PUSH1 0x20 PUSH1 0x0 KECCAK256 SWAP1 JUMPDEST DUP2 SLOAD DUP2 MSTORE SWAP1 PUSH1 0x1 ADD SWAP1 PUSH1 0x20 ADD DUP1 DUP4 GT PUSH2 0x3589 JUMPI DUP3 SWAP1 SUB PUSH1 0x1F AND DUP3 ADD SWAP2 JUMPDEST POP POP POP POP POP SWAP1 POP DUP3 JUMP JUMPDEST PUSH1 0xF PUSH1 0x20 MSTORE DUP1 PUSH1 0x0 MSTORE PUSH1 0x40 PUSH1 0x0 KECCAK256 PUSH1 0x0 SWAP2 POP SWAP1 POP DUP1 PUSH1 0x0 ADD SLOAD SWAP1 DUP1 PUSH1 0x1 ADD SLOAD SWAP1 DUP1 PUSH1 0x2 ADD SLOAD SWAP1 DUP1 PUSH1 0x3 ADD DUP1 SLOAD PUSH2 0x35E5 SWAP1 PUSH2 0x4CF7 JUMP JUMPDEST DUP1 PUSH1 0x1F ADD PUSH1 0x20 DUP1 SWAP2 DIV MUL PUSH1 0x20 ADD PUSH1 0x40 MLOAD SWAP1 DUP2 ADD PUSH1 0x40 MSTORE DUP1 SWAP3 SWAP2 SWAP1 DUP2 DUP2 MSTORE PUSH1 0x20 ADD DUP3 DUP1 SLOAD PUSH2 0x3611 SWAP1 PUSH2 0x4CF7 JUMP JUMPDEST DUP1 ISZERO PUSH2 0x365E JUMPI DUP1 PUSH1 0x1F LT PUSH2 0x3633 JUMPI PUSH2 0x100 DUP1 DUP4 SLOAD DIV MUL DUP4 MSTORE SWAP2 PUSH1 0x20 ADD SWAP2 PUSH2 0x365E JUMP JUMPDEST DUP3 ADD SWAP2 SWAP1 PUSH1 0x0 MSTORE PUSH1 0x20 PUSH1 0x0 KECCAK256 SWAP1 JUMPDEST DUP2 SLOAD DUP2 MSTORE SWAP1 PUSH1 0x1 ADD SWAP1 PUSH1 0x20 ADD DUP1 DUP4 GT PUSH2 0x3641 JUMPI DUP3 SWAP1 SUB PUSH1 0x1F AND DUP3 ADD SWAP2 JUMPDEST POP POP POP POP POP SWAP1 DUP1 PUSH1 0x4 ADD DUP1 SLOAD PUSH2 0x3673 SWAP1 PUSH2 0x4CF7 JUMP JUMPDEST DUP1 PUSH1 0x1F ADD PUSH1 0x20 DUP1 SWAP2 DIV MUL PUSH1 0x20 ADD PUSH1 0x40 MLOAD SWAP1 DUP2 ADD PUSH1 0x40 MSTORE DUP1 SWAP3 SWAP2 SWAP1 DUP2 DUP2 MSTORE PUSH1 0x20 ADD DUP3 DUP1 SLOAD PUSH2 0x369F SWAP1 PUSH2 0x4CF7 JUMP JUMPDEST DUP1 ISZERO PUSH2 0x36EC JUMPI DUP1 PUSH1 0x1F LT PUSH2 0x36C1 JUMPI PUSH2 0x100 DUP1 DUP4 SLOAD DIV MUL DUP4 MSTORE SWAP2 PUSH1 0x20 ADD SWAP2 PUSH2 0x36EC JUMP JUMPDEST DUP3 ADD SWAP2 SWAP1 PUSH1 0x0 MSTORE PUSH1 0x20 PUSH1 0x0 KECCAK256 SWAP1 JUMPDEST DUP2 SLOAD DUP2 MSTORE SWAP1 PUSH1 0x1 ADD SWAP1 PUSH1 0x20 ADD DUP1 DUP4 GT PUSH2 0x36CF JUMPI DUP3 SWAP1 SUB PUSH1 0x1F AND DUP3 ADD SWAP2 JUMPDEST POP POP POP POP POP SWAP1 POP DUP6 JUMP JUMPDEST PUSH1 0x60 PUSH1 0x0 JUMPDEST PUSH1 0x0 SLOAD DUP2 LT ISZERO PUSH2 0x3762 JUMPI DUP3 DUP1 MLOAD SWAP1 PUSH1 0x20 ADD KECCAK256 PUSH1 0x8 PUSH1 0x0 DUP4 DUP2 MSTORE PUSH1 0x20 ADD SWAP1 DUP2 MSTORE PUSH1 0x20 ADD PUSH1 0x0 KECCAK256 PUSH1 0x2 ADD PUSH1 0x40 MLOAD PUSH2 0x3730 SWAP2 SWAP1 PUSH2 0x4656 JUMP JUMPDEST PUSH1 0x40 MLOAD DUP1 SWAP2 SUB SWAP1 KECCAK256 EQ ISZERO PUSH2 0x374F JUMPI PUSH2 0x3747 DUP2 PUSH2 0x37A1 JUMP JUMPDEST SWAP2 POP POP PUSH2 0x379C JUMP JUMPDEST DUP1 DUP1 PUSH2 0x375A SWAP1 PUSH2 0x4D5A JUMP JUMPDEST SWAP2 POP POP PUSH2 0x36FB JUMP JUMPDEST POP PUSH1 0x40 MLOAD DUP1 PUSH1 0x40 ADD PUSH1 0x40 MSTORE DUP1 PUSH1 0x5 DUP2 MSTORE PUSH1 0x20 ADD PUSH32 0x46616C7365000000000000000000000000000000000000000000000000000000 DUP2 MSTORE POP SWAP1 POP JUMPDEST SWAP2 SWAP1 POP JUMP JUMPDEST PUSH1 0x60 PUSH1 0x0 PUSH1 0x1 PUSH2 0x37B0 DUP5 PUSH2 0x3879 JUMP JUMPDEST ADD SWAP1 POP PUSH1 0x0 DUP2 PUSH8 0xFFFFFFFFFFFFFFFF DUP2 GT ISZERO PUSH2 0x37CF JUMPI PUSH2 0x37CE PUSH2 0x4E5F JUMP JUMPDEST JUMPDEST PUSH1 0x40 MLOAD SWAP1 DUP1 DUP3 MSTORE DUP1 PUSH1 0x1F ADD PUSH1 0x1F NOT AND PUSH1 0x20 ADD DUP3 ADD PUSH1 0x40 MSTORE DUP1 ISZERO PUSH2 0x3801 JUMPI DUP2 PUSH1 0x20 ADD PUSH1 0x1 DUP3 MUL DUP1 CALLDATASIZE DUP4 CALLDATACOPY DUP1 DUP3 ADD SWAP2 POP POP SWAP1 POP JUMPDEST POP SWAP1 POP PUSH1 0x0 DUP3 PUSH1 0x20 ADD DUP3 ADD SWAP1 POP JUMPDEST PUSH1 0x1 ISZERO PUSH2 0x386E JUMPI DUP1 DUP1 PUSH1 0x1 SWAP1 SUB SWAP2 POP POP PUSH32 0x3031323334353637383961626364656600000000000000000000000000000000 PUSH1 0xA DUP7 MOD BYTE DUP2 MSTORE8 PUSH1 0xA DUP6 DUP2 PUSH2 0x3858 JUMPI PUSH2 0x3857 PUSH2 0x4DD2 JUMP JUMPDEST JUMPDEST DIV SWAP5 POP PUSH1 0x0 DUP6 EQ ISZERO PUSH2 0x3869 JUMPI PUSH2 0x386E JUMP JUMPDEST PUSH2 0x380F JUMP JUMPDEST DUP2 SWAP4 POP POP POP POP SWAP2 SWAP1 POP JUMP JUMPDEST PUSH1 0x0 DUP1 PUSH1 0x0 SWAP1 POP PUSH27 0x184F03E93FF9F4DAA797ED6E38ED64BF6A1F010000000000000000 DUP4 LT PUSH2 0x38D7 JUMPI PUSH27 0x184F03E93FF9F4DAA797ED6E38ED64BF6A1F010000000000000000 DUP4 DUP2 PUSH2 0x38CD JUMPI PUSH2 0x38CC PUSH2 0x4DD2 JUMP JUMPDEST JUMPDEST DIV SWAP3 POP PUSH1 0x40 DUP2 ADD SWAP1 POP JUMPDEST PUSH14 0x4EE2D6D415B85ACEF8100000000 DUP4 LT PUSH2 0x3914 JUMPI PUSH14 0x4EE2D6D415B85ACEF8100000000 DUP4 DUP2 PUSH2 0x390A JUMPI PUSH2 0x3909 PUSH2 0x4DD2 JUMP JUMPDEST JUMPDEST DIV SWAP3 POP PUSH1 0x20 DUP2 ADD SWAP1 POP JUMPDEST PUSH7 0x2386F26FC10000 DUP4 LT PUSH2 0x3943 JUMPI PUSH7 0x2386F26FC10000 DUP4 DUP2 PUSH2 0x3939 JUMPI PUSH2 0x3938 PUSH2 0x4DD2 JUMP JUMPDEST JUMPDEST DIV SWAP3 POP PUSH1 0x10 DUP2 ADD SWAP1 POP JUMPDEST PUSH4 0x5F5E100 DUP4 LT PUSH2 0x396C JUMPI PUSH4 0x5F5E100 DUP4 DUP2 PUSH2 0x3962 JUMPI PUSH2 0x3961 PUSH2 0x4DD2 JUMP JUMPDEST JUMPDEST DIV SWAP3 POP PUSH1 0x8 DUP2 ADD SWAP1 POP JUMPDEST PUSH2 0x2710 DUP4 LT PUSH2 0x3991 JUMPI PUSH2 0x2710 DUP4 DUP2 PUSH2 0x3987 JUMPI PUSH2 0x3986 PUSH2 0x4DD2 JUMP JUMPDEST JUMPDEST DIV SWAP3 POP PUSH1 0x4 DUP2 ADD SWAP1 POP JUMPDEST PUSH1 0x64 DUP4 LT PUSH2 0x39B4 JUMPI PUSH1 0x64 DUP4 DUP2 PUSH2 0x39AA JUMPI PUSH2 0x39A9 PUSH2 0x4DD2 JUMP JUMPDEST JUMPDEST DIV SWAP3 POP PUSH1 0x2 DUP2 ADD SWAP1 POP JUMPDEST PUSH1 0xA DUP4 LT PUSH2 0x39C3 JUMPI PUSH1 0x1 DUP2 ADD SWAP1 POP JUMPDEST DUP1 SWAP2 POP POP SWAP2 SWAP1 POP JUMP JUMPDEST POP DUP1 SLOAD PUSH2 0x39D8 SWAP1 PUSH2 0x4CF7 JUMP JUMPDEST PUSH1 0x0 DUP3 SSTORE DUP1 PUSH1 0x1F LT PUSH2 0x39EA JUMPI POP PUSH2 0x3A09 JUMP JUMPDEST PUSH1 0x1F ADD PUSH1 0x20 SWAP1 DIV SWAP1 PUSH1 0x0 MSTORE PUSH1 0x20 PUSH1 0x0 KECCAK256 SWAP1 DUP2 ADD SWAP1 PUSH2 0x3A08 SWAP2 SWAP1 PUSH2 0x3A92 JUMP JUMPDEST JUMPDEST POP JUMP JUMPDEST DUP3 DUP1 SLOAD PUSH2 0x3A18 SWAP1 PUSH2 0x4CF7 JUMP JUMPDEST SWAP1 PUSH1 0x0 MSTORE PUSH1 0x20 PUSH1 0x0 KECCAK256 SWAP1 PUSH1 0x1F ADD PUSH1 0x20 SWAP1 DIV DUP2 ADD SWAP3 DUP3 PUSH2 0x3A3A JUMPI PUSH1 0x0 DUP6 SSTORE PUSH2 0x3A81 JUMP JUMPDEST DUP3 PUSH1 0x1F LT PUSH2 0x3A53 JUMPI DUP1 MLOAD PUSH1 0xFF NOT AND DUP4 DUP1 ADD OR DUP6 SSTORE PUSH2 0x3A81 JUMP JUMPDEST DUP3 DUP1 ADD PUSH1 0x1 ADD DUP6 SSTORE DUP3 ISZERO PUSH2 0x3A81 JUMPI SWAP2 DUP3 ADD JUMPDEST DUP3 DUP2 GT ISZERO PUSH2 0x3A80 JUMPI DUP3 MLOAD DUP3 SSTORE SWAP2 PUSH1 0x20 ADD SWAP2 SWAP1 PUSH1 0x1 ADD SWAP1 PUSH2 0x3A65 JUMP JUMPDEST JUMPDEST POP SWAP1 POP PUSH2 0x3A8E SWAP2 SWAP1 PUSH2 0x3A92 JUMP JUMPDEST POP SWAP1 JUMP JUMPDEST JUMPDEST DUP1 DUP3 GT ISZERO PUSH2 0x3AAB JUMPI PUSH1 0x0 DUP2 PUSH1 0x0 SWAP1 SSTORE POP PUSH1 0x1 ADD PUSH2 0x3A93 JUMP JUMPDEST POP SWAP1 JUMP JUMPDEST PUSH1 0x0 PUSH2 0x3AC2 PUSH2 0x3ABD DUP5 PUSH2 0x4B49 JUMP JUMPDEST PUSH2 0x4B24 JUMP JUMPDEST SWAP1 POP DUP3 DUP2 MSTORE PUSH1 0x20 DUP2 ADD DUP5 DUP5 DUP5 ADD GT ISZERO PUSH2 0x3ADE JUMPI PUSH2 0x3ADD PUSH2 0x4E93 JUMP JUMPDEST JUMPDEST PUSH2 0x3AE9 DUP5 DUP3 DUP6 PUSH2 0x4CB5 JUMP JUMPDEST POP SWAP4 SWAP3 POP POP POP JUMP JUMPDEST PUSH1 0x0 DUP3 PUSH1 0x1F DUP4 ADD SLT PUSH2 0x3B06 JUMPI PUSH2 0x3B05 PUSH2 0x4E8E JUMP JUMPDEST JUMPDEST DUP2 CALLDATALOAD PUSH2 0x3B16 DUP5 DUP3 PUSH1 0x20 DUP7 ADD PUSH2 0x3AAF JUMP JUMPDEST SWAP2 POP POP SWAP3 SWAP2 POP POP JUMP JUMPDEST PUSH1 0x0 DUP2 CALLDATALOAD SWAP1 POP PUSH2 0x3B2E DUP2 PUSH2 0x4EB3 JUMP JUMPDEST SWAP3 SWAP2 POP POP JUMP JUMPDEST PUSH1 0x0 PUSH1 0x20 DUP3 DUP5 SUB SLT ISZERO PUSH2 0x3B4A JUMPI PUSH2 0x3B49 PUSH2 0x4E9D JUMP JUMPDEST JUMPDEST PUSH1 0x0 DUP3 ADD CALLDATALOAD PUSH8 0xFFFFFFFFFFFFFFFF DUP2 GT ISZERO PUSH2 0x3B68 JUMPI PUSH2 0x3B67 PUSH2 0x4E98 JUMP JUMPDEST JUMPDEST PUSH2 0x3B74 DUP5 DUP3 DUP6 ADD PUSH2 0x3AF1 JUMP JUMPDEST SWAP2 POP POP SWAP3 SWAP2 POP POP JUMP JUMPDEST PUSH1 0x0 DUP1 PUSH1 0x40 DUP4 DUP6 SUB SLT ISZERO PUSH2 0x3B94 JUMPI PUSH2 0x3B93 PUSH2 0x4E9D JUMP JUMPDEST JUMPDEST PUSH1 0x0 DUP4 ADD CALLDATALOAD PUSH8 0xFFFFFFFFFFFFFFFF DUP2 GT ISZERO PUSH2 0x3BB2 JUMPI PUSH2 0x3BB1 PUSH2 0x4E98 JUMP JUMPDEST JUMPDEST PUSH2 0x3BBE DUP6 DUP3 DUP7 ADD PUSH2 0x3AF1 JUMP JUMPDEST SWAP3 POP POP PUSH1 0x20 DUP4 ADD CALLDATALOAD PUSH8 0xFFFFFFFFFFFFFFFF DUP2 GT ISZERO PUSH2 0x3BDF JUMPI PUSH2 0x3BDE PUSH2 0x4E98 JUMP JUMPDEST JUMPDEST PUSH2 0x3BEB DUP6 DUP3 DUP7 ADD PUSH2 0x3AF1 JUMP JUMPDEST SWAP2 POP POP SWAP3 POP SWAP3 SWAP1 POP JUMP JUMPDEST PUSH1 0x0 DUP1 PUSH1 0x0 DUP1 PUSH1 0x0 PUSH1 0xA0 DUP7 DUP9 SUB SLT ISZERO PUSH2 0x3C11 JUMPI PUSH2 0x3C10 PUSH2 0x4E9D JUMP JUMPDEST JUMPDEST PUSH1 0x0 DUP7 ADD CALLDATALOAD PUSH8 0xFFFFFFFFFFFFFFFF DUP2 GT ISZERO PUSH2 0x3C2F JUMPI PUSH2 0x3C2E PUSH2 0x4E98 JUMP JUMPDEST JUMPDEST PUSH2 0x3C3B DUP9 DUP3 DUP10 ADD PUSH2 0x3AF1 JUMP JUMPDEST SWAP6 POP POP PUSH1 0x20 DUP7 ADD CALLDATALOAD PUSH8 0xFFFFFFFFFFFFFFFF DUP2 GT ISZERO PUSH2 0x3C5C JUMPI PUSH2 0x3C5B PUSH2 0x4E98 JUMP JUMPDEST JUMPDEST PUSH2 0x3C68 DUP9 DUP3 DUP10 ADD PUSH2 0x3AF1 JUMP JUMPDEST SWAP5 POP POP PUSH1 0x40 DUP7 ADD CALLDATALOAD PUSH8 0xFFFFFFFFFFFFFFFF DUP2 GT ISZERO PUSH2 0x3C89 JUMPI PUSH2 0x3C88 PUSH2 0x4E98 JUMP JUMPDEST JUMPDEST PUSH2 0x3C95 DUP9 DUP3 DUP10 ADD PUSH2 0x3AF1 JUMP JUMPDEST SWAP4 POP POP PUSH1 0x60 DUP7 ADD CALLDATALOAD PUSH8 0xFFFFFFFFFFFFFFFF DUP2 GT ISZERO PUSH2 0x3CB6 JUMPI PUSH2 0x3CB5 PUSH2 0x4E98 JUMP JUMPDEST JUMPDEST PUSH2 0x3CC2 DUP9 DUP3 DUP10 ADD PUSH2 0x3AF1 JUMP JUMPDEST SWAP3 POP POP PUSH1 0x80 DUP7 ADD CALLDATALOAD PUSH8 0xFFFFFFFFFFFFFFFF DUP2 GT ISZERO PUSH2 0x3CE3 JUMPI PUSH2 0x3CE2 PUSH2 0x4E98 JUMP JUMPDEST JUMPDEST PUSH2 0x3CEF DUP9 DUP3 DUP10 ADD PUSH2 0x3AF1 JUMP JUMPDEST SWAP2 POP POP SWAP3 SWAP6 POP SWAP3 SWAP6 SWAP1 SWAP4 POP JUMP JUMPDEST PUSH1 0x0 PUSH1 0x20 DUP3 DUP5 SUB SLT ISZERO PUSH2 0x3D12 JUMPI PUSH2 0x3D11 PUSH2 0x4E9D JUMP JUMPDEST JUMPDEST PUSH1 0x0 PUSH2 0x3D20 DUP5 DUP3 DUP6 ADD PUSH2 0x3B1F JUMP JUMPDEST SWAP2 POP POP SWAP3 SWAP2 POP POP JUMP JUMPDEST PUSH1 0x0 DUP1 PUSH1 0x40 DUP4 DUP6 SUB SLT ISZERO PUSH2 0x3D40 JUMPI PUSH2 0x3D3F PUSH2 0x4E9D JUMP JUMPDEST JUMPDEST PUSH1 0x0 PUSH2 0x3D4E DUP6 DUP3 DUP7 ADD PUSH2 0x3B1F JUMP JUMPDEST SWAP3 POP POP PUSH1 0x20 DUP4 ADD CALLDATALOAD PUSH8 0xFFFFFFFFFFFFFFFF DUP2 GT ISZERO PUSH2 0x3D6F JUMPI PUSH2 0x3D6E PUSH2 0x4E98 JUMP JUMPDEST JUMPDEST PUSH2 0x3D7B DUP6 DUP3 DUP7 ADD PUSH2 0x3AF1 JUMP JUMPDEST SWAP2 POP POP SWAP3 POP SWAP3 SWAP1 POP JUMP JUMPDEST PUSH1 0x0 DUP1 PUSH1 0x0 DUP1 PUSH1 0x0 DUP1 PUSH1 0x0 DUP1 PUSH2 0x100 DUP10 DUP12 SUB SLT ISZERO PUSH2 0x3DA6 JUMPI PUSH2 0x3DA5 PUSH2 0x4E9D JUMP JUMPDEST JUMPDEST PUSH1 0x0 PUSH2 0x3DB4 DUP12 DUP3 DUP13 ADD PUSH2 0x3B1F JUMP JUMPDEST SWAP9 POP POP PUSH1 0x20 DUP10 ADD CALLDATALOAD PUSH8 0xFFFFFFFFFFFFFFFF DUP2 GT ISZERO PUSH2 0x3DD5 JUMPI PUSH2 0x3DD4 PUSH2 0x4E98 JUMP JUMPDEST JUMPDEST PUSH2 0x3DE1 DUP12 DUP3 DUP13 ADD PUSH2 0x3AF1 JUMP JUMPDEST SWAP8 POP POP PUSH1 0x40 DUP10 ADD CALLDATALOAD PUSH8 0xFFFFFFFFFFFFFFFF DUP2 GT ISZERO PUSH2 0x3E02 JUMPI PUSH2 0x3E01 PUSH2 0x4E98 JUMP JUMPDEST JUMPDEST PUSH2 0x3E0E DUP12 DUP3 DUP13 ADD PUSH2 0x3AF1 JUMP JUMPDEST SWAP7 POP POP PUSH1 0x60 DUP10 ADD CALLDATALOAD PUSH8 0xFFFFFFFFFFFFFFFF DUP2 GT ISZERO PUSH2 0x3E2F JUMPI PUSH2 0x3E2E PUSH2 0x4E98 JUMP JUMPDEST JUMPDEST PUSH2 0x3E3B DUP12 DUP3 DUP13 ADD PUSH2 0x3AF1 JUMP JUMPDEST SWAP6 POP POP PUSH1 0x80 DUP10 ADD CALLDATALOAD PUSH8 0xFFFFFFFFFFFFFFFF DUP2 GT ISZERO PUSH2 0x3E5C JUMPI PUSH2 0x3E5B PUSH2 0x4E98 JUMP JUMPDEST JUMPDEST PUSH2 0x3E68 DUP12 DUP3 DUP13 ADD PUSH2 0x3AF1 JUMP JUMPDEST SWAP5 POP POP PUSH1 0xA0 DUP10 ADD CALLDATALOAD PUSH8 0xFFFFFFFFFFFFFFFF DUP2 GT ISZERO PUSH2 0x3E89 JUMPI PUSH2 0x3E88 PUSH2 0x4E98 JUMP JUMPDEST JUMPDEST PUSH2 0x3E95 DUP12 DUP3 DUP13 ADD PUSH2 0x3AF1 JUMP JUMPDEST SWAP4 POP POP PUSH1 0xC0 DUP10 ADD CALLDATALOAD PUSH8 0xFFFFFFFFFFFFFFFF DUP2 GT ISZERO PUSH2 0x3EB6 JUMPI PUSH2 0x3EB5 PUSH2 0x4E98 JUMP JUMPDEST JUMPDEST PUSH2 0x3EC2 DUP12 DUP3 DUP13 ADD PUSH2 0x3AF1 JUMP JUMPDEST SWAP3 POP POP PUSH1 0xE0 DUP10 ADD CALLDATALOAD PUSH8 0xFFFFFFFFFFFFFFFF DUP2 GT ISZERO PUSH2 0x3EE3 JUMPI PUSH2 0x3EE2 PUSH2 0x4E98 JUMP JUMPDEST JUMPDEST PUSH2 0x3EEF DUP12 DUP3 DUP13 ADD PUSH2 0x3AF1 JUMP JUMPDEST SWAP2 POP POP SWAP3 SWAP6 SWAP9 POP SWAP3 SWAP6 SWAP9 SWAP1 SWAP4 SWAP7 POP JUMP JUMPDEST PUSH1 0x0 DUP1 PUSH1 0x0 DUP1 PUSH1 0x0 DUP1 PUSH1 0x0 DUP1 PUSH2 0x100 DUP10 DUP12 SUB SLT ISZERO PUSH2 0x3F20 JUMPI PUSH2 0x3F1F PUSH2 0x4E9D JUMP JUMPDEST JUMPDEST PUSH1 0x0 PUSH2 0x3F2E DUP12 DUP3 DUP13 ADD PUSH2 0x3B1F JUMP JUMPDEST SWAP9 POP POP PUSH1 0x20 DUP10 ADD CALLDATALOAD PUSH8 0xFFFFFFFFFFFFFFFF DUP2 GT ISZERO PUSH2 0x3F4F JUMPI PUSH2 0x3F4E PUSH2 0x4E98 JUMP JUMPDEST JUMPDEST PUSH2 0x3F5B DUP12 DUP3 DUP13 ADD PUSH2 0x3AF1 JUMP JUMPDEST SWAP8 POP POP PUSH1 0x40 DUP10 ADD CALLDATALOAD PUSH8 0xFFFFFFFFFFFFFFFF DUP2 GT ISZERO PUSH2 0x3F7C JUMPI PUSH2 0x3F7B PUSH2 0x4E98 JUMP JUMPDEST JUMPDEST PUSH2 0x3F88 DUP12 DUP3 DUP13 ADD PUSH2 0x3AF1 JUMP JUMPDEST SWAP7 POP POP PUSH1 0x60 DUP10 ADD CALLDATALOAD PUSH8 0xFFFFFFFFFFFFFFFF DUP2 GT ISZERO PUSH2 0x3FA9 JUMPI PUSH2 0x3FA8 PUSH2 0x4E98 JUMP JUMPDEST JUMPDEST PUSH2 0x3FB5 DUP12 DUP3 DUP13 ADD PUSH2 0x3AF1 JUMP JUMPDEST SWAP6 POP POP PUSH1 0x80 DUP10 ADD CALLDATALOAD PUSH8 0xFFFFFFFFFFFFFFFF DUP2 GT ISZERO PUSH2 0x3FD6 JUMPI PUSH2 0x3FD5 PUSH2 0x4E98 JUMP JUMPDEST JUMPDEST PUSH2 0x3FE2 DUP12 DUP3 DUP13 ADD PUSH2 0x3AF1 JUMP JUMPDEST SWAP5 POP POP PUSH1 0xA0 PUSH2 0x3FF3 DUP12 DUP3 DUP13 ADD PUSH2 0x3B1F JUMP JUMPDEST SWAP4 POP POP PUSH1 0xC0 PUSH2 0x4004 DUP12 DUP3 DUP13 ADD PUSH2 0x3B1F JUMP JUMPDEST SWAP3 POP POP PUSH1 0xE0 PUSH2 0x4015 DUP12 DUP3 DUP13 ADD PUSH2 0x3B1F JUMP JUMPDEST SWAP2 POP POP SWAP3 SWAP6 SWAP9 POP SWAP3 SWAP6 SWAP9 SWAP1 SWAP4 SWAP7 POP JUMP JUMPDEST PUSH1 0x0 DUP1 PUSH1 0x0 DUP1 PUSH1 0x0 PUSH1 0xA0 DUP7 DUP9 SUB SLT ISZERO PUSH2 0x4041 JUMPI PUSH2 0x4040 PUSH2 0x4E9D JUMP JUMPDEST JUMPDEST PUSH1 0x0 PUSH2 0x404F DUP9 DUP3 DUP10 ADD PUSH2 0x3B1F JUMP JUMPDEST SWAP6 POP POP PUSH1 0x20 DUP7 ADD CALLDATALOAD PUSH8 0xFFFFFFFFFFFFFFFF DUP2 GT ISZERO PUSH2 0x4070 JUMPI PUSH2 0x406F PUSH2 0x4E98 JUMP JUMPDEST JUMPDEST PUSH2 0x407C DUP9 DUP3 DUP10 ADD PUSH2 0x3AF1 JUMP JUMPDEST SWAP5 POP POP PUSH1 0x40 DUP7 ADD CALLDATALOAD PUSH8 0xFFFFFFFFFFFFFFFF DUP2 GT ISZERO PUSH2 0x409D JUMPI PUSH2 0x409C PUSH2 0x4E98 JUMP JUMPDEST JUMPDEST PUSH2 0x40A9 DUP9 DUP3 DUP10 ADD PUSH2 0x3AF1 JUMP JUMPDEST SWAP4 POP POP PUSH1 0x60 DUP7 ADD CALLDATALOAD PUSH8 0xFFFFFFFFFFFFFFFF DUP2 GT ISZERO PUSH2 0x40CA JUMPI PUSH2 0x40C9 PUSH2 0x4E98 JUMP JUMPDEST JUMPDEST PUSH2 0x40D6 DUP9 DUP3 DUP10 ADD PUSH2 0x3AF1 JUMP JUMPDEST SWAP3 POP POP PUSH1 0x80 PUSH2 0x40E7 DUP9 DUP3 DUP10 ADD PUSH2 0x3B1F JUMP JUMPDEST SWAP2 POP POP SWAP3 SWAP6 POP SWAP3 SWAP6 SWAP1 SWAP4 POP JUMP JUMPDEST PUSH1 0x0 DUP1 PUSH1 0x0 PUSH1 0x60 DUP5 DUP7 SUB SLT ISZERO PUSH2 0x410D JUMPI PUSH2 0x410C PUSH2 0x4E9D JUMP JUMPDEST JUMPDEST PUSH1 0x0 PUSH2 0x411B DUP7 DUP3 DUP8 ADD PUSH2 0x3B1F JUMP JUMPDEST SWAP4 POP POP PUSH1 0x20 DUP5 ADD CALLDATALOAD PUSH8 0xFFFFFFFFFFFFFFFF DUP2 GT ISZERO PUSH2 0x413C JUMPI PUSH2 0x413B PUSH2 0x4E98 JUMP JUMPDEST JUMPDEST PUSH2 0x4148 DUP7 DUP3 DUP8 ADD PUSH2 0x3AF1 JUMP JUMPDEST SWAP3 POP POP PUSH1 0x40 PUSH2 0x4159 DUP7 DUP3 DUP8 ADD PUSH2 0x3B1F JUMP JUMPDEST SWAP2 POP POP SWAP3 POP SWAP3 POP SWAP3 JUMP JUMPDEST PUSH1 0x0 DUP1 PUSH1 0x0 DUP1 PUSH1 0x80 DUP6 DUP8 SUB SLT ISZERO PUSH2 0x417D JUMPI PUSH2 0x417C PUSH2 0x4E9D JUMP JUMPDEST JUMPDEST PUSH1 0x0 PUSH2 0x418B DUP8 DUP3 DUP9 ADD PUSH2 0x3B1F JUMP JUMPDEST SWAP5 POP POP PUSH1 0x20 DUP6 ADD CALLDATALOAD PUSH8 0xFFFFFFFFFFFFFFFF DUP2 GT ISZERO PUSH2 0x41AC JUMPI PUSH2 0x41AB PUSH2 0x4E98 JUMP JUMPDEST JUMPDEST PUSH2 0x41B8 DUP8 DUP3 DUP9 ADD PUSH2 0x3AF1 JUMP JUMPDEST SWAP4 POP POP PUSH1 0x40 PUSH2 0x41C9 DUP8 DUP3 DUP9 ADD PUSH2 0x3B1F JUMP JUMPDEST SWAP3 POP POP PUSH1 0x60 PUSH2 0x41DA DUP8 DUP3 DUP9 ADD PUSH2 0x3B1F JUMP JUMPDEST SWAP2 POP POP SWAP3 SWAP6 SWAP2 SWAP5 POP SWAP3 POP JUMP JUMPDEST PUSH1 0x0 DUP1 PUSH1 0x0 DUP1 PUSH1 0x80 DUP6 DUP8 SUB SLT ISZERO PUSH2 0x4200 JUMPI PUSH2 0x41FF PUSH2 0x4E9D JUMP JUMPDEST JUMPDEST PUSH1 0x0 PUSH2 0x420E DUP8 DUP3 DUP9 ADD PUSH2 0x3B1F JUMP JUMPDEST SWAP5 POP POP PUSH1 0x20 PUSH2 0x421F DUP8 DUP3 DUP9 ADD PUSH2 0x3B1F JUMP JUMPDEST SWAP4 POP POP PUSH1 0x40 DUP6 ADD CALLDATALOAD PUSH8 0xFFFFFFFFFFFFFFFF DUP2 GT ISZERO PUSH2 0x4240 JUMPI PUSH2 0x423F PUSH2 0x4E98 JUMP JUMPDEST JUMPDEST PUSH2 0x424C DUP8 DUP3 DUP9 ADD PUSH2 0x3AF1 JUMP JUMPDEST SWAP3 POP POP PUSH1 0x60 DUP6 ADD CALLDATALOAD PUSH8 0xFFFFFFFFFFFFFFFF DUP2 GT ISZERO PUSH2 0x426D JUMPI PUSH2 0x426C PUSH2 0x4E98 JUMP JUMPDEST JUMPDEST PUSH2 0x4279 DUP8 DUP3 DUP9 ADD PUSH2 0x3AF1 JUMP JUMPDEST SWAP2 POP POP SWAP3 SWAP6 SWAP2 SWAP5 POP SWAP3 POP JUMP JUMPDEST PUSH1 0x0 DUP1 PUSH1 0x0 DUP1 PUSH1 0x0 DUP1 PUSH1 0x0 PUSH1 0xE0 DUP9 DUP11 SUB SLT ISZERO PUSH2 0x42A4 JUMPI PUSH2 0x42A3 PUSH2 0x4E9D JUMP JUMPDEST JUMPDEST PUSH1 0x0 PUSH2 0x42B2 DUP11 DUP3 DUP12 ADD PUSH2 0x3B1F JUMP JUMPDEST SWAP8 POP POP PUSH1 0x20 PUSH2 0x42C3 DUP11 DUP3 DUP12 ADD PUSH2 0x3B1F JUMP JUMPDEST SWAP7 POP POP PUSH1 0x40 DUP9 ADD CALLDATALOAD PUSH8 0xFFFFFFFFFFFFFFFF DUP2 GT ISZERO PUSH2 0x42E4 JUMPI PUSH2 0x42E3 PUSH2 0x4E98 JUMP JUMPDEST JUMPDEST PUSH2 0x42F0 DUP11 DUP3 DUP12 ADD PUSH2 0x3AF1 JUMP JUMPDEST SWAP6 POP POP PUSH1 0x60 DUP9 ADD CALLDATALOAD PUSH8 0xFFFFFFFFFFFFFFFF DUP2 GT ISZERO PUSH2 0x4311 JUMPI PUSH2 0x4310 PUSH2 0x4E98 JUMP JUMPDEST JUMPDEST PUSH2 0x431D DUP11 DUP3 DUP12 ADD PUSH2 0x3AF1 JUMP JUMPDEST SWAP5 POP POP PUSH1 0x80 DUP9 ADD CALLDATALOAD PUSH8 0xFFFFFFFFFFFFFFFF DUP2 GT ISZERO PUSH2 0x433E JUMPI PUSH2 0x433D PUSH2 0x4E98 JUMP JUMPDEST JUMPDEST PUSH2 0x434A DUP11 DUP3 DUP12 ADD PUSH2 0x3AF1 JUMP JUMPDEST SWAP4 POP POP PUSH1 0xA0 DUP9 ADD CALLDATALOAD PUSH8 0xFFFFFFFFFFFFFFFF DUP2 GT ISZERO PUSH2 0x436B JUMPI PUSH2 0x436A PUSH2 0x4E98 JUMP JUMPDEST JUMPDEST PUSH2 0x4377 DUP11 DUP3 DUP12 ADD PUSH2 0x3AF1 JUMP JUMPDEST SWAP3 POP POP PUSH1 0xC0 PUSH2 0x4388 DUP11 DUP3 DUP12 ADD PUSH2 0x3B1F JUMP JUMPDEST SWAP2 POP POP SWAP3 SWAP6 SWAP9 SWAP2 SWAP5 SWAP8 POP SWAP3 SWAP6 POP JUMP JUMPDEST PUSH1 0x0 DUP1 PUSH1 0x0 DUP1 PUSH1 0x80 DUP6 DUP8 SUB SLT ISZERO PUSH2 0x43B1 JUMPI PUSH2 0x43B0 PUSH2 0x4E9D JUMP JUMPDEST JUMPDEST PUSH1 0x0 PUSH2 0x43BF DUP8 DUP3 DUP9 ADD PUSH2 0x3B1F JUMP JUMPDEST SWAP5 POP POP PUSH1 0x20 PUSH2 0x43D0 DUP8 DUP3 DUP9 ADD PUSH2 0x3B1F JUMP JUMPDEST SWAP4 POP POP PUSH1 0x40 DUP6 ADD CALLDATALOAD PUSH8 0xFFFFFFFFFFFFFFFF DUP2 GT ISZERO PUSH2 0x43F1 JUMPI PUSH2 0x43F0 PUSH2 0x4E98 JUMP JUMPDEST JUMPDEST PUSH2 0x43FD DUP8 DUP3 DUP9 ADD PUSH2 0x3AF1 JUMP JUMPDEST SWAP3 POP POP PUSH1 0x60 PUSH2 0x440E DUP8 DUP3 DUP9 ADD PUSH2 0x3B1F JUMP JUMPDEST SWAP2 POP POP SWAP3 SWAP6 SWAP2 SWAP5 POP SWAP3 POP JUMP JUMPDEST PUSH1 0x0 DUP1 PUSH1 0x0 DUP1 PUSH1 0x0 DUP1 PUSH1 0xC0 DUP8 DUP10 SUB SLT ISZERO PUSH2 0x4437 JUMPI PUSH2 0x4436 PUSH2 0x4E9D JUMP JUMPDEST JUMPDEST PUSH1 0x0 PUSH2 0x4445 DUP10 DUP3 DUP11 ADD PUSH2 0x3B1F JUMP JUMPDEST SWAP7 POP POP PUSH1 0x20 PUSH2 0x4456 DUP10 DUP3 DUP11 ADD PUSH2 0x3B1F JUMP JUMPDEST SWAP6 POP POP PUSH1 0x40 PUSH2 0x4467 DUP10 DUP3 DUP11 ADD PUSH2 0x3B1F JUMP JUMPDEST SWAP5 POP POP PUSH1 0x60 DUP8 ADD CALLDATALOAD PUSH8 0xFFFFFFFFFFFFFFFF DUP2 GT ISZERO PUSH2 0x4488 JUMPI PUSH2 0x4487 PUSH2 0x4E98 JUMP JUMPDEST JUMPDEST PUSH2 0x4494 DUP10 DUP3 DUP11 ADD PUSH2 0x3AF1 JUMP JUMPDEST SWAP4 POP POP PUSH1 0x80 DUP8 ADD CALLDATALOAD PUSH8 0xFFFFFFFFFFFFFFFF DUP2 GT ISZERO PUSH2 0x44B5 JUMPI PUSH2 0x44B4 PUSH2 0x4E98 JUMP JUMPDEST JUMPDEST PUSH2 0x44C1 DUP10 DUP3 DUP11 ADD PUSH2 0x3AF1 JUMP JUMPDEST SWAP3 POP POP PUSH1 0xA0 DUP8 ADD CALLDATALOAD PUSH8 0xFFFFFFFFFFFFFFFF DUP2 GT ISZERO PUSH2 0x44E2 JUMPI PUSH2 0x44E1 PUSH2 0x4E98 JUMP JUMPDEST JUMPDEST PUSH2 0x44EE DUP10 DUP3 DUP11 ADD PUSH2 0x3AF1 JUMP JUMPDEST SWAP2 POP POP SWAP3 SWAP6 POP SWAP3 SWAP6 POP SWAP3 SWAP6 JUMP JUMPDEST PUSH1 0x0 PUSH2 0x4507 DUP4 DUP4 PUSH2 0x4638 JUMP JUMPDEST PUSH1 0x20 DUP4 ADD SWAP1 POP SWAP3 SWAP2 POP POP JUMP JUMPDEST PUSH2 0x451C DUP2 PUSH2 0x4C79 JUMP JUMPDEST DUP3 MSTORE POP POP JUMP JUMPDEST PUSH1 0x0 PUSH2 0x452D DUP3 PUSH2 0x4B9F JUMP JUMPDEST PUSH2 0x4537 DUP2 DUP6 PUSH2 0x4BC2 JUMP JUMPDEST SWAP4 POP PUSH2 0x4542 DUP4 PUSH2 0x4B7A JUMP JUMPDEST DUP1 PUSH1 0x0 JUMPDEST DUP4 DUP2 LT ISZERO PUSH2 0x4573 JUMPI DUP2 MLOAD PUSH2 0x455A DUP9 DUP3 PUSH2 0x44FB JUMP JUMPDEST SWAP8 POP PUSH2 0x4565 DUP4 PUSH2 0x4BB5 JUMP JUMPDEST SWAP3 POP POP PUSH1 0x1 DUP2 ADD SWAP1 POP PUSH2 0x4546 JUMP JUMPDEST POP DUP6 SWAP4 POP POP POP POP SWAP3 SWAP2 POP POP JUMP JUMPDEST PUSH1 0x0 DUP2 SLOAD PUSH2 0x458D DUP2 PUSH2 0x4CF7 JUMP JUMPDEST PUSH2 0x4597 DUP2 DUP7 PUSH2 0x4BD3 JUMP JUMPDEST SWAP5 POP PUSH1 0x1 DUP3 AND PUSH1 0x0 DUP2 EQ PUSH2 0x45B2 JUMPI PUSH1 0x1 DUP2 EQ PUSH2 0x45C3 JUMPI PUSH2 0x45F6 JUMP JUMPDEST PUSH1 0xFF NOT DUP4 AND DUP7 MSTORE DUP2 DUP7 ADD SWAP4 POP PUSH2 0x45F6 JUMP JUMPDEST PUSH2 0x45CC DUP6 PUSH2 0x4B8A JUMP JUMPDEST PUSH1 0x0 JUMPDEST DUP4 DUP2 LT ISZERO PUSH2 0x45EE JUMPI DUP2 SLOAD DUP2 DUP10 ADD MSTORE PUSH1 0x1 DUP3 ADD SWAP2 POP PUSH1 0x20 DUP2 ADD SWAP1 POP PUSH2 0x45CF JUMP JUMPDEST DUP4 DUP9 ADD SWAP6 POP POP POP JUMPDEST POP POP POP SWAP3 SWAP2 POP POP JUMP JUMPDEST PUSH1 0x0 PUSH2 0x460A DUP3 PUSH2 0x4BAA JUMP JUMPDEST PUSH2 0x4614 DUP2 DUP6 PUSH2 0x4BDE JUMP JUMPDEST SWAP4 POP PUSH2 0x4624 DUP2 DUP6 PUSH1 0x20 DUP7 ADD PUSH2 0x4CC4 JUMP JUMPDEST PUSH2 0x462D DUP2 PUSH2 0x4EA2 JUMP JUMPDEST DUP5 ADD SWAP2 POP POP SWAP3 SWAP2 POP POP JUMP JUMPDEST PUSH2 0x4641 DUP2 PUSH2 0x4CAB JUMP JUMPDEST DUP3 MSTORE POP POP JUMP JUMPDEST PUSH2 0x4650 DUP2 PUSH2 0x4CAB JUMP JUMPDEST DUP3 MSTORE POP POP JUMP JUMPDEST PUSH1 0x0 PUSH2 0x4662 DUP3 DUP5 PUSH2 0x4580 JUMP JUMPDEST SWAP2 POP DUP2 SWAP1 POP SWAP3 SWAP2 POP POP JUMP JUMPDEST PUSH1 0x0 PUSH1 0x20 DUP3 ADD SWAP1 POP PUSH2 0x4682 PUSH1 0x0 DUP4 ADD DUP5 PUSH2 0x4513 JUMP JUMPDEST SWAP3 SWAP2 POP POP JUMP JUMPDEST PUSH1 0x0 PUSH1 0x20 DUP3 ADD SWAP1 POP DUP2 DUP2 SUB PUSH1 0x0 DUP4 ADD MSTORE PUSH2 0x46A2 DUP2 DUP5 PUSH2 0x4522 JUMP JUMPDEST SWAP1 POP SWAP3 SWAP2 POP POP JUMP JUMPDEST PUSH1 0x0 PUSH1 0x20 DUP3 ADD SWAP1 POP DUP2 DUP2 SUB PUSH1 0x0 DUP4 ADD MSTORE PUSH2 0x46C4 DUP2 DUP5 PUSH2 0x45FF JUMP JUMPDEST SWAP1 POP SWAP3 SWAP2 POP POP JUMP JUMPDEST PUSH1 0x0 PUSH1 0x40 DUP3 ADD SWAP1 POP DUP2 DUP2 SUB PUSH1 0x0 DUP4 ADD MSTORE PUSH2 0x46E6 DUP2 DUP6 PUSH2 0x45FF JUMP JUMPDEST SWAP1 POP DUP2 DUP2 SUB PUSH1 0x20 DUP4 ADD MSTORE PUSH2 0x46FA DUP2 DUP5 PUSH2 0x45FF JUMP JUMPDEST SWAP1 POP SWAP4 SWAP3 POP POP POP JUMP JUMPDEST PUSH1 0x0 PUSH1 0xE0 DUP3 ADD SWAP1 POP DUP2 DUP2 SUB PUSH1 0x0 DUP4 ADD MSTORE PUSH2 0x471D DUP2 DUP11 PUSH2 0x45FF JUMP JUMPDEST SWAP1 POP PUSH2 0x472C PUSH1 0x20 DUP4 ADD DUP10 PUSH2 0x4647 JUMP JUMPDEST DUP2 DUP2 SUB PUSH1 0x40 DUP4 ADD MSTORE PUSH2 0x473E DUP2 DUP9 PUSH2 0x45FF JUMP JUMPDEST SWAP1 POP DUP2 DUP2 SUB PUSH1 0x60 DUP4 ADD MSTORE PUSH2 0x4752 DUP2 DUP8 PUSH2 0x45FF JUMP JUMPDEST SWAP1 POP DUP2 DUP2 SUB PUSH1 0x80 DUP4 ADD MSTORE PUSH2 0x4766 DUP2 DUP7 PUSH2 0x45FF JUMP JUMPDEST SWAP1 POP DUP2 DUP2 SUB PUSH1 0xA0 DUP4 ADD MSTORE PUSH2 0x477A DUP2 DUP6 PUSH2 0x45FF JUMP JUMPDEST SWAP1 POP PUSH2 0x4789 PUSH1 0xC0 DUP4 ADD DUP5 PUSH2 0x4647 JUMP JUMPDEST SWAP9 SWAP8 POP POP POP POP POP POP POP POP JUMP JUMPDEST PUSH1 0x0 PUSH1 0x20 DUP3 ADD SWAP1 POP PUSH2 0x47AA PUSH1 0x0 DUP4 ADD DUP5 PUSH2 0x4647 JUMP JUMPDEST SWAP3 SWAP2 POP POP JUMP JUMPDEST PUSH1 0x0 PUSH2 0x100 DUP3 ADD SWAP1 POP PUSH2 0x47C6 PUSH1 0x0 DUP4 ADD DUP12 PUSH2 0x4647 JUMP JUMPDEST DUP2 DUP2 SUB PUSH1 0x20 DUP4 ADD MSTORE PUSH2 0x47D8 DUP2 DUP11 PUSH2 0x45FF JUMP JUMPDEST SWAP1 POP DUP2 DUP2 SUB PUSH1 0x40 DUP4 ADD MSTORE PUSH2 0x47EC DUP2 DUP10 PUSH2 0x45FF JUMP JUMPDEST SWAP1 POP DUP2 DUP2 SUB PUSH1 0x60 DUP4 ADD MSTORE PUSH2 0x4800 DUP2 DUP9 PUSH2 0x45FF JUMP JUMPDEST SWAP1 POP DUP2 DUP2 SUB PUSH1 0x80 DUP4 ADD MSTORE PUSH2 0x4814 DUP2 DUP8 PUSH2 0x45FF JUMP JUMPDEST SWAP1 POP DUP2 DUP2 SUB PUSH1 0xA0 DUP4 ADD MSTORE PUSH2 0x4828 DUP2 DUP7 PUSH2 0x45FF JUMP JUMPDEST SWAP1 POP DUP2 DUP2 SUB PUSH1 0xC0 DUP4 ADD MSTORE PUSH2 0x483C DUP2 DUP6 PUSH2 0x45FF JUMP JUMPDEST SWAP1 POP DUP2 DUP2 SUB PUSH1 0xE0 DUP4 ADD MSTORE PUSH2 0x4850 DUP2 DUP5 PUSH2 0x45FF JUMP JUMPDEST SWAP1 POP SWAP10 SWAP9 POP POP POP POP POP POP POP POP POP JUMP JUMPDEST PUSH1 0x0 PUSH2 0x180 DUP3 ADD SWAP1 POP PUSH2 0x4875 PUSH1 0x0 DUP4 ADD DUP16 PUSH2 0x4647 JUMP JUMPDEST PUSH2 0x4882 PUSH1 0x20 DUP4 ADD DUP15 PUSH2 0x4647 JUMP JUMPDEST DUP2 DUP2 SUB PUSH1 0x40 DUP4 ADD MSTORE PUSH2 0x4894 DUP2 DUP14 PUSH2 0x45FF JUMP JUMPDEST SWAP1 POP DUP2 DUP2 SUB PUSH1 0x60 DUP4 ADD MSTORE PUSH2 0x48A8 DUP2 DUP13 PUSH2 0x45FF JUMP JUMPDEST SWAP1 POP DUP2 DUP2 SUB PUSH1 0x80 DUP4 ADD MSTORE PUSH2 0x48BC DUP2 DUP12 PUSH2 0x45FF JUMP JUMPDEST SWAP1 POP DUP2 DUP2 SUB PUSH1 0xA0 DUP4 ADD MSTORE PUSH2 0x48D0 DUP2 DUP11 PUSH2 0x45FF JUMP JUMPDEST SWAP1 POP PUSH2 0x48DF PUSH1 0xC0 DUP4 ADD DUP10 PUSH2 0x4647 JUMP JUMPDEST PUSH2 0x48EC PUSH1 0xE0 DUP4 ADD DUP9 PUSH2 0x4647 JUMP JUMPDEST PUSH2 0x48FA PUSH2 0x100 DUP4 ADD DUP8 PUSH2 0x4647 JUMP JUMPDEST DUP2 DUP2 SUB PUSH2 0x120 DUP4 ADD MSTORE PUSH2 0x490D DUP2 DUP7 PUSH2 0x45FF JUMP JUMPDEST SWAP1 POP PUSH2 0x491D PUSH2 0x140 DUP4 ADD DUP6 PUSH2 0x4647 JUMP JUMPDEST PUSH2 0x492B PUSH2 0x160 DUP4 ADD DUP5 PUSH2 0x4647 JUMP JUMPDEST SWAP14 SWAP13 POP POP POP POP POP POP POP POP POP POP POP POP POP JUMP JUMPDEST PUSH1 0x0 PUSH1 0xA0 DUP3 ADD SWAP1 POP PUSH2 0x4951 PUSH1 0x0 DUP4 ADD DUP9 PUSH2 0x4647 JUMP JUMPDEST PUSH2 0x495E PUSH1 0x20 DUP4 ADD DUP8 PUSH2 0x4647 JUMP JUMPDEST PUSH2 0x496B PUSH1 0x40 DUP4 ADD DUP7 PUSH2 0x4647 JUMP JUMPDEST DUP2 DUP2 SUB PUSH1 0x60 DUP4 ADD MSTORE PUSH2 0x497D DUP2 DUP6 PUSH2 0x45FF JUMP JUMPDEST SWAP1 POP DUP2 DUP2 SUB PUSH1 0x80 DUP4 ADD MSTORE PUSH2 0x4991 DUP2 DUP5 PUSH2 0x45FF JUMP JUMPDEST SWAP1 POP SWAP7 SWAP6 POP POP POP POP POP POP JUMP JUMPDEST PUSH1 0x0 PUSH2 0x120 DUP3 ADD SWAP1 POP PUSH2 0x49B3 PUSH1 0x0 DUP4 ADD DUP13 PUSH2 0x4647 JUMP JUMPDEST PUSH2 0x49C0 PUSH1 0x20 DUP4 ADD DUP12 PUSH2 0x4647 JUMP JUMPDEST PUSH2 0x49CD PUSH1 0x40 DUP4 ADD DUP11 PUSH2 0x4647 JUMP JUMPDEST DUP2 DUP2 SUB PUSH1 0x60 DUP4 ADD MSTORE PUSH2 0x49DF DUP2 DUP10 PUSH2 0x45FF JUMP JUMPDEST SWAP1 POP DUP2 DUP2 SUB PUSH1 0x80 DUP4 ADD MSTORE PUSH2 0x49F3 DUP2 DUP9 PUSH2 0x45FF JUMP JUMPDEST SWAP1 POP DUP2 DUP2 SUB PUSH1 0xA0 DUP4 ADD MSTORE PUSH2 0x4A07 DUP2 DUP8 PUSH2 0x45FF JUMP JUMPDEST SWAP1 POP DUP2 DUP2 SUB PUSH1 0xC0 DUP4 ADD MSTORE PUSH2 0x4A1B DUP2 DUP7 PUSH2 0x45FF JUMP JUMPDEST SWAP1 POP PUSH2 0x4A2A PUSH1 0xE0 DUP4 ADD DUP6 PUSH2 0x4647 JUMP JUMPDEST PUSH2 0x4A38 PUSH2 0x100 DUP4 ADD DUP5 PUSH2 0x4647 JUMP JUMPDEST SWAP11 SWAP10 POP POP POP POP POP POP POP POP POP POP JUMP JUMPDEST PUSH1 0x0 PUSH1 0xA0 DUP3 ADD SWAP1 POP PUSH2 0x4A5B PUSH1 0x0 DUP4 ADD DUP9 PUSH2 0x4647 JUMP JUMPDEST PUSH2 0x4A68 PUSH1 0x20 DUP4 ADD DUP8 PUSH2 0x4647 JUMP JUMPDEST PUSH2 0x4A75 PUSH1 0x40 DUP4 ADD DUP7 PUSH2 0x4647 JUMP JUMPDEST PUSH2 0x4A82 PUSH1 0x60 DUP4 ADD DUP6 PUSH2 0x4647 JUMP JUMPDEST DUP2 DUP2 SUB PUSH1 0x80 DUP4 ADD MSTORE PUSH2 0x4A94 DUP2 DUP5 PUSH2 0x45FF JUMP JUMPDEST SWAP1 POP SWAP7 SWAP6 POP POP POP POP POP POP JUMP JUMPDEST PUSH1 0x0 PUSH1 0xE0 DUP3 ADD SWAP1 POP PUSH2 0x4AB5 PUSH1 0x0 DUP4 ADD DUP11 PUSH2 0x4647 JUMP JUMPDEST PUSH2 0x4AC2 PUSH1 0x20 DUP4 ADD DUP10 PUSH2 0x4647 JUMP JUMPDEST PUSH2 0x4ACF PUSH1 0x40 DUP4 ADD DUP9 PUSH2 0x4647 JUMP JUMPDEST PUSH2 0x4ADC PUSH1 0x60 DUP4 ADD DUP8 PUSH2 0x4647 JUMP JUMPDEST DUP2 DUP2 SUB PUSH1 0x80 DUP4 ADD MSTORE PUSH2 0x4AEE DUP2 DUP7 PUSH2 0x45FF JUMP JUMPDEST SWAP1 POP DUP2 DUP2 SUB PUSH1 0xA0 DUP4 ADD MSTORE PUSH2 0x4B02 DUP2 DUP6 PUSH2 0x45FF JUMP JUMPDEST SWAP1 POP DUP2 DUP2 SUB PUSH1 0xC0 DUP4 ADD MSTORE PUSH2 0x4B16 DUP2 DUP5 PUSH2 0x45FF JUMP JUMPDEST SWAP1 POP SWAP9 SWAP8 POP POP POP POP POP POP POP POP JUMP JUMPDEST PUSH1 0x0 PUSH2 0x4B2E PUSH2 0x4B3F JUMP JUMPDEST SWAP1 POP PUSH2 0x4B3A DUP3 DUP3 PUSH2 0x4D29 JUMP JUMPDEST SWAP2 SWAP1 POP JUMP JUMPDEST PUSH1 0x0 PUSH1 0x40 MLOAD SWAP1 POP SWAP1 JUMP JUMPDEST PUSH1 0x0 PUSH8 0xFFFFFFFFFFFFFFFF DUP3 GT ISZERO PUSH2 0x4B64 JUMPI PUSH2 0x4B63 PUSH2 0x4E5F JUMP JUMPDEST JUMPDEST PUSH2 0x4B6D DUP3 PUSH2 0x4EA2 JUMP JUMPDEST SWAP1 POP PUSH1 0x20 DUP2 ADD SWAP1 POP SWAP2 SWAP1 POP JUMP JUMPDEST PUSH1 0x0 DUP2 SWAP1 POP PUSH1 0x20 DUP3 ADD SWAP1 POP SWAP2 SWAP1 POP JUMP JUMPDEST PUSH1 0x0 DUP2 SWAP1 POP DUP2 PUSH1 0x0 MSTORE PUSH1 0x20 PUSH1 0x0 KECCAK256 SWAP1 POP SWAP2 SWAP1 POP JUMP JUMPDEST PUSH1 0x0 DUP2 MLOAD SWAP1 POP SWAP2 SWAP1 POP JUMP JUMPDEST PUSH1 0x0 DUP2 MLOAD SWAP1 POP SWAP2 SWAP1 POP JUMP JUMPDEST PUSH1 0x0 PUSH1 0x20 DUP3 ADD SWAP1 POP SWAP2 SWAP1 POP JUMP JUMPDEST PUSH1 0x0 DUP3 DUP3 MSTORE PUSH1 0x20 DUP3 ADD SWAP1 POP SWAP3 SWAP2 POP POP JUMP JUMPDEST PUSH1 0x0 DUP2 SWAP1 POP SWAP3 SWAP2 POP POP JUMP JUMPDEST PUSH1 0x0 DUP3 DUP3 MSTORE PUSH1 0x20 DUP3 ADD SWAP1 POP SWAP3 SWAP2 POP POP JUMP JUMPDEST PUSH1 0x0 PUSH2 0x4BFA DUP3 PUSH2 0x4CAB JUMP JUMPDEST SWAP2 POP PUSH2 0x4C05 DUP4 PUSH2 0x4CAB JUMP JUMPDEST SWAP3 POP DUP3 PUSH32 0xFFFFFFFFFFFFFFFFFFFFFFFFFFFFFFFFFFFFFFFFFFFFFFFFFFFFFFFFFFFFFFFF SUB DUP3 GT ISZERO PUSH2 0x4C3A JUMPI PUSH2 0x4C39 PUSH2 0x4DA3 JUMP JUMPDEST JUMPDEST DUP3 DUP3 ADD SWAP1 POP SWAP3 SWAP2 POP POP JUMP JUMPDEST PUSH1 0x0 PUSH2 0x4C50 DUP3 PUSH2 0x4CAB JUMP JUMPDEST SWAP2 POP PUSH2 0x4C5B DUP4 PUSH2 0x4CAB JUMP JUMPDEST SWAP3 POP DUP3 DUP3 LT ISZERO PUSH2 0x4C6E JUMPI PUSH2 0x4C6D PUSH2 0x4DA3 JUMP JUMPDEST JUMPDEST DUP3 DUP3 SUB SWAP1 POP SWAP3 SWAP2 POP POP JUMP JUMPDEST PUSH1 0x0 PUSH2 0x4C84 DUP3 PUSH2 0x4C8B JUMP JUMPDEST SWAP1 POP SWAP2 SWAP1 POP JUMP JUMPDEST PUSH1 0x0 PUSH20 0xFFFFFFFFFFFFFFFFFFFFFFFFFFFFFFFFFFFFFFFF DUP3 AND SWAP1 POP SWAP2 SWAP1 POP JUMP JUMPDEST PUSH1 0x0 DUP2 SWAP1 POP SWAP2 SWAP1 POP JUMP JUMPDEST DUP3 DUP2 DUP4 CALLDATACOPY PUSH1 0x0 DUP4 DUP4 ADD MSTORE POP POP POP JUMP JUMPDEST PUSH1 0x0 JUMPDEST DUP4 DUP2 LT ISZERO PUSH2 0x4CE2 JUMPI DUP1 DUP3 ADD MLOAD DUP2 DUP5 ADD MSTORE PUSH1 0x20 DUP2 ADD SWAP1 POP PUSH2 0x4CC7 JUMP JUMPDEST DUP4 DUP2 GT ISZERO PUSH2 0x4CF1 JUMPI PUSH1 0x0 DUP5 DUP5 ADD MSTORE JUMPDEST POP POP POP POP JUMP JUMPDEST PUSH1 0x0 PUSH1 0x2 DUP3 DIV SWAP1 POP PUSH1 0x1 DUP3 AND DUP1 PUSH2 0x4D0F JUMPI PUSH1 0x7F DUP3 AND SWAP2 POP JUMPDEST PUSH1 0x20 DUP3 LT DUP2 EQ ISZERO PUSH2 0x4D23 JUMPI PUSH2 0x4D22 PUSH2 0x4E01 JUMP JUMPDEST JUMPDEST POP SWAP2 SWAP1 POP JUMP JUMPDEST PUSH2 0x4D32 DUP3 PUSH2 0x4EA2 JUMP JUMPDEST DUP2 ADD DUP2 DUP2 LT PUSH8 0xFFFFFFFFFFFFFFFF DUP3 GT OR ISZERO PUSH2 0x4D51 JUMPI PUSH2 0x4D50 PUSH2 0x4E5F JUMP JUMPDEST JUMPDEST DUP1 PUSH1 0x40 MSTORE POP POP POP JUMP JUMPDEST PUSH1 0x0 PUSH2 0x4D65 DUP3 PUSH2 0x4CAB JUMP JUMPDEST SWAP2 POP PUSH32 0xFFFFFFFFFFFFFFFFFFFFFFFFFFFFFFFFFFFFFFFFFFFFFFFFFFFFFFFFFFFFFFFF DUP3 EQ ISZERO PUSH2 0x4D98 JUMPI PUSH2 0x4D97 PUSH2 0x4DA3 JUMP JUMPDEST JUMPDEST PUSH1 0x1 DUP3 ADD SWAP1 POP SWAP2 SWAP1 POP JUMP JUMPDEST PUSH32 0x4E487B7100000000000000000000000000000000000000000000000000000000 PUSH1 0x0 MSTORE PUSH1 0x11 PUSH1 0x4 MSTORE PUSH1 0x24 PUSH1 0x0 REVERT JUMPDEST PUSH32 0x4E487B7100000000000000000000000000000000000000000000000000000000 PUSH1 0x0 MSTORE PUSH1 0x12 PUSH1 0x4 MSTORE PUSH1 0x24 PUSH1 0x0 REVERT JUMPDEST PUSH32 0x4E487B7100000000000000000000000000000000000000000000000000000000 PUSH1 0x0 MSTORE PUSH1 0x22 PUSH1 0x4 MSTORE PUSH1 0x24 PUSH1 0x0 REVERT JUMPDEST PUSH32 0x4E487B7100000000000000000000000000000000000000000000000000000000 PUSH1 0x0 MSTORE PUSH1 0x32 PUSH1 0x4 MSTORE PUSH1 0x24 PUSH1 0x0 REVERT JUMPDEST PUSH32 0x4E487B7100000000000000000000000000000000000000000000000000000000 PUSH1 0x0 MSTORE PUSH1 0x41 PUSH1 0x4 MSTORE PUSH1 0x24 PUSH1 0x0 REVERT JUMPDEST PUSH1 0x0 DUP1 REVERT JUMPDEST PUSH1 0x0 DUP1 REVERT JUMPDEST PUSH1 0x0 DUP1 REVERT JUMPDEST PUSH1 0x0 DUP1 REVERT JUMPDEST PUSH1 0x0 PUSH1 0x1F NOT PUSH1 0x1F DUP4 ADD AND SWAP1 POP SWAP2 SWAP1 POP JUMP JUMPDEST PUSH2 0x4EBC DUP2 PUSH2 0x4CAB JUMP JUMPDEST DUP2 EQ PUSH2 0x4EC7 JUMPI PUSH1 0x0 DUP1 REVERT JUMPDEST POP JUMP INVALID PUSH9 0x747470733A2F2F692E PUSH17 0x6F7374696D672E63632F53737847773563 GAS 0x2F PUSH17 0x6572736F6E2E6A7067A264697066735822 SLT KECCAK256 0xC2 CODESIZE DUP8 0x2E DUP4 MSTORE 0xE8 0xCD 0xB8 PC JUMPI 0xA8 MSIZE XOR DUP8 ISZERO 0xD2 DUP4 0xC2 ADDMOD SSTORE 0xA7 PUSH24 0xFCB5B4815250C2546764736F6C6343000806003300000000 "},"gasEstimates":{"creation":{"codeDepositCost":"4052800","executionCost":"4640","totalCost":"4057440"},"external":{"CheckEmail(string)":"infinite","CreateAccount(string,string,string,string,string)":"infinite","CreateCompletedSurveys(uint256,uint256,string,uint256)":"infinite","CreateOngoingTrail(uint256,uint256,string,string)":"infinite","CreateOrSaveSections(uint256,string)":"infinite","CreateQuestionAnswer(uint256,uint256,uint256,string,string,string)":"infinite","CreateSurvey(uint256,uint256,string,string,string,string,uint256)":"infinite","CreateSurveyCategory(string,string)":"infinite","CreateTrial(uint256,string,string,string,string,uint256,uint256,uint256)":"infinite","GetOngoingTrial(uint256)":"infinite","Login(string,string)":"infinite","UpdateAccessToken(uint256,string)":"infinite","UpdateAudience(uint256,string)":"infinite","UpdateFhir(uint256,string,string,string,string,string,string,string)":"infinite","UpdatePrivatekey(uint256,string)":"infinite","UpdateReward(uint256,string,uint256,uint256)":"infinite","UpdateSurvey(uint256,string,string,string,uint256)":"infinite","UpdateTrial(uint256,string,string,string,uint256)":"infinite","UpdateUser(uint256,string,uint256)":"infinite","_AnsweredIds()":"2476","_CompletedSurveyIds()":"2474","_FhirIds()":"2518","_OngoingIds()":"2495","_SurveyCategoryIds()":"2564","_SurveyIds()":"2498","_TrialIds()":"2519","_UserIds()":"2584","_categoryMap(uint256)":"infinite","_completedsurveyMap(uint256)":"infinite","_fhirMap(uint256)":"infinite","_ongoingMap(uint256)":"infinite","_questionanswerdMap(uint256)":"infinite","_sectionsMap(uint256)":"infinite","_surveyMap(uint256)":"infinite","_trialAudienceMap(uint256)":"infinite","_trialMap(uint256)":"infinite","delete_a_servey(uint256)":"infinite","delete_a_trial(uint256)":"infinite","getAllCompletedSurveysIDByUser(uint256)":"infinite","getAllSurveysIDByTrial(uint256)":"infinite","getUserDetails(uint256)":"infinite","owner()":"2647","reset_all()":"infinite","reset_app(uint256)":"infinite"},"internal":{"substring(string memory,uint256,uint256)":"infinite"}},"methodIdentifiers":{"CheckEmail(string)":"f8b7800f","CreateAccount(string,string,string,string,string)":"cfdb2863","CreateCompletedSurveys(uint256,uint256,string,uint256)":"7d423e10","CreateOngoingTrail(uint256,uint256,string,string)":"cdb9b58f","CreateOrSaveSections(uint256,string)":"66cad734","CreateQuestionAnswer(uint256,uint256,uint256,string,string,string)":"6c067b48","CreateSurvey(uint256,uint256,string,string,string,string,uint256)":"3896f130","CreateSurveyCategory(string,string)":"4f8b36eb","CreateTrial(uint256,string,string,string,string,uint256,uint256,uint256)":"6f4fe9c5","GetOngoingTrial(uint256)":"902841d4","Login(string,string)":"ccef4218","UpdateAccessToken(uint256,string)":"90b18a78","UpdateAudience(uint256,string)":"ad23f8f9","UpdateFhir(uint256,string,string,string,string,string,string,string)":"50b37d64","UpdatePrivatekey(uint256,string)":"e1da993f","UpdateReward(uint256,string,uint256,uint256)":"3eebd0d0","UpdateSurvey(uint256,string,string,string,uint256)":"5f27aea1","UpdateTrial(uint256,string,string,string,uint256)":"55391705","UpdateUser(uint256,string,uint256)":"e57f973f","_AnsweredIds()":"01c66109","_CompletedSurveyIds()":"b6e604bd","_FhirIds()":"7c15641a","_OngoingIds()":"eb6b2870","_SurveyCategoryIds()":"29b36423","_SurveyIds()":"1429f775","_TrialIds()":"ac7aef0e","_UserIds()":"ce08988c","_categoryMap(uint256)":"f0d8e873","_completedsurveyMap(uint256)":"90d6cf05","_fhirMap(uint256)":"ebe197ca","_ongoingMap(uint256)":"f6aaa804","_questionanswerdMap(uint256)":"c13b2836","_sectionsMap(uint256)":"ea7efaa6","_surveyMap(uint256)":"de7acfd7","_trialAudienceMap(uint256)":"2a8caf4a","_trialMap(uint256)":"bed208fe","delete_a_servey(uint256)":"70da4ae1","delete_a_trial(uint256)":"1e178956","getAllCompletedSurveysIDByUser(uint256)":"49b9b07b","getAllSurveysIDByTrial(uint256)":"682d562b","getUserDetails(uint256)":"1c1a9f7b","owner()":"8da5cb5b","reset_all()":"b16060a6","reset_app(uint256)":"dcdd86d5"}},"storageLayout":{"storage":[{"astId":1209,"contract":"contracts/WaveData.sol:WaveData","label":"_UserIds","offset":0,"slot":"0","type":"t_uint256"},{"astId":1211,"contract":"contracts/WaveData.sol:WaveData","label":"_FhirIds","offset":0,"slot":"1","type":"t_uint256"},{"astId":1213,"contract":"contracts/WaveData.sol:WaveData","label":"_TrialIds","offset":0,"slot":"2","type":"t_uint256"},{"astId":1215,"contract":"contracts/WaveData.sol:WaveData","label":"_SurveyIds","offset":0,"slot":"3","type":"t_uint256"},{"astId":1217,"contract":"contracts/WaveData.sol:WaveData","label":"_SurveyCategoryIds","offset":0,"slot":"4","type":"t_uint256"},{"astId":1219,"contract":"contracts/WaveData.sol:WaveData","label":"_OngoingIds","offset":0,"slot":"5","type":"t_uint256"},{"astId":1221,"contract":"contracts/WaveData.sol:WaveData","label":"_AnsweredIds","offset":0,"slot":"6","type":"t_uint256"},{"astId":1223,"contract":"contracts/WaveData.sol:WaveData","label":"_CompletedSurveyIds","offset":0,"slot":"7","type":"t_uint256"},{"astId":1229,"contract":"contracts/WaveData.sol:WaveData","label":"_userMap","offset":0,"slot":"8","type":"t_mapping(t_uint256,t_struct(user_struct)1073_storage)"},{"astId":1235,"contract":"contracts/WaveData.sol:WaveData","label":"_trialMap","offset":0,"slot":"9","type":"t_mapping(t_uint256,t_struct(trial_struct)1117_storage)"},{"astId":1240,"contract":"contracts/WaveData.sol:WaveData","label":"_trialAudienceMap","offset":0,"slot":"10","type":"t_mapping(t_uint256,t_string_storage)"},{"astId":1246,"contract":"contracts/WaveData.sol:WaveData","label":"_surveyMap","offset":0,"slot":"11","type":"t_mapping(t_uint256,t_struct(survey_struct)1145_storage)"},{"astId":1252,"contract":"contracts/WaveData.sol:WaveData","label":"_categoryMap","offset":0,"slot":"12","type":"t_mapping(t_uint256,t_struct(survey_category_struct)1080_storage)"},{"astId":1257,"contract":"contracts/WaveData.sol:WaveData","label":"_sectionsMap","offset":0,"slot":"13","type":"t_mapping(t_uint256,t_string_storage)"},{"astId":1263,"contract":"contracts/WaveData.sol:WaveData","label":"_fhirMap","offset":0,"slot":"14","type":"t_mapping(t_uint256,t_struct(fhir_struct)1170_storage)"},{"astId":1269,"contract":"contracts/WaveData.sol:WaveData","label":"_ongoingMap","offset":0,"slot":"15","type":"t_mapping(t_uint256,t_struct(ongoing_struct)1181_storage)"},{"astId":1275,"contract":"contracts/WaveData.sol:WaveData","label":"_questionanswerdMap","offset":0,"slot":"16","type":"t_mapping(t_uint256,t_struct(survey_question_answer_struct)1196_storage)"},{"astId":1281,"contract":"contracts/WaveData.sol:WaveData","label":"_completedsurveyMap","offset":0,"slot":"17","type":"t_mapping(t_uint256,t_struct(completed_survey_struct)1207_storage)"},{"astId":1283,"contract":"contracts/WaveData.sol:WaveData","label":"owner","offset":0,"slot":"18","type":"t_address"}],"types":{"t_address":{"encoding":"inplace","label":"address","numberOfBytes":"20"},"t_mapping(t_uint256,t_string_storage)":{"encoding":"mapping","key":"t_uint256","label":"mapping(uint256 => string)","numberOfBytes":"32","value":"t_string_storage"},"t_mapping(t_uint256,t_struct(completed_survey_struct)1207_storage)":{"encoding":"mapping","key":"t_uint256","label":"mapping(uint256 => struct WaveData.completed_survey_struct)","numberOfBytes":"32","value":"t_struct(completed_survey_struct)1207_storage"},"t_mapping(t_uint256,t_struct(fhir_struct)1170_storage)":{"encoding":"mapping","key":"t_uint256","label":"mapping(uint256 => struct WaveData.fhir_struct)","numberOfBytes":"32","value":"t_struct(fhir_struct)1170_storage"},"t_mapping(t_uint256,t_struct(ongoing_struct)1181_storage)":{"encoding":"mapping","key":"t_uint256","label":"mapping(uint256 => struct WaveData.ongoing_struct)","numberOfBytes":"32","value":"t_struct(ongoing_struct)1181_storage"},"t_mapping(t_uint256,t_struct(survey_category_struct)1080_storage)":{"encoding":"mapping","key":"t_uint256","label":"mapping(uint256 => struct WaveData.survey_category_struct)","numberOfBytes":"32","value":"t_struct(survey_category_struct)1080_storage"},"t_mapping(t_uint256,t_struct(survey_question_answer_struct)1196_storage)":{"encoding":"mapping","key":"t_uint256","label":"mapping(uint256 => struct WaveData.survey_question_answer_struct)","numberOfBytes":"32","value":"t_struct(survey_question_answer_struct)1196_storage"},"t_mapping(t_uint256,t_struct(survey_struct)1145_storage)":{"encoding":"mapping","key":"t_uint256","label":"mapping(uint256 => struct WaveData.survey_struct)","numberOfBytes":"32","value":"t_struct(survey_struct)1145_storage"},"t_mapping(t_uint256,t_struct(trial_struct)1117_storage)":{"encoding":"mapping","key":"t_uint256","label":"mapping(uint256 => struct WaveData.trial_struct)","numberOfBytes":"32","value":"t_struct(trial_struct)1117_storage"},"t_mapping(t_uint256,t_struct(user_struct)1073_storage)":{"encoding":"mapping","key":"t_uint256","label":"mapping(uint256 => struct WaveData.user_struct)","numberOfBytes":"32","value":"t_struct(user_struct)1073_storage"},"t_string_storage":{"encoding":"bytes","label":"string","numberOfBytes":"32"},"t_struct(completed_survey_struct)1207_storage":{"encoding":"inplace","label":"struct WaveData.completed_survey_struct","members":[{"astId":1198,"contract":"contracts/WaveData.sol:WaveData","label":"completed_survey_id","offset":0,"slot":"0","type":"t_uint256"},{"astId":1200,"contract":"contracts/WaveData.sol:WaveData","label":"trial_id","offset":0,"slot":"1","type":"t_uint256"},{"astId":1202,"contract":"contracts/WaveData.sol:WaveData","label":"user_id","offset":0,"slot":"2","type":"t_uint256"},{"astId":1204,"contract":"contracts/WaveData.sol:WaveData","label":"survey_id","offset":0,"slot":"3","type":"t_uint256"},{"astId":1206,"contract":"contracts/WaveData.sol:WaveData","label":"date","offset":0,"slot":"4","type":"t_string_storage"}],"numberOfBytes":"160"},"t_struct(fhir_struct)1170_storage":{"encoding":"inplace","label":"struct WaveData.fhir_struct","members":[{"astId":1148,"contract":"contracts/WaveData.sol:WaveData","label":"user_id","offset":0,"slot":"0","type":"t_uint256"},{"astId":1151,"contract":"contracts/WaveData.sol:WaveData","label":"family_name","offset":0,"slot":"1","type":"t_string_storage"},{"astId":1154,"contract":"contracts/WaveData.sol:WaveData","label":"given_name","offset":0,"slot":"2","type":"t_string_storage"},{"astId":1157,"contract":"contracts/WaveData.sol:WaveData","label":"identifier","offset":0,"slot":"3","type":"t_string_storage"},{"astId":1160,"contract":"contracts/WaveData.sol:WaveData","label":"phone","offset":0,"slot":"4","type":"t_string_storage"},{"astId":1163,"contract":"contracts/WaveData.sol:WaveData","label":"gender","offset":0,"slot":"5","type":"t_string_storage"},{"astId":1166,"contract":"contracts/WaveData.sol:WaveData","label":"about","offset":0,"slot":"6","type":"t_string_storage"},{"astId":1169,"contract":"contracts/WaveData.sol:WaveData","label":"patient_id","offset":0,"slot":"7","type":"t_string_storage"}],"numberOfBytes":"256"},"t_struct(ongoing_struct)1181_storage":{"encoding":"inplace","label":"struct WaveData.ongoing_struct","members":[{"astId":1172,"contract":"contracts/WaveData.sol:WaveData","label":"ongoing_id","offset":0,"slot":"0","type":"t_uint256"},{"astId":1174,"contract":"contracts/WaveData.sol:WaveData","label":"trial_id","offset":0,"slot":"1","type":"t_uint256"},{"astId":1176,"contract":"contracts/WaveData.sol:WaveData","label":"user_id","offset":0,"slot":"2","type":"t_uint256"},{"astId":1178,"contract":"contracts/WaveData.sol:WaveData","label":"date","offset":0,"slot":"3","type":"t_string_storage"},{"astId":1180,"contract":"contracts/WaveData.sol:WaveData","label":"given_permission","offset":0,"slot":"4","type":"t_string_storage"}],"numberOfBytes":"160"},"t_struct(survey_category_struct)1080_storage":{"encoding":"inplace","label":"struct WaveData.survey_category_struct","members":[{"astId":1076,"contract":"contracts/WaveData.sol:WaveData","label":"name","offset":0,"slot":"0","type":"t_string_storage"},{"astId":1079,"contract":"contracts/WaveData.sol:WaveData","label":"image","offset":0,"slot":"1","type":"t_string_storage"}],"numberOfBytes":"64"},"t_struct(survey_question_answer_struct)1196_storage":{"encoding":"inplace","label":"struct WaveData.survey_question_answer_struct","members":[{"astId":1183,"contract":"contracts/WaveData.sol:WaveData","label":"answer_id","offset":0,"slot":"0","type":"t_uint256"},{"astId":1185,"contract":"contracts/WaveData.sol:WaveData","label":"trial_id","offset":0,"slot":"1","type":"t_uint256"},{"astId":1187,"contract":"contracts/WaveData.sol:WaveData","label":"user_id","offset":0,"slot":"2","type":"t_uint256"},{"astId":1189,"contract":"contracts/WaveData.sol:WaveData","label":"survey_id","offset":0,"slot":"3","type":"t_uint256"},{"astId":1191,"contract":"contracts/WaveData.sol:WaveData","label":"section_id","offset":0,"slot":"4","type":"t_string_storage"},{"astId":1193,"contract":"contracts/WaveData.sol:WaveData","label":"question_id","offset":0,"slot":"5","type":"t_string_storage"},{"astId":1195,"contract":"contracts/WaveData.sol:WaveData","label":"answer","offset":0,"slot":"6","type":"t_string_storage"}],"numberOfBytes":"224"},"t_struct(survey_struct)1145_storage":{"encoding":"inplace","label":"struct WaveData.survey_struct","members":[{"astId":1120,"contract":"contracts/WaveData.sol:WaveData","label":"survey_id","offset":0,"slot":"0","type":"t_uint256"},{"astId":1123,"contract":"contracts/WaveData.sol:WaveData","label":"trial_id","offset":0,"slot":"1","type":"t_uint256"},{"astId":1126,"contract":"contracts/WaveData.sol:WaveData","label":"user_id","offset":0,"slot":"2","type":"t_uint256"},{"astId":1129,"contract":"contracts/WaveData.sol:WaveData","label":"name","offset":0,"slot":"3","type":"t_string_storage"},{"astId":1132,"contract":"contracts/WaveData.sol:WaveData","label":"description","offset":0,"slot":"4","type":"t_string_storage"},{"astId":1135,"contract":"contracts/WaveData.sol:WaveData","label":"date","offset":0,"slot":"5","type":"t_string_storage"},{"astId":1138,"contract":"contracts/WaveData.sol:WaveData","label":"image","offset":0,"slot":"6","type":"t_string_storage"},{"astId":1141,"contract":"contracts/WaveData.sol:WaveData","label":"reward","offset":0,"slot":"7","type":"t_uint256"},{"astId":1144,"contract":"contracts/WaveData.sol:WaveData","label":"submission","offset":0,"slot":"8","type":"t_uint256"}],"numberOfBytes":"288"},"t_struct(trial_struct)1117_storage":{"encoding":"inplace","label":"struct WaveData.trial_struct","members":[{"astId":1083,"contract":"contracts/WaveData.sol:WaveData","label":"trial_id","offset":0,"slot":"0","type":"t_uint256"},{"astId":1086,"contract":"contracts/WaveData.sol:WaveData","label":"user_id","offset":0,"slot":"1","type":"t_uint256"},{"astId":1089,"contract":"contracts/WaveData.sol:WaveData","label":"image","offset":0,"slot":"2","type":"t_string_storage"},{"astId":1092,"contract":"contracts/WaveData.sol:WaveData","label":"title","offset":0,"slot":"3","type":"t_string_storage"},{"astId":1095,"contract":"contracts/WaveData.sol:WaveData","label":"description","offset":0,"slot":"4","type":"t_string_storage"},{"astId":1098,"contract":"contracts/WaveData.sol:WaveData","label":"permission","offset":0,"slot":"5","type":"t_string_storage"},{"astId":1101,"contract":"contracts/WaveData.sol:WaveData","label":"contributors","offset":0,"slot":"6","type":"t_uint256"},{"astId":1104,"contract":"contracts/WaveData.sol:WaveData","label":"audience","offset":0,"slot":"7","type":"t_uint256"},{"astId":1107,"contract":"contracts/WaveData.sol:WaveData","label":"budget","offset":0,"slot":"8","type":"t_uint256"},{"astId":1110,"contract":"contracts/WaveData.sol:WaveData","label":"reward_type","offset":0,"slot":"9","type":"t_string_storage"},{"astId":1113,"contract":"contracts/WaveData.sol:WaveData","label":"reward_price","offset":0,"slot":"10","type":"t_uint256"},{"astId":1116,"contract":"contracts/WaveData.sol:WaveData","label":"total_spending_limit","offset":0,"slot":"11","type":"t_uint256"}],"numberOfBytes":"384"},"t_struct(user_struct)1073_storage":{"encoding":"inplace","label":"struct WaveData.user_struct","members":[{"astId":1045,"contract":"contracts/WaveData.sol:WaveData","label":"user_id","offset":0,"slot":"0","type":"t_uint256"},{"astId":1048,"contract":"contracts/WaveData.sol:WaveData","label":"name","offset":0,"slot":"1","type":"t_string_storage"},{"astId":1051,"contract":"contracts/WaveData.sol:WaveData","label":"email","offset":0,"slot":"2","type":"t_string_storage"},{"astId":1054,"contract":"contracts/WaveData.sol:WaveData","label":"password","offset":0,"slot":"3","type":"t_string_storage"},{"astId":1057,"contract":"contracts/WaveData.sol:WaveData","label":"walletaddress","offset":0,"slot":"4","type":"t_string_storage"},{"astId":1060,"contract":"contracts/WaveData.sol:WaveData","label":"privatekey","offset":0,"slot":"5","type":"t_string_storage"},{"astId":1063,"contract":"contracts/WaveData.sol:WaveData","label":"image","offset":0,"slot":"6","type":"t_string_storage"},{"astId":1066,"contract":"contracts/WaveData.sol:WaveData","label":"credits","offset":0,"slot":"7","type":"t_uint256"},{"astId":1069,"contract":"contracts/WaveData.sol:WaveData","label":"accesstoken","offset":0,"slot":"8","type":"t_string_storage"},{"astId":1072,"contract":"contracts/WaveData.sol:WaveData","label":"fhirid","offset":0,"slot":"9","type":"t_uint256"}],"numberOfBytes":"320"},"t_uint256":{"encoding":"inplace","label":"uint256","numberOfBytes":"32"}}},"userdoc":{"kind":"user","methods":{"_categoryMap(uint256)":{"notice":"The map of all the Survey Category ."},"_completedsurveyMap(uint256)":{"notice":"The map of all the Completed Surveys."},"_fhirMap(uint256)":{"notice":"The map of all the FHIR information."},"_ongoingMap(uint256)":{"notice":"The map of all the OnGoing Trials."},"_questionanswerdMap(uint256)":{"notice":"The map of all the Question Answerd in a Survey."},"_sectionsMap(uint256)":{"notice":"The map of all the Survey Sections  ."},"_surveyMap(uint256)":{"notice":"The map of all the Surveys information."},"_trialAudienceMap(uint256)":{"notice":"The map of all the Rewards information."},"_trialMap(uint256)":{"notice":"The map of all the Trials information."}},"version":1}}}}