{"contracts/WaveData.sol":{"WaveData":{"abi":[{"inputs":[{"internalType":"string","name":"email","type":"string"}],"name":"CheckEmail","outputs":[{"internalType":"string","name":"","type":"string"}],"stateMutability":"view","type":"function"},{"inputs":[{"internalType":"string","name":"full_name","type":"string"},{"internalType":"string","name":"email","type":"string"},{"internalType":"string","name":"password","type":"string"},{"internalType":"string","name":"accesstoken","type":"string"},{"internalType":"address","name":"walletaddress_address","type":"address"}],"name":"CreateAccount","outputs":[],"stateMutability":"nonpayable","type":"function"},{"inputs":[{"internalType":"uint256","name":"survey_id","type":"uint256"},{"internalType":"uint256","name":"user_id","type":"uint256"},{"internalType":"string","name":"date","type":"string"},{"internalType":"uint256","name":"trial_id","type":"uint256"}],"name":"CreateCompletedSurveys","outputs":[],"stateMutability":"nonpayable","type":"function"},{"inputs":[{"internalType":"uint256","name":"trial_id","type":"uint256"},{"internalType":"uint256","name":"user_id","type":"uint256"},{"internalType":"string","name":"date","type":"string"},{"internalType":"string","name":"given_permission","type":"string"}],"name":"CreateOngoingTrail","outputs":[],"stateMutability":"nonpayable","type":"function"},{"inputs":[{"internalType":"uint256","name":"survey_id","type":"uint256"},{"internalType":"string","name":"metadata","type":"string"}],"name":"CreateOrSaveSections","outputs":[],"stateMutability":"nonpayable","type":"function"},{"inputs":[{"internalType":"uint256","name":"trial_id","type":"uint256"},{"internalType":"uint256","name":"user_id","type":"uint256"},{"internalType":"uint256","name":"survey_id","type":"uint256"},{"internalType":"string","name":"section_id","type":"string"},{"internalType":"string","name":"question_id","type":"string"},{"internalType":"string","name":"answer","type":"string"}],"name":"CreateQuestionAnswer","outputs":[],"stateMutability":"nonpayable","type":"function"},{"inputs":[{"internalType":"uint256","name":"trial_id","type":"uint256"},{"internalType":"uint256","name":"user_id","type":"uint256"},{"internalType":"string","name":"name","type":"string"},{"internalType":"string","name":"description","type":"string"},{"internalType":"string","name":"date","type":"string"},{"internalType":"string","name":"image","type":"string"},{"internalType":"uint256","name":"reward","type":"uint256"}],"name":"CreateSurvey","outputs":[],"stateMutability":"payable","type":"function"},{"inputs":[{"internalType":"string","name":"name","type":"string"},{"internalType":"string","name":"image","type":"string"}],"name":"CreateSurveyCategory","outputs":[],"stateMutability":"nonpayable","type":"function"},{"inputs":[{"internalType":"uint256","name":"user_id","type":"uint256"},{"internalType":"string","name":"image","type":"string"},{"internalType":"string","name":"title","type":"string"},{"internalType":"string","name":"description","type":"string"},{"internalType":"string","name":"permission","type":"string"},{"internalType":"uint256","name":"contributors","type":"uint256"},{"internalType":"uint256","name":"audience","type":"uint256"},{"internalType":"uint256","name":"budget","type":"uint256"}],"name":"CreateTrial","outputs":[],"stateMutability":"nonpayable","type":"function"},{"inputs":[{"internalType":"uint256","name":"user_id","type":"uint256"}],"name":"GetOngoingTrial","outputs":[{"internalType":"string","name":"","type":"string"}],"stateMutability":"view","type":"function"},{"inputs":[{"internalType":"string","name":"email","type":"string"},{"internalType":"string","name":"password","type":"string"}],"name":"Login","outputs":[{"internalType":"string","name":"","type":"string"}],"stateMutability":"view","type":"function"},{"inputs":[{"internalType":"uint256","name":"userid","type":"uint256"},{"internalType":"string","name":"accesstoken","type":"string"}],"name":"UpdateAccessToken","outputs":[],"stateMutability":"nonpayable","type":"function"},{"inputs":[{"internalType":"uint256","name":"trial_id","type":"uint256"},{"internalType":"string","name":"audience_info","type":"string"}],"name":"UpdateAudience","outputs":[],"stateMutability":"nonpayable","type":"function"},{"inputs":[{"internalType":"uint256","name":"user_id","type":"uint256"},{"internalType":"string","name":"family_name","type":"string"},{"internalType":"string","name":"given_name","type":"string"},{"internalType":"string","name":"identifier","type":"string"},{"internalType":"string","name":"phone","type":"string"},{"internalType":"string","name":"gender","type":"string"},{"internalType":"string","name":"about","type":"string"},{"internalType":"string","name":"patient_id","type":"string"},{"internalType":"address","name":"walletaddress_address","type":"address"}],"name":"UpdateFhir","outputs":[],"stateMutability":"nonpayable","type":"function"},{"inputs":[{"internalType":"uint256","name":"userid","type":"uint256"},{"internalType":"string","name":"privatekey","type":"string"}],"name":"UpdatePrivatekey","outputs":[],"stateMutability":"nonpayable","type":"function"},{"inputs":[{"internalType":"uint256","name":"trial_id","type":"uint256"},{"internalType":"string","name":"reward_type","type":"string"},{"internalType":"uint256","name":"reward_price","type":"uint256"},{"internalType":"uint256","name":"total_spending_limit","type":"uint256"}],"name":"UpdateReward","outputs":[],"stateMutability":"nonpayable","type":"function"},{"inputs":[{"internalType":"uint256","name":"survey_id","type":"uint256"},{"internalType":"string","name":"name","type":"string"},{"internalType":"string","name":"description","type":"string"},{"internalType":"string","name":"image","type":"string"},{"internalType":"uint256","name":"reward","type":"uint256"}],"name":"UpdateSurvey","outputs":[],"stateMutability":"nonpayable","type":"function"},{"inputs":[{"internalType":"uint256","name":"trial_id","type":"uint256"},{"internalType":"string","name":"image","type":"string"},{"internalType":"string","name":"title","type":"string"},{"internalType":"string","name":"description","type":"string"},{"internalType":"uint256","name":"budget","type":"uint256"}],"name":"UpdateTrial","outputs":[],"stateMutability":"nonpayable","type":"function"},{"inputs":[{"internalType":"uint256","name":"user_id","type":"uint256"},{"internalType":"string","name":"image","type":"string"},{"internalType":"uint256","name":"credits","type":"uint256"}],"name":"UpdateUser","outputs":[],"stateMutability":"nonpayable","type":"function"},{"inputs":[{"internalType":"uint256","name":"userid","type":"uint256"},{"internalType":"uint256","name":"amount","type":"uint256"}],"name":"WithDrawAmount","outputs":[],"stateMutability":"nonpayable","type":"function"},{"inputs":[],"name":"_AnsweredIds","outputs":[{"internalType":"uint256","name":"","type":"uint256"}],"stateMutability":"view","type":"function"},{"inputs":[],"name":"_CompletedSurveyIds","outputs":[{"internalType":"uint256","name":"","type":"uint256"}],"stateMutability":"view","type":"function"},{"inputs":[],"name":"_FhirIds","outputs":[{"internalType":"uint256","name":"","type":"uint256"}],"stateMutability":"view","type":"function"},{"inputs":[],"name":"_OngoingIds","outputs":[{"internalType":"uint256","name":"","type":"uint256"}],"stateMutability":"view","type":"function"},{"inputs":[],"name":"_SurveyCategoryIds","outputs":[{"internalType":"uint256","name":"","type":"uint256"}],"stateMutability":"view","type":"function"},{"inputs":[],"name":"_SurveyIds","outputs":[{"internalType":"uint256","name":"","type":"uint256"}],"stateMutability":"view","type":"function"},{"inputs":[],"name":"_TrialIds","outputs":[{"internalType":"uint256","name":"","type":"uint256"}],"stateMutability":"view","type":"function"},{"inputs":[],"name":"_UserIds","outputs":[{"internalType":"uint256","name":"","type":"uint256"}],"stateMutability":"view","type":"function"},{"inputs":[{"internalType":"uint256","name":"","type":"uint256"}],"name":"_categoryMap","outputs":[{"internalType":"string","name":"name","type":"string"},{"internalType":"string","name":"image","type":"string"}],"stateMutability":"view","type":"function"},{"inputs":[{"internalType":"uint256","name":"","type":"uint256"}],"name":"_completedsurveyMap","outputs":[{"internalType":"uint256","name":"completed_survey_id","type":"uint256"},{"internalType":"uint256","name":"trial_id","type":"uint256"},{"internalType":"uint256","name":"user_id","type":"uint256"},{"internalType":"uint256","name":"survey_id","type":"uint256"},{"internalType":"string","name":"date","type":"string"}],"stateMutability":"view","type":"function"},{"inputs":[{"internalType":"uint256","name":"","type":"uint256"}],"name":"_fhirMap","outputs":[{"internalType":"uint256","name":"user_id","type":"uint256"},{"internalType":"string","name":"family_name","type":"string"},{"internalType":"string","name":"given_name","type":"string"},{"internalType":"string","name":"identifier","type":"string"},{"internalType":"string","name":"phone","type":"string"},{"internalType":"string","name":"gender","type":"string"},{"internalType":"string","name":"about","type":"string"},{"internalType":"string","name":"patient_id","type":"string"}],"stateMutability":"view","type":"function"},{"inputs":[{"internalType":"uint256","name":"","type":"uint256"}],"name":"_ongoingMap","outputs":[{"internalType":"uint256","name":"ongoing_id","type":"uint256"},{"internalType":"uint256","name":"trial_id","type":"uint256"},{"internalType":"uint256","name":"user_id","type":"uint256"},{"internalType":"string","name":"date","type":"string"},{"internalType":"string","name":"given_permission","type":"string"}],"stateMutability":"view","type":"function"},{"inputs":[{"internalType":"uint256","name":"","type":"uint256"}],"name":"_questionanswerdMap","outputs":[{"internalType":"uint256","name":"answer_id","type":"uint256"},{"internalType":"uint256","name":"trial_id","type":"uint256"},{"internalType":"uint256","name":"user_id","type":"uint256"},{"internalType":"uint256","name":"survey_id","type":"uint256"},{"internalType":"string","name":"section_id","type":"string"},{"internalType":"string","name":"question_id","type":"string"},{"internalType":"string","name":"answer","type":"string"}],"stateMutability":"view","type":"function"},{"inputs":[{"internalType":"uint256","name":"","type":"uint256"}],"name":"_sectionsMap","outputs":[{"internalType":"string","name":"","type":"string"}],"stateMutability":"view","type":"function"},{"inputs":[{"internalType":"uint256","name":"","type":"uint256"}],"name":"_surveyMap","outputs":[{"internalType":"uint256","name":"survey_id","type":"uint256"},{"internalType":"uint256","name":"trial_id","type":"uint256"},{"internalType":"uint256","name":"user_id","type":"uint256"},{"internalType":"string","name":"name","type":"string"},{"internalType":"string","name":"description","type":"string"},{"internalType":"string","name":"date","type":"string"},{"internalType":"string","name":"image","type":"string"},{"internalType":"uint256","name":"reward","type":"uint256"},{"internalType":"uint256","name":"submission","type":"uint256"}],"stateMutability":"view","type":"function"},{"inputs":[{"internalType":"uint256","name":"","type":"uint256"}],"name":"_trialAudienceMap","outputs":[{"internalType":"string","name":"","type":"string"}],"stateMutability":"view","type":"function"},{"inputs":[{"internalType":"uint256","name":"","type":"uint256"}],"name":"_trialMap","outputs":[{"internalType":"uint256","name":"trial_id","type":"uint256"},{"internalType":"uint256","name":"user_id","type":"uint256"},{"internalType":"string","name":"image","type":"string"},{"internalType":"string","name":"title","type":"string"},{"internalType":"string","name":"description","type":"string"},{"internalType":"string","name":"permission","type":"string"},{"internalType":"uint256","name":"contributors","type":"uint256"},{"internalType":"uint256","name":"audience","type":"uint256"},{"internalType":"uint256","name":"budget","type":"uint256"},{"internalType":"string","name":"reward_type","type":"string"},{"internalType":"uint256","name":"reward_price","type":"uint256"},{"internalType":"uint256","name":"total_spending_limit","type":"uint256"}],"stateMutability":"view","type":"function"},{"inputs":[{"internalType":"uint256","name":"survey_id","type":"uint256"}],"name":"delete_a_servey","outputs":[],"stateMutability":"nonpayable","type":"function"},{"inputs":[{"internalType":"uint256","name":"trial_id","type":"uint256"}],"name":"delete_a_trial","outputs":[],"stateMutability":"nonpayable","type":"function"},{"inputs":[{"internalType":"uint256","name":"user_id","type":"uint256"}],"name":"getAllCompletedSurveysIDByUser","outputs":[{"internalType":"uint256[]","name":"","type":"uint256[]"}],"stateMutability":"view","type":"function"},{"inputs":[{"internalType":"uint256","name":"trial_id","type":"uint256"}],"name":"getAllSurveysIDByTrial","outputs":[{"internalType":"uint256[]","name":"","type":"uint256[]"}],"stateMutability":"view","type":"function"},{"inputs":[{"internalType":"uint256","name":"user_id","type":"uint256"}],"name":"getUserAddress","outputs":[{"internalType":"address","name":"","type":"address"}],"stateMutability":"view","type":"function"},{"inputs":[{"internalType":"uint256","name":"user_id","type":"uint256"}],"name":"getUserDetails","outputs":[{"internalType":"string","name":"","type":"string"},{"internalType":"uint256","name":"","type":"uint256"},{"internalType":"string","name":"","type":"string"},{"internalType":"string","name":"","type":"string"},{"internalType":"string","name":"","type":"string"},{"internalType":"string","name":"","type":"string"},{"internalType":"uint256","name":"","type":"uint256"}],"stateMutability":"view","type":"function"},{"inputs":[],"name":"owner","outputs":[{"internalType":"address","name":"","type":"address"}],"stateMutability":"view","type":"function"},{"inputs":[],"name":"reset_all","outputs":[],"stateMutability":"nonpayable","type":"function"},{"inputs":[{"internalType":"uint256","name":"user_id","type":"uint256"}],"name":"reset_app","outputs":[],"stateMutability":"nonpayable","type":"function"}],"devdoc":{"kind":"dev","methods":{},"version":1},"evm":{"bytecode":{"linkReferences":{},"object":"608060405234801561001057600080fd5b506154e9806100206000396000f3fe60806040526004361061027d5760003560e01c806390d976e21161014f578063d98860b4116100c1578063eb6b28701161007a578063eb6b2870146109ee578063ebe197ca14610a19578063f0d8e87314610a5d578063f6aaa80414610a9b578063f8b7800f14610adc578063ff99942c14610b195761027d565b8063d98860b4146108c8578063dcdd86d5146108f1578063de7acfd71461091a578063e1da993f1461095f578063e57f973f14610988578063ea7efaa6146109b15761027d565b8063b6e604bd11610113578063b6e604bd14610781578063bed208fe146107ac578063c13b2836146107f4578063ccef421814610837578063cdb9b58f14610874578063ce08988c1461089d5761027d565b806390d976e2146106b0578063ac7aef0e146106ed578063ad23f8f914610718578063ad4bad3814610741578063b16060a61461076a5761027d565b80635f27aea1116101f35780637c15641a116101ac5780637c15641a1461058a5780637d423e10146105b55780638da5cb5b146105de578063902841d41461060957806390b18a781461064657806390d6cf051461066f5761027d565b80635f27aea11461048057806366cad734146104a9578063682d562b146104d25780636c067b481461050f5780636f4fe9c51461053857806370da4ae1146105615761027d565b80632a8caf4a116102455780632a8caf4a1461036f5780633896f130146103ac5780633eebd0d0146103c857806349b9b07b146103f15780634f8b36eb1461042e57806355391705146104575761027d565b806301c66109146102825780631429f775146102ad5780631c1a9f7b146102d85780631e1789561461031b57806329b3642314610344575b600080fd5b34801561028e57600080fd5b50610297610b42565b6040516102a49190614d13565b60405180910390f35b3480156102b957600080fd5b506102c2610b48565b6040516102cf9190614d13565b60405180910390f35b3480156102e457600080fd5b506102ff60048036038101906102fa91906141ab565b610b4e565b6040516103129796959493929190614c61565b60405180910390f35b34801561032757600080fd5b50610342600480360381019061033d91906141ab565b610ecb565b005b34801561035057600080fd5b50610359611062565b6040516103669190614d13565b60405180910390f35b34801561037b57600080fd5b50610396600480360381019061039191906141ab565b611068565b6040516103a39190614c08565b60405180910390f35b6103c660048036038101906103c19190614788565b611108565b005b3480156103d457600080fd5b506103ef60048036038101906103ea9190614626565b61122b565b005b3480156103fd57600080fd5b50610418600480360381019061041391906141ab565b611292565b6040516104259190614be6565b60405180910390f35b34801561043a57600080fd5b5061045560048036038101906104509190614048565b6113aa565b005b34801561046357600080fd5b5061047e600480360381019061047991906144e8565b61142d565b005b34801561048c57600080fd5b506104a760048036038101906104a291906144e8565b6114d0565b005b3480156104b557600080fd5b506104d060048036038101906104cb91906141d8565b611573565b005b3480156104de57600080fd5b506104f960048036038101906104f491906141ab565b61159f565b6040516105069190614be6565b60405180910390f35b34801561051b57600080fd5b506105366004803603810190610531919061491d565b6116b7565b005b34801561054457600080fd5b5061055f600480360381019061055a91906143c2565b6117a3565b005b34801561056d57600080fd5b50610588600480360381019061058391906141ab565b611942565b005b34801561059657600080fd5b5061059f611b0e565b6040516105ac9190614d13565b60405180910390f35b3480156105c157600080fd5b506105dc60048036038101906105d7919061489a565b611b14565b005b3480156105ea57600080fd5b506105f3611c11565b6040516106009190614bcb565b60405180910390f35b34801561061557600080fd5b50610630600480360381019061062b91906141ab565b611c37565b60405161063d9190614c08565b60405180910390f35b34801561065257600080fd5b5061066d600480360381019061066891906141d8565b611cdd565b005b34801561067b57600080fd5b50610696600480360381019061069191906141ab565b611d0c565b6040516106a7959493929190614fc4565b60405180910390f35b3480156106bc57600080fd5b506106d760048036038101906106d291906141ab565b611dca565b6040516106e49190614bcb565b60405180910390f35b3480156106f957600080fd5b50610702611e0a565b60405161070f9190614d13565b60405180910390f35b34801561072457600080fd5b5061073f600480360381019061073a91906141d8565b611e10565b005b34801561074d57600080fd5b50610768600480360381019061076391906140c0565b611e3c565b005b34801561077657600080fd5b5061077f61200d565b005b34801561078d57600080fd5b5061079661255d565b6040516107a39190614d13565b60405180910390f35b3480156107b857600080fd5b506107d360048036038101906107ce91906141ab565b612563565b6040516107eb9c9b9a99989796959493929190614ddd565b60405180910390f35b34801561080057600080fd5b5061081b600480360381019061081691906141ab565b61286b565b60405161082e979695949392919061501e565b60405180910390f35b34801561084357600080fd5b5061085e60048036038101906108599190614048565b612a45565b60405161086b9190614c08565b60405180910390f35b34801561088057600080fd5b5061089b600480360381019061089691906146e9565b612b2d565b005b3480156108a957600080fd5b506108b2612c12565b6040516108bf9190614d13565b60405180910390f35b3480156108d457600080fd5b506108ef60048036038101906108ea9190614234565b612c18565b005b3480156108fd57600080fd5b50610918600480360381019061091391906141ab565b612dc0565b005b34801561092657600080fd5b50610941600480360381019061093c91906141ab565b613090565b60405161095699989796959493929190614f1b565b60405180910390f35b34801561096b57600080fd5b50610986600480360381019061098191906141d8565b6132fe565b005b34801561099457600080fd5b506109af60048036038101906109aa91906145b7565b61332d565b005b3480156109bd57600080fd5b506109d860048036038101906109d391906141ab565b613378565b6040516109e59190614c08565b60405180910390f35b3480156109fa57600080fd5b50610a03613418565b604051610a109190614d13565b60405180910390f35b348015610a2557600080fd5b50610a406004803603810190610a3b91906141ab565b61341e565b604051610a54989796959493929190614d2e565b60405180910390f35b348015610a6957600080fd5b50610a846004803603810190610a7f91906141ab565b61381e565b604051610a92929190614c2a565b60405180910390f35b348015610aa757600080fd5b50610ac26004803603810190610abd91906141ab565b613952565b604051610ad3959493929190614eba565b60405180910390f35b348015610ae857600080fd5b50610b036004803603810190610afe9190613fff565b613a98565b604051610b109190614c08565b60405180910390f35b348015610b2557600080fd5b50610b406004803603810190610b3b91906146a9565b613b43565b005b60065481565b60035481565b60606000606080606080600060086000898152602001908152602001600020600601600860008a815260200190815260200160002060070154600860008b8152602001908152602001600020600101600860008c8152602001908152602001600020600201600860008d8152602001908152602001600020600501600860008e8152602001908152602001600020600801600860008f815260200190815260200160002060090154868054610c0290615275565b80601f0160208091040260200160405190810160405280929190818152602001828054610c2e90615275565b8015610c7b5780601f10610c5057610100808354040283529160200191610c7b565b820191906000526020600020905b815481529060010190602001808311610c5e57829003601f168201915b50505050509650848054610c8e90615275565b80601f0160208091040260200160405190810160405280929190818152602001828054610cba90615275565b8015610d075780601f10610cdc57610100808354040283529160200191610d07565b820191906000526020600020905b815481529060010190602001808311610cea57829003601f168201915b50505050509450838054610d1a90615275565b80601f0160208091040260200160405190810160405280929190818152602001828054610d4690615275565b8015610d935780601f10610d6857610100808354040283529160200191610d93565b820191906000526020600020905b815481529060010190602001808311610d7657829003601f168201915b50505050509350828054610da690615275565b80601f0160208091040260200160405190810160405280929190818152602001828054610dd290615275565b8015610e1f5780601f10610df457610100808354040283529160200191610e1f565b820191906000526020600020905b815481529060010190602001808311610e0257829003601f168201915b50505050509250818054610e3290615275565b80601f0160208091040260200160405190810160405280929190818152602001828054610e5e90615275565b8015610eab5780601f10610e8057610100808354040283529160200191610eab565b820191906000526020600020905b815481529060010190602001808311610e8e57829003601f168201915b505050505091509650965096509650965096509650919395979092949650565b600960008281526020019081526020016000206000808201600090556001820160009055600282016000610eff9190613e82565b600382016000610f0f9190613e82565b600482016000610f1f9190613e82565b600582016000610f2f9190613e82565b600682016000905560078201600090556008820160009055600982016000610f579190613e82565b600a820160009055600b8201600090555050600a60008281526020019081526020016000206000610f889190613e82565b60005b600354811015610fd05781600b6000838152602001908152602001600020600101541415610fbd57610fbc81611942565b5b8080610fc8906152d8565b915050610f8b565b5060005b60055481101561105e5781600f600083815260200190815260200160002060010154141561104b57600f6000828152602001908152602001600020600080820160009055600182016000905560028201600090556003820160006110389190613e82565b6004820160006110489190613e82565b50505b8080611056906152d8565b915050610fd4565b5050565b60045481565b600a602052806000526040600020600091509050805461108790615275565b80601f01602080910402602001604051908101604052809291908181526020018280546110b390615275565b80156111005780601f106110d557610100808354040283529160200191611100565b820191906000526020600020905b8154815290600101906020018083116110e357829003601f168201915b505050505081565b60405180610120016040528060035481526020018881526020018781526020018681526020018581526020018481526020018381526020018281526020016000815250600b60006003548152602001908152602001600020600082015181600001556020820151816001015560408201518160020155606082015181600301908051906020019061119a929190613ec2565b5060808201518160040190805190602001906111b7929190613ec2565b5060a08201518160050190805190602001906111d4929190613ec2565b5060c08201518160060190805190602001906111f1929190613ec2565b5060e0820151816007015561010082015181600801559050506003600081548092919061121d906152d8565b919050555050505050505050565b82600960008681526020019081526020016000206009019080519060200190611255929190613ec2565b508160096000868152602001908152602001600020600a01819055508060096000868152602001908152602001600020600b018190555050505050565b60606000805b6007548110156112e25783601160008381526020019081526020016000206002015414156112cf5781806112cb906152d8565b9250505b80806112da906152d8565b915050611298565b5060008167ffffffffffffffff8111156112ff576112fe6153dd565b5b60405190808252806020026020018201604052801561132d5781602001602082028036833780820191505090505b5090506000805b60075481101561139e57856011600083815260200190815260200160002060020154141561138b57808383815181106113705761136f6153ae565b5b6020026020010181815250508180611387906152d8565b9250505b8080611396906152d8565b915050611334565b50819350505050919050565b604051806040016040528083815260200182815250600c6000600454815260200190815260200160002060008201518160000190805190602001906113f0929190613ec2565b50602082015181600101908051906020019061140d929190613ec2565b5090505060046000815480929190611424906152d8565b91905055505050565b83600960008781526020019081526020016000206002019080519060200190611457929190613ec2565b5082600960008781526020019081526020016000206003019080519060200190611482929190613ec2565b50816009600087815260200190815260200160002060040190805190602001906114ad929190613ec2565b508060096000878152602001908152602001600020600801819055505050505050565b83600b600087815260200190815260200160002060030190805190602001906114fa929190613ec2565b5082600b60008781526020019081526020016000206004019080519060200190611525929190613ec2565b5081600b60008781526020019081526020016000206006019080519060200190611550929190613ec2565b5080600b6000878152602001908152602001600020600701819055505050505050565b80600d6000848152602001908152602001600020908051906020019061159a929190613ec2565b505050565b60606000805b6003548110156115ef5783600b60008381526020019081526020016000206001015414156115dc5781806115d8906152d8565b9250505b80806115e7906152d8565b9150506115a5565b5060008167ffffffffffffffff81111561160c5761160b6153dd565b5b60405190808252806020026020018201604052801561163a5781602001602082028036833780820191505090505b5090506000805b6003548110156116ab5785600b6000838152602001908152602001600020600101541415611698578083838151811061167d5761167c6153ae565b5b6020026020010181815250508180611694906152d8565b9250505b80806116a3906152d8565b915050611641565b50819350505050919050565b6040518060e00160405280600654815260200187815260200186815260200185815260200184815260200183815260200182815250601060006006548152602001908152602001600020600082015181600001556020820151816001015560408201518160020155606082015181600301556080820151816004019080519060200190611745929190613ec2565b5060a0820151816005019080519060200190611762929190613ec2565b5060c082015181600601908051906020019061177f929190613ec2565b5090505060066000815480929190611796906152d8565b9190505550505050505050565b60405180610180016040528060025481526020018981526020018881526020018781526020018681526020018581526020018481526020018381526020018281526020016040518060400160405280600681526020017f7445564d4f5300000000000000000000000000000000000000000000000000008152508152602001600081526020018281525060096000600254815260200190815260200160002060008201518160000155602082015181600101556040820151816002019080519060200190611872929190613ec2565b50606082015181600301908051906020019061188f929190613ec2565b5060808201518160040190805190602001906118ac929190613ec2565b5060a08201518160050190805190602001906118c9929190613ec2565b5060c0820151816006015560e082015181600701556101008201518160080155610120820151816009019080519060200190611906929190613ec2565b5061014082015181600a015561016082015181600b015590505060026000815480929190611933906152d8565b91905055505050505050505050565b600b60008281526020019081526020016000206000808201600090556001820160009055600282016000905560038201600061197e9190613e82565b60048201600061198e9190613e82565b60058201600061199e9190613e82565b6006820160006119ae9190613e82565b600782016000905560088201600090555050600d600082815260200190815260200160002060006119df9190613e82565b60005b600654811015611a84578160106000838152602001908152602001600020600301541415611a715760106000828152602001908152602001600020600080820160009055600182016000905560028201600090556003820160009055600482016000611a4e9190613e82565b600582016000611a5e9190613e82565b600682016000611a6e9190613e82565b50505b8080611a7c906152d8565b9150506119e2565b5060005b600754811015611b0a578160116000838152602001908152602001600020600301541415611af75760116000828152602001908152602001600020600080820160009055600182016000905560028201600090556003820160009055600482016000611af49190613e82565b50505b8080611b02906152d8565b915050611a88565b5050565b60015481565b6040518060a00160405280600754815260200182815260200184815260200185815260200183815250601160006007548152602001908152602001600020600082015181600001556020820151816001015560408201518160020155606082015181600301556080820151816004019080519060200190611b96929190613ec2565b509050506001600b60008681526020019081526020016000206008016000828254611bc1919061516d565b9250508190555081600b60008681526020019081526020016000206005019080519060200190611bf2929190613ec2565b5060076000815480929190611c06906152d8565b919050555050505050565b601260009054906101000a900473ffffffffffffffffffffffffffffffffffffffff1681565b606060005b600554811015611c9e5782600f6000838152602001908152602001600020600201541415611c8b57611c83600f600083815260200190815260200160002060010154613c57565b915050611cd8565b8080611c96906152d8565b915050611c3c565b506040518060400160405280600581526020017f46616c736500000000000000000000000000000000000000000000000000000081525090505b919050565b80600860008481526020019081526020016000206008019080519060200190611d07929190613ec2565b505050565b6011602052806000526040600020600091509050806000015490806001015490806002015490806003015490806004018054611d4790615275565b80601f0160208091040260200160405190810160405280929190818152602001828054611d7390615275565b8015611dc05780601f10611d9557610100808354040283529160200191611dc0565b820191906000526020600020905b815481529060010190602001808311611da357829003601f168201915b5050505050905085565b60006008600083815260200190815260200160002060040160009054906101000a900473ffffffffffffffffffffffffffffffffffffffff169050919050565b60025481565b80600a60008481526020019081526020016000209080519060200190611e37929190613ec2565b505050565b60405180610140016040528060005481526020018681526020018581526020018481526020018273ffffffffffffffffffffffffffffffffffffffff16815260200160405180602001604052806000815250815260200160405180606001604052806028815260200161548c6028913981526020016000815260200183815260200160008152506008600080548152602001908152602001600020600082015181600001556020820151816001019080519060200190611efd929190613ec2565b506040820151816002019080519060200190611f1a929190613ec2565b506060820151816003019080519060200190611f37929190613ec2565b5060808201518160040160006101000a81548173ffffffffffffffffffffffffffffffffffffffff021916908373ffffffffffffffffffffffffffffffffffffffff16021790555060a0820151816005019080519060200190611f9b929190613ec2565b5060c0820151816006019080519060200190611fb8929190613ec2565b5060e08201518160070155610100820151816008019080519060200190611fe0929190613ec2565b506101208201518160090155905050600080815480929190612001906152d8565b91905055505050505050565b60005b6000548110156120e257600860008281526020019081526020016000206000808201600090556001820160006120469190613e82565b6002820160006120569190613e82565b6003820160006120669190613e82565b6004820160006101000a81549073ffffffffffffffffffffffffffffffffffffffff021916905560058201600061209d9190613e82565b6006820160006120ad9190613e82565b60078201600090556008820160006120c59190613e82565b6009820160009055505080806120da906152d8565b915050612010565b5060005b6002548110156121a1576009600082815260200190815260200160002060008082016000905560018201600090556002820160006121249190613e82565b6003820160006121349190613e82565b6004820160006121449190613e82565b6005820160006121549190613e82565b60068201600090556007820160009055600882016000905560098201600061217c9190613e82565b600a820160009055600b82016000905550508080612199906152d8565b9150506120e6565b5060005b6002548110156121e157600a600082815260200190815260200160002060006121ce9190613e82565b80806121d9906152d8565b9150506121a5565b5060005b60035481101561228057600b60008281526020019081526020016000206000808201600090556001820160009055600282016000905560038201600061222b9190613e82565b60048201600061223b9190613e82565b60058201600061224b9190613e82565b60068201600061225b9190613e82565b6007820160009055600882016000905550508080612278906152d8565b9150506121e5565b5060005b6004548110156122d757600c6000828152602001908152602001600020600080820160006122b29190613e82565b6001820160006122c29190613e82565b505080806122cf906152d8565b915050612284565b5060005b60025481101561231757600d600082815260200190815260200160002060006123049190613e82565b808061230f906152d8565b9150506122db565b5060005b6000548110156123c657600e60008281526020019081526020016000206000808201600090556001820160006123519190613e82565b6002820160006123619190613e82565b6003820160006123719190613e82565b6004820160006123819190613e82565b6005820160006123919190613e82565b6006820160006123a19190613e82565b6007820160006123b19190613e82565b505080806123be906152d8565b91505061231b565b5060005b60055481101561243557600f6000828152602001908152602001600020600080820160009055600182016000905560028201600090556003820160006124109190613e82565b6004820160006124209190613e82565b5050808061242d906152d8565b9150506123ca565b5060005b6006548110156124bc57601060008281526020019081526020016000206000808201600090556001820160009055600282016000905560038201600090556004820160006124879190613e82565b6005820160006124979190613e82565b6006820160006124a79190613e82565b505080806124b4906152d8565b915050612439565b5060005b600754811015612523576011600082815260200190815260200160002060008082016000905560018201600090556002820160009055600382016000905560048201600061250e9190613e82565b5050808061251b906152d8565b9150506124c0565b5060008081905550600060028190555060006003819055506000600481905550600060058190555060006006819055506000600781905550565b60075481565b600960205280600052604060002060009150905080600001549080600101549080600201805461259290615275565b80601f01602080910402602001604051908101604052809291908181526020018280546125be90615275565b801561260b5780601f106125e05761010080835404028352916020019161260b565b820191906000526020600020905b8154815290600101906020018083116125ee57829003601f168201915b50505050509080600301805461262090615275565b80601f016020809104026020016040519081016040528092919081815260200182805461264c90615275565b80156126995780601f1061266e57610100808354040283529160200191612699565b820191906000526020600020905b81548152906001019060200180831161267c57829003601f168201915b5050505050908060040180546126ae90615275565b80601f01602080910402602001604051908101604052809291908181526020018280546126da90615275565b80156127275780601f106126fc57610100808354040283529160200191612727565b820191906000526020600020905b81548152906001019060200180831161270a57829003601f168201915b50505050509080600501805461273c90615275565b80601f016020809104026020016040519081016040528092919081815260200182805461276890615275565b80156127b55780601f1061278a576101008083540402835291602001916127b5565b820191906000526020600020905b81548152906001019060200180831161279857829003601f168201915b5050505050908060060154908060070154908060080154908060090180546127dc90615275565b80601f016020809104026020016040519081016040528092919081815260200182805461280890615275565b80156128555780601f1061282a57610100808354040283529160200191612855565b820191906000526020600020905b81548152906001019060200180831161283857829003601f168201915b50505050509080600a01549080600b015490508c565b60106020528060005260406000206000915090508060000154908060010154908060020154908060030154908060040180546128a690615275565b80601f01602080910402602001604051908101604052809291908181526020018280546128d290615275565b801561291f5780601f106128f45761010080835404028352916020019161291f565b820191906000526020600020905b81548152906001019060200180831161290257829003601f168201915b50505050509080600501805461293490615275565b80601f016020809104026020016040519081016040528092919081815260200182805461296090615275565b80156129ad5780601f10612982576101008083540402835291602001916129ad565b820191906000526020600020905b81548152906001019060200180831161299057829003601f168201915b5050505050908060060180546129c290615275565b80601f01602080910402602001604051908101604052809291908181526020018280546129ee90615275565b8015612a3b5780601f10612a1057610100808354040283529160200191612a3b565b820191906000526020600020905b815481529060010190602001808311612a1e57829003601f168201915b5050505050905087565b606060005b600054811015612aed57838051906020012060086000838152602001908152602001600020600201604051612a7f9190614b9f565b6040518091039020148015612ac45750828051906020012060086000838152602001908152602001600020600301604051612aba9190614b9f565b6040518091039020145b15612ada57612ad281613c57565b915050612b27565b8080612ae5906152d8565b915050612a4a565b506040518060400160405280600581526020017f46616c736500000000000000000000000000000000000000000000000000000081525090505b92915050565b6040518060a00160405280600554815260200185815260200184815260200183815260200182815250600f600060055481526020019081526020016000206000820151816000015560208201518160010155604082015181600201556060820151816003019080519060200190612ba5929190613ec2565b506080820151816004019080519060200190612bc2929190613ec2565b509050506001600960008681526020019081526020016000206006016000828254612bed919061516d565b9250508190555060056000815480929190612c07906152d8565b919050555050505050565b60005481565b88600e60008b81526020019081526020016000206000018190555087600e60008b81526020019081526020016000206001019080519060200190612c5d929190613ec2565b5086600e60008b81526020019081526020016000206002019080519060200190612c88929190613ec2565b5085600e60008b81526020019081526020016000206003019080519060200190612cb3929190613ec2565b5084600e60008b81526020019081526020016000206004019080519060200190612cde929190613ec2565b5083600e60008b81526020019081526020016000206005019080519060200190612d09929190613ec2565b5082600e60008b81526020019081526020016000206006019080519060200190612d34929190613ec2565b5081600e60008b81526020019081526020016000206007019080519060200190612d5f929190613ec2565b5080600860008b815260200190815260200160002060040160006101000a81548173ffffffffffffffffffffffffffffffffffffffff021916908373ffffffffffffffffffffffffffffffffffffffff160217905550505050505050505050565b60086000828152602001908152602001600020600080820160009055600182016000612dec9190613e82565b600282016000612dfc9190613e82565b600382016000612e0c9190613e82565b6004820160006101000a81549073ffffffffffffffffffffffffffffffffffffffff0219169055600582016000612e439190613e82565b600682016000612e539190613e82565b6007820160009055600882016000612e6b9190613e82565b60098201600090555050600e6000828152602001908152602001600020600080820160009055600182016000612ea19190613e82565b600282016000612eb19190613e82565b600382016000612ec19190613e82565b600482016000612ed19190613e82565b600582016000612ee19190613e82565b600682016000612ef19190613e82565b600782016000612f019190613e82565b505060005b600554811015612f7157600f600082815260200190815260200160002060008082016000905560018201600090556002820160009055600382016000612f4c9190613e82565b600482016000612f5c9190613e82565b50508080612f69906152d8565b915050612f06565b5060005b600654811015612ff85760106000828152602001908152602001600020600080820160009055600182016000905560028201600090556003820160009055600482016000612fc39190613e82565b600582016000612fd39190613e82565b600682016000612fe39190613e82565b50508080612ff0906152d8565b915050612f75565b5060005b60075481101561305f576011600082815260200190815260200160002060008082016000905560018201600090556002820160009055600382016000905560048201600061304a9190613e82565b50508080613057906152d8565b915050612ffc565b50600160005461306f91906151c3565b60008190555060006005819055506000600681905550600060078190555050565b600b6020528060005260406000206000915090508060000154908060010154908060020154908060030180546130c590615275565b80601f01602080910402602001604051908101604052809291908181526020018280546130f190615275565b801561313e5780601f106131135761010080835404028352916020019161313e565b820191906000526020600020905b81548152906001019060200180831161312157829003601f168201915b50505050509080600401805461315390615275565b80601f016020809104026020016040519081016040528092919081815260200182805461317f90615275565b80156131cc5780601f106131a1576101008083540402835291602001916131cc565b820191906000526020600020905b8154815290600101906020018083116131af57829003601f168201915b5050505050908060050180546131e190615275565b80601f016020809104026020016040519081016040528092919081815260200182805461320d90615275565b801561325a5780601f1061322f5761010080835404028352916020019161325a565b820191906000526020600020905b81548152906001019060200180831161323d57829003601f168201915b50505050509080600601805461326f90615275565b80601f016020809104026020016040519081016040528092919081815260200182805461329b90615275565b80156132e85780601f106132bd576101008083540402835291602001916132e8565b820191906000526020600020905b8154815290600101906020018083116132cb57829003601f168201915b5050505050908060070154908060080154905089565b80600860008481526020019081526020016000206005019080519060200190613328929190613ec2565b505050565b81600860008581526020019081526020016000206006019080519060200190613357929190613ec2565b50806008600085815260200190815260200160002060070181905550505050565b600d602052806000526040600020600091509050805461339790615275565b80601f01602080910402602001604051908101604052809291908181526020018280546133c390615275565b80156134105780601f106133e557610100808354040283529160200191613410565b820191906000526020600020905b8154815290600101906020018083116133f357829003601f168201915b505050505081565b60055481565b600e60205280600052604060002060009150905080600001549080600101805461344790615275565b80601f016020809104026020016040519081016040528092919081815260200182805461347390615275565b80156134c05780601f10613495576101008083540402835291602001916134c0565b820191906000526020600020905b8154815290600101906020018083116134a357829003601f168201915b5050505050908060020180546134d590615275565b80601f016020809104026020016040519081016040528092919081815260200182805461350190615275565b801561354e5780601f106135235761010080835404028352916020019161354e565b820191906000526020600020905b81548152906001019060200180831161353157829003601f168201915b50505050509080600301805461356390615275565b80601f016020809104026020016040519081016040528092919081815260200182805461358f90615275565b80156135dc5780601f106135b1576101008083540402835291602001916135dc565b820191906000526020600020905b8154815290600101906020018083116135bf57829003601f168201915b5050505050908060040180546135f190615275565b80601f016020809104026020016040519081016040528092919081815260200182805461361d90615275565b801561366a5780601f1061363f5761010080835404028352916020019161366a565b820191906000526020600020905b81548152906001019060200180831161364d57829003601f168201915b50505050509080600501805461367f90615275565b80601f01602080910402602001604051908101604052809291908181526020018280546136ab90615275565b80156136f85780601f106136cd576101008083540402835291602001916136f8565b820191906000526020600020905b8154815290600101906020018083116136db57829003601f168201915b50505050509080600601805461370d90615275565b80601f016020809104026020016040519081016040528092919081815260200182805461373990615275565b80156137865780601f1061375b57610100808354040283529160200191613786565b820191906000526020600020905b81548152906001019060200180831161376957829003601f168201915b50505050509080600701805461379b90615275565b80601f01602080910402602001604051908101604052809291908181526020018280546137c790615275565b80156138145780601f106137e957610100808354040283529160200191613814565b820191906000526020600020905b8154815290600101906020018083116137f757829003601f168201915b5050505050905088565b600c60205280600052604060002060009150905080600001805461384190615275565b80601f016020809104026020016040519081016040528092919081815260200182805461386d90615275565b80156138ba5780601f1061388f576101008083540402835291602001916138ba565b820191906000526020600020905b81548152906001019060200180831161389d57829003601f168201915b5050505050908060010180546138cf90615275565b80601f01602080910402602001604051908101604052809291908181526020018280546138fb90615275565b80156139485780601f1061391d57610100808354040283529160200191613948565b820191906000526020600020905b81548152906001019060200180831161392b57829003601f168201915b5050505050905082565b600f60205280600052604060002060009150905080600001549080600101549080600201549080600301805461398790615275565b80601f01602080910402602001604051908101604052809291908181526020018280546139b390615275565b8015613a005780601f106139d557610100808354040283529160200191613a00565b820191906000526020600020905b8154815290600101906020018083116139e357829003601f168201915b505050505090806004018054613a1590615275565b80601f0160208091040260200160405190810160405280929190818152602001828054613a4190615275565b8015613a8e5780601f10613a6357610100808354040283529160200191613a8e565b820191906000526020600020905b815481529060010190602001808311613a7157829003601f168201915b5050505050905085565b606060005b600054811015613b0457828051906020012060086000838152602001908152602001600020600201604051613ad29190614b9f565b60405180910390201415613af157613ae981613c57565b915050613b3e565b8080613afc906152d8565b915050613a9d565b506040518060400160405280600581526020017f46616c736500000000000000000000000000000000000000000000000000000081525090505b919050565b60006008600084815260200190815260200160002060040160009054906101000a900473ffffffffffffffffffffffffffffffffffffffff1673ffffffffffffffffffffffffffffffffffffffff1682604051613b9f90614bb6565b60006040518083038185875af1925050503d8060008114613bdc576040519150601f19603f3d011682016040523d82523d6000602084013e613be1565b606091505b5050905080613c25576040517f08c379a0000000000000000000000000000000000000000000000000000000008152600401613c1c90614cf3565b60405180910390fd5b81600860008581526020019081526020016000206007016000828254613c4b91906151c3565b92505081905550505050565b606060006001613c6684613d2f565b01905060008167ffffffffffffffff811115613c8557613c846153dd565b5b6040519080825280601f01601f191660200182016040528015613cb75781602001600182028036833780820191505090505b509050600082602001820190505b600115613d24578080600190039150507f3031323334353637383961626364656600000000000000000000000000000000600a86061a8153600a8581613d0e57613d0d615350565b5b0494506000851415613d1f57613d24565b613cc5565b819350505050919050565b600080600090507a184f03e93ff9f4daa797ed6e38ed64bf6a1f0100000000000000008310613d8d577a184f03e93ff9f4daa797ed6e38ed64bf6a1f0100000000000000008381613d8357613d82615350565b5b0492506040810190505b6d04ee2d6d415b85acef81000000008310613dca576d04ee2d6d415b85acef81000000008381613dc057613dbf615350565b5b0492506020810190505b662386f26fc100008310613df957662386f26fc100008381613def57613dee615350565b5b0492506010810190505b6305f5e1008310613e22576305f5e1008381613e1857613e17615350565b5b0492506008810190505b6127108310613e47576127108381613e3d57613e3c615350565b5b0492506004810190505b60648310613e6a5760648381613e6057613e5f615350565b5b0492506002810190505b600a8310613e79576001810190505b80915050919050565b508054613e8e90615275565b6000825580601f10613ea05750613ebf565b601f016020900490600052602060002090810190613ebe9190613f48565b5b50565b828054613ece90615275565b90600052602060002090601f016020900481019282613ef05760008555613f37565b82601f10613f0957805160ff1916838001178555613f37565b82800160010185558215613f37579182015b82811115613f36578251825591602001919060010190613f1b565b5b509050613f449190613f48565b5090565b5b80821115613f61576000816000905550600101613f49565b5090565b6000613f78613f73846150c7565b6150a2565b905082815260208101848484011115613f9457613f93615411565b5b613f9f848285615233565b509392505050565b600081359050613fb68161545d565b92915050565b600082601f830112613fd157613fd061540c565b5b8135613fe1848260208601613f65565b91505092915050565b600081359050613ff981615474565b92915050565b6000602082840312156140155761401461541b565b5b600082013567ffffffffffffffff81111561403357614032615416565b5b61403f84828501613fbc565b91505092915050565b6000806040838503121561405f5761405e61541b565b5b600083013567ffffffffffffffff81111561407d5761407c615416565b5b61408985828601613fbc565b925050602083013567ffffffffffffffff8111156140aa576140a9615416565b5b6140b685828601613fbc565b9150509250929050565b600080600080600060a086880312156140dc576140db61541b565b5b600086013567ffffffffffffffff8111156140fa576140f9615416565b5b61410688828901613fbc565b955050602086013567ffffffffffffffff81111561412757614126615416565b5b61413388828901613fbc565b945050604086013567ffffffffffffffff81111561415457614153615416565b5b61416088828901613fbc565b935050606086013567ffffffffffffffff81111561418157614180615416565b5b61418d88828901613fbc565b925050608061419e88828901613fa7565b9150509295509295909350565b6000602082840312156141c1576141c061541b565b5b60006141cf84828501613fea565b91505092915050565b600080604083850312156141ef576141ee61541b565b5b60006141fd85828601613fea565b925050602083013567ffffffffffffffff81111561421e5761421d615416565b5b61422a85828601613fbc565b9150509250929050565b60008060008060008060008060006101208a8c0312156142575761425661541b565b5b60006142658c828d01613fea565b99505060208a013567ffffffffffffffff81111561428657614285615416565b5b6142928c828d01613fbc565b98505060408a013567ffffffffffffffff8111156142b3576142b2615416565b5b6142bf8c828d01613fbc565b97505060608a013567ffffffffffffffff8111156142e0576142df615416565b5b6142ec8c828d01613fbc565b96505060808a013567ffffffffffffffff81111561430d5761430c615416565b5b6143198c828d01613fbc565b95505060a08a013567ffffffffffffffff81111561433a57614339615416565b5b6143468c828d01613fbc565b94505060c08a013567ffffffffffffffff81111561436757614366615416565b5b6143738c828d01613fbc565b93505060e08a013567ffffffffffffffff81111561439457614393615416565b5b6143a08c828d01613fbc565b9250506101006143b28c828d01613fa7565b9150509295985092959850929598565b600080600080600080600080610100898b0312156143e3576143e261541b565b5b60006143f18b828c01613fea565b985050602089013567ffffffffffffffff81111561441257614411615416565b5b61441e8b828c01613fbc565b975050604089013567ffffffffffffffff81111561443f5761443e615416565b5b61444b8b828c01613fbc565b965050606089013567ffffffffffffffff81111561446c5761446b615416565b5b6144788b828c01613fbc565b955050608089013567ffffffffffffffff81111561449957614498615416565b5b6144a58b828c01613fbc565b94505060a06144b68b828c01613fea565b93505060c06144c78b828c01613fea565b92505060e06144d88b828c01613fea565b9150509295985092959890939650565b600080600080600060a086880312156145045761450361541b565b5b600061451288828901613fea565b955050602086013567ffffffffffffffff81111561453357614532615416565b5b61453f88828901613fbc565b945050604086013567ffffffffffffffff8111156145605761455f615416565b5b61456c88828901613fbc565b935050606086013567ffffffffffffffff81111561458d5761458c615416565b5b61459988828901613fbc565b92505060806145aa88828901613fea565b9150509295509295909350565b6000806000606084860312156145d0576145cf61541b565b5b60006145de86828701613fea565b935050602084013567ffffffffffffffff8111156145ff576145fe615416565b5b61460b86828701613fbc565b925050604061461c86828701613fea565b9150509250925092565b600080600080608085870312156146405761463f61541b565b5b600061464e87828801613fea565b945050602085013567ffffffffffffffff81111561466f5761466e615416565b5b61467b87828801613fbc565b935050604061468c87828801613fea565b925050606061469d87828801613fea565b91505092959194509250565b600080604083850312156146c0576146bf61541b565b5b60006146ce85828601613fea565b92505060206146df85828601613fea565b9150509250929050565b600080600080608085870312156147035761470261541b565b5b600061471187828801613fea565b945050602061472287828801613fea565b935050604085013567ffffffffffffffff81111561474357614742615416565b5b61474f87828801613fbc565b925050606085013567ffffffffffffffff8111156147705761476f615416565b5b61477c87828801613fbc565b91505092959194509250565b600080600080600080600060e0888a0312156147a7576147a661541b565b5b60006147b58a828b01613fea565b97505060206147c68a828b01613fea565b965050604088013567ffffffffffffffff8111156147e7576147e6615416565b5b6147f38a828b01613fbc565b955050606088013567ffffffffffffffff81111561481457614813615416565b5b6148208a828b01613fbc565b945050608088013567ffffffffffffffff81111561484157614840615416565b5b61484d8a828b01613fbc565b93505060a088013567ffffffffffffffff81111561486e5761486d615416565b5b61487a8a828b01613fbc565b92505060c061488b8a828b01613fea565b91505092959891949750929550565b600080600080608085870312156148b4576148b361541b565b5b60006148c287828801613fea565b94505060206148d387828801613fea565b935050604085013567ffffffffffffffff8111156148f4576148f3615416565b5b61490087828801613fbc565b925050606061491187828801613fea565b91505092959194509250565b60008060008060008060c0878903121561493a5761493961541b565b5b600061494889828a01613fea565b965050602061495989828a01613fea565b955050604061496a89828a01613fea565b945050606087013567ffffffffffffffff81111561498b5761498a615416565b5b61499789828a01613fbc565b935050608087013567ffffffffffffffff8111156149b8576149b7615416565b5b6149c489828a01613fbc565b92505060a087013567ffffffffffffffff8111156149e5576149e4615416565b5b6149f189828a01613fbc565b9150509295509295509295565b6000614a0a8383614b81565b60208301905092915050565b614a1f816151f7565b82525050565b6000614a308261511d565b614a3a8185615140565b9350614a45836150f8565b8060005b83811015614a76578151614a5d88826149fe565b9750614a6883615133565b925050600181019050614a49565b5085935050505092915050565b60008154614a9081615275565b614a9a8186615151565b94506001821660008114614ab55760018114614ac657614af9565b60ff19831686528186019350614af9565b614acf85615108565b60005b83811015614af157815481890152600182019150602081019050614ad2565b838801955050505b50505092915050565b6000614b0d82615128565b614b17818561515c565b9350614b27818560208601615242565b614b3081615420565b840191505092915050565b6000614b48600b8361515c565b9150614b5382615431565b602082019050919050565b6000614b6b600083615151565b9150614b768261545a565b600082019050919050565b614b8a81615229565b82525050565b614b9981615229565b82525050565b6000614bab8284614a83565b915081905092915050565b6000614bc182614b5e565b9150819050919050565b6000602082019050614be06000830184614a16565b92915050565b60006020820190508181036000830152614c008184614a25565b905092915050565b60006020820190508181036000830152614c228184614b02565b905092915050565b60006040820190508181036000830152614c448185614b02565b90508181036020830152614c588184614b02565b90509392505050565b600060e0820190508181036000830152614c7b818a614b02565b9050614c8a6020830189614b90565b8181036040830152614c9c8188614b02565b90508181036060830152614cb08187614b02565b90508181036080830152614cc48186614b02565b905081810360a0830152614cd88185614b02565b9050614ce760c0830184614b90565b98975050505050505050565b60006020820190508181036000830152614d0c81614b3b565b9050919050565b6000602082019050614d286000830184614b90565b92915050565b600061010082019050614d44600083018b614b90565b8181036020830152614d56818a614b02565b90508181036040830152614d6a8189614b02565b90508181036060830152614d7e8188614b02565b90508181036080830152614d928187614b02565b905081810360a0830152614da68186614b02565b905081810360c0830152614dba8185614b02565b905081810360e0830152614dce8184614b02565b90509998505050505050505050565b600061018082019050614df3600083018f614b90565b614e00602083018e614b90565b8181036040830152614e12818d614b02565b90508181036060830152614e26818c614b02565b90508181036080830152614e3a818b614b02565b905081810360a0830152614e4e818a614b02565b9050614e5d60c0830189614b90565b614e6a60e0830188614b90565b614e78610100830187614b90565b818103610120830152614e8b8186614b02565b9050614e9b610140830185614b90565b614ea9610160830184614b90565b9d9c50505050505050505050505050565b600060a082019050614ecf6000830188614b90565b614edc6020830187614b90565b614ee96040830186614b90565b8181036060830152614efb8185614b02565b90508181036080830152614f0f8184614b02565b90509695505050505050565b600061012082019050614f31600083018c614b90565b614f3e602083018b614b90565b614f4b604083018a614b90565b8181036060830152614f5d8189614b02565b90508181036080830152614f718188614b02565b905081810360a0830152614f858187614b02565b905081810360c0830152614f998186614b02565b9050614fa860e0830185614b90565b614fb6610100830184614b90565b9a9950505050505050505050565b600060a082019050614fd96000830188614b90565b614fe66020830187614b90565b614ff36040830186614b90565b6150006060830185614b90565b81810360808301526150128184614b02565b90509695505050505050565b600060e082019050615033600083018a614b90565b6150406020830189614b90565b61504d6040830188614b90565b61505a6060830187614b90565b818103608083015261506c8186614b02565b905081810360a08301526150808185614b02565b905081810360c08301526150948184614b02565b905098975050505050505050565b60006150ac6150bd565b90506150b882826152a7565b919050565b6000604051905090565b600067ffffffffffffffff8211156150e2576150e16153dd565b5b6150eb82615420565b9050602081019050919050565b6000819050602082019050919050565b60008190508160005260206000209050919050565b600081519050919050565b600081519050919050565b6000602082019050919050565b600082825260208201905092915050565b600081905092915050565b600082825260208201905092915050565b600061517882615229565b915061518383615229565b9250827fffffffffffffffffffffffffffffffffffffffffffffffffffffffffffffffff038211156151b8576151b7615321565b5b828201905092915050565b60006151ce82615229565b91506151d983615229565b9250828210156151ec576151eb615321565b5b828203905092915050565b600061520282615209565b9050919050565b600073ffffffffffffffffffffffffffffffffffffffff82169050919050565b6000819050919050565b82818337600083830152505050565b60005b83811015615260578082015181840152602081019050615245565b8381111561526f576000848401525b50505050565b6000600282049050600182168061528d57607f821691505b602082108114156152a1576152a061537f565b5b50919050565b6152b082615420565b810181811067ffffffffffffffff821117156152cf576152ce6153dd565b5b80604052505050565b60006152e382615229565b91507fffffffffffffffffffffffffffffffffffffffffffffffffffffffffffffffff82141561531657615315615321565b5b600182019050919050565b7f4e487b7100000000000000000000000000000000000000000000000000000000600052601160045260246000fd5b7f4e487b7100000000000000000000000000000000000000000000000000000000600052601260045260246000fd5b7f4e487b7100000000000000000000000000000000000000000000000000000000600052602260045260246000fd5b7f4e487b7100000000000000000000000000000000000000000000000000000000600052603260045260246000fd5b7f4e487b7100000000000000000000000000000000000000000000000000000000600052604160045260246000fd5b600080fd5b600080fd5b600080fd5b600080fd5b6000601f19601f8301169050919050565b7f53656e64206661696c6564000000000000000000000000000000000000000000600082015250565b50565b615466816151f7565b811461547157600080fd5b50565b61547d81615229565b811461548857600080fd5b5056fe68747470733a2f2f692e706f7374696d672e63632f537378477735635a2f706572736f6e2e6a7067a26469706673582212209167ddb647e76f64ddba7852ef4a9787294c35960fa0cc90663d1dc65b65dda364736f6c63430008060033","opcodes":"PUSH1 0x80 PUSH1 0x40 MSTORE CALLVALUE DUP1 ISZERO PUSH2 0x10 JUMPI PUSH1 0x0 DUP1 REVERT JUMPDEST POP PUSH2 0x54E9 DUP1 PUSH2 0x20 PUSH1 0x0 CODECOPY PUSH1 0x0 RETURN INVALID PUSH1 0x80 PUSH1 0x40 MSTORE PUSH1 0x4 CALLDATASIZE LT PUSH2 0x27D JUMPI PUSH1 0x0 CALLDATALOAD PUSH1 0xE0 SHR DUP1 PUSH4 0x90D976E2 GT PUSH2 0x14F JUMPI DUP1 PUSH4 0xD98860B4 GT PUSH2 0xC1 JUMPI DUP1 PUSH4 0xEB6B2870 GT PUSH2 0x7A JUMPI DUP1 PUSH4 0xEB6B2870 EQ PUSH2 0x9EE JUMPI DUP1 PUSH4 0xEBE197CA EQ PUSH2 0xA19 JUMPI DUP1 PUSH4 0xF0D8E873 EQ PUSH2 0xA5D JUMPI DUP1 PUSH4 0xF6AAA804 EQ PUSH2 0xA9B JUMPI DUP1 PUSH4 0xF8B7800F EQ PUSH2 0xADC JUMPI DUP1 PUSH4 0xFF99942C EQ PUSH2 0xB19 JUMPI PUSH2 0x27D JUMP JUMPDEST DUP1 PUSH4 0xD98860B4 EQ PUSH2 0x8C8 JUMPI DUP1 PUSH4 0xDCDD86D5 EQ PUSH2 0x8F1 JUMPI DUP1 PUSH4 0xDE7ACFD7 EQ PUSH2 0x91A JUMPI DUP1 PUSH4 0xE1DA993F EQ PUSH2 0x95F JUMPI DUP1 PUSH4 0xE57F973F EQ PUSH2 0x988 JUMPI DUP1 PUSH4 0xEA7EFAA6 EQ PUSH2 0x9B1 JUMPI PUSH2 0x27D JUMP JUMPDEST DUP1 PUSH4 0xB6E604BD GT PUSH2 0x113 JUMPI DUP1 PUSH4 0xB6E604BD EQ PUSH2 0x781 JUMPI DUP1 PUSH4 0xBED208FE EQ PUSH2 0x7AC JUMPI DUP1 PUSH4 0xC13B2836 EQ PUSH2 0x7F4 JUMPI DUP1 PUSH4 0xCCEF4218 EQ PUSH2 0x837 JUMPI DUP1 PUSH4 0xCDB9B58F EQ PUSH2 0x874 JUMPI DUP1 PUSH4 0xCE08988C EQ PUSH2 0x89D JUMPI PUSH2 0x27D JUMP JUMPDEST DUP1 PUSH4 0x90D976E2 EQ PUSH2 0x6B0 JUMPI DUP1 PUSH4 0xAC7AEF0E EQ PUSH2 0x6ED JUMPI DUP1 PUSH4 0xAD23F8F9 EQ PUSH2 0x718 JUMPI DUP1 PUSH4 0xAD4BAD38 EQ PUSH2 0x741 JUMPI DUP1 PUSH4 0xB16060A6 EQ PUSH2 0x76A JUMPI PUSH2 0x27D JUMP JUMPDEST DUP1 PUSH4 0x5F27AEA1 GT PUSH2 0x1F3 JUMPI DUP1 PUSH4 0x7C15641A GT PUSH2 0x1AC JUMPI DUP1 PUSH4 0x7C15641A EQ PUSH2 0x58A JUMPI DUP1 PUSH4 0x7D423E10 EQ PUSH2 0x5B5 JUMPI DUP1 PUSH4 0x8DA5CB5B EQ PUSH2 0x5DE JUMPI DUP1 PUSH4 0x902841D4 EQ PUSH2 0x609 JUMPI DUP1 PUSH4 0x90B18A78 EQ PUSH2 0x646 JUMPI DUP1 PUSH4 0x90D6CF05 EQ PUSH2 0x66F JUMPI PUSH2 0x27D JUMP JUMPDEST DUP1 PUSH4 0x5F27AEA1 EQ PUSH2 0x480 JUMPI DUP1 PUSH4 0x66CAD734 EQ PUSH2 0x4A9 JUMPI DUP1 PUSH4 0x682D562B EQ PUSH2 0x4D2 JUMPI DUP1 PUSH4 0x6C067B48 EQ PUSH2 0x50F JUMPI DUP1 PUSH4 0x6F4FE9C5 EQ PUSH2 0x538 JUMPI DUP1 PUSH4 0x70DA4AE1 EQ PUSH2 0x561 JUMPI PUSH2 0x27D JUMP JUMPDEST DUP1 PUSH4 0x2A8CAF4A GT PUSH2 0x245 JUMPI DUP1 PUSH4 0x2A8CAF4A EQ PUSH2 0x36F JUMPI DUP1 PUSH4 0x3896F130 EQ PUSH2 0x3AC JUMPI DUP1 PUSH4 0x3EEBD0D0 EQ PUSH2 0x3C8 JUMPI DUP1 PUSH4 0x49B9B07B EQ PUSH2 0x3F1 JUMPI DUP1 PUSH4 0x4F8B36EB EQ PUSH2 0x42E JUMPI DUP1 PUSH4 0x55391705 EQ PUSH2 0x457 JUMPI PUSH2 0x27D JUMP JUMPDEST DUP1 PUSH4 0x1C66109 EQ PUSH2 0x282 JUMPI DUP1 PUSH4 0x1429F775 EQ PUSH2 0x2AD JUMPI DUP1 PUSH4 0x1C1A9F7B EQ PUSH2 0x2D8 JUMPI DUP1 PUSH4 0x1E178956 EQ PUSH2 0x31B JUMPI DUP1 PUSH4 0x29B36423 EQ PUSH2 0x344 JUMPI JUMPDEST PUSH1 0x0 DUP1 REVERT JUMPDEST CALLVALUE DUP1 ISZERO PUSH2 0x28E JUMPI PUSH1 0x0 DUP1 REVERT JUMPDEST POP PUSH2 0x297 PUSH2 0xB42 JUMP JUMPDEST PUSH1 0x40 MLOAD PUSH2 0x2A4 SWAP2 SWAP1 PUSH2 0x4D13 JUMP JUMPDEST PUSH1 0x40 MLOAD DUP1 SWAP2 SUB SWAP1 RETURN JUMPDEST CALLVALUE DUP1 ISZERO PUSH2 0x2B9 JUMPI PUSH1 0x0 DUP1 REVERT JUMPDEST POP PUSH2 0x2C2 PUSH2 0xB48 JUMP JUMPDEST PUSH1 0x40 MLOAD PUSH2 0x2CF SWAP2 SWAP1 PUSH2 0x4D13 JUMP JUMPDEST PUSH1 0x40 MLOAD DUP1 SWAP2 SUB SWAP1 RETURN JUMPDEST CALLVALUE DUP1 ISZERO PUSH2 0x2E4 JUMPI PUSH1 0x0 DUP1 REVERT JUMPDEST POP PUSH2 0x2FF PUSH1 0x4 DUP1 CALLDATASIZE SUB DUP2 ADD SWAP1 PUSH2 0x2FA SWAP2 SWAP1 PUSH2 0x41AB JUMP JUMPDEST PUSH2 0xB4E JUMP JUMPDEST PUSH1 0x40 MLOAD PUSH2 0x312 SWAP8 SWAP7 SWAP6 SWAP5 SWAP4 SWAP3 SWAP2 SWAP1 PUSH2 0x4C61 JUMP JUMPDEST PUSH1 0x40 MLOAD DUP1 SWAP2 SUB SWAP1 RETURN JUMPDEST CALLVALUE DUP1 ISZERO PUSH2 0x327 JUMPI PUSH1 0x0 DUP1 REVERT JUMPDEST POP PUSH2 0x342 PUSH1 0x4 DUP1 CALLDATASIZE SUB DUP2 ADD SWAP1 PUSH2 0x33D SWAP2 SWAP1 PUSH2 0x41AB JUMP JUMPDEST PUSH2 0xECB JUMP JUMPDEST STOP JUMPDEST CALLVALUE DUP1 ISZERO PUSH2 0x350 JUMPI PUSH1 0x0 DUP1 REVERT JUMPDEST POP PUSH2 0x359 PUSH2 0x1062 JUMP JUMPDEST PUSH1 0x40 MLOAD PUSH2 0x366 SWAP2 SWAP1 PUSH2 0x4D13 JUMP JUMPDEST PUSH1 0x40 MLOAD DUP1 SWAP2 SUB SWAP1 RETURN JUMPDEST CALLVALUE DUP1 ISZERO PUSH2 0x37B JUMPI PUSH1 0x0 DUP1 REVERT JUMPDEST POP PUSH2 0x396 PUSH1 0x4 DUP1 CALLDATASIZE SUB DUP2 ADD SWAP1 PUSH2 0x391 SWAP2 SWAP1 PUSH2 0x41AB JUMP JUMPDEST PUSH2 0x1068 JUMP JUMPDEST PUSH1 0x40 MLOAD PUSH2 0x3A3 SWAP2 SWAP1 PUSH2 0x4C08 JUMP JUMPDEST PUSH1 0x40 MLOAD DUP1 SWAP2 SUB SWAP1 RETURN JUMPDEST PUSH2 0x3C6 PUSH1 0x4 DUP1 CALLDATASIZE SUB DUP2 ADD SWAP1 PUSH2 0x3C1 SWAP2 SWAP1 PUSH2 0x4788 JUMP JUMPDEST PUSH2 0x1108 JUMP JUMPDEST STOP JUMPDEST CALLVALUE DUP1 ISZERO PUSH2 0x3D4 JUMPI PUSH1 0x0 DUP1 REVERT JUMPDEST POP PUSH2 0x3EF PUSH1 0x4 DUP1 CALLDATASIZE SUB DUP2 ADD SWAP1 PUSH2 0x3EA SWAP2 SWAP1 PUSH2 0x4626 JUMP JUMPDEST PUSH2 0x122B JUMP JUMPDEST STOP JUMPDEST CALLVALUE DUP1 ISZERO PUSH2 0x3FD JUMPI PUSH1 0x0 DUP1 REVERT JUMPDEST POP PUSH2 0x418 PUSH1 0x4 DUP1 CALLDATASIZE SUB DUP2 ADD SWAP1 PUSH2 0x413 SWAP2 SWAP1 PUSH2 0x41AB JUMP JUMPDEST PUSH2 0x1292 JUMP JUMPDEST PUSH1 0x40 MLOAD PUSH2 0x425 SWAP2 SWAP1 PUSH2 0x4BE6 JUMP JUMPDEST PUSH1 0x40 MLOAD DUP1 SWAP2 SUB SWAP1 RETURN JUMPDEST CALLVALUE DUP1 ISZERO PUSH2 0x43A JUMPI PUSH1 0x0 DUP1 REVERT JUMPDEST POP PUSH2 0x455 PUSH1 0x4 DUP1 CALLDATASIZE SUB DUP2 ADD SWAP1 PUSH2 0x450 SWAP2 SWAP1 PUSH2 0x4048 JUMP JUMPDEST PUSH2 0x13AA JUMP JUMPDEST STOP JUMPDEST CALLVALUE DUP1 ISZERO PUSH2 0x463 JUMPI PUSH1 0x0 DUP1 REVERT JUMPDEST POP PUSH2 0x47E PUSH1 0x4 DUP1 CALLDATASIZE SUB DUP2 ADD SWAP1 PUSH2 0x479 SWAP2 SWAP1 PUSH2 0x44E8 JUMP JUMPDEST PUSH2 0x142D JUMP JUMPDEST STOP JUMPDEST CALLVALUE DUP1 ISZERO PUSH2 0x48C JUMPI PUSH1 0x0 DUP1 REVERT JUMPDEST POP PUSH2 0x4A7 PUSH1 0x4 DUP1 CALLDATASIZE SUB DUP2 ADD SWAP1 PUSH2 0x4A2 SWAP2 SWAP1 PUSH2 0x44E8 JUMP JUMPDEST PUSH2 0x14D0 JUMP JUMPDEST STOP JUMPDEST CALLVALUE DUP1 ISZERO PUSH2 0x4B5 JUMPI PUSH1 0x0 DUP1 REVERT JUMPDEST POP PUSH2 0x4D0 PUSH1 0x4 DUP1 CALLDATASIZE SUB DUP2 ADD SWAP1 PUSH2 0x4CB SWAP2 SWAP1 PUSH2 0x41D8 JUMP JUMPDEST PUSH2 0x1573 JUMP JUMPDEST STOP JUMPDEST CALLVALUE DUP1 ISZERO PUSH2 0x4DE JUMPI PUSH1 0x0 DUP1 REVERT JUMPDEST POP PUSH2 0x4F9 PUSH1 0x4 DUP1 CALLDATASIZE SUB DUP2 ADD SWAP1 PUSH2 0x4F4 SWAP2 SWAP1 PUSH2 0x41AB JUMP JUMPDEST PUSH2 0x159F JUMP JUMPDEST PUSH1 0x40 MLOAD PUSH2 0x506 SWAP2 SWAP1 PUSH2 0x4BE6 JUMP JUMPDEST PUSH1 0x40 MLOAD DUP1 SWAP2 SUB SWAP1 RETURN JUMPDEST CALLVALUE DUP1 ISZERO PUSH2 0x51B JUMPI PUSH1 0x0 DUP1 REVERT JUMPDEST POP PUSH2 0x536 PUSH1 0x4 DUP1 CALLDATASIZE SUB DUP2 ADD SWAP1 PUSH2 0x531 SWAP2 SWAP1 PUSH2 0x491D JUMP JUMPDEST PUSH2 0x16B7 JUMP JUMPDEST STOP JUMPDEST CALLVALUE DUP1 ISZERO PUSH2 0x544 JUMPI PUSH1 0x0 DUP1 REVERT JUMPDEST POP PUSH2 0x55F PUSH1 0x4 DUP1 CALLDATASIZE SUB DUP2 ADD SWAP1 PUSH2 0x55A SWAP2 SWAP1 PUSH2 0x43C2 JUMP JUMPDEST PUSH2 0x17A3 JUMP JUMPDEST STOP JUMPDEST CALLVALUE DUP1 ISZERO PUSH2 0x56D JUMPI PUSH1 0x0 DUP1 REVERT JUMPDEST POP PUSH2 0x588 PUSH1 0x4 DUP1 CALLDATASIZE SUB DUP2 ADD SWAP1 PUSH2 0x583 SWAP2 SWAP1 PUSH2 0x41AB JUMP JUMPDEST PUSH2 0x1942 JUMP JUMPDEST STOP JUMPDEST CALLVALUE DUP1 ISZERO PUSH2 0x596 JUMPI PUSH1 0x0 DUP1 REVERT JUMPDEST POP PUSH2 0x59F PUSH2 0x1B0E JUMP JUMPDEST PUSH1 0x40 MLOAD PUSH2 0x5AC SWAP2 SWAP1 PUSH2 0x4D13 JUMP JUMPDEST PUSH1 0x40 MLOAD DUP1 SWAP2 SUB SWAP1 RETURN JUMPDEST CALLVALUE DUP1 ISZERO PUSH2 0x5C1 JUMPI PUSH1 0x0 DUP1 REVERT JUMPDEST POP PUSH2 0x5DC PUSH1 0x4 DUP1 CALLDATASIZE SUB DUP2 ADD SWAP1 PUSH2 0x5D7 SWAP2 SWAP1 PUSH2 0x489A JUMP JUMPDEST PUSH2 0x1B14 JUMP JUMPDEST STOP JUMPDEST CALLVALUE DUP1 ISZERO PUSH2 0x5EA JUMPI PUSH1 0x0 DUP1 REVERT JUMPDEST POP PUSH2 0x5F3 PUSH2 0x1C11 JUMP JUMPDEST PUSH1 0x40 MLOAD PUSH2 0x600 SWAP2 SWAP1 PUSH2 0x4BCB JUMP JUMPDEST PUSH1 0x40 MLOAD DUP1 SWAP2 SUB SWAP1 RETURN JUMPDEST CALLVALUE DUP1 ISZERO PUSH2 0x615 JUMPI PUSH1 0x0 DUP1 REVERT JUMPDEST POP PUSH2 0x630 PUSH1 0x4 DUP1 CALLDATASIZE SUB DUP2 ADD SWAP1 PUSH2 0x62B SWAP2 SWAP1 PUSH2 0x41AB JUMP JUMPDEST PUSH2 0x1C37 JUMP JUMPDEST PUSH1 0x40 MLOAD PUSH2 0x63D SWAP2 SWAP1 PUSH2 0x4C08 JUMP JUMPDEST PUSH1 0x40 MLOAD DUP1 SWAP2 SUB SWAP1 RETURN JUMPDEST CALLVALUE DUP1 ISZERO PUSH2 0x652 JUMPI PUSH1 0x0 DUP1 REVERT JUMPDEST POP PUSH2 0x66D PUSH1 0x4 DUP1 CALLDATASIZE SUB DUP2 ADD SWAP1 PUSH2 0x668 SWAP2 SWAP1 PUSH2 0x41D8 JUMP JUMPDEST PUSH2 0x1CDD JUMP JUMPDEST STOP JUMPDEST CALLVALUE DUP1 ISZERO PUSH2 0x67B JUMPI PUSH1 0x0 DUP1 REVERT JUMPDEST POP PUSH2 0x696 PUSH1 0x4 DUP1 CALLDATASIZE SUB DUP2 ADD SWAP1 PUSH2 0x691 SWAP2 SWAP1 PUSH2 0x41AB JUMP JUMPDEST PUSH2 0x1D0C JUMP JUMPDEST PUSH1 0x40 MLOAD PUSH2 0x6A7 SWAP6 SWAP5 SWAP4 SWAP3 SWAP2 SWAP1 PUSH2 0x4FC4 JUMP JUMPDEST PUSH1 0x40 MLOAD DUP1 SWAP2 SUB SWAP1 RETURN JUMPDEST CALLVALUE DUP1 ISZERO PUSH2 0x6BC JUMPI PUSH1 0x0 DUP1 REVERT JUMPDEST POP PUSH2 0x6D7 PUSH1 0x4 DUP1 CALLDATASIZE SUB DUP2 ADD SWAP1 PUSH2 0x6D2 SWAP2 SWAP1 PUSH2 0x41AB JUMP JUMPDEST PUSH2 0x1DCA JUMP JUMPDEST PUSH1 0x40 MLOAD PUSH2 0x6E4 SWAP2 SWAP1 PUSH2 0x4BCB JUMP JUMPDEST PUSH1 0x40 MLOAD DUP1 SWAP2 SUB SWAP1 RETURN JUMPDEST CALLVALUE DUP1 ISZERO PUSH2 0x6F9 JUMPI PUSH1 0x0 DUP1 REVERT JUMPDEST POP PUSH2 0x702 PUSH2 0x1E0A JUMP JUMPDEST PUSH1 0x40 MLOAD PUSH2 0x70F SWAP2 SWAP1 PUSH2 0x4D13 JUMP JUMPDEST PUSH1 0x40 MLOAD DUP1 SWAP2 SUB SWAP1 RETURN JUMPDEST CALLVALUE DUP1 ISZERO PUSH2 0x724 JUMPI PUSH1 0x0 DUP1 REVERT JUMPDEST POP PUSH2 0x73F PUSH1 0x4 DUP1 CALLDATASIZE SUB DUP2 ADD SWAP1 PUSH2 0x73A SWAP2 SWAP1 PUSH2 0x41D8 JUMP JUMPDEST PUSH2 0x1E10 JUMP JUMPDEST STOP JUMPDEST CALLVALUE DUP1 ISZERO PUSH2 0x74D JUMPI PUSH1 0x0 DUP1 REVERT JUMPDEST POP PUSH2 0x768 PUSH1 0x4 DUP1 CALLDATASIZE SUB DUP2 ADD SWAP1 PUSH2 0x763 SWAP2 SWAP1 PUSH2 0x40C0 JUMP JUMPDEST PUSH2 0x1E3C JUMP JUMPDEST STOP JUMPDEST CALLVALUE DUP1 ISZERO PUSH2 0x776 JUMPI PUSH1 0x0 DUP1 REVERT JUMPDEST POP PUSH2 0x77F PUSH2 0x200D JUMP JUMPDEST STOP JUMPDEST CALLVALUE DUP1 ISZERO PUSH2 0x78D JUMPI PUSH1 0x0 DUP1 REVERT JUMPDEST POP PUSH2 0x796 PUSH2 0x255D JUMP JUMPDEST PUSH1 0x40 MLOAD PUSH2 0x7A3 SWAP2 SWAP1 PUSH2 0x4D13 JUMP JUMPDEST PUSH1 0x40 MLOAD DUP1 SWAP2 SUB SWAP1 RETURN JUMPDEST CALLVALUE DUP1 ISZERO PUSH2 0x7B8 JUMPI PUSH1 0x0 DUP1 REVERT JUMPDEST POP PUSH2 0x7D3 PUSH1 0x4 DUP1 CALLDATASIZE SUB DUP2 ADD SWAP1 PUSH2 0x7CE SWAP2 SWAP1 PUSH2 0x41AB JUMP JUMPDEST PUSH2 0x2563 JUMP JUMPDEST PUSH1 0x40 MLOAD PUSH2 0x7EB SWAP13 SWAP12 SWAP11 SWAP10 SWAP9 SWAP8 SWAP7 SWAP6 SWAP5 SWAP4 SWAP3 SWAP2 SWAP1 PUSH2 0x4DDD JUMP JUMPDEST PUSH1 0x40 MLOAD DUP1 SWAP2 SUB SWAP1 RETURN JUMPDEST CALLVALUE DUP1 ISZERO PUSH2 0x800 JUMPI PUSH1 0x0 DUP1 REVERT JUMPDEST POP PUSH2 0x81B PUSH1 0x4 DUP1 CALLDATASIZE SUB DUP2 ADD SWAP1 PUSH2 0x816 SWAP2 SWAP1 PUSH2 0x41AB JUMP JUMPDEST PUSH2 0x286B JUMP JUMPDEST PUSH1 0x40 MLOAD PUSH2 0x82E SWAP8 SWAP7 SWAP6 SWAP5 SWAP4 SWAP3 SWAP2 SWAP1 PUSH2 0x501E JUMP JUMPDEST PUSH1 0x40 MLOAD DUP1 SWAP2 SUB SWAP1 RETURN JUMPDEST CALLVALUE DUP1 ISZERO PUSH2 0x843 JUMPI PUSH1 0x0 DUP1 REVERT JUMPDEST POP PUSH2 0x85E PUSH1 0x4 DUP1 CALLDATASIZE SUB DUP2 ADD SWAP1 PUSH2 0x859 SWAP2 SWAP1 PUSH2 0x4048 JUMP JUMPDEST PUSH2 0x2A45 JUMP JUMPDEST PUSH1 0x40 MLOAD PUSH2 0x86B SWAP2 SWAP1 PUSH2 0x4C08 JUMP JUMPDEST PUSH1 0x40 MLOAD DUP1 SWAP2 SUB SWAP1 RETURN JUMPDEST CALLVALUE DUP1 ISZERO PUSH2 0x880 JUMPI PUSH1 0x0 DUP1 REVERT JUMPDEST POP PUSH2 0x89B PUSH1 0x4 DUP1 CALLDATASIZE SUB DUP2 ADD SWAP1 PUSH2 0x896 SWAP2 SWAP1 PUSH2 0x46E9 JUMP JUMPDEST PUSH2 0x2B2D JUMP JUMPDEST STOP JUMPDEST CALLVALUE DUP1 ISZERO PUSH2 0x8A9 JUMPI PUSH1 0x0 DUP1 REVERT JUMPDEST POP PUSH2 0x8B2 PUSH2 0x2C12 JUMP JUMPDEST PUSH1 0x40 MLOAD PUSH2 0x8BF SWAP2 SWAP1 PUSH2 0x4D13 JUMP JUMPDEST PUSH1 0x40 MLOAD DUP1 SWAP2 SUB SWAP1 RETURN JUMPDEST CALLVALUE DUP1 ISZERO PUSH2 0x8D4 JUMPI PUSH1 0x0 DUP1 REVERT JUMPDEST POP PUSH2 0x8EF PUSH1 0x4 DUP1 CALLDATASIZE SUB DUP2 ADD SWAP1 PUSH2 0x8EA SWAP2 SWAP1 PUSH2 0x4234 JUMP JUMPDEST PUSH2 0x2C18 JUMP JUMPDEST STOP JUMPDEST CALLVALUE DUP1 ISZERO PUSH2 0x8FD JUMPI PUSH1 0x0 DUP1 REVERT JUMPDEST POP PUSH2 0x918 PUSH1 0x4 DUP1 CALLDATASIZE SUB DUP2 ADD SWAP1 PUSH2 0x913 SWAP2 SWAP1 PUSH2 0x41AB JUMP JUMPDEST PUSH2 0x2DC0 JUMP JUMPDEST STOP JUMPDEST CALLVALUE DUP1 ISZERO PUSH2 0x926 JUMPI PUSH1 0x0 DUP1 REVERT JUMPDEST POP PUSH2 0x941 PUSH1 0x4 DUP1 CALLDATASIZE SUB DUP2 ADD SWAP1 PUSH2 0x93C SWAP2 SWAP1 PUSH2 0x41AB JUMP JUMPDEST PUSH2 0x3090 JUMP JUMPDEST PUSH1 0x40 MLOAD PUSH2 0x956 SWAP10 SWAP9 SWAP8 SWAP7 SWAP6 SWAP5 SWAP4 SWAP3 SWAP2 SWAP1 PUSH2 0x4F1B JUMP JUMPDEST PUSH1 0x40 MLOAD DUP1 SWAP2 SUB SWAP1 RETURN JUMPDEST CALLVALUE DUP1 ISZERO PUSH2 0x96B JUMPI PUSH1 0x0 DUP1 REVERT JUMPDEST POP PUSH2 0x986 PUSH1 0x4 DUP1 CALLDATASIZE SUB DUP2 ADD SWAP1 PUSH2 0x981 SWAP2 SWAP1 PUSH2 0x41D8 JUMP JUMPDEST PUSH2 0x32FE JUMP JUMPDEST STOP JUMPDEST CALLVALUE DUP1 ISZERO PUSH2 0x994 JUMPI PUSH1 0x0 DUP1 REVERT JUMPDEST POP PUSH2 0x9AF PUSH1 0x4 DUP1 CALLDATASIZE SUB DUP2 ADD SWAP1 PUSH2 0x9AA SWAP2 SWAP1 PUSH2 0x45B7 JUMP JUMPDEST PUSH2 0x332D JUMP JUMPDEST STOP JUMPDEST CALLVALUE DUP1 ISZERO PUSH2 0x9BD JUMPI PUSH1 0x0 DUP1 REVERT JUMPDEST POP PUSH2 0x9D8 PUSH1 0x4 DUP1 CALLDATASIZE SUB DUP2 ADD SWAP1 PUSH2 0x9D3 SWAP2 SWAP1 PUSH2 0x41AB JUMP JUMPDEST PUSH2 0x3378 JUMP JUMPDEST PUSH1 0x40 MLOAD PUSH2 0x9E5 SWAP2 SWAP1 PUSH2 0x4C08 JUMP JUMPDEST PUSH1 0x40 MLOAD DUP1 SWAP2 SUB SWAP1 RETURN JUMPDEST CALLVALUE DUP1 ISZERO PUSH2 0x9FA JUMPI PUSH1 0x0 DUP1 REVERT JUMPDEST POP PUSH2 0xA03 PUSH2 0x3418 JUMP JUMPDEST PUSH1 0x40 MLOAD PUSH2 0xA10 SWAP2 SWAP1 PUSH2 0x4D13 JUMP JUMPDEST PUSH1 0x40 MLOAD DUP1 SWAP2 SUB SWAP1 RETURN JUMPDEST CALLVALUE DUP1 ISZERO PUSH2 0xA25 JUMPI PUSH1 0x0 DUP1 REVERT JUMPDEST POP PUSH2 0xA40 PUSH1 0x4 DUP1 CALLDATASIZE SUB DUP2 ADD SWAP1 PUSH2 0xA3B SWAP2 SWAP1 PUSH2 0x41AB JUMP JUMPDEST PUSH2 0x341E JUMP JUMPDEST PUSH1 0x40 MLOAD PUSH2 0xA54 SWAP9 SWAP8 SWAP7 SWAP6 SWAP5 SWAP4 SWAP3 SWAP2 SWAP1 PUSH2 0x4D2E JUMP JUMPDEST PUSH1 0x40 MLOAD DUP1 SWAP2 SUB SWAP1 RETURN JUMPDEST CALLVALUE DUP1 ISZERO PUSH2 0xA69 JUMPI PUSH1 0x0 DUP1 REVERT JUMPDEST POP PUSH2 0xA84 PUSH1 0x4 DUP1 CALLDATASIZE SUB DUP2 ADD SWAP1 PUSH2 0xA7F SWAP2 SWAP1 PUSH2 0x41AB JUMP JUMPDEST PUSH2 0x381E JUMP JUMPDEST PUSH1 0x40 MLOAD PUSH2 0xA92 SWAP3 SWAP2 SWAP1 PUSH2 0x4C2A JUMP JUMPDEST PUSH1 0x40 MLOAD DUP1 SWAP2 SUB SWAP1 RETURN JUMPDEST CALLVALUE DUP1 ISZERO PUSH2 0xAA7 JUMPI PUSH1 0x0 DUP1 REVERT JUMPDEST POP PUSH2 0xAC2 PUSH1 0x4 DUP1 CALLDATASIZE SUB DUP2 ADD SWAP1 PUSH2 0xABD SWAP2 SWAP1 PUSH2 0x41AB JUMP JUMPDEST PUSH2 0x3952 JUMP JUMPDEST PUSH1 0x40 MLOAD PUSH2 0xAD3 SWAP6 SWAP5 SWAP4 SWAP3 SWAP2 SWAP1 PUSH2 0x4EBA JUMP JUMPDEST PUSH1 0x40 MLOAD DUP1 SWAP2 SUB SWAP1 RETURN JUMPDEST CALLVALUE DUP1 ISZERO PUSH2 0xAE8 JUMPI PUSH1 0x0 DUP1 REVERT JUMPDEST POP PUSH2 0xB03 PUSH1 0x4 DUP1 CALLDATASIZE SUB DUP2 ADD SWAP1 PUSH2 0xAFE SWAP2 SWAP1 PUSH2 0x3FFF JUMP JUMPDEST PUSH2 0x3A98 JUMP JUMPDEST PUSH1 0x40 MLOAD PUSH2 0xB10 SWAP2 SWAP1 PUSH2 0x4C08 JUMP JUMPDEST PUSH1 0x40 MLOAD DUP1 SWAP2 SUB SWAP1 RETURN JUMPDEST CALLVALUE DUP1 ISZERO PUSH2 0xB25 JUMPI PUSH1 0x0 DUP1 REVERT JUMPDEST POP PUSH2 0xB40 PUSH1 0x4 DUP1 CALLDATASIZE SUB DUP2 ADD SWAP1 PUSH2 0xB3B SWAP2 SWAP1 PUSH2 0x46A9 JUMP JUMPDEST PUSH2 0x3B43 JUMP JUMPDEST STOP JUMPDEST PUSH1 0x6 SLOAD DUP2 JUMP JUMPDEST PUSH1 0x3 SLOAD DUP2 JUMP JUMPDEST PUSH1 0x60 PUSH1 0x0 PUSH1 0x60 DUP1 PUSH1 0x60 DUP1 PUSH1 0x0 PUSH1 0x8 PUSH1 0x0 DUP10 DUP2 MSTORE PUSH1 0x20 ADD SWAP1 DUP2 MSTORE PUSH1 0x20 ADD PUSH1 0x0 KECCAK256 PUSH1 0x6 ADD PUSH1 0x8 PUSH1 0x0 DUP11 DUP2 MSTORE PUSH1 0x20 ADD SWAP1 DUP2 MSTORE PUSH1 0x20 ADD PUSH1 0x0 KECCAK256 PUSH1 0x7 ADD SLOAD PUSH1 0x8 PUSH1 0x0 DUP12 DUP2 MSTORE PUSH1 0x20 ADD SWAP1 DUP2 MSTORE PUSH1 0x20 ADD PUSH1 0x0 KECCAK256 PUSH1 0x1 ADD PUSH1 0x8 PUSH1 0x0 DUP13 DUP2 MSTORE PUSH1 0x20 ADD SWAP1 DUP2 MSTORE PUSH1 0x20 ADD PUSH1 0x0 KECCAK256 PUSH1 0x2 ADD PUSH1 0x8 PUSH1 0x0 DUP14 DUP2 MSTORE PUSH1 0x20 ADD SWAP1 DUP2 MSTORE PUSH1 0x20 ADD PUSH1 0x0 KECCAK256 PUSH1 0x5 ADD PUSH1 0x8 PUSH1 0x0 DUP15 DUP2 MSTORE PUSH1 0x20 ADD SWAP1 DUP2 MSTORE PUSH1 0x20 ADD PUSH1 0x0 KECCAK256 PUSH1 0x8 ADD PUSH1 0x8 PUSH1 0x0 DUP16 DUP2 MSTORE PUSH1 0x20 ADD SWAP1 DUP2 MSTORE PUSH1 0x20 ADD PUSH1 0x0 KECCAK256 PUSH1 0x9 ADD SLOAD DUP7 DUP1 SLOAD PUSH2 0xC02 SWAP1 PUSH2 0x5275 JUMP JUMPDEST DUP1 PUSH1 0x1F ADD PUSH1 0x20 DUP1 SWAP2 DIV MUL PUSH1 0x20 ADD PUSH1 0x40 MLOAD SWAP1 DUP2 ADD PUSH1 0x40 MSTORE DUP1 SWAP3 SWAP2 SWAP1 DUP2 DUP2 MSTORE PUSH1 0x20 ADD DUP3 DUP1 SLOAD PUSH2 0xC2E SWAP1 PUSH2 0x5275 JUMP JUMPDEST DUP1 ISZERO PUSH2 0xC7B JUMPI DUP1 PUSH1 0x1F LT PUSH2 0xC50 JUMPI PUSH2 0x100 DUP1 DUP4 SLOAD DIV MUL DUP4 MSTORE SWAP2 PUSH1 0x20 ADD SWAP2 PUSH2 0xC7B JUMP JUMPDEST DUP3 ADD SWAP2 SWAP1 PUSH1 0x0 MSTORE PUSH1 0x20 PUSH1 0x0 KECCAK256 SWAP1 JUMPDEST DUP2 SLOAD DUP2 MSTORE SWAP1 PUSH1 0x1 ADD SWAP1 PUSH1 0x20 ADD DUP1 DUP4 GT PUSH2 0xC5E JUMPI DUP3 SWAP1 SUB PUSH1 0x1F AND DUP3 ADD SWAP2 JUMPDEST POP POP POP POP POP SWAP7 POP DUP5 DUP1 SLOAD PUSH2 0xC8E SWAP1 PUSH2 0x5275 JUMP JUMPDEST DUP1 PUSH1 0x1F ADD PUSH1 0x20 DUP1 SWAP2 DIV MUL PUSH1 0x20 ADD PUSH1 0x40 MLOAD SWAP1 DUP2 ADD PUSH1 0x40 MSTORE DUP1 SWAP3 SWAP2 SWAP1 DUP2 DUP2 MSTORE PUSH1 0x20 ADD DUP3 DUP1 SLOAD PUSH2 0xCBA SWAP1 PUSH2 0x5275 JUMP JUMPDEST DUP1 ISZERO PUSH2 0xD07 JUMPI DUP1 PUSH1 0x1F LT PUSH2 0xCDC JUMPI PUSH2 0x100 DUP1 DUP4 SLOAD DIV MUL DUP4 MSTORE SWAP2 PUSH1 0x20 ADD SWAP2 PUSH2 0xD07 JUMP JUMPDEST DUP3 ADD SWAP2 SWAP1 PUSH1 0x0 MSTORE PUSH1 0x20 PUSH1 0x0 KECCAK256 SWAP1 JUMPDEST DUP2 SLOAD DUP2 MSTORE SWAP1 PUSH1 0x1 ADD SWAP1 PUSH1 0x20 ADD DUP1 DUP4 GT PUSH2 0xCEA JUMPI DUP3 SWAP1 SUB PUSH1 0x1F AND DUP3 ADD SWAP2 JUMPDEST POP POP POP POP POP SWAP5 POP DUP4 DUP1 SLOAD PUSH2 0xD1A SWAP1 PUSH2 0x5275 JUMP JUMPDEST DUP1 PUSH1 0x1F ADD PUSH1 0x20 DUP1 SWAP2 DIV MUL PUSH1 0x20 ADD PUSH1 0x40 MLOAD SWAP1 DUP2 ADD PUSH1 0x40 MSTORE DUP1 SWAP3 SWAP2 SWAP1 DUP2 DUP2 MSTORE PUSH1 0x20 ADD DUP3 DUP1 SLOAD PUSH2 0xD46 SWAP1 PUSH2 0x5275 JUMP JUMPDEST DUP1 ISZERO PUSH2 0xD93 JUMPI DUP1 PUSH1 0x1F LT PUSH2 0xD68 JUMPI PUSH2 0x100 DUP1 DUP4 SLOAD DIV MUL DUP4 MSTORE SWAP2 PUSH1 0x20 ADD SWAP2 PUSH2 0xD93 JUMP JUMPDEST DUP3 ADD SWAP2 SWAP1 PUSH1 0x0 MSTORE PUSH1 0x20 PUSH1 0x0 KECCAK256 SWAP1 JUMPDEST DUP2 SLOAD DUP2 MSTORE SWAP1 PUSH1 0x1 ADD SWAP1 PUSH1 0x20 ADD DUP1 DUP4 GT PUSH2 0xD76 JUMPI DUP3 SWAP1 SUB PUSH1 0x1F AND DUP3 ADD SWAP2 JUMPDEST POP POP POP POP POP SWAP4 POP DUP3 DUP1 SLOAD PUSH2 0xDA6 SWAP1 PUSH2 0x5275 JUMP JUMPDEST DUP1 PUSH1 0x1F ADD PUSH1 0x20 DUP1 SWAP2 DIV MUL PUSH1 0x20 ADD PUSH1 0x40 MLOAD SWAP1 DUP2 ADD PUSH1 0x40 MSTORE DUP1 SWAP3 SWAP2 SWAP1 DUP2 DUP2 MSTORE PUSH1 0x20 ADD DUP3 DUP1 SLOAD PUSH2 0xDD2 SWAP1 PUSH2 0x5275 JUMP JUMPDEST DUP1 ISZERO PUSH2 0xE1F JUMPI DUP1 PUSH1 0x1F LT PUSH2 0xDF4 JUMPI PUSH2 0x100 DUP1 DUP4 SLOAD DIV MUL DUP4 MSTORE SWAP2 PUSH1 0x20 ADD SWAP2 PUSH2 0xE1F JUMP JUMPDEST DUP3 ADD SWAP2 SWAP1 PUSH1 0x0 MSTORE PUSH1 0x20 PUSH1 0x0 KECCAK256 SWAP1 JUMPDEST DUP2 SLOAD DUP2 MSTORE SWAP1 PUSH1 0x1 ADD SWAP1 PUSH1 0x20 ADD DUP1 DUP4 GT PUSH2 0xE02 JUMPI DUP3 SWAP1 SUB PUSH1 0x1F AND DUP3 ADD SWAP2 JUMPDEST POP POP POP POP POP SWAP3 POP DUP2 DUP1 SLOAD PUSH2 0xE32 SWAP1 PUSH2 0x5275 JUMP JUMPDEST DUP1 PUSH1 0x1F ADD PUSH1 0x20 DUP1 SWAP2 DIV MUL PUSH1 0x20 ADD PUSH1 0x40 MLOAD SWAP1 DUP2 ADD PUSH1 0x40 MSTORE DUP1 SWAP3 SWAP2 SWAP1 DUP2 DUP2 MSTORE PUSH1 0x20 ADD DUP3 DUP1 SLOAD PUSH2 0xE5E SWAP1 PUSH2 0x5275 JUMP JUMPDEST DUP1 ISZERO PUSH2 0xEAB JUMPI DUP1 PUSH1 0x1F LT PUSH2 0xE80 JUMPI PUSH2 0x100 DUP1 DUP4 SLOAD DIV MUL DUP4 MSTORE SWAP2 PUSH1 0x20 ADD SWAP2 PUSH2 0xEAB JUMP JUMPDEST DUP3 ADD SWAP2 SWAP1 PUSH1 0x0 MSTORE PUSH1 0x20 PUSH1 0x0 KECCAK256 SWAP1 JUMPDEST DUP2 SLOAD DUP2 MSTORE SWAP1 PUSH1 0x1 ADD SWAP1 PUSH1 0x20 ADD DUP1 DUP4 GT PUSH2 0xE8E JUMPI DUP3 SWAP1 SUB PUSH1 0x1F AND DUP3 ADD SWAP2 JUMPDEST POP POP POP POP POP SWAP2 POP SWAP7 POP SWAP7 POP SWAP7 POP SWAP7 POP SWAP7 POP SWAP7 POP SWAP7 POP SWAP2 SWAP4 SWAP6 SWAP8 SWAP1 SWAP3 SWAP5 SWAP7 POP JUMP JUMPDEST PUSH1 0x9 PUSH1 0x0 DUP3 DUP2 MSTORE PUSH1 0x20 ADD SWAP1 DUP2 MSTORE PUSH1 0x20 ADD PUSH1 0x0 KECCAK256 PUSH1 0x0 DUP1 DUP3 ADD PUSH1 0x0 SWAP1 SSTORE PUSH1 0x1 DUP3 ADD PUSH1 0x0 SWAP1 SSTORE PUSH1 0x2 DUP3 ADD PUSH1 0x0 PUSH2 0xEFF SWAP2 SWAP1 PUSH2 0x3E82 JUMP JUMPDEST PUSH1 0x3 DUP3 ADD PUSH1 0x0 PUSH2 0xF0F SWAP2 SWAP1 PUSH2 0x3E82 JUMP JUMPDEST PUSH1 0x4 DUP3 ADD PUSH1 0x0 PUSH2 0xF1F SWAP2 SWAP1 PUSH2 0x3E82 JUMP JUMPDEST PUSH1 0x5 DUP3 ADD PUSH1 0x0 PUSH2 0xF2F SWAP2 SWAP1 PUSH2 0x3E82 JUMP JUMPDEST PUSH1 0x6 DUP3 ADD PUSH1 0x0 SWAP1 SSTORE PUSH1 0x7 DUP3 ADD PUSH1 0x0 SWAP1 SSTORE PUSH1 0x8 DUP3 ADD PUSH1 0x0 SWAP1 SSTORE PUSH1 0x9 DUP3 ADD PUSH1 0x0 PUSH2 0xF57 SWAP2 SWAP1 PUSH2 0x3E82 JUMP JUMPDEST PUSH1 0xA DUP3 ADD PUSH1 0x0 SWAP1 SSTORE PUSH1 0xB DUP3 ADD PUSH1 0x0 SWAP1 SSTORE POP POP PUSH1 0xA PUSH1 0x0 DUP3 DUP2 MSTORE PUSH1 0x20 ADD SWAP1 DUP2 MSTORE PUSH1 0x20 ADD PUSH1 0x0 KECCAK256 PUSH1 0x0 PUSH2 0xF88 SWAP2 SWAP1 PUSH2 0x3E82 JUMP JUMPDEST PUSH1 0x0 JUMPDEST PUSH1 0x3 SLOAD DUP2 LT ISZERO PUSH2 0xFD0 JUMPI DUP2 PUSH1 0xB PUSH1 0x0 DUP4 DUP2 MSTORE PUSH1 0x20 ADD SWAP1 DUP2 MSTORE PUSH1 0x20 ADD PUSH1 0x0 KECCAK256 PUSH1 0x1 ADD SLOAD EQ ISZERO PUSH2 0xFBD JUMPI PUSH2 0xFBC DUP2 PUSH2 0x1942 JUMP JUMPDEST JUMPDEST DUP1 DUP1 PUSH2 0xFC8 SWAP1 PUSH2 0x52D8 JUMP JUMPDEST SWAP2 POP POP PUSH2 0xF8B JUMP JUMPDEST POP PUSH1 0x0 JUMPDEST PUSH1 0x5 SLOAD DUP2 LT ISZERO PUSH2 0x105E JUMPI DUP2 PUSH1 0xF PUSH1 0x0 DUP4 DUP2 MSTORE PUSH1 0x20 ADD SWAP1 DUP2 MSTORE PUSH1 0x20 ADD PUSH1 0x0 KECCAK256 PUSH1 0x1 ADD SLOAD EQ ISZERO PUSH2 0x104B JUMPI PUSH1 0xF PUSH1 0x0 DUP3 DUP2 MSTORE PUSH1 0x20 ADD SWAP1 DUP2 MSTORE PUSH1 0x20 ADD PUSH1 0x0 KECCAK256 PUSH1 0x0 DUP1 DUP3 ADD PUSH1 0x0 SWAP1 SSTORE PUSH1 0x1 DUP3 ADD PUSH1 0x0 SWAP1 SSTORE PUSH1 0x2 DUP3 ADD PUSH1 0x0 SWAP1 SSTORE PUSH1 0x3 DUP3 ADD PUSH1 0x0 PUSH2 0x1038 SWAP2 SWAP1 PUSH2 0x3E82 JUMP JUMPDEST PUSH1 0x4 DUP3 ADD PUSH1 0x0 PUSH2 0x1048 SWAP2 SWAP1 PUSH2 0x3E82 JUMP JUMPDEST POP POP JUMPDEST DUP1 DUP1 PUSH2 0x1056 SWAP1 PUSH2 0x52D8 JUMP JUMPDEST SWAP2 POP POP PUSH2 0xFD4 JUMP JUMPDEST POP POP JUMP JUMPDEST PUSH1 0x4 SLOAD DUP2 JUMP JUMPDEST PUSH1 0xA PUSH1 0x20 MSTORE DUP1 PUSH1 0x0 MSTORE PUSH1 0x40 PUSH1 0x0 KECCAK256 PUSH1 0x0 SWAP2 POP SWAP1 POP DUP1 SLOAD PUSH2 0x1087 SWAP1 PUSH2 0x5275 JUMP JUMPDEST DUP1 PUSH1 0x1F ADD PUSH1 0x20 DUP1 SWAP2 DIV MUL PUSH1 0x20 ADD PUSH1 0x40 MLOAD SWAP1 DUP2 ADD PUSH1 0x40 MSTORE DUP1 SWAP3 SWAP2 SWAP1 DUP2 DUP2 MSTORE PUSH1 0x20 ADD DUP3 DUP1 SLOAD PUSH2 0x10B3 SWAP1 PUSH2 0x5275 JUMP JUMPDEST DUP1 ISZERO PUSH2 0x1100 JUMPI DUP1 PUSH1 0x1F LT PUSH2 0x10D5 JUMPI PUSH2 0x100 DUP1 DUP4 SLOAD DIV MUL DUP4 MSTORE SWAP2 PUSH1 0x20 ADD SWAP2 PUSH2 0x1100 JUMP JUMPDEST DUP3 ADD SWAP2 SWAP1 PUSH1 0x0 MSTORE PUSH1 0x20 PUSH1 0x0 KECCAK256 SWAP1 JUMPDEST DUP2 SLOAD DUP2 MSTORE SWAP1 PUSH1 0x1 ADD SWAP1 PUSH1 0x20 ADD DUP1 DUP4 GT PUSH2 0x10E3 JUMPI DUP3 SWAP1 SUB PUSH1 0x1F AND DUP3 ADD SWAP2 JUMPDEST POP POP POP POP POP DUP2 JUMP JUMPDEST PUSH1 0x40 MLOAD DUP1 PUSH2 0x120 ADD PUSH1 0x40 MSTORE DUP1 PUSH1 0x3 SLOAD DUP2 MSTORE PUSH1 0x20 ADD DUP9 DUP2 MSTORE PUSH1 0x20 ADD DUP8 DUP2 MSTORE PUSH1 0x20 ADD DUP7 DUP2 MSTORE PUSH1 0x20 ADD DUP6 DUP2 MSTORE PUSH1 0x20 ADD DUP5 DUP2 MSTORE PUSH1 0x20 ADD DUP4 DUP2 MSTORE PUSH1 0x20 ADD DUP3 DUP2 MSTORE PUSH1 0x20 ADD PUSH1 0x0 DUP2 MSTORE POP PUSH1 0xB PUSH1 0x0 PUSH1 0x3 SLOAD DUP2 MSTORE PUSH1 0x20 ADD SWAP1 DUP2 MSTORE PUSH1 0x20 ADD PUSH1 0x0 KECCAK256 PUSH1 0x0 DUP3 ADD MLOAD DUP2 PUSH1 0x0 ADD SSTORE PUSH1 0x20 DUP3 ADD MLOAD DUP2 PUSH1 0x1 ADD SSTORE PUSH1 0x40 DUP3 ADD MLOAD DUP2 PUSH1 0x2 ADD SSTORE PUSH1 0x60 DUP3 ADD MLOAD DUP2 PUSH1 0x3 ADD SWAP1 DUP1 MLOAD SWAP1 PUSH1 0x20 ADD SWAP1 PUSH2 0x119A SWAP3 SWAP2 SWAP1 PUSH2 0x3EC2 JUMP JUMPDEST POP PUSH1 0x80 DUP3 ADD MLOAD DUP2 PUSH1 0x4 ADD SWAP1 DUP1 MLOAD SWAP1 PUSH1 0x20 ADD SWAP1 PUSH2 0x11B7 SWAP3 SWAP2 SWAP1 PUSH2 0x3EC2 JUMP JUMPDEST POP PUSH1 0xA0 DUP3 ADD MLOAD DUP2 PUSH1 0x5 ADD SWAP1 DUP1 MLOAD SWAP1 PUSH1 0x20 ADD SWAP1 PUSH2 0x11D4 SWAP3 SWAP2 SWAP1 PUSH2 0x3EC2 JUMP JUMPDEST POP PUSH1 0xC0 DUP3 ADD MLOAD DUP2 PUSH1 0x6 ADD SWAP1 DUP1 MLOAD SWAP1 PUSH1 0x20 ADD SWAP1 PUSH2 0x11F1 SWAP3 SWAP2 SWAP1 PUSH2 0x3EC2 JUMP JUMPDEST POP PUSH1 0xE0 DUP3 ADD MLOAD DUP2 PUSH1 0x7 ADD SSTORE PUSH2 0x100 DUP3 ADD MLOAD DUP2 PUSH1 0x8 ADD SSTORE SWAP1 POP POP PUSH1 0x3 PUSH1 0x0 DUP2 SLOAD DUP1 SWAP3 SWAP2 SWAP1 PUSH2 0x121D SWAP1 PUSH2 0x52D8 JUMP JUMPDEST SWAP2 SWAP1 POP SSTORE POP POP POP POP POP POP POP POP JUMP JUMPDEST DUP3 PUSH1 0x9 PUSH1 0x0 DUP7 DUP2 MSTORE PUSH1 0x20 ADD SWAP1 DUP2 MSTORE PUSH1 0x20 ADD PUSH1 0x0 KECCAK256 PUSH1 0x9 ADD SWAP1 DUP1 MLOAD SWAP1 PUSH1 0x20 ADD SWAP1 PUSH2 0x1255 SWAP3 SWAP2 SWAP1 PUSH2 0x3EC2 JUMP JUMPDEST POP DUP2 PUSH1 0x9 PUSH1 0x0 DUP7 DUP2 MSTORE PUSH1 0x20 ADD SWAP1 DUP2 MSTORE PUSH1 0x20 ADD PUSH1 0x0 KECCAK256 PUSH1 0xA ADD DUP2 SWAP1 SSTORE POP DUP1 PUSH1 0x9 PUSH1 0x0 DUP7 DUP2 MSTORE PUSH1 0x20 ADD SWAP1 DUP2 MSTORE PUSH1 0x20 ADD PUSH1 0x0 KECCAK256 PUSH1 0xB ADD DUP2 SWAP1 SSTORE POP POP POP POP POP JUMP JUMPDEST PUSH1 0x60 PUSH1 0x0 DUP1 JUMPDEST PUSH1 0x7 SLOAD DUP2 LT ISZERO PUSH2 0x12E2 JUMPI DUP4 PUSH1 0x11 PUSH1 0x0 DUP4 DUP2 MSTORE PUSH1 0x20 ADD SWAP1 DUP2 MSTORE PUSH1 0x20 ADD PUSH1 0x0 KECCAK256 PUSH1 0x2 ADD SLOAD EQ ISZERO PUSH2 0x12CF JUMPI DUP2 DUP1 PUSH2 0x12CB SWAP1 PUSH2 0x52D8 JUMP JUMPDEST SWAP3 POP POP JUMPDEST DUP1 DUP1 PUSH2 0x12DA SWAP1 PUSH2 0x52D8 JUMP JUMPDEST SWAP2 POP POP PUSH2 0x1298 JUMP JUMPDEST POP PUSH1 0x0 DUP2 PUSH8 0xFFFFFFFFFFFFFFFF DUP2 GT ISZERO PUSH2 0x12FF JUMPI PUSH2 0x12FE PUSH2 0x53DD JUMP JUMPDEST JUMPDEST PUSH1 0x40 MLOAD SWAP1 DUP1 DUP3 MSTORE DUP1 PUSH1 0x20 MUL PUSH1 0x20 ADD DUP3 ADD PUSH1 0x40 MSTORE DUP1 ISZERO PUSH2 0x132D JUMPI DUP2 PUSH1 0x20 ADD PUSH1 0x20 DUP3 MUL DUP1 CALLDATASIZE DUP4 CALLDATACOPY DUP1 DUP3 ADD SWAP2 POP POP SWAP1 POP JUMPDEST POP SWAP1 POP PUSH1 0x0 DUP1 JUMPDEST PUSH1 0x7 SLOAD DUP2 LT ISZERO PUSH2 0x139E JUMPI DUP6 PUSH1 0x11 PUSH1 0x0 DUP4 DUP2 MSTORE PUSH1 0x20 ADD SWAP1 DUP2 MSTORE PUSH1 0x20 ADD PUSH1 0x0 KECCAK256 PUSH1 0x2 ADD SLOAD EQ ISZERO PUSH2 0x138B JUMPI DUP1 DUP4 DUP4 DUP2 MLOAD DUP2 LT PUSH2 0x1370 JUMPI PUSH2 0x136F PUSH2 0x53AE JUMP JUMPDEST JUMPDEST PUSH1 0x20 MUL PUSH1 0x20 ADD ADD DUP2 DUP2 MSTORE POP POP DUP2 DUP1 PUSH2 0x1387 SWAP1 PUSH2 0x52D8 JUMP JUMPDEST SWAP3 POP POP JUMPDEST DUP1 DUP1 PUSH2 0x1396 SWAP1 PUSH2 0x52D8 JUMP JUMPDEST SWAP2 POP POP PUSH2 0x1334 JUMP JUMPDEST POP DUP2 SWAP4 POP POP POP POP SWAP2 SWAP1 POP JUMP JUMPDEST PUSH1 0x40 MLOAD DUP1 PUSH1 0x40 ADD PUSH1 0x40 MSTORE DUP1 DUP4 DUP2 MSTORE PUSH1 0x20 ADD DUP3 DUP2 MSTORE POP PUSH1 0xC PUSH1 0x0 PUSH1 0x4 SLOAD DUP2 MSTORE PUSH1 0x20 ADD SWAP1 DUP2 MSTORE PUSH1 0x20 ADD PUSH1 0x0 KECCAK256 PUSH1 0x0 DUP3 ADD MLOAD DUP2 PUSH1 0x0 ADD SWAP1 DUP1 MLOAD SWAP1 PUSH1 0x20 ADD SWAP1 PUSH2 0x13F0 SWAP3 SWAP2 SWAP1 PUSH2 0x3EC2 JUMP JUMPDEST POP PUSH1 0x20 DUP3 ADD MLOAD DUP2 PUSH1 0x1 ADD SWAP1 DUP1 MLOAD SWAP1 PUSH1 0x20 ADD SWAP1 PUSH2 0x140D SWAP3 SWAP2 SWAP1 PUSH2 0x3EC2 JUMP JUMPDEST POP SWAP1 POP POP PUSH1 0x4 PUSH1 0x0 DUP2 SLOAD DUP1 SWAP3 SWAP2 SWAP1 PUSH2 0x1424 SWAP1 PUSH2 0x52D8 JUMP JUMPDEST SWAP2 SWAP1 POP SSTORE POP POP POP JUMP JUMPDEST DUP4 PUSH1 0x9 PUSH1 0x0 DUP8 DUP2 MSTORE PUSH1 0x20 ADD SWAP1 DUP2 MSTORE PUSH1 0x20 ADD PUSH1 0x0 KECCAK256 PUSH1 0x2 ADD SWAP1 DUP1 MLOAD SWAP1 PUSH1 0x20 ADD SWAP1 PUSH2 0x1457 SWAP3 SWAP2 SWAP1 PUSH2 0x3EC2 JUMP JUMPDEST POP DUP3 PUSH1 0x9 PUSH1 0x0 DUP8 DUP2 MSTORE PUSH1 0x20 ADD SWAP1 DUP2 MSTORE PUSH1 0x20 ADD PUSH1 0x0 KECCAK256 PUSH1 0x3 ADD SWAP1 DUP1 MLOAD SWAP1 PUSH1 0x20 ADD SWAP1 PUSH2 0x1482 SWAP3 SWAP2 SWAP1 PUSH2 0x3EC2 JUMP JUMPDEST POP DUP2 PUSH1 0x9 PUSH1 0x0 DUP8 DUP2 MSTORE PUSH1 0x20 ADD SWAP1 DUP2 MSTORE PUSH1 0x20 ADD PUSH1 0x0 KECCAK256 PUSH1 0x4 ADD SWAP1 DUP1 MLOAD SWAP1 PUSH1 0x20 ADD SWAP1 PUSH2 0x14AD SWAP3 SWAP2 SWAP1 PUSH2 0x3EC2 JUMP JUMPDEST POP DUP1 PUSH1 0x9 PUSH1 0x0 DUP8 DUP2 MSTORE PUSH1 0x20 ADD SWAP1 DUP2 MSTORE PUSH1 0x20 ADD PUSH1 0x0 KECCAK256 PUSH1 0x8 ADD DUP2 SWAP1 SSTORE POP POP POP POP POP POP JUMP JUMPDEST DUP4 PUSH1 0xB PUSH1 0x0 DUP8 DUP2 MSTORE PUSH1 0x20 ADD SWAP1 DUP2 MSTORE PUSH1 0x20 ADD PUSH1 0x0 KECCAK256 PUSH1 0x3 ADD SWAP1 DUP1 MLOAD SWAP1 PUSH1 0x20 ADD SWAP1 PUSH2 0x14FA SWAP3 SWAP2 SWAP1 PUSH2 0x3EC2 JUMP JUMPDEST POP DUP3 PUSH1 0xB PUSH1 0x0 DUP8 DUP2 MSTORE PUSH1 0x20 ADD SWAP1 DUP2 MSTORE PUSH1 0x20 ADD PUSH1 0x0 KECCAK256 PUSH1 0x4 ADD SWAP1 DUP1 MLOAD SWAP1 PUSH1 0x20 ADD SWAP1 PUSH2 0x1525 SWAP3 SWAP2 SWAP1 PUSH2 0x3EC2 JUMP JUMPDEST POP DUP2 PUSH1 0xB PUSH1 0x0 DUP8 DUP2 MSTORE PUSH1 0x20 ADD SWAP1 DUP2 MSTORE PUSH1 0x20 ADD PUSH1 0x0 KECCAK256 PUSH1 0x6 ADD SWAP1 DUP1 MLOAD SWAP1 PUSH1 0x20 ADD SWAP1 PUSH2 0x1550 SWAP3 SWAP2 SWAP1 PUSH2 0x3EC2 JUMP JUMPDEST POP DUP1 PUSH1 0xB PUSH1 0x0 DUP8 DUP2 MSTORE PUSH1 0x20 ADD SWAP1 DUP2 MSTORE PUSH1 0x20 ADD PUSH1 0x0 KECCAK256 PUSH1 0x7 ADD DUP2 SWAP1 SSTORE POP POP POP POP POP POP JUMP JUMPDEST DUP1 PUSH1 0xD PUSH1 0x0 DUP5 DUP2 MSTORE PUSH1 0x20 ADD SWAP1 DUP2 MSTORE PUSH1 0x20 ADD PUSH1 0x0 KECCAK256 SWAP1 DUP1 MLOAD SWAP1 PUSH1 0x20 ADD SWAP1 PUSH2 0x159A SWAP3 SWAP2 SWAP1 PUSH2 0x3EC2 JUMP JUMPDEST POP POP POP JUMP JUMPDEST PUSH1 0x60 PUSH1 0x0 DUP1 JUMPDEST PUSH1 0x3 SLOAD DUP2 LT ISZERO PUSH2 0x15EF JUMPI DUP4 PUSH1 0xB PUSH1 0x0 DUP4 DUP2 MSTORE PUSH1 0x20 ADD SWAP1 DUP2 MSTORE PUSH1 0x20 ADD PUSH1 0x0 KECCAK256 PUSH1 0x1 ADD SLOAD EQ ISZERO PUSH2 0x15DC JUMPI DUP2 DUP1 PUSH2 0x15D8 SWAP1 PUSH2 0x52D8 JUMP JUMPDEST SWAP3 POP POP JUMPDEST DUP1 DUP1 PUSH2 0x15E7 SWAP1 PUSH2 0x52D8 JUMP JUMPDEST SWAP2 POP POP PUSH2 0x15A5 JUMP JUMPDEST POP PUSH1 0x0 DUP2 PUSH8 0xFFFFFFFFFFFFFFFF DUP2 GT ISZERO PUSH2 0x160C JUMPI PUSH2 0x160B PUSH2 0x53DD JUMP JUMPDEST JUMPDEST PUSH1 0x40 MLOAD SWAP1 DUP1 DUP3 MSTORE DUP1 PUSH1 0x20 MUL PUSH1 0x20 ADD DUP3 ADD PUSH1 0x40 MSTORE DUP1 ISZERO PUSH2 0x163A JUMPI DUP2 PUSH1 0x20 ADD PUSH1 0x20 DUP3 MUL DUP1 CALLDATASIZE DUP4 CALLDATACOPY DUP1 DUP3 ADD SWAP2 POP POP SWAP1 POP JUMPDEST POP SWAP1 POP PUSH1 0x0 DUP1 JUMPDEST PUSH1 0x3 SLOAD DUP2 LT ISZERO PUSH2 0x16AB JUMPI DUP6 PUSH1 0xB PUSH1 0x0 DUP4 DUP2 MSTORE PUSH1 0x20 ADD SWAP1 DUP2 MSTORE PUSH1 0x20 ADD PUSH1 0x0 KECCAK256 PUSH1 0x1 ADD SLOAD EQ ISZERO PUSH2 0x1698 JUMPI DUP1 DUP4 DUP4 DUP2 MLOAD DUP2 LT PUSH2 0x167D JUMPI PUSH2 0x167C PUSH2 0x53AE JUMP JUMPDEST JUMPDEST PUSH1 0x20 MUL PUSH1 0x20 ADD ADD DUP2 DUP2 MSTORE POP POP DUP2 DUP1 PUSH2 0x1694 SWAP1 PUSH2 0x52D8 JUMP JUMPDEST SWAP3 POP POP JUMPDEST DUP1 DUP1 PUSH2 0x16A3 SWAP1 PUSH2 0x52D8 JUMP JUMPDEST SWAP2 POP POP PUSH2 0x1641 JUMP JUMPDEST POP DUP2 SWAP4 POP POP POP POP SWAP2 SWAP1 POP JUMP JUMPDEST PUSH1 0x40 MLOAD DUP1 PUSH1 0xE0 ADD PUSH1 0x40 MSTORE DUP1 PUSH1 0x6 SLOAD DUP2 MSTORE PUSH1 0x20 ADD DUP8 DUP2 MSTORE PUSH1 0x20 ADD DUP7 DUP2 MSTORE PUSH1 0x20 ADD DUP6 DUP2 MSTORE PUSH1 0x20 ADD DUP5 DUP2 MSTORE PUSH1 0x20 ADD DUP4 DUP2 MSTORE PUSH1 0x20 ADD DUP3 DUP2 MSTORE POP PUSH1 0x10 PUSH1 0x0 PUSH1 0x6 SLOAD DUP2 MSTORE PUSH1 0x20 ADD SWAP1 DUP2 MSTORE PUSH1 0x20 ADD PUSH1 0x0 KECCAK256 PUSH1 0x0 DUP3 ADD MLOAD DUP2 PUSH1 0x0 ADD SSTORE PUSH1 0x20 DUP3 ADD MLOAD DUP2 PUSH1 0x1 ADD SSTORE PUSH1 0x40 DUP3 ADD MLOAD DUP2 PUSH1 0x2 ADD SSTORE PUSH1 0x60 DUP3 ADD MLOAD DUP2 PUSH1 0x3 ADD SSTORE PUSH1 0x80 DUP3 ADD MLOAD DUP2 PUSH1 0x4 ADD SWAP1 DUP1 MLOAD SWAP1 PUSH1 0x20 ADD SWAP1 PUSH2 0x1745 SWAP3 SWAP2 SWAP1 PUSH2 0x3EC2 JUMP JUMPDEST POP PUSH1 0xA0 DUP3 ADD MLOAD DUP2 PUSH1 0x5 ADD SWAP1 DUP1 MLOAD SWAP1 PUSH1 0x20 ADD SWAP1 PUSH2 0x1762 SWAP3 SWAP2 SWAP1 PUSH2 0x3EC2 JUMP JUMPDEST POP PUSH1 0xC0 DUP3 ADD MLOAD DUP2 PUSH1 0x6 ADD SWAP1 DUP1 MLOAD SWAP1 PUSH1 0x20 ADD SWAP1 PUSH2 0x177F SWAP3 SWAP2 SWAP1 PUSH2 0x3EC2 JUMP JUMPDEST POP SWAP1 POP POP PUSH1 0x6 PUSH1 0x0 DUP2 SLOAD DUP1 SWAP3 SWAP2 SWAP1 PUSH2 0x1796 SWAP1 PUSH2 0x52D8 JUMP JUMPDEST SWAP2 SWAP1 POP SSTORE POP POP POP POP POP POP POP JUMP JUMPDEST PUSH1 0x40 MLOAD DUP1 PUSH2 0x180 ADD PUSH1 0x40 MSTORE DUP1 PUSH1 0x2 SLOAD DUP2 MSTORE PUSH1 0x20 ADD DUP10 DUP2 MSTORE PUSH1 0x20 ADD DUP9 DUP2 MSTORE PUSH1 0x20 ADD DUP8 DUP2 MSTORE PUSH1 0x20 ADD DUP7 DUP2 MSTORE PUSH1 0x20 ADD DUP6 DUP2 MSTORE PUSH1 0x20 ADD DUP5 DUP2 MSTORE PUSH1 0x20 ADD DUP4 DUP2 MSTORE PUSH1 0x20 ADD DUP3 DUP2 MSTORE PUSH1 0x20 ADD PUSH1 0x40 MLOAD DUP1 PUSH1 0x40 ADD PUSH1 0x40 MSTORE DUP1 PUSH1 0x6 DUP2 MSTORE PUSH1 0x20 ADD PUSH32 0x7445564D4F530000000000000000000000000000000000000000000000000000 DUP2 MSTORE POP DUP2 MSTORE PUSH1 0x20 ADD PUSH1 0x0 DUP2 MSTORE PUSH1 0x20 ADD DUP3 DUP2 MSTORE POP PUSH1 0x9 PUSH1 0x0 PUSH1 0x2 SLOAD DUP2 MSTORE PUSH1 0x20 ADD SWAP1 DUP2 MSTORE PUSH1 0x20 ADD PUSH1 0x0 KECCAK256 PUSH1 0x0 DUP3 ADD MLOAD DUP2 PUSH1 0x0 ADD SSTORE PUSH1 0x20 DUP3 ADD MLOAD DUP2 PUSH1 0x1 ADD SSTORE PUSH1 0x40 DUP3 ADD MLOAD DUP2 PUSH1 0x2 ADD SWAP1 DUP1 MLOAD SWAP1 PUSH1 0x20 ADD SWAP1 PUSH2 0x1872 SWAP3 SWAP2 SWAP1 PUSH2 0x3EC2 JUMP JUMPDEST POP PUSH1 0x60 DUP3 ADD MLOAD DUP2 PUSH1 0x3 ADD SWAP1 DUP1 MLOAD SWAP1 PUSH1 0x20 ADD SWAP1 PUSH2 0x188F SWAP3 SWAP2 SWAP1 PUSH2 0x3EC2 JUMP JUMPDEST POP PUSH1 0x80 DUP3 ADD MLOAD DUP2 PUSH1 0x4 ADD SWAP1 DUP1 MLOAD SWAP1 PUSH1 0x20 ADD SWAP1 PUSH2 0x18AC SWAP3 SWAP2 SWAP1 PUSH2 0x3EC2 JUMP JUMPDEST POP PUSH1 0xA0 DUP3 ADD MLOAD DUP2 PUSH1 0x5 ADD SWAP1 DUP1 MLOAD SWAP1 PUSH1 0x20 ADD SWAP1 PUSH2 0x18C9 SWAP3 SWAP2 SWAP1 PUSH2 0x3EC2 JUMP JUMPDEST POP PUSH1 0xC0 DUP3 ADD MLOAD DUP2 PUSH1 0x6 ADD SSTORE PUSH1 0xE0 DUP3 ADD MLOAD DUP2 PUSH1 0x7 ADD SSTORE PUSH2 0x100 DUP3 ADD MLOAD DUP2 PUSH1 0x8 ADD SSTORE PUSH2 0x120 DUP3 ADD MLOAD DUP2 PUSH1 0x9 ADD SWAP1 DUP1 MLOAD SWAP1 PUSH1 0x20 ADD SWAP1 PUSH2 0x1906 SWAP3 SWAP2 SWAP1 PUSH2 0x3EC2 JUMP JUMPDEST POP PUSH2 0x140 DUP3 ADD MLOAD DUP2 PUSH1 0xA ADD SSTORE PUSH2 0x160 DUP3 ADD MLOAD DUP2 PUSH1 0xB ADD SSTORE SWAP1 POP POP PUSH1 0x2 PUSH1 0x0 DUP2 SLOAD DUP1 SWAP3 SWAP2 SWAP1 PUSH2 0x1933 SWAP1 PUSH2 0x52D8 JUMP JUMPDEST SWAP2 SWAP1 POP SSTORE POP POP POP POP POP POP POP POP POP JUMP JUMPDEST PUSH1 0xB PUSH1 0x0 DUP3 DUP2 MSTORE PUSH1 0x20 ADD SWAP1 DUP2 MSTORE PUSH1 0x20 ADD PUSH1 0x0 KECCAK256 PUSH1 0x0 DUP1 DUP3 ADD PUSH1 0x0 SWAP1 SSTORE PUSH1 0x1 DUP3 ADD PUSH1 0x0 SWAP1 SSTORE PUSH1 0x2 DUP3 ADD PUSH1 0x0 SWAP1 SSTORE PUSH1 0x3 DUP3 ADD PUSH1 0x0 PUSH2 0x197E SWAP2 SWAP1 PUSH2 0x3E82 JUMP JUMPDEST PUSH1 0x4 DUP3 ADD PUSH1 0x0 PUSH2 0x198E SWAP2 SWAP1 PUSH2 0x3E82 JUMP JUMPDEST PUSH1 0x5 DUP3 ADD PUSH1 0x0 PUSH2 0x199E SWAP2 SWAP1 PUSH2 0x3E82 JUMP JUMPDEST PUSH1 0x6 DUP3 ADD PUSH1 0x0 PUSH2 0x19AE SWAP2 SWAP1 PUSH2 0x3E82 JUMP JUMPDEST PUSH1 0x7 DUP3 ADD PUSH1 0x0 SWAP1 SSTORE PUSH1 0x8 DUP3 ADD PUSH1 0x0 SWAP1 SSTORE POP POP PUSH1 0xD PUSH1 0x0 DUP3 DUP2 MSTORE PUSH1 0x20 ADD SWAP1 DUP2 MSTORE PUSH1 0x20 ADD PUSH1 0x0 KECCAK256 PUSH1 0x0 PUSH2 0x19DF SWAP2 SWAP1 PUSH2 0x3E82 JUMP JUMPDEST PUSH1 0x0 JUMPDEST PUSH1 0x6 SLOAD DUP2 LT ISZERO PUSH2 0x1A84 JUMPI DUP2 PUSH1 0x10 PUSH1 0x0 DUP4 DUP2 MSTORE PUSH1 0x20 ADD SWAP1 DUP2 MSTORE PUSH1 0x20 ADD PUSH1 0x0 KECCAK256 PUSH1 0x3 ADD SLOAD EQ ISZERO PUSH2 0x1A71 JUMPI PUSH1 0x10 PUSH1 0x0 DUP3 DUP2 MSTORE PUSH1 0x20 ADD SWAP1 DUP2 MSTORE PUSH1 0x20 ADD PUSH1 0x0 KECCAK256 PUSH1 0x0 DUP1 DUP3 ADD PUSH1 0x0 SWAP1 SSTORE PUSH1 0x1 DUP3 ADD PUSH1 0x0 SWAP1 SSTORE PUSH1 0x2 DUP3 ADD PUSH1 0x0 SWAP1 SSTORE PUSH1 0x3 DUP3 ADD PUSH1 0x0 SWAP1 SSTORE PUSH1 0x4 DUP3 ADD PUSH1 0x0 PUSH2 0x1A4E SWAP2 SWAP1 PUSH2 0x3E82 JUMP JUMPDEST PUSH1 0x5 DUP3 ADD PUSH1 0x0 PUSH2 0x1A5E SWAP2 SWAP1 PUSH2 0x3E82 JUMP JUMPDEST PUSH1 0x6 DUP3 ADD PUSH1 0x0 PUSH2 0x1A6E SWAP2 SWAP1 PUSH2 0x3E82 JUMP JUMPDEST POP POP JUMPDEST DUP1 DUP1 PUSH2 0x1A7C SWAP1 PUSH2 0x52D8 JUMP JUMPDEST SWAP2 POP POP PUSH2 0x19E2 JUMP JUMPDEST POP PUSH1 0x0 JUMPDEST PUSH1 0x7 SLOAD DUP2 LT ISZERO PUSH2 0x1B0A JUMPI DUP2 PUSH1 0x11 PUSH1 0x0 DUP4 DUP2 MSTORE PUSH1 0x20 ADD SWAP1 DUP2 MSTORE PUSH1 0x20 ADD PUSH1 0x0 KECCAK256 PUSH1 0x3 ADD SLOAD EQ ISZERO PUSH2 0x1AF7 JUMPI PUSH1 0x11 PUSH1 0x0 DUP3 DUP2 MSTORE PUSH1 0x20 ADD SWAP1 DUP2 MSTORE PUSH1 0x20 ADD PUSH1 0x0 KECCAK256 PUSH1 0x0 DUP1 DUP3 ADD PUSH1 0x0 SWAP1 SSTORE PUSH1 0x1 DUP3 ADD PUSH1 0x0 SWAP1 SSTORE PUSH1 0x2 DUP3 ADD PUSH1 0x0 SWAP1 SSTORE PUSH1 0x3 DUP3 ADD PUSH1 0x0 SWAP1 SSTORE PUSH1 0x4 DUP3 ADD PUSH1 0x0 PUSH2 0x1AF4 SWAP2 SWAP1 PUSH2 0x3E82 JUMP JUMPDEST POP POP JUMPDEST DUP1 DUP1 PUSH2 0x1B02 SWAP1 PUSH2 0x52D8 JUMP JUMPDEST SWAP2 POP POP PUSH2 0x1A88 JUMP JUMPDEST POP POP JUMP JUMPDEST PUSH1 0x1 SLOAD DUP2 JUMP JUMPDEST PUSH1 0x40 MLOAD DUP1 PUSH1 0xA0 ADD PUSH1 0x40 MSTORE DUP1 PUSH1 0x7 SLOAD DUP2 MSTORE PUSH1 0x20 ADD DUP3 DUP2 MSTORE PUSH1 0x20 ADD DUP5 DUP2 MSTORE PUSH1 0x20 ADD DUP6 DUP2 MSTORE PUSH1 0x20 ADD DUP4 DUP2 MSTORE POP PUSH1 0x11 PUSH1 0x0 PUSH1 0x7 SLOAD DUP2 MSTORE PUSH1 0x20 ADD SWAP1 DUP2 MSTORE PUSH1 0x20 ADD PUSH1 0x0 KECCAK256 PUSH1 0x0 DUP3 ADD MLOAD DUP2 PUSH1 0x0 ADD SSTORE PUSH1 0x20 DUP3 ADD MLOAD DUP2 PUSH1 0x1 ADD SSTORE PUSH1 0x40 DUP3 ADD MLOAD DUP2 PUSH1 0x2 ADD SSTORE PUSH1 0x60 DUP3 ADD MLOAD DUP2 PUSH1 0x3 ADD SSTORE PUSH1 0x80 DUP3 ADD MLOAD DUP2 PUSH1 0x4 ADD SWAP1 DUP1 MLOAD SWAP1 PUSH1 0x20 ADD SWAP1 PUSH2 0x1B96 SWAP3 SWAP2 SWAP1 PUSH2 0x3EC2 JUMP JUMPDEST POP SWAP1 POP POP PUSH1 0x1 PUSH1 0xB PUSH1 0x0 DUP7 DUP2 MSTORE PUSH1 0x20 ADD SWAP1 DUP2 MSTORE PUSH1 0x20 ADD PUSH1 0x0 KECCAK256 PUSH1 0x8 ADD PUSH1 0x0 DUP3 DUP3 SLOAD PUSH2 0x1BC1 SWAP2 SWAP1 PUSH2 0x516D JUMP JUMPDEST SWAP3 POP POP DUP2 SWAP1 SSTORE POP DUP2 PUSH1 0xB PUSH1 0x0 DUP7 DUP2 MSTORE PUSH1 0x20 ADD SWAP1 DUP2 MSTORE PUSH1 0x20 ADD PUSH1 0x0 KECCAK256 PUSH1 0x5 ADD SWAP1 DUP1 MLOAD SWAP1 PUSH1 0x20 ADD SWAP1 PUSH2 0x1BF2 SWAP3 SWAP2 SWAP1 PUSH2 0x3EC2 JUMP JUMPDEST POP PUSH1 0x7 PUSH1 0x0 DUP2 SLOAD DUP1 SWAP3 SWAP2 SWAP1 PUSH2 0x1C06 SWAP1 PUSH2 0x52D8 JUMP JUMPDEST SWAP2 SWAP1 POP SSTORE POP POP POP POP POP JUMP JUMPDEST PUSH1 0x12 PUSH1 0x0 SWAP1 SLOAD SWAP1 PUSH2 0x100 EXP SWAP1 DIV PUSH20 0xFFFFFFFFFFFFFFFFFFFFFFFFFFFFFFFFFFFFFFFF AND DUP2 JUMP JUMPDEST PUSH1 0x60 PUSH1 0x0 JUMPDEST PUSH1 0x5 SLOAD DUP2 LT ISZERO PUSH2 0x1C9E JUMPI DUP3 PUSH1 0xF PUSH1 0x0 DUP4 DUP2 MSTORE PUSH1 0x20 ADD SWAP1 DUP2 MSTORE PUSH1 0x20 ADD PUSH1 0x0 KECCAK256 PUSH1 0x2 ADD SLOAD EQ ISZERO PUSH2 0x1C8B JUMPI PUSH2 0x1C83 PUSH1 0xF PUSH1 0x0 DUP4 DUP2 MSTORE PUSH1 0x20 ADD SWAP1 DUP2 MSTORE PUSH1 0x20 ADD PUSH1 0x0 KECCAK256 PUSH1 0x1 ADD SLOAD PUSH2 0x3C57 JUMP JUMPDEST SWAP2 POP POP PUSH2 0x1CD8 JUMP JUMPDEST DUP1 DUP1 PUSH2 0x1C96 SWAP1 PUSH2 0x52D8 JUMP JUMPDEST SWAP2 POP POP PUSH2 0x1C3C JUMP JUMPDEST POP PUSH1 0x40 MLOAD DUP1 PUSH1 0x40 ADD PUSH1 0x40 MSTORE DUP1 PUSH1 0x5 DUP2 MSTORE PUSH1 0x20 ADD PUSH32 0x46616C7365000000000000000000000000000000000000000000000000000000 DUP2 MSTORE POP SWAP1 POP JUMPDEST SWAP2 SWAP1 POP JUMP JUMPDEST DUP1 PUSH1 0x8 PUSH1 0x0 DUP5 DUP2 MSTORE PUSH1 0x20 ADD SWAP1 DUP2 MSTORE PUSH1 0x20 ADD PUSH1 0x0 KECCAK256 PUSH1 0x8 ADD SWAP1 DUP1 MLOAD SWAP1 PUSH1 0x20 ADD SWAP1 PUSH2 0x1D07 SWAP3 SWAP2 SWAP1 PUSH2 0x3EC2 JUMP JUMPDEST POP POP POP JUMP JUMPDEST PUSH1 0x11 PUSH1 0x20 MSTORE DUP1 PUSH1 0x0 MSTORE PUSH1 0x40 PUSH1 0x0 KECCAK256 PUSH1 0x0 SWAP2 POP SWAP1 POP DUP1 PUSH1 0x0 ADD SLOAD SWAP1 DUP1 PUSH1 0x1 ADD SLOAD SWAP1 DUP1 PUSH1 0x2 ADD SLOAD SWAP1 DUP1 PUSH1 0x3 ADD SLOAD SWAP1 DUP1 PUSH1 0x4 ADD DUP1 SLOAD PUSH2 0x1D47 SWAP1 PUSH2 0x5275 JUMP JUMPDEST DUP1 PUSH1 0x1F ADD PUSH1 0x20 DUP1 SWAP2 DIV MUL PUSH1 0x20 ADD PUSH1 0x40 MLOAD SWAP1 DUP2 ADD PUSH1 0x40 MSTORE DUP1 SWAP3 SWAP2 SWAP1 DUP2 DUP2 MSTORE PUSH1 0x20 ADD DUP3 DUP1 SLOAD PUSH2 0x1D73 SWAP1 PUSH2 0x5275 JUMP JUMPDEST DUP1 ISZERO PUSH2 0x1DC0 JUMPI DUP1 PUSH1 0x1F LT PUSH2 0x1D95 JUMPI PUSH2 0x100 DUP1 DUP4 SLOAD DIV MUL DUP4 MSTORE SWAP2 PUSH1 0x20 ADD SWAP2 PUSH2 0x1DC0 JUMP JUMPDEST DUP3 ADD SWAP2 SWAP1 PUSH1 0x0 MSTORE PUSH1 0x20 PUSH1 0x0 KECCAK256 SWAP1 JUMPDEST DUP2 SLOAD DUP2 MSTORE SWAP1 PUSH1 0x1 ADD SWAP1 PUSH1 0x20 ADD DUP1 DUP4 GT PUSH2 0x1DA3 JUMPI DUP3 SWAP1 SUB PUSH1 0x1F AND DUP3 ADD SWAP2 JUMPDEST POP POP POP POP POP SWAP1 POP DUP6 JUMP JUMPDEST PUSH1 0x0 PUSH1 0x8 PUSH1 0x0 DUP4 DUP2 MSTORE PUSH1 0x20 ADD SWAP1 DUP2 MSTORE PUSH1 0x20 ADD PUSH1 0x0 KECCAK256 PUSH1 0x4 ADD PUSH1 0x0 SWAP1 SLOAD SWAP1 PUSH2 0x100 EXP SWAP1 DIV PUSH20 0xFFFFFFFFFFFFFFFFFFFFFFFFFFFFFFFFFFFFFFFF AND SWAP1 POP SWAP2 SWAP1 POP JUMP JUMPDEST PUSH1 0x2 SLOAD DUP2 JUMP JUMPDEST DUP1 PUSH1 0xA PUSH1 0x0 DUP5 DUP2 MSTORE PUSH1 0x20 ADD SWAP1 DUP2 MSTORE PUSH1 0x20 ADD PUSH1 0x0 KECCAK256 SWAP1 DUP1 MLOAD SWAP1 PUSH1 0x20 ADD SWAP1 PUSH2 0x1E37 SWAP3 SWAP2 SWAP1 PUSH2 0x3EC2 JUMP JUMPDEST POP POP POP JUMP JUMPDEST PUSH1 0x40 MLOAD DUP1 PUSH2 0x140 ADD PUSH1 0x40 MSTORE DUP1 PUSH1 0x0 SLOAD DUP2 MSTORE PUSH1 0x20 ADD DUP7 DUP2 MSTORE PUSH1 0x20 ADD DUP6 DUP2 MSTORE PUSH1 0x20 ADD DUP5 DUP2 MSTORE PUSH1 0x20 ADD DUP3 PUSH20 0xFFFFFFFFFFFFFFFFFFFFFFFFFFFFFFFFFFFFFFFF AND DUP2 MSTORE PUSH1 0x20 ADD PUSH1 0x40 MLOAD DUP1 PUSH1 0x20 ADD PUSH1 0x40 MSTORE DUP1 PUSH1 0x0 DUP2 MSTORE POP DUP2 MSTORE PUSH1 0x20 ADD PUSH1 0x40 MLOAD DUP1 PUSH1 0x60 ADD PUSH1 0x40 MSTORE DUP1 PUSH1 0x28 DUP2 MSTORE PUSH1 0x20 ADD PUSH2 0x548C PUSH1 0x28 SWAP2 CODECOPY DUP2 MSTORE PUSH1 0x20 ADD PUSH1 0x0 DUP2 MSTORE PUSH1 0x20 ADD DUP4 DUP2 MSTORE PUSH1 0x20 ADD PUSH1 0x0 DUP2 MSTORE POP PUSH1 0x8 PUSH1 0x0 DUP1 SLOAD DUP2 MSTORE PUSH1 0x20 ADD SWAP1 DUP2 MSTORE PUSH1 0x20 ADD PUSH1 0x0 KECCAK256 PUSH1 0x0 DUP3 ADD MLOAD DUP2 PUSH1 0x0 ADD SSTORE PUSH1 0x20 DUP3 ADD MLOAD DUP2 PUSH1 0x1 ADD SWAP1 DUP1 MLOAD SWAP1 PUSH1 0x20 ADD SWAP1 PUSH2 0x1EFD SWAP3 SWAP2 SWAP1 PUSH2 0x3EC2 JUMP JUMPDEST POP PUSH1 0x40 DUP3 ADD MLOAD DUP2 PUSH1 0x2 ADD SWAP1 DUP1 MLOAD SWAP1 PUSH1 0x20 ADD SWAP1 PUSH2 0x1F1A SWAP3 SWAP2 SWAP1 PUSH2 0x3EC2 JUMP JUMPDEST POP PUSH1 0x60 DUP3 ADD MLOAD DUP2 PUSH1 0x3 ADD SWAP1 DUP1 MLOAD SWAP1 PUSH1 0x20 ADD SWAP1 PUSH2 0x1F37 SWAP3 SWAP2 SWAP1 PUSH2 0x3EC2 JUMP JUMPDEST POP PUSH1 0x80 DUP3 ADD MLOAD DUP2 PUSH1 0x4 ADD PUSH1 0x0 PUSH2 0x100 EXP DUP2 SLOAD DUP2 PUSH20 0xFFFFFFFFFFFFFFFFFFFFFFFFFFFFFFFFFFFFFFFF MUL NOT AND SWAP1 DUP4 PUSH20 0xFFFFFFFFFFFFFFFFFFFFFFFFFFFFFFFFFFFFFFFF AND MUL OR SWAP1 SSTORE POP PUSH1 0xA0 DUP3 ADD MLOAD DUP2 PUSH1 0x5 ADD SWAP1 DUP1 MLOAD SWAP1 PUSH1 0x20 ADD SWAP1 PUSH2 0x1F9B SWAP3 SWAP2 SWAP1 PUSH2 0x3EC2 JUMP JUMPDEST POP PUSH1 0xC0 DUP3 ADD MLOAD DUP2 PUSH1 0x6 ADD SWAP1 DUP1 MLOAD SWAP1 PUSH1 0x20 ADD SWAP1 PUSH2 0x1FB8 SWAP3 SWAP2 SWAP1 PUSH2 0x3EC2 JUMP JUMPDEST POP PUSH1 0xE0 DUP3 ADD MLOAD DUP2 PUSH1 0x7 ADD SSTORE PUSH2 0x100 DUP3 ADD MLOAD DUP2 PUSH1 0x8 ADD SWAP1 DUP1 MLOAD SWAP1 PUSH1 0x20 ADD SWAP1 PUSH2 0x1FE0 SWAP3 SWAP2 SWAP1 PUSH2 0x3EC2 JUMP JUMPDEST POP PUSH2 0x120 DUP3 ADD MLOAD DUP2 PUSH1 0x9 ADD SSTORE SWAP1 POP POP PUSH1 0x0 DUP1 DUP2 SLOAD DUP1 SWAP3 SWAP2 SWAP1 PUSH2 0x2001 SWAP1 PUSH2 0x52D8 JUMP JUMPDEST SWAP2 SWAP1 POP SSTORE POP POP POP POP POP POP JUMP JUMPDEST PUSH1 0x0 JUMPDEST PUSH1 0x0 SLOAD DUP2 LT ISZERO PUSH2 0x20E2 JUMPI PUSH1 0x8 PUSH1 0x0 DUP3 DUP2 MSTORE PUSH1 0x20 ADD SWAP1 DUP2 MSTORE PUSH1 0x20 ADD PUSH1 0x0 KECCAK256 PUSH1 0x0 DUP1 DUP3 ADD PUSH1 0x0 SWAP1 SSTORE PUSH1 0x1 DUP3 ADD PUSH1 0x0 PUSH2 0x2046 SWAP2 SWAP1 PUSH2 0x3E82 JUMP JUMPDEST PUSH1 0x2 DUP3 ADD PUSH1 0x0 PUSH2 0x2056 SWAP2 SWAP1 PUSH2 0x3E82 JUMP JUMPDEST PUSH1 0x3 DUP3 ADD PUSH1 0x0 PUSH2 0x2066 SWAP2 SWAP1 PUSH2 0x3E82 JUMP JUMPDEST PUSH1 0x4 DUP3 ADD PUSH1 0x0 PUSH2 0x100 EXP DUP2 SLOAD SWAP1 PUSH20 0xFFFFFFFFFFFFFFFFFFFFFFFFFFFFFFFFFFFFFFFF MUL NOT AND SWAP1 SSTORE PUSH1 0x5 DUP3 ADD PUSH1 0x0 PUSH2 0x209D SWAP2 SWAP1 PUSH2 0x3E82 JUMP JUMPDEST PUSH1 0x6 DUP3 ADD PUSH1 0x0 PUSH2 0x20AD SWAP2 SWAP1 PUSH2 0x3E82 JUMP JUMPDEST PUSH1 0x7 DUP3 ADD PUSH1 0x0 SWAP1 SSTORE PUSH1 0x8 DUP3 ADD PUSH1 0x0 PUSH2 0x20C5 SWAP2 SWAP1 PUSH2 0x3E82 JUMP JUMPDEST PUSH1 0x9 DUP3 ADD PUSH1 0x0 SWAP1 SSTORE POP POP DUP1 DUP1 PUSH2 0x20DA SWAP1 PUSH2 0x52D8 JUMP JUMPDEST SWAP2 POP POP PUSH2 0x2010 JUMP JUMPDEST POP PUSH1 0x0 JUMPDEST PUSH1 0x2 SLOAD DUP2 LT ISZERO PUSH2 0x21A1 JUMPI PUSH1 0x9 PUSH1 0x0 DUP3 DUP2 MSTORE PUSH1 0x20 ADD SWAP1 DUP2 MSTORE PUSH1 0x20 ADD PUSH1 0x0 KECCAK256 PUSH1 0x0 DUP1 DUP3 ADD PUSH1 0x0 SWAP1 SSTORE PUSH1 0x1 DUP3 ADD PUSH1 0x0 SWAP1 SSTORE PUSH1 0x2 DUP3 ADD PUSH1 0x0 PUSH2 0x2124 SWAP2 SWAP1 PUSH2 0x3E82 JUMP JUMPDEST PUSH1 0x3 DUP3 ADD PUSH1 0x0 PUSH2 0x2134 SWAP2 SWAP1 PUSH2 0x3E82 JUMP JUMPDEST PUSH1 0x4 DUP3 ADD PUSH1 0x0 PUSH2 0x2144 SWAP2 SWAP1 PUSH2 0x3E82 JUMP JUMPDEST PUSH1 0x5 DUP3 ADD PUSH1 0x0 PUSH2 0x2154 SWAP2 SWAP1 PUSH2 0x3E82 JUMP JUMPDEST PUSH1 0x6 DUP3 ADD PUSH1 0x0 SWAP1 SSTORE PUSH1 0x7 DUP3 ADD PUSH1 0x0 SWAP1 SSTORE PUSH1 0x8 DUP3 ADD PUSH1 0x0 SWAP1 SSTORE PUSH1 0x9 DUP3 ADD PUSH1 0x0 PUSH2 0x217C SWAP2 SWAP1 PUSH2 0x3E82 JUMP JUMPDEST PUSH1 0xA DUP3 ADD PUSH1 0x0 SWAP1 SSTORE PUSH1 0xB DUP3 ADD PUSH1 0x0 SWAP1 SSTORE POP POP DUP1 DUP1 PUSH2 0x2199 SWAP1 PUSH2 0x52D8 JUMP JUMPDEST SWAP2 POP POP PUSH2 0x20E6 JUMP JUMPDEST POP PUSH1 0x0 JUMPDEST PUSH1 0x2 SLOAD DUP2 LT ISZERO PUSH2 0x21E1 JUMPI PUSH1 0xA PUSH1 0x0 DUP3 DUP2 MSTORE PUSH1 0x20 ADD SWAP1 DUP2 MSTORE PUSH1 0x20 ADD PUSH1 0x0 KECCAK256 PUSH1 0x0 PUSH2 0x21CE SWAP2 SWAP1 PUSH2 0x3E82 JUMP JUMPDEST DUP1 DUP1 PUSH2 0x21D9 SWAP1 PUSH2 0x52D8 JUMP JUMPDEST SWAP2 POP POP PUSH2 0x21A5 JUMP JUMPDEST POP PUSH1 0x0 JUMPDEST PUSH1 0x3 SLOAD DUP2 LT ISZERO PUSH2 0x2280 JUMPI PUSH1 0xB PUSH1 0x0 DUP3 DUP2 MSTORE PUSH1 0x20 ADD SWAP1 DUP2 MSTORE PUSH1 0x20 ADD PUSH1 0x0 KECCAK256 PUSH1 0x0 DUP1 DUP3 ADD PUSH1 0x0 SWAP1 SSTORE PUSH1 0x1 DUP3 ADD PUSH1 0x0 SWAP1 SSTORE PUSH1 0x2 DUP3 ADD PUSH1 0x0 SWAP1 SSTORE PUSH1 0x3 DUP3 ADD PUSH1 0x0 PUSH2 0x222B SWAP2 SWAP1 PUSH2 0x3E82 JUMP JUMPDEST PUSH1 0x4 DUP3 ADD PUSH1 0x0 PUSH2 0x223B SWAP2 SWAP1 PUSH2 0x3E82 JUMP JUMPDEST PUSH1 0x5 DUP3 ADD PUSH1 0x0 PUSH2 0x224B SWAP2 SWAP1 PUSH2 0x3E82 JUMP JUMPDEST PUSH1 0x6 DUP3 ADD PUSH1 0x0 PUSH2 0x225B SWAP2 SWAP1 PUSH2 0x3E82 JUMP JUMPDEST PUSH1 0x7 DUP3 ADD PUSH1 0x0 SWAP1 SSTORE PUSH1 0x8 DUP3 ADD PUSH1 0x0 SWAP1 SSTORE POP POP DUP1 DUP1 PUSH2 0x2278 SWAP1 PUSH2 0x52D8 JUMP JUMPDEST SWAP2 POP POP PUSH2 0x21E5 JUMP JUMPDEST POP PUSH1 0x0 JUMPDEST PUSH1 0x4 SLOAD DUP2 LT ISZERO PUSH2 0x22D7 JUMPI PUSH1 0xC PUSH1 0x0 DUP3 DUP2 MSTORE PUSH1 0x20 ADD SWAP1 DUP2 MSTORE PUSH1 0x20 ADD PUSH1 0x0 KECCAK256 PUSH1 0x0 DUP1 DUP3 ADD PUSH1 0x0 PUSH2 0x22B2 SWAP2 SWAP1 PUSH2 0x3E82 JUMP JUMPDEST PUSH1 0x1 DUP3 ADD PUSH1 0x0 PUSH2 0x22C2 SWAP2 SWAP1 PUSH2 0x3E82 JUMP JUMPDEST POP POP DUP1 DUP1 PUSH2 0x22CF SWAP1 PUSH2 0x52D8 JUMP JUMPDEST SWAP2 POP POP PUSH2 0x2284 JUMP JUMPDEST POP PUSH1 0x0 JUMPDEST PUSH1 0x2 SLOAD DUP2 LT ISZERO PUSH2 0x2317 JUMPI PUSH1 0xD PUSH1 0x0 DUP3 DUP2 MSTORE PUSH1 0x20 ADD SWAP1 DUP2 MSTORE PUSH1 0x20 ADD PUSH1 0x0 KECCAK256 PUSH1 0x0 PUSH2 0x2304 SWAP2 SWAP1 PUSH2 0x3E82 JUMP JUMPDEST DUP1 DUP1 PUSH2 0x230F SWAP1 PUSH2 0x52D8 JUMP JUMPDEST SWAP2 POP POP PUSH2 0x22DB JUMP JUMPDEST POP PUSH1 0x0 JUMPDEST PUSH1 0x0 SLOAD DUP2 LT ISZERO PUSH2 0x23C6 JUMPI PUSH1 0xE PUSH1 0x0 DUP3 DUP2 MSTORE PUSH1 0x20 ADD SWAP1 DUP2 MSTORE PUSH1 0x20 ADD PUSH1 0x0 KECCAK256 PUSH1 0x0 DUP1 DUP3 ADD PUSH1 0x0 SWAP1 SSTORE PUSH1 0x1 DUP3 ADD PUSH1 0x0 PUSH2 0x2351 SWAP2 SWAP1 PUSH2 0x3E82 JUMP JUMPDEST PUSH1 0x2 DUP3 ADD PUSH1 0x0 PUSH2 0x2361 SWAP2 SWAP1 PUSH2 0x3E82 JUMP JUMPDEST PUSH1 0x3 DUP3 ADD PUSH1 0x0 PUSH2 0x2371 SWAP2 SWAP1 PUSH2 0x3E82 JUMP JUMPDEST PUSH1 0x4 DUP3 ADD PUSH1 0x0 PUSH2 0x2381 SWAP2 SWAP1 PUSH2 0x3E82 JUMP JUMPDEST PUSH1 0x5 DUP3 ADD PUSH1 0x0 PUSH2 0x2391 SWAP2 SWAP1 PUSH2 0x3E82 JUMP JUMPDEST PUSH1 0x6 DUP3 ADD PUSH1 0x0 PUSH2 0x23A1 SWAP2 SWAP1 PUSH2 0x3E82 JUMP JUMPDEST PUSH1 0x7 DUP3 ADD PUSH1 0x0 PUSH2 0x23B1 SWAP2 SWAP1 PUSH2 0x3E82 JUMP JUMPDEST POP POP DUP1 DUP1 PUSH2 0x23BE SWAP1 PUSH2 0x52D8 JUMP JUMPDEST SWAP2 POP POP PUSH2 0x231B JUMP JUMPDEST POP PUSH1 0x0 JUMPDEST PUSH1 0x5 SLOAD DUP2 LT ISZERO PUSH2 0x2435 JUMPI PUSH1 0xF PUSH1 0x0 DUP3 DUP2 MSTORE PUSH1 0x20 ADD SWAP1 DUP2 MSTORE PUSH1 0x20 ADD PUSH1 0x0 KECCAK256 PUSH1 0x0 DUP1 DUP3 ADD PUSH1 0x0 SWAP1 SSTORE PUSH1 0x1 DUP3 ADD PUSH1 0x0 SWAP1 SSTORE PUSH1 0x2 DUP3 ADD PUSH1 0x0 SWAP1 SSTORE PUSH1 0x3 DUP3 ADD PUSH1 0x0 PUSH2 0x2410 SWAP2 SWAP1 PUSH2 0x3E82 JUMP JUMPDEST PUSH1 0x4 DUP3 ADD PUSH1 0x0 PUSH2 0x2420 SWAP2 SWAP1 PUSH2 0x3E82 JUMP JUMPDEST POP POP DUP1 DUP1 PUSH2 0x242D SWAP1 PUSH2 0x52D8 JUMP JUMPDEST SWAP2 POP POP PUSH2 0x23CA JUMP JUMPDEST POP PUSH1 0x0 JUMPDEST PUSH1 0x6 SLOAD DUP2 LT ISZERO PUSH2 0x24BC JUMPI PUSH1 0x10 PUSH1 0x0 DUP3 DUP2 MSTORE PUSH1 0x20 ADD SWAP1 DUP2 MSTORE PUSH1 0x20 ADD PUSH1 0x0 KECCAK256 PUSH1 0x0 DUP1 DUP3 ADD PUSH1 0x0 SWAP1 SSTORE PUSH1 0x1 DUP3 ADD PUSH1 0x0 SWAP1 SSTORE PUSH1 0x2 DUP3 ADD PUSH1 0x0 SWAP1 SSTORE PUSH1 0x3 DUP3 ADD PUSH1 0x0 SWAP1 SSTORE PUSH1 0x4 DUP3 ADD PUSH1 0x0 PUSH2 0x2487 SWAP2 SWAP1 PUSH2 0x3E82 JUMP JUMPDEST PUSH1 0x5 DUP3 ADD PUSH1 0x0 PUSH2 0x2497 SWAP2 SWAP1 PUSH2 0x3E82 JUMP JUMPDEST PUSH1 0x6 DUP3 ADD PUSH1 0x0 PUSH2 0x24A7 SWAP2 SWAP1 PUSH2 0x3E82 JUMP JUMPDEST POP POP DUP1 DUP1 PUSH2 0x24B4 SWAP1 PUSH2 0x52D8 JUMP JUMPDEST SWAP2 POP POP PUSH2 0x2439 JUMP JUMPDEST POP PUSH1 0x0 JUMPDEST PUSH1 0x7 SLOAD DUP2 LT ISZERO PUSH2 0x2523 JUMPI PUSH1 0x11 PUSH1 0x0 DUP3 DUP2 MSTORE PUSH1 0x20 ADD SWAP1 DUP2 MSTORE PUSH1 0x20 ADD PUSH1 0x0 KECCAK256 PUSH1 0x0 DUP1 DUP3 ADD PUSH1 0x0 SWAP1 SSTORE PUSH1 0x1 DUP3 ADD PUSH1 0x0 SWAP1 SSTORE PUSH1 0x2 DUP3 ADD PUSH1 0x0 SWAP1 SSTORE PUSH1 0x3 DUP3 ADD PUSH1 0x0 SWAP1 SSTORE PUSH1 0x4 DUP3 ADD PUSH1 0x0 PUSH2 0x250E SWAP2 SWAP1 PUSH2 0x3E82 JUMP JUMPDEST POP POP DUP1 DUP1 PUSH2 0x251B SWAP1 PUSH2 0x52D8 JUMP JUMPDEST SWAP2 POP POP PUSH2 0x24C0 JUMP JUMPDEST POP PUSH1 0x0 DUP1 DUP2 SWAP1 SSTORE POP PUSH1 0x0 PUSH1 0x2 DUP2 SWAP1 SSTORE POP PUSH1 0x0 PUSH1 0x3 DUP2 SWAP1 SSTORE POP PUSH1 0x0 PUSH1 0x4 DUP2 SWAP1 SSTORE POP PUSH1 0x0 PUSH1 0x5 DUP2 SWAP1 SSTORE POP PUSH1 0x0 PUSH1 0x6 DUP2 SWAP1 SSTORE POP PUSH1 0x0 PUSH1 0x7 DUP2 SWAP1 SSTORE POP JUMP JUMPDEST PUSH1 0x7 SLOAD DUP2 JUMP JUMPDEST PUSH1 0x9 PUSH1 0x20 MSTORE DUP1 PUSH1 0x0 MSTORE PUSH1 0x40 PUSH1 0x0 KECCAK256 PUSH1 0x0 SWAP2 POP SWAP1 POP DUP1 PUSH1 0x0 ADD SLOAD SWAP1 DUP1 PUSH1 0x1 ADD SLOAD SWAP1 DUP1 PUSH1 0x2 ADD DUP1 SLOAD PUSH2 0x2592 SWAP1 PUSH2 0x5275 JUMP JUMPDEST DUP1 PUSH1 0x1F ADD PUSH1 0x20 DUP1 SWAP2 DIV MUL PUSH1 0x20 ADD PUSH1 0x40 MLOAD SWAP1 DUP2 ADD PUSH1 0x40 MSTORE DUP1 SWAP3 SWAP2 SWAP1 DUP2 DUP2 MSTORE PUSH1 0x20 ADD DUP3 DUP1 SLOAD PUSH2 0x25BE SWAP1 PUSH2 0x5275 JUMP JUMPDEST DUP1 ISZERO PUSH2 0x260B JUMPI DUP1 PUSH1 0x1F LT PUSH2 0x25E0 JUMPI PUSH2 0x100 DUP1 DUP4 SLOAD DIV MUL DUP4 MSTORE SWAP2 PUSH1 0x20 ADD SWAP2 PUSH2 0x260B JUMP JUMPDEST DUP3 ADD SWAP2 SWAP1 PUSH1 0x0 MSTORE PUSH1 0x20 PUSH1 0x0 KECCAK256 SWAP1 JUMPDEST DUP2 SLOAD DUP2 MSTORE SWAP1 PUSH1 0x1 ADD SWAP1 PUSH1 0x20 ADD DUP1 DUP4 GT PUSH2 0x25EE JUMPI DUP3 SWAP1 SUB PUSH1 0x1F AND DUP3 ADD SWAP2 JUMPDEST POP POP POP POP POP SWAP1 DUP1 PUSH1 0x3 ADD DUP1 SLOAD PUSH2 0x2620 SWAP1 PUSH2 0x5275 JUMP JUMPDEST DUP1 PUSH1 0x1F ADD PUSH1 0x20 DUP1 SWAP2 DIV MUL PUSH1 0x20 ADD PUSH1 0x40 MLOAD SWAP1 DUP2 ADD PUSH1 0x40 MSTORE DUP1 SWAP3 SWAP2 SWAP1 DUP2 DUP2 MSTORE PUSH1 0x20 ADD DUP3 DUP1 SLOAD PUSH2 0x264C SWAP1 PUSH2 0x5275 JUMP JUMPDEST DUP1 ISZERO PUSH2 0x2699 JUMPI DUP1 PUSH1 0x1F LT PUSH2 0x266E JUMPI PUSH2 0x100 DUP1 DUP4 SLOAD DIV MUL DUP4 MSTORE SWAP2 PUSH1 0x20 ADD SWAP2 PUSH2 0x2699 JUMP JUMPDEST DUP3 ADD SWAP2 SWAP1 PUSH1 0x0 MSTORE PUSH1 0x20 PUSH1 0x0 KECCAK256 SWAP1 JUMPDEST DUP2 SLOAD DUP2 MSTORE SWAP1 PUSH1 0x1 ADD SWAP1 PUSH1 0x20 ADD DUP1 DUP4 GT PUSH2 0x267C JUMPI DUP3 SWAP1 SUB PUSH1 0x1F AND DUP3 ADD SWAP2 JUMPDEST POP POP POP POP POP SWAP1 DUP1 PUSH1 0x4 ADD DUP1 SLOAD PUSH2 0x26AE SWAP1 PUSH2 0x5275 JUMP JUMPDEST DUP1 PUSH1 0x1F ADD PUSH1 0x20 DUP1 SWAP2 DIV MUL PUSH1 0x20 ADD PUSH1 0x40 MLOAD SWAP1 DUP2 ADD PUSH1 0x40 MSTORE DUP1 SWAP3 SWAP2 SWAP1 DUP2 DUP2 MSTORE PUSH1 0x20 ADD DUP3 DUP1 SLOAD PUSH2 0x26DA SWAP1 PUSH2 0x5275 JUMP JUMPDEST DUP1 ISZERO PUSH2 0x2727 JUMPI DUP1 PUSH1 0x1F LT PUSH2 0x26FC JUMPI PUSH2 0x100 DUP1 DUP4 SLOAD DIV MUL DUP4 MSTORE SWAP2 PUSH1 0x20 ADD SWAP2 PUSH2 0x2727 JUMP JUMPDEST DUP3 ADD SWAP2 SWAP1 PUSH1 0x0 MSTORE PUSH1 0x20 PUSH1 0x0 KECCAK256 SWAP1 JUMPDEST DUP2 SLOAD DUP2 MSTORE SWAP1 PUSH1 0x1 ADD SWAP1 PUSH1 0x20 ADD DUP1 DUP4 GT PUSH2 0x270A JUMPI DUP3 SWAP1 SUB PUSH1 0x1F AND DUP3 ADD SWAP2 JUMPDEST POP POP POP POP POP SWAP1 DUP1 PUSH1 0x5 ADD DUP1 SLOAD PUSH2 0x273C SWAP1 PUSH2 0x5275 JUMP JUMPDEST DUP1 PUSH1 0x1F ADD PUSH1 0x20 DUP1 SWAP2 DIV MUL PUSH1 0x20 ADD PUSH1 0x40 MLOAD SWAP1 DUP2 ADD PUSH1 0x40 MSTORE DUP1 SWAP3 SWAP2 SWAP1 DUP2 DUP2 MSTORE PUSH1 0x20 ADD DUP3 DUP1 SLOAD PUSH2 0x2768 SWAP1 PUSH2 0x5275 JUMP JUMPDEST DUP1 ISZERO PUSH2 0x27B5 JUMPI DUP1 PUSH1 0x1F LT PUSH2 0x278A JUMPI PUSH2 0x100 DUP1 DUP4 SLOAD DIV MUL DUP4 MSTORE SWAP2 PUSH1 0x20 ADD SWAP2 PUSH2 0x27B5 JUMP JUMPDEST DUP3 ADD SWAP2 SWAP1 PUSH1 0x0 MSTORE PUSH1 0x20 PUSH1 0x0 KECCAK256 SWAP1 JUMPDEST DUP2 SLOAD DUP2 MSTORE SWAP1 PUSH1 0x1 ADD SWAP1 PUSH1 0x20 ADD DUP1 DUP4 GT PUSH2 0x2798 JUMPI DUP3 SWAP1 SUB PUSH1 0x1F AND DUP3 ADD SWAP2 JUMPDEST POP POP POP POP POP SWAP1 DUP1 PUSH1 0x6 ADD SLOAD SWAP1 DUP1 PUSH1 0x7 ADD SLOAD SWAP1 DUP1 PUSH1 0x8 ADD SLOAD SWAP1 DUP1 PUSH1 0x9 ADD DUP1 SLOAD PUSH2 0x27DC SWAP1 PUSH2 0x5275 JUMP JUMPDEST DUP1 PUSH1 0x1F ADD PUSH1 0x20 DUP1 SWAP2 DIV MUL PUSH1 0x20 ADD PUSH1 0x40 MLOAD SWAP1 DUP2 ADD PUSH1 0x40 MSTORE DUP1 SWAP3 SWAP2 SWAP1 DUP2 DUP2 MSTORE PUSH1 0x20 ADD DUP3 DUP1 SLOAD PUSH2 0x2808 SWAP1 PUSH2 0x5275 JUMP JUMPDEST DUP1 ISZERO PUSH2 0x2855 JUMPI DUP1 PUSH1 0x1F LT PUSH2 0x282A JUMPI PUSH2 0x100 DUP1 DUP4 SLOAD DIV MUL DUP4 MSTORE SWAP2 PUSH1 0x20 ADD SWAP2 PUSH2 0x2855 JUMP JUMPDEST DUP3 ADD SWAP2 SWAP1 PUSH1 0x0 MSTORE PUSH1 0x20 PUSH1 0x0 KECCAK256 SWAP1 JUMPDEST DUP2 SLOAD DUP2 MSTORE SWAP1 PUSH1 0x1 ADD SWAP1 PUSH1 0x20 ADD DUP1 DUP4 GT PUSH2 0x2838 JUMPI DUP3 SWAP1 SUB PUSH1 0x1F AND DUP3 ADD SWAP2 JUMPDEST POP POP POP POP POP SWAP1 DUP1 PUSH1 0xA ADD SLOAD SWAP1 DUP1 PUSH1 0xB ADD SLOAD SWAP1 POP DUP13 JUMP JUMPDEST PUSH1 0x10 PUSH1 0x20 MSTORE DUP1 PUSH1 0x0 MSTORE PUSH1 0x40 PUSH1 0x0 KECCAK256 PUSH1 0x0 SWAP2 POP SWAP1 POP DUP1 PUSH1 0x0 ADD SLOAD SWAP1 DUP1 PUSH1 0x1 ADD SLOAD SWAP1 DUP1 PUSH1 0x2 ADD SLOAD SWAP1 DUP1 PUSH1 0x3 ADD SLOAD SWAP1 DUP1 PUSH1 0x4 ADD DUP1 SLOAD PUSH2 0x28A6 SWAP1 PUSH2 0x5275 JUMP JUMPDEST DUP1 PUSH1 0x1F ADD PUSH1 0x20 DUP1 SWAP2 DIV MUL PUSH1 0x20 ADD PUSH1 0x40 MLOAD SWAP1 DUP2 ADD PUSH1 0x40 MSTORE DUP1 SWAP3 SWAP2 SWAP1 DUP2 DUP2 MSTORE PUSH1 0x20 ADD DUP3 DUP1 SLOAD PUSH2 0x28D2 SWAP1 PUSH2 0x5275 JUMP JUMPDEST DUP1 ISZERO PUSH2 0x291F JUMPI DUP1 PUSH1 0x1F LT PUSH2 0x28F4 JUMPI PUSH2 0x100 DUP1 DUP4 SLOAD DIV MUL DUP4 MSTORE SWAP2 PUSH1 0x20 ADD SWAP2 PUSH2 0x291F JUMP JUMPDEST DUP3 ADD SWAP2 SWAP1 PUSH1 0x0 MSTORE PUSH1 0x20 PUSH1 0x0 KECCAK256 SWAP1 JUMPDEST DUP2 SLOAD DUP2 MSTORE SWAP1 PUSH1 0x1 ADD SWAP1 PUSH1 0x20 ADD DUP1 DUP4 GT PUSH2 0x2902 JUMPI DUP3 SWAP1 SUB PUSH1 0x1F AND DUP3 ADD SWAP2 JUMPDEST POP POP POP POP POP SWAP1 DUP1 PUSH1 0x5 ADD DUP1 SLOAD PUSH2 0x2934 SWAP1 PUSH2 0x5275 JUMP JUMPDEST DUP1 PUSH1 0x1F ADD PUSH1 0x20 DUP1 SWAP2 DIV MUL PUSH1 0x20 ADD PUSH1 0x40 MLOAD SWAP1 DUP2 ADD PUSH1 0x40 MSTORE DUP1 SWAP3 SWAP2 SWAP1 DUP2 DUP2 MSTORE PUSH1 0x20 ADD DUP3 DUP1 SLOAD PUSH2 0x2960 SWAP1 PUSH2 0x5275 JUMP JUMPDEST DUP1 ISZERO PUSH2 0x29AD JUMPI DUP1 PUSH1 0x1F LT PUSH2 0x2982 JUMPI PUSH2 0x100 DUP1 DUP4 SLOAD DIV MUL DUP4 MSTORE SWAP2 PUSH1 0x20 ADD SWAP2 PUSH2 0x29AD JUMP JUMPDEST DUP3 ADD SWAP2 SWAP1 PUSH1 0x0 MSTORE PUSH1 0x20 PUSH1 0x0 KECCAK256 SWAP1 JUMPDEST DUP2 SLOAD DUP2 MSTORE SWAP1 PUSH1 0x1 ADD SWAP1 PUSH1 0x20 ADD DUP1 DUP4 GT PUSH2 0x2990 JUMPI DUP3 SWAP1 SUB PUSH1 0x1F AND DUP3 ADD SWAP2 JUMPDEST POP POP POP POP POP SWAP1 DUP1 PUSH1 0x6 ADD DUP1 SLOAD PUSH2 0x29C2 SWAP1 PUSH2 0x5275 JUMP JUMPDEST DUP1 PUSH1 0x1F ADD PUSH1 0x20 DUP1 SWAP2 DIV MUL PUSH1 0x20 ADD PUSH1 0x40 MLOAD SWAP1 DUP2 ADD PUSH1 0x40 MSTORE DUP1 SWAP3 SWAP2 SWAP1 DUP2 DUP2 MSTORE PUSH1 0x20 ADD DUP3 DUP1 SLOAD PUSH2 0x29EE SWAP1 PUSH2 0x5275 JUMP JUMPDEST DUP1 ISZERO PUSH2 0x2A3B JUMPI DUP1 PUSH1 0x1F LT PUSH2 0x2A10 JUMPI PUSH2 0x100 DUP1 DUP4 SLOAD DIV MUL DUP4 MSTORE SWAP2 PUSH1 0x20 ADD SWAP2 PUSH2 0x2A3B JUMP JUMPDEST DUP3 ADD SWAP2 SWAP1 PUSH1 0x0 MSTORE PUSH1 0x20 PUSH1 0x0 KECCAK256 SWAP1 JUMPDEST DUP2 SLOAD DUP2 MSTORE SWAP1 PUSH1 0x1 ADD SWAP1 PUSH1 0x20 ADD DUP1 DUP4 GT PUSH2 0x2A1E JUMPI DUP3 SWAP1 SUB PUSH1 0x1F AND DUP3 ADD SWAP2 JUMPDEST POP POP POP POP POP SWAP1 POP DUP8 JUMP JUMPDEST PUSH1 0x60 PUSH1 0x0 JUMPDEST PUSH1 0x0 SLOAD DUP2 LT ISZERO PUSH2 0x2AED JUMPI DUP4 DUP1 MLOAD SWAP1 PUSH1 0x20 ADD KECCAK256 PUSH1 0x8 PUSH1 0x0 DUP4 DUP2 MSTORE PUSH1 0x20 ADD SWAP1 DUP2 MSTORE PUSH1 0x20 ADD PUSH1 0x0 KECCAK256 PUSH1 0x2 ADD PUSH1 0x40 MLOAD PUSH2 0x2A7F SWAP2 SWAP1 PUSH2 0x4B9F JUMP JUMPDEST PUSH1 0x40 MLOAD DUP1 SWAP2 SUB SWAP1 KECCAK256 EQ DUP1 ISZERO PUSH2 0x2AC4 JUMPI POP DUP3 DUP1 MLOAD SWAP1 PUSH1 0x20 ADD KECCAK256 PUSH1 0x8 PUSH1 0x0 DUP4 DUP2 MSTORE PUSH1 0x20 ADD SWAP1 DUP2 MSTORE PUSH1 0x20 ADD PUSH1 0x0 KECCAK256 PUSH1 0x3 ADD PUSH1 0x40 MLOAD PUSH2 0x2ABA SWAP2 SWAP1 PUSH2 0x4B9F JUMP JUMPDEST PUSH1 0x40 MLOAD DUP1 SWAP2 SUB SWAP1 KECCAK256 EQ JUMPDEST ISZERO PUSH2 0x2ADA JUMPI PUSH2 0x2AD2 DUP2 PUSH2 0x3C57 JUMP JUMPDEST SWAP2 POP POP PUSH2 0x2B27 JUMP JUMPDEST DUP1 DUP1 PUSH2 0x2AE5 SWAP1 PUSH2 0x52D8 JUMP JUMPDEST SWAP2 POP POP PUSH2 0x2A4A JUMP JUMPDEST POP PUSH1 0x40 MLOAD DUP1 PUSH1 0x40 ADD PUSH1 0x40 MSTORE DUP1 PUSH1 0x5 DUP2 MSTORE PUSH1 0x20 ADD PUSH32 0x46616C7365000000000000000000000000000000000000000000000000000000 DUP2 MSTORE POP SWAP1 POP JUMPDEST SWAP3 SWAP2 POP POP JUMP JUMPDEST PUSH1 0x40 MLOAD DUP1 PUSH1 0xA0 ADD PUSH1 0x40 MSTORE DUP1 PUSH1 0x5 SLOAD DUP2 MSTORE PUSH1 0x20 ADD DUP6 DUP2 MSTORE PUSH1 0x20 ADD DUP5 DUP2 MSTORE PUSH1 0x20 ADD DUP4 DUP2 MSTORE PUSH1 0x20 ADD DUP3 DUP2 MSTORE POP PUSH1 0xF PUSH1 0x0 PUSH1 0x5 SLOAD DUP2 MSTORE PUSH1 0x20 ADD SWAP1 DUP2 MSTORE PUSH1 0x20 ADD PUSH1 0x0 KECCAK256 PUSH1 0x0 DUP3 ADD MLOAD DUP2 PUSH1 0x0 ADD SSTORE PUSH1 0x20 DUP3 ADD MLOAD DUP2 PUSH1 0x1 ADD SSTORE PUSH1 0x40 DUP3 ADD MLOAD DUP2 PUSH1 0x2 ADD SSTORE PUSH1 0x60 DUP3 ADD MLOAD DUP2 PUSH1 0x3 ADD SWAP1 DUP1 MLOAD SWAP1 PUSH1 0x20 ADD SWAP1 PUSH2 0x2BA5 SWAP3 SWAP2 SWAP1 PUSH2 0x3EC2 JUMP JUMPDEST POP PUSH1 0x80 DUP3 ADD MLOAD DUP2 PUSH1 0x4 ADD SWAP1 DUP1 MLOAD SWAP1 PUSH1 0x20 ADD SWAP1 PUSH2 0x2BC2 SWAP3 SWAP2 SWAP1 PUSH2 0x3EC2 JUMP JUMPDEST POP SWAP1 POP POP PUSH1 0x1 PUSH1 0x9 PUSH1 0x0 DUP7 DUP2 MSTORE PUSH1 0x20 ADD SWAP1 DUP2 MSTORE PUSH1 0x20 ADD PUSH1 0x0 KECCAK256 PUSH1 0x6 ADD PUSH1 0x0 DUP3 DUP3 SLOAD PUSH2 0x2BED SWAP2 SWAP1 PUSH2 0x516D JUMP JUMPDEST SWAP3 POP POP DUP2 SWAP1 SSTORE POP PUSH1 0x5 PUSH1 0x0 DUP2 SLOAD DUP1 SWAP3 SWAP2 SWAP1 PUSH2 0x2C07 SWAP1 PUSH2 0x52D8 JUMP JUMPDEST SWAP2 SWAP1 POP SSTORE POP POP POP POP POP JUMP JUMPDEST PUSH1 0x0 SLOAD DUP2 JUMP JUMPDEST DUP9 PUSH1 0xE PUSH1 0x0 DUP12 DUP2 MSTORE PUSH1 0x20 ADD SWAP1 DUP2 MSTORE PUSH1 0x20 ADD PUSH1 0x0 KECCAK256 PUSH1 0x0 ADD DUP2 SWAP1 SSTORE POP DUP8 PUSH1 0xE PUSH1 0x0 DUP12 DUP2 MSTORE PUSH1 0x20 ADD SWAP1 DUP2 MSTORE PUSH1 0x20 ADD PUSH1 0x0 KECCAK256 PUSH1 0x1 ADD SWAP1 DUP1 MLOAD SWAP1 PUSH1 0x20 ADD SWAP1 PUSH2 0x2C5D SWAP3 SWAP2 SWAP1 PUSH2 0x3EC2 JUMP JUMPDEST POP DUP7 PUSH1 0xE PUSH1 0x0 DUP12 DUP2 MSTORE PUSH1 0x20 ADD SWAP1 DUP2 MSTORE PUSH1 0x20 ADD PUSH1 0x0 KECCAK256 PUSH1 0x2 ADD SWAP1 DUP1 MLOAD SWAP1 PUSH1 0x20 ADD SWAP1 PUSH2 0x2C88 SWAP3 SWAP2 SWAP1 PUSH2 0x3EC2 JUMP JUMPDEST POP DUP6 PUSH1 0xE PUSH1 0x0 DUP12 DUP2 MSTORE PUSH1 0x20 ADD SWAP1 DUP2 MSTORE PUSH1 0x20 ADD PUSH1 0x0 KECCAK256 PUSH1 0x3 ADD SWAP1 DUP1 MLOAD SWAP1 PUSH1 0x20 ADD SWAP1 PUSH2 0x2CB3 SWAP3 SWAP2 SWAP1 PUSH2 0x3EC2 JUMP JUMPDEST POP DUP5 PUSH1 0xE PUSH1 0x0 DUP12 DUP2 MSTORE PUSH1 0x20 ADD SWAP1 DUP2 MSTORE PUSH1 0x20 ADD PUSH1 0x0 KECCAK256 PUSH1 0x4 ADD SWAP1 DUP1 MLOAD SWAP1 PUSH1 0x20 ADD SWAP1 PUSH2 0x2CDE SWAP3 SWAP2 SWAP1 PUSH2 0x3EC2 JUMP JUMPDEST POP DUP4 PUSH1 0xE PUSH1 0x0 DUP12 DUP2 MSTORE PUSH1 0x20 ADD SWAP1 DUP2 MSTORE PUSH1 0x20 ADD PUSH1 0x0 KECCAK256 PUSH1 0x5 ADD SWAP1 DUP1 MLOAD SWAP1 PUSH1 0x20 ADD SWAP1 PUSH2 0x2D09 SWAP3 SWAP2 SWAP1 PUSH2 0x3EC2 JUMP JUMPDEST POP DUP3 PUSH1 0xE PUSH1 0x0 DUP12 DUP2 MSTORE PUSH1 0x20 ADD SWAP1 DUP2 MSTORE PUSH1 0x20 ADD PUSH1 0x0 KECCAK256 PUSH1 0x6 ADD SWAP1 DUP1 MLOAD SWAP1 PUSH1 0x20 ADD SWAP1 PUSH2 0x2D34 SWAP3 SWAP2 SWAP1 PUSH2 0x3EC2 JUMP JUMPDEST POP DUP2 PUSH1 0xE PUSH1 0x0 DUP12 DUP2 MSTORE PUSH1 0x20 ADD SWAP1 DUP2 MSTORE PUSH1 0x20 ADD PUSH1 0x0 KECCAK256 PUSH1 0x7 ADD SWAP1 DUP1 MLOAD SWAP1 PUSH1 0x20 ADD SWAP1 PUSH2 0x2D5F SWAP3 SWAP2 SWAP1 PUSH2 0x3EC2 JUMP JUMPDEST POP DUP1 PUSH1 0x8 PUSH1 0x0 DUP12 DUP2 MSTORE PUSH1 0x20 ADD SWAP1 DUP2 MSTORE PUSH1 0x20 ADD PUSH1 0x0 KECCAK256 PUSH1 0x4 ADD PUSH1 0x0 PUSH2 0x100 EXP DUP2 SLOAD DUP2 PUSH20 0xFFFFFFFFFFFFFFFFFFFFFFFFFFFFFFFFFFFFFFFF MUL NOT AND SWAP1 DUP4 PUSH20 0xFFFFFFFFFFFFFFFFFFFFFFFFFFFFFFFFFFFFFFFF AND MUL OR SWAP1 SSTORE POP POP POP POP POP POP POP POP POP POP JUMP JUMPDEST PUSH1 0x8 PUSH1 0x0 DUP3 DUP2 MSTORE PUSH1 0x20 ADD SWAP1 DUP2 MSTORE PUSH1 0x20 ADD PUSH1 0x0 KECCAK256 PUSH1 0x0 DUP1 DUP3 ADD PUSH1 0x0 SWAP1 SSTORE PUSH1 0x1 DUP3 ADD PUSH1 0x0 PUSH2 0x2DEC SWAP2 SWAP1 PUSH2 0x3E82 JUMP JUMPDEST PUSH1 0x2 DUP3 ADD PUSH1 0x0 PUSH2 0x2DFC SWAP2 SWAP1 PUSH2 0x3E82 JUMP JUMPDEST PUSH1 0x3 DUP3 ADD PUSH1 0x0 PUSH2 0x2E0C SWAP2 SWAP1 PUSH2 0x3E82 JUMP JUMPDEST PUSH1 0x4 DUP3 ADD PUSH1 0x0 PUSH2 0x100 EXP DUP2 SLOAD SWAP1 PUSH20 0xFFFFFFFFFFFFFFFFFFFFFFFFFFFFFFFFFFFFFFFF MUL NOT AND SWAP1 SSTORE PUSH1 0x5 DUP3 ADD PUSH1 0x0 PUSH2 0x2E43 SWAP2 SWAP1 PUSH2 0x3E82 JUMP JUMPDEST PUSH1 0x6 DUP3 ADD PUSH1 0x0 PUSH2 0x2E53 SWAP2 SWAP1 PUSH2 0x3E82 JUMP JUMPDEST PUSH1 0x7 DUP3 ADD PUSH1 0x0 SWAP1 SSTORE PUSH1 0x8 DUP3 ADD PUSH1 0x0 PUSH2 0x2E6B SWAP2 SWAP1 PUSH2 0x3E82 JUMP JUMPDEST PUSH1 0x9 DUP3 ADD PUSH1 0x0 SWAP1 SSTORE POP POP PUSH1 0xE PUSH1 0x0 DUP3 DUP2 MSTORE PUSH1 0x20 ADD SWAP1 DUP2 MSTORE PUSH1 0x20 ADD PUSH1 0x0 KECCAK256 PUSH1 0x0 DUP1 DUP3 ADD PUSH1 0x0 SWAP1 SSTORE PUSH1 0x1 DUP3 ADD PUSH1 0x0 PUSH2 0x2EA1 SWAP2 SWAP1 PUSH2 0x3E82 JUMP JUMPDEST PUSH1 0x2 DUP3 ADD PUSH1 0x0 PUSH2 0x2EB1 SWAP2 SWAP1 PUSH2 0x3E82 JUMP JUMPDEST PUSH1 0x3 DUP3 ADD PUSH1 0x0 PUSH2 0x2EC1 SWAP2 SWAP1 PUSH2 0x3E82 JUMP JUMPDEST PUSH1 0x4 DUP3 ADD PUSH1 0x0 PUSH2 0x2ED1 SWAP2 SWAP1 PUSH2 0x3E82 JUMP JUMPDEST PUSH1 0x5 DUP3 ADD PUSH1 0x0 PUSH2 0x2EE1 SWAP2 SWAP1 PUSH2 0x3E82 JUMP JUMPDEST PUSH1 0x6 DUP3 ADD PUSH1 0x0 PUSH2 0x2EF1 SWAP2 SWAP1 PUSH2 0x3E82 JUMP JUMPDEST PUSH1 0x7 DUP3 ADD PUSH1 0x0 PUSH2 0x2F01 SWAP2 SWAP1 PUSH2 0x3E82 JUMP JUMPDEST POP POP PUSH1 0x0 JUMPDEST PUSH1 0x5 SLOAD DUP2 LT ISZERO PUSH2 0x2F71 JUMPI PUSH1 0xF PUSH1 0x0 DUP3 DUP2 MSTORE PUSH1 0x20 ADD SWAP1 DUP2 MSTORE PUSH1 0x20 ADD PUSH1 0x0 KECCAK256 PUSH1 0x0 DUP1 DUP3 ADD PUSH1 0x0 SWAP1 SSTORE PUSH1 0x1 DUP3 ADD PUSH1 0x0 SWAP1 SSTORE PUSH1 0x2 DUP3 ADD PUSH1 0x0 SWAP1 SSTORE PUSH1 0x3 DUP3 ADD PUSH1 0x0 PUSH2 0x2F4C SWAP2 SWAP1 PUSH2 0x3E82 JUMP JUMPDEST PUSH1 0x4 DUP3 ADD PUSH1 0x0 PUSH2 0x2F5C SWAP2 SWAP1 PUSH2 0x3E82 JUMP JUMPDEST POP POP DUP1 DUP1 PUSH2 0x2F69 SWAP1 PUSH2 0x52D8 JUMP JUMPDEST SWAP2 POP POP PUSH2 0x2F06 JUMP JUMPDEST POP PUSH1 0x0 JUMPDEST PUSH1 0x6 SLOAD DUP2 LT ISZERO PUSH2 0x2FF8 JUMPI PUSH1 0x10 PUSH1 0x0 DUP3 DUP2 MSTORE PUSH1 0x20 ADD SWAP1 DUP2 MSTORE PUSH1 0x20 ADD PUSH1 0x0 KECCAK256 PUSH1 0x0 DUP1 DUP3 ADD PUSH1 0x0 SWAP1 SSTORE PUSH1 0x1 DUP3 ADD PUSH1 0x0 SWAP1 SSTORE PUSH1 0x2 DUP3 ADD PUSH1 0x0 SWAP1 SSTORE PUSH1 0x3 DUP3 ADD PUSH1 0x0 SWAP1 SSTORE PUSH1 0x4 DUP3 ADD PUSH1 0x0 PUSH2 0x2FC3 SWAP2 SWAP1 PUSH2 0x3E82 JUMP JUMPDEST PUSH1 0x5 DUP3 ADD PUSH1 0x0 PUSH2 0x2FD3 SWAP2 SWAP1 PUSH2 0x3E82 JUMP JUMPDEST PUSH1 0x6 DUP3 ADD PUSH1 0x0 PUSH2 0x2FE3 SWAP2 SWAP1 PUSH2 0x3E82 JUMP JUMPDEST POP POP DUP1 DUP1 PUSH2 0x2FF0 SWAP1 PUSH2 0x52D8 JUMP JUMPDEST SWAP2 POP POP PUSH2 0x2F75 JUMP JUMPDEST POP PUSH1 0x0 JUMPDEST PUSH1 0x7 SLOAD DUP2 LT ISZERO PUSH2 0x305F JUMPI PUSH1 0x11 PUSH1 0x0 DUP3 DUP2 MSTORE PUSH1 0x20 ADD SWAP1 DUP2 MSTORE PUSH1 0x20 ADD PUSH1 0x0 KECCAK256 PUSH1 0x0 DUP1 DUP3 ADD PUSH1 0x0 SWAP1 SSTORE PUSH1 0x1 DUP3 ADD PUSH1 0x0 SWAP1 SSTORE PUSH1 0x2 DUP3 ADD PUSH1 0x0 SWAP1 SSTORE PUSH1 0x3 DUP3 ADD PUSH1 0x0 SWAP1 SSTORE PUSH1 0x4 DUP3 ADD PUSH1 0x0 PUSH2 0x304A SWAP2 SWAP1 PUSH2 0x3E82 JUMP JUMPDEST POP POP DUP1 DUP1 PUSH2 0x3057 SWAP1 PUSH2 0x52D8 JUMP JUMPDEST SWAP2 POP POP PUSH2 0x2FFC JUMP JUMPDEST POP PUSH1 0x1 PUSH1 0x0 SLOAD PUSH2 0x306F SWAP2 SWAP1 PUSH2 0x51C3 JUMP JUMPDEST PUSH1 0x0 DUP2 SWAP1 SSTORE POP PUSH1 0x0 PUSH1 0x5 DUP2 SWAP1 SSTORE POP PUSH1 0x0 PUSH1 0x6 DUP2 SWAP1 SSTORE POP PUSH1 0x0 PUSH1 0x7 DUP2 SWAP1 SSTORE POP POP JUMP JUMPDEST PUSH1 0xB PUSH1 0x20 MSTORE DUP1 PUSH1 0x0 MSTORE PUSH1 0x40 PUSH1 0x0 KECCAK256 PUSH1 0x0 SWAP2 POP SWAP1 POP DUP1 PUSH1 0x0 ADD SLOAD SWAP1 DUP1 PUSH1 0x1 ADD SLOAD SWAP1 DUP1 PUSH1 0x2 ADD SLOAD SWAP1 DUP1 PUSH1 0x3 ADD DUP1 SLOAD PUSH2 0x30C5 SWAP1 PUSH2 0x5275 JUMP JUMPDEST DUP1 PUSH1 0x1F ADD PUSH1 0x20 DUP1 SWAP2 DIV MUL PUSH1 0x20 ADD PUSH1 0x40 MLOAD SWAP1 DUP2 ADD PUSH1 0x40 MSTORE DUP1 SWAP3 SWAP2 SWAP1 DUP2 DUP2 MSTORE PUSH1 0x20 ADD DUP3 DUP1 SLOAD PUSH2 0x30F1 SWAP1 PUSH2 0x5275 JUMP JUMPDEST DUP1 ISZERO PUSH2 0x313E JUMPI DUP1 PUSH1 0x1F LT PUSH2 0x3113 JUMPI PUSH2 0x100 DUP1 DUP4 SLOAD DIV MUL DUP4 MSTORE SWAP2 PUSH1 0x20 ADD SWAP2 PUSH2 0x313E JUMP JUMPDEST DUP3 ADD SWAP2 SWAP1 PUSH1 0x0 MSTORE PUSH1 0x20 PUSH1 0x0 KECCAK256 SWAP1 JUMPDEST DUP2 SLOAD DUP2 MSTORE SWAP1 PUSH1 0x1 ADD SWAP1 PUSH1 0x20 ADD DUP1 DUP4 GT PUSH2 0x3121 JUMPI DUP3 SWAP1 SUB PUSH1 0x1F AND DUP3 ADD SWAP2 JUMPDEST POP POP POP POP POP SWAP1 DUP1 PUSH1 0x4 ADD DUP1 SLOAD PUSH2 0x3153 SWAP1 PUSH2 0x5275 JUMP JUMPDEST DUP1 PUSH1 0x1F ADD PUSH1 0x20 DUP1 SWAP2 DIV MUL PUSH1 0x20 ADD PUSH1 0x40 MLOAD SWAP1 DUP2 ADD PUSH1 0x40 MSTORE DUP1 SWAP3 SWAP2 SWAP1 DUP2 DUP2 MSTORE PUSH1 0x20 ADD DUP3 DUP1 SLOAD PUSH2 0x317F SWAP1 PUSH2 0x5275 JUMP JUMPDEST DUP1 ISZERO PUSH2 0x31CC JUMPI DUP1 PUSH1 0x1F LT PUSH2 0x31A1 JUMPI PUSH2 0x100 DUP1 DUP4 SLOAD DIV MUL DUP4 MSTORE SWAP2 PUSH1 0x20 ADD SWAP2 PUSH2 0x31CC JUMP JUMPDEST DUP3 ADD SWAP2 SWAP1 PUSH1 0x0 MSTORE PUSH1 0x20 PUSH1 0x0 KECCAK256 SWAP1 JUMPDEST DUP2 SLOAD DUP2 MSTORE SWAP1 PUSH1 0x1 ADD SWAP1 PUSH1 0x20 ADD DUP1 DUP4 GT PUSH2 0x31AF JUMPI DUP3 SWAP1 SUB PUSH1 0x1F AND DUP3 ADD SWAP2 JUMPDEST POP POP POP POP POP SWAP1 DUP1 PUSH1 0x5 ADD DUP1 SLOAD PUSH2 0x31E1 SWAP1 PUSH2 0x5275 JUMP JUMPDEST DUP1 PUSH1 0x1F ADD PUSH1 0x20 DUP1 SWAP2 DIV MUL PUSH1 0x20 ADD PUSH1 0x40 MLOAD SWAP1 DUP2 ADD PUSH1 0x40 MSTORE DUP1 SWAP3 SWAP2 SWAP1 DUP2 DUP2 MSTORE PUSH1 0x20 ADD DUP3 DUP1 SLOAD PUSH2 0x320D SWAP1 PUSH2 0x5275 JUMP JUMPDEST DUP1 ISZERO PUSH2 0x325A JUMPI DUP1 PUSH1 0x1F LT PUSH2 0x322F JUMPI PUSH2 0x100 DUP1 DUP4 SLOAD DIV MUL DUP4 MSTORE SWAP2 PUSH1 0x20 ADD SWAP2 PUSH2 0x325A JUMP JUMPDEST DUP3 ADD SWAP2 SWAP1 PUSH1 0x0 MSTORE PUSH1 0x20 PUSH1 0x0 KECCAK256 SWAP1 JUMPDEST DUP2 SLOAD DUP2 MSTORE SWAP1 PUSH1 0x1 ADD SWAP1 PUSH1 0x20 ADD DUP1 DUP4 GT PUSH2 0x323D JUMPI DUP3 SWAP1 SUB PUSH1 0x1F AND DUP3 ADD SWAP2 JUMPDEST POP POP POP POP POP SWAP1 DUP1 PUSH1 0x6 ADD DUP1 SLOAD PUSH2 0x326F SWAP1 PUSH2 0x5275 JUMP JUMPDEST DUP1 PUSH1 0x1F ADD PUSH1 0x20 DUP1 SWAP2 DIV MUL PUSH1 0x20 ADD PUSH1 0x40 MLOAD SWAP1 DUP2 ADD PUSH1 0x40 MSTORE DUP1 SWAP3 SWAP2 SWAP1 DUP2 DUP2 MSTORE PUSH1 0x20 ADD DUP3 DUP1 SLOAD PUSH2 0x329B SWAP1 PUSH2 0x5275 JUMP JUMPDEST DUP1 ISZERO PUSH2 0x32E8 JUMPI DUP1 PUSH1 0x1F LT PUSH2 0x32BD JUMPI PUSH2 0x100 DUP1 DUP4 SLOAD DIV MUL DUP4 MSTORE SWAP2 PUSH1 0x20 ADD SWAP2 PUSH2 0x32E8 JUMP JUMPDEST DUP3 ADD SWAP2 SWAP1 PUSH1 0x0 MSTORE PUSH1 0x20 PUSH1 0x0 KECCAK256 SWAP1 JUMPDEST DUP2 SLOAD DUP2 MSTORE SWAP1 PUSH1 0x1 ADD SWAP1 PUSH1 0x20 ADD DUP1 DUP4 GT PUSH2 0x32CB JUMPI DUP3 SWAP1 SUB PUSH1 0x1F AND DUP3 ADD SWAP2 JUMPDEST POP POP POP POP POP SWAP1 DUP1 PUSH1 0x7 ADD SLOAD SWAP1 DUP1 PUSH1 0x8 ADD SLOAD SWAP1 POP DUP10 JUMP JUMPDEST DUP1 PUSH1 0x8 PUSH1 0x0 DUP5 DUP2 MSTORE PUSH1 0x20 ADD SWAP1 DUP2 MSTORE PUSH1 0x20 ADD PUSH1 0x0 KECCAK256 PUSH1 0x5 ADD SWAP1 DUP1 MLOAD SWAP1 PUSH1 0x20 ADD SWAP1 PUSH2 0x3328 SWAP3 SWAP2 SWAP1 PUSH2 0x3EC2 JUMP JUMPDEST POP POP POP JUMP JUMPDEST DUP2 PUSH1 0x8 PUSH1 0x0 DUP6 DUP2 MSTORE PUSH1 0x20 ADD SWAP1 DUP2 MSTORE PUSH1 0x20 ADD PUSH1 0x0 KECCAK256 PUSH1 0x6 ADD SWAP1 DUP1 MLOAD SWAP1 PUSH1 0x20 ADD SWAP1 PUSH2 0x3357 SWAP3 SWAP2 SWAP1 PUSH2 0x3EC2 JUMP JUMPDEST POP DUP1 PUSH1 0x8 PUSH1 0x0 DUP6 DUP2 MSTORE PUSH1 0x20 ADD SWAP1 DUP2 MSTORE PUSH1 0x20 ADD PUSH1 0x0 KECCAK256 PUSH1 0x7 ADD DUP2 SWAP1 SSTORE POP POP POP POP JUMP JUMPDEST PUSH1 0xD PUSH1 0x20 MSTORE DUP1 PUSH1 0x0 MSTORE PUSH1 0x40 PUSH1 0x0 KECCAK256 PUSH1 0x0 SWAP2 POP SWAP1 POP DUP1 SLOAD PUSH2 0x3397 SWAP1 PUSH2 0x5275 JUMP JUMPDEST DUP1 PUSH1 0x1F ADD PUSH1 0x20 DUP1 SWAP2 DIV MUL PUSH1 0x20 ADD PUSH1 0x40 MLOAD SWAP1 DUP2 ADD PUSH1 0x40 MSTORE DUP1 SWAP3 SWAP2 SWAP1 DUP2 DUP2 MSTORE PUSH1 0x20 ADD DUP3 DUP1 SLOAD PUSH2 0x33C3 SWAP1 PUSH2 0x5275 JUMP JUMPDEST DUP1 ISZERO PUSH2 0x3410 JUMPI DUP1 PUSH1 0x1F LT PUSH2 0x33E5 JUMPI PUSH2 0x100 DUP1 DUP4 SLOAD DIV MUL DUP4 MSTORE SWAP2 PUSH1 0x20 ADD SWAP2 PUSH2 0x3410 JUMP JUMPDEST DUP3 ADD SWAP2 SWAP1 PUSH1 0x0 MSTORE PUSH1 0x20 PUSH1 0x0 KECCAK256 SWAP1 JUMPDEST DUP2 SLOAD DUP2 MSTORE SWAP1 PUSH1 0x1 ADD SWAP1 PUSH1 0x20 ADD DUP1 DUP4 GT PUSH2 0x33F3 JUMPI DUP3 SWAP1 SUB PUSH1 0x1F AND DUP3 ADD SWAP2 JUMPDEST POP POP POP POP POP DUP2 JUMP JUMPDEST PUSH1 0x5 SLOAD DUP2 JUMP JUMPDEST PUSH1 0xE PUSH1 0x20 MSTORE DUP1 PUSH1 0x0 MSTORE PUSH1 0x40 PUSH1 0x0 KECCAK256 PUSH1 0x0 SWAP2 POP SWAP1 POP DUP1 PUSH1 0x0 ADD SLOAD SWAP1 DUP1 PUSH1 0x1 ADD DUP1 SLOAD PUSH2 0x3447 SWAP1 PUSH2 0x5275 JUMP JUMPDEST DUP1 PUSH1 0x1F ADD PUSH1 0x20 DUP1 SWAP2 DIV MUL PUSH1 0x20 ADD PUSH1 0x40 MLOAD SWAP1 DUP2 ADD PUSH1 0x40 MSTORE DUP1 SWAP3 SWAP2 SWAP1 DUP2 DUP2 MSTORE PUSH1 0x20 ADD DUP3 DUP1 SLOAD PUSH2 0x3473 SWAP1 PUSH2 0x5275 JUMP JUMPDEST DUP1 ISZERO PUSH2 0x34C0 JUMPI DUP1 PUSH1 0x1F LT PUSH2 0x3495 JUMPI PUSH2 0x100 DUP1 DUP4 SLOAD DIV MUL DUP4 MSTORE SWAP2 PUSH1 0x20 ADD SWAP2 PUSH2 0x34C0 JUMP JUMPDEST DUP3 ADD SWAP2 SWAP1 PUSH1 0x0 MSTORE PUSH1 0x20 PUSH1 0x0 KECCAK256 SWAP1 JUMPDEST DUP2 SLOAD DUP2 MSTORE SWAP1 PUSH1 0x1 ADD SWAP1 PUSH1 0x20 ADD DUP1 DUP4 GT PUSH2 0x34A3 JUMPI DUP3 SWAP1 SUB PUSH1 0x1F AND DUP3 ADD SWAP2 JUMPDEST POP POP POP POP POP SWAP1 DUP1 PUSH1 0x2 ADD DUP1 SLOAD PUSH2 0x34D5 SWAP1 PUSH2 0x5275 JUMP JUMPDEST DUP1 PUSH1 0x1F ADD PUSH1 0x20 DUP1 SWAP2 DIV MUL PUSH1 0x20 ADD PUSH1 0x40 MLOAD SWAP1 DUP2 ADD PUSH1 0x40 MSTORE DUP1 SWAP3 SWAP2 SWAP1 DUP2 DUP2 MSTORE PUSH1 0x20 ADD DUP3 DUP1 SLOAD PUSH2 0x3501 SWAP1 PUSH2 0x5275 JUMP JUMPDEST DUP1 ISZERO PUSH2 0x354E JUMPI DUP1 PUSH1 0x1F LT PUSH2 0x3523 JUMPI PUSH2 0x100 DUP1 DUP4 SLOAD DIV MUL DUP4 MSTORE SWAP2 PUSH1 0x20 ADD SWAP2 PUSH2 0x354E JUMP JUMPDEST DUP3 ADD SWAP2 SWAP1 PUSH1 0x0 MSTORE PUSH1 0x20 PUSH1 0x0 KECCAK256 SWAP1 JUMPDEST DUP2 SLOAD DUP2 MSTORE SWAP1 PUSH1 0x1 ADD SWAP1 PUSH1 0x20 ADD DUP1 DUP4 GT PUSH2 0x3531 JUMPI DUP3 SWAP1 SUB PUSH1 0x1F AND DUP3 ADD SWAP2 JUMPDEST POP POP POP POP POP SWAP1 DUP1 PUSH1 0x3 ADD DUP1 SLOAD PUSH2 0x3563 SWAP1 PUSH2 0x5275 JUMP JUMPDEST DUP1 PUSH1 0x1F ADD PUSH1 0x20 DUP1 SWAP2 DIV MUL PUSH1 0x20 ADD PUSH1 0x40 MLOAD SWAP1 DUP2 ADD PUSH1 0x40 MSTORE DUP1 SWAP3 SWAP2 SWAP1 DUP2 DUP2 MSTORE PUSH1 0x20 ADD DUP3 DUP1 SLOAD PUSH2 0x358F SWAP1 PUSH2 0x5275 JUMP JUMPDEST DUP1 ISZERO PUSH2 0x35DC JUMPI DUP1 PUSH1 0x1F LT PUSH2 0x35B1 JUMPI PUSH2 0x100 DUP1 DUP4 SLOAD DIV MUL DUP4 MSTORE SWAP2 PUSH1 0x20 ADD SWAP2 PUSH2 0x35DC JUMP JUMPDEST DUP3 ADD SWAP2 SWAP1 PUSH1 0x0 MSTORE PUSH1 0x20 PUSH1 0x0 KECCAK256 SWAP1 JUMPDEST DUP2 SLOAD DUP2 MSTORE SWAP1 PUSH1 0x1 ADD SWAP1 PUSH1 0x20 ADD DUP1 DUP4 GT PUSH2 0x35BF JUMPI DUP3 SWAP1 SUB PUSH1 0x1F AND DUP3 ADD SWAP2 JUMPDEST POP POP POP POP POP SWAP1 DUP1 PUSH1 0x4 ADD DUP1 SLOAD PUSH2 0x35F1 SWAP1 PUSH2 0x5275 JUMP JUMPDEST DUP1 PUSH1 0x1F ADD PUSH1 0x20 DUP1 SWAP2 DIV MUL PUSH1 0x20 ADD PUSH1 0x40 MLOAD SWAP1 DUP2 ADD PUSH1 0x40 MSTORE DUP1 SWAP3 SWAP2 SWAP1 DUP2 DUP2 MSTORE PUSH1 0x20 ADD DUP3 DUP1 SLOAD PUSH2 0x361D SWAP1 PUSH2 0x5275 JUMP JUMPDEST DUP1 ISZERO PUSH2 0x366A JUMPI DUP1 PUSH1 0x1F LT PUSH2 0x363F JUMPI PUSH2 0x100 DUP1 DUP4 SLOAD DIV MUL DUP4 MSTORE SWAP2 PUSH1 0x20 ADD SWAP2 PUSH2 0x366A JUMP JUMPDEST DUP3 ADD SWAP2 SWAP1 PUSH1 0x0 MSTORE PUSH1 0x20 PUSH1 0x0 KECCAK256 SWAP1 JUMPDEST DUP2 SLOAD DUP2 MSTORE SWAP1 PUSH1 0x1 ADD SWAP1 PUSH1 0x20 ADD DUP1 DUP4 GT PUSH2 0x364D JUMPI DUP3 SWAP1 SUB PUSH1 0x1F AND DUP3 ADD SWAP2 JUMPDEST POP POP POP POP POP SWAP1 DUP1 PUSH1 0x5 ADD DUP1 SLOAD PUSH2 0x367F SWAP1 PUSH2 0x5275 JUMP JUMPDEST DUP1 PUSH1 0x1F ADD PUSH1 0x20 DUP1 SWAP2 DIV MUL PUSH1 0x20 ADD PUSH1 0x40 MLOAD SWAP1 DUP2 ADD PUSH1 0x40 MSTORE DUP1 SWAP3 SWAP2 SWAP1 DUP2 DUP2 MSTORE PUSH1 0x20 ADD DUP3 DUP1 SLOAD PUSH2 0x36AB SWAP1 PUSH2 0x5275 JUMP JUMPDEST DUP1 ISZERO PUSH2 0x36F8 JUMPI DUP1 PUSH1 0x1F LT PUSH2 0x36CD JUMPI PUSH2 0x100 DUP1 DUP4 SLOAD DIV MUL DUP4 MSTORE SWAP2 PUSH1 0x20 ADD SWAP2 PUSH2 0x36F8 JUMP JUMPDEST DUP3 ADD SWAP2 SWAP1 PUSH1 0x0 MSTORE PUSH1 0x20 PUSH1 0x0 KECCAK256 SWAP1 JUMPDEST DUP2 SLOAD DUP2 MSTORE SWAP1 PUSH1 0x1 ADD SWAP1 PUSH1 0x20 ADD DUP1 DUP4 GT PUSH2 0x36DB JUMPI DUP3 SWAP1 SUB PUSH1 0x1F AND DUP3 ADD SWAP2 JUMPDEST POP POP POP POP POP SWAP1 DUP1 PUSH1 0x6 ADD DUP1 SLOAD PUSH2 0x370D SWAP1 PUSH2 0x5275 JUMP JUMPDEST DUP1 PUSH1 0x1F ADD PUSH1 0x20 DUP1 SWAP2 DIV MUL PUSH1 0x20 ADD PUSH1 0x40 MLOAD SWAP1 DUP2 ADD PUSH1 0x40 MSTORE DUP1 SWAP3 SWAP2 SWAP1 DUP2 DUP2 MSTORE PUSH1 0x20 ADD DUP3 DUP1 SLOAD PUSH2 0x3739 SWAP1 PUSH2 0x5275 JUMP JUMPDEST DUP1 ISZERO PUSH2 0x3786 JUMPI DUP1 PUSH1 0x1F LT PUSH2 0x375B JUMPI PUSH2 0x100 DUP1 DUP4 SLOAD DIV MUL DUP4 MSTORE SWAP2 PUSH1 0x20 ADD SWAP2 PUSH2 0x3786 JUMP JUMPDEST DUP3 ADD SWAP2 SWAP1 PUSH1 0x0 MSTORE PUSH1 0x20 PUSH1 0x0 KECCAK256 SWAP1 JUMPDEST DUP2 SLOAD DUP2 MSTORE SWAP1 PUSH1 0x1 ADD SWAP1 PUSH1 0x20 ADD DUP1 DUP4 GT PUSH2 0x3769 JUMPI DUP3 SWAP1 SUB PUSH1 0x1F AND DUP3 ADD SWAP2 JUMPDEST POP POP POP POP POP SWAP1 DUP1 PUSH1 0x7 ADD DUP1 SLOAD PUSH2 0x379B SWAP1 PUSH2 0x5275 JUMP JUMPDEST DUP1 PUSH1 0x1F ADD PUSH1 0x20 DUP1 SWAP2 DIV MUL PUSH1 0x20 ADD PUSH1 0x40 MLOAD SWAP1 DUP2 ADD PUSH1 0x40 MSTORE DUP1 SWAP3 SWAP2 SWAP1 DUP2 DUP2 MSTORE PUSH1 0x20 ADD DUP3 DUP1 SLOAD PUSH2 0x37C7 SWAP1 PUSH2 0x5275 JUMP JUMPDEST DUP1 ISZERO PUSH2 0x3814 JUMPI DUP1 PUSH1 0x1F LT PUSH2 0x37E9 JUMPI PUSH2 0x100 DUP1 DUP4 SLOAD DIV MUL DUP4 MSTORE SWAP2 PUSH1 0x20 ADD SWAP2 PUSH2 0x3814 JUMP JUMPDEST DUP3 ADD SWAP2 SWAP1 PUSH1 0x0 MSTORE PUSH1 0x20 PUSH1 0x0 KECCAK256 SWAP1 JUMPDEST DUP2 SLOAD DUP2 MSTORE SWAP1 PUSH1 0x1 ADD SWAP1 PUSH1 0x20 ADD DUP1 DUP4 GT PUSH2 0x37F7 JUMPI DUP3 SWAP1 SUB PUSH1 0x1F AND DUP3 ADD SWAP2 JUMPDEST POP POP POP POP POP SWAP1 POP DUP9 JUMP JUMPDEST PUSH1 0xC PUSH1 0x20 MSTORE DUP1 PUSH1 0x0 MSTORE PUSH1 0x40 PUSH1 0x0 KECCAK256 PUSH1 0x0 SWAP2 POP SWAP1 POP DUP1 PUSH1 0x0 ADD DUP1 SLOAD PUSH2 0x3841 SWAP1 PUSH2 0x5275 JUMP JUMPDEST DUP1 PUSH1 0x1F ADD PUSH1 0x20 DUP1 SWAP2 DIV MUL PUSH1 0x20 ADD PUSH1 0x40 MLOAD SWAP1 DUP2 ADD PUSH1 0x40 MSTORE DUP1 SWAP3 SWAP2 SWAP1 DUP2 DUP2 MSTORE PUSH1 0x20 ADD DUP3 DUP1 SLOAD PUSH2 0x386D SWAP1 PUSH2 0x5275 JUMP JUMPDEST DUP1 ISZERO PUSH2 0x38BA JUMPI DUP1 PUSH1 0x1F LT PUSH2 0x388F JUMPI PUSH2 0x100 DUP1 DUP4 SLOAD DIV MUL DUP4 MSTORE SWAP2 PUSH1 0x20 ADD SWAP2 PUSH2 0x38BA JUMP JUMPDEST DUP3 ADD SWAP2 SWAP1 PUSH1 0x0 MSTORE PUSH1 0x20 PUSH1 0x0 KECCAK256 SWAP1 JUMPDEST DUP2 SLOAD DUP2 MSTORE SWAP1 PUSH1 0x1 ADD SWAP1 PUSH1 0x20 ADD DUP1 DUP4 GT PUSH2 0x389D JUMPI DUP3 SWAP1 SUB PUSH1 0x1F AND DUP3 ADD SWAP2 JUMPDEST POP POP POP POP POP SWAP1 DUP1 PUSH1 0x1 ADD DUP1 SLOAD PUSH2 0x38CF SWAP1 PUSH2 0x5275 JUMP JUMPDEST DUP1 PUSH1 0x1F ADD PUSH1 0x20 DUP1 SWAP2 DIV MUL PUSH1 0x20 ADD PUSH1 0x40 MLOAD SWAP1 DUP2 ADD PUSH1 0x40 MSTORE DUP1 SWAP3 SWAP2 SWAP1 DUP2 DUP2 MSTORE PUSH1 0x20 ADD DUP3 DUP1 SLOAD PUSH2 0x38FB SWAP1 PUSH2 0x5275 JUMP JUMPDEST DUP1 ISZERO PUSH2 0x3948 JUMPI DUP1 PUSH1 0x1F LT PUSH2 0x391D JUMPI PUSH2 0x100 DUP1 DUP4 SLOAD DIV MUL DUP4 MSTORE SWAP2 PUSH1 0x20 ADD SWAP2 PUSH2 0x3948 JUMP JUMPDEST DUP3 ADD SWAP2 SWAP1 PUSH1 0x0 MSTORE PUSH1 0x20 PUSH1 0x0 KECCAK256 SWAP1 JUMPDEST DUP2 SLOAD DUP2 MSTORE SWAP1 PUSH1 0x1 ADD SWAP1 PUSH1 0x20 ADD DUP1 DUP4 GT PUSH2 0x392B JUMPI DUP3 SWAP1 SUB PUSH1 0x1F AND DUP3 ADD SWAP2 JUMPDEST POP POP POP POP POP SWAP1 POP DUP3 JUMP JUMPDEST PUSH1 0xF PUSH1 0x20 MSTORE DUP1 PUSH1 0x0 MSTORE PUSH1 0x40 PUSH1 0x0 KECCAK256 PUSH1 0x0 SWAP2 POP SWAP1 POP DUP1 PUSH1 0x0 ADD SLOAD SWAP1 DUP1 PUSH1 0x1 ADD SLOAD SWAP1 DUP1 PUSH1 0x2 ADD SLOAD SWAP1 DUP1 PUSH1 0x3 ADD DUP1 SLOAD PUSH2 0x3987 SWAP1 PUSH2 0x5275 JUMP JUMPDEST DUP1 PUSH1 0x1F ADD PUSH1 0x20 DUP1 SWAP2 DIV MUL PUSH1 0x20 ADD PUSH1 0x40 MLOAD SWAP1 DUP2 ADD PUSH1 0x40 MSTORE DUP1 SWAP3 SWAP2 SWAP1 DUP2 DUP2 MSTORE PUSH1 0x20 ADD DUP3 DUP1 SLOAD PUSH2 0x39B3 SWAP1 PUSH2 0x5275 JUMP JUMPDEST DUP1 ISZERO PUSH2 0x3A00 JUMPI DUP1 PUSH1 0x1F LT PUSH2 0x39D5 JUMPI PUSH2 0x100 DUP1 DUP4 SLOAD DIV MUL DUP4 MSTORE SWAP2 PUSH1 0x20 ADD SWAP2 PUSH2 0x3A00 JUMP JUMPDEST DUP3 ADD SWAP2 SWAP1 PUSH1 0x0 MSTORE PUSH1 0x20 PUSH1 0x0 KECCAK256 SWAP1 JUMPDEST DUP2 SLOAD DUP2 MSTORE SWAP1 PUSH1 0x1 ADD SWAP1 PUSH1 0x20 ADD DUP1 DUP4 GT PUSH2 0x39E3 JUMPI DUP3 SWAP1 SUB PUSH1 0x1F AND DUP3 ADD SWAP2 JUMPDEST POP POP POP POP POP SWAP1 DUP1 PUSH1 0x4 ADD DUP1 SLOAD PUSH2 0x3A15 SWAP1 PUSH2 0x5275 JUMP JUMPDEST DUP1 PUSH1 0x1F ADD PUSH1 0x20 DUP1 SWAP2 DIV MUL PUSH1 0x20 ADD PUSH1 0x40 MLOAD SWAP1 DUP2 ADD PUSH1 0x40 MSTORE DUP1 SWAP3 SWAP2 SWAP1 DUP2 DUP2 MSTORE PUSH1 0x20 ADD DUP3 DUP1 SLOAD PUSH2 0x3A41 SWAP1 PUSH2 0x5275 JUMP JUMPDEST DUP1 ISZERO PUSH2 0x3A8E JUMPI DUP1 PUSH1 0x1F LT PUSH2 0x3A63 JUMPI PUSH2 0x100 DUP1 DUP4 SLOAD DIV MUL DUP4 MSTORE SWAP2 PUSH1 0x20 ADD SWAP2 PUSH2 0x3A8E JUMP JUMPDEST DUP3 ADD SWAP2 SWAP1 PUSH1 0x0 MSTORE PUSH1 0x20 PUSH1 0x0 KECCAK256 SWAP1 JUMPDEST DUP2 SLOAD DUP2 MSTORE SWAP1 PUSH1 0x1 ADD SWAP1 PUSH1 0x20 ADD DUP1 DUP4 GT PUSH2 0x3A71 JUMPI DUP3 SWAP1 SUB PUSH1 0x1F AND DUP3 ADD SWAP2 JUMPDEST POP POP POP POP POP SWAP1 POP DUP6 JUMP JUMPDEST PUSH1 0x60 PUSH1 0x0 JUMPDEST PUSH1 0x0 SLOAD DUP2 LT ISZERO PUSH2 0x3B04 JUMPI DUP3 DUP1 MLOAD SWAP1 PUSH1 0x20 ADD KECCAK256 PUSH1 0x8 PUSH1 0x0 DUP4 DUP2 MSTORE PUSH1 0x20 ADD SWAP1 DUP2 MSTORE PUSH1 0x20 ADD PUSH1 0x0 KECCAK256 PUSH1 0x2 ADD PUSH1 0x40 MLOAD PUSH2 0x3AD2 SWAP2 SWAP1 PUSH2 0x4B9F JUMP JUMPDEST PUSH1 0x40 MLOAD DUP1 SWAP2 SUB SWAP1 KECCAK256 EQ ISZERO PUSH2 0x3AF1 JUMPI PUSH2 0x3AE9 DUP2 PUSH2 0x3C57 JUMP JUMPDEST SWAP2 POP POP PUSH2 0x3B3E JUMP JUMPDEST DUP1 DUP1 PUSH2 0x3AFC SWAP1 PUSH2 0x52D8 JUMP JUMPDEST SWAP2 POP POP PUSH2 0x3A9D JUMP JUMPDEST POP PUSH1 0x40 MLOAD DUP1 PUSH1 0x40 ADD PUSH1 0x40 MSTORE DUP1 PUSH1 0x5 DUP2 MSTORE PUSH1 0x20 ADD PUSH32 0x46616C7365000000000000000000000000000000000000000000000000000000 DUP2 MSTORE POP SWAP1 POP JUMPDEST SWAP2 SWAP1 POP JUMP JUMPDEST PUSH1 0x0 PUSH1 0x8 PUSH1 0x0 DUP5 DUP2 MSTORE PUSH1 0x20 ADD SWAP1 DUP2 MSTORE PUSH1 0x20 ADD PUSH1 0x0 KECCAK256 PUSH1 0x4 ADD PUSH1 0x0 SWAP1 SLOAD SWAP1 PUSH2 0x100 EXP SWAP1 DIV PUSH20 0xFFFFFFFFFFFFFFFFFFFFFFFFFFFFFFFFFFFFFFFF AND PUSH20 0xFFFFFFFFFFFFFFFFFFFFFFFFFFFFFFFFFFFFFFFF AND DUP3 PUSH1 0x40 MLOAD PUSH2 0x3B9F SWAP1 PUSH2 0x4BB6 JUMP JUMPDEST PUSH1 0x0 PUSH1 0x40 MLOAD DUP1 DUP4 SUB DUP2 DUP6 DUP8 GAS CALL SWAP3 POP POP POP RETURNDATASIZE DUP1 PUSH1 0x0 DUP2 EQ PUSH2 0x3BDC JUMPI PUSH1 0x40 MLOAD SWAP2 POP PUSH1 0x1F NOT PUSH1 0x3F RETURNDATASIZE ADD AND DUP3 ADD PUSH1 0x40 MSTORE RETURNDATASIZE DUP3 MSTORE RETURNDATASIZE PUSH1 0x0 PUSH1 0x20 DUP5 ADD RETURNDATACOPY PUSH2 0x3BE1 JUMP JUMPDEST PUSH1 0x60 SWAP2 POP JUMPDEST POP POP SWAP1 POP DUP1 PUSH2 0x3C25 JUMPI PUSH1 0x40 MLOAD PUSH32 0x8C379A000000000000000000000000000000000000000000000000000000000 DUP2 MSTORE PUSH1 0x4 ADD PUSH2 0x3C1C SWAP1 PUSH2 0x4CF3 JUMP JUMPDEST PUSH1 0x40 MLOAD DUP1 SWAP2 SUB SWAP1 REVERT JUMPDEST DUP2 PUSH1 0x8 PUSH1 0x0 DUP6 DUP2 MSTORE PUSH1 0x20 ADD SWAP1 DUP2 MSTORE PUSH1 0x20 ADD PUSH1 0x0 KECCAK256 PUSH1 0x7 ADD PUSH1 0x0 DUP3 DUP3 SLOAD PUSH2 0x3C4B SWAP2 SWAP1 PUSH2 0x51C3 JUMP JUMPDEST SWAP3 POP POP DUP2 SWAP1 SSTORE POP POP POP POP JUMP JUMPDEST PUSH1 0x60 PUSH1 0x0 PUSH1 0x1 PUSH2 0x3C66 DUP5 PUSH2 0x3D2F JUMP JUMPDEST ADD SWAP1 POP PUSH1 0x0 DUP2 PUSH8 0xFFFFFFFFFFFFFFFF DUP2 GT ISZERO PUSH2 0x3C85 JUMPI PUSH2 0x3C84 PUSH2 0x53DD JUMP JUMPDEST JUMPDEST PUSH1 0x40 MLOAD SWAP1 DUP1 DUP3 MSTORE DUP1 PUSH1 0x1F ADD PUSH1 0x1F NOT AND PUSH1 0x20 ADD DUP3 ADD PUSH1 0x40 MSTORE DUP1 ISZERO PUSH2 0x3CB7 JUMPI DUP2 PUSH1 0x20 ADD PUSH1 0x1 DUP3 MUL DUP1 CALLDATASIZE DUP4 CALLDATACOPY DUP1 DUP3 ADD SWAP2 POP POP SWAP1 POP JUMPDEST POP SWAP1 POP PUSH1 0x0 DUP3 PUSH1 0x20 ADD DUP3 ADD SWAP1 POP JUMPDEST PUSH1 0x1 ISZERO PUSH2 0x3D24 JUMPI DUP1 DUP1 PUSH1 0x1 SWAP1 SUB SWAP2 POP POP PUSH32 0x3031323334353637383961626364656600000000000000000000000000000000 PUSH1 0xA DUP7 MOD BYTE DUP2 MSTORE8 PUSH1 0xA DUP6 DUP2 PUSH2 0x3D0E JUMPI PUSH2 0x3D0D PUSH2 0x5350 JUMP JUMPDEST JUMPDEST DIV SWAP5 POP PUSH1 0x0 DUP6 EQ ISZERO PUSH2 0x3D1F JUMPI PUSH2 0x3D24 JUMP JUMPDEST PUSH2 0x3CC5 JUMP JUMPDEST DUP2 SWAP4 POP POP POP POP SWAP2 SWAP1 POP JUMP JUMPDEST PUSH1 0x0 DUP1 PUSH1 0x0 SWAP1 POP PUSH27 0x184F03E93FF9F4DAA797ED6E38ED64BF6A1F010000000000000000 DUP4 LT PUSH2 0x3D8D JUMPI PUSH27 0x184F03E93FF9F4DAA797ED6E38ED64BF6A1F010000000000000000 DUP4 DUP2 PUSH2 0x3D83 JUMPI PUSH2 0x3D82 PUSH2 0x5350 JUMP JUMPDEST JUMPDEST DIV SWAP3 POP PUSH1 0x40 DUP2 ADD SWAP1 POP JUMPDEST PUSH14 0x4EE2D6D415B85ACEF8100000000 DUP4 LT PUSH2 0x3DCA JUMPI PUSH14 0x4EE2D6D415B85ACEF8100000000 DUP4 DUP2 PUSH2 0x3DC0 JUMPI PUSH2 0x3DBF PUSH2 0x5350 JUMP JUMPDEST JUMPDEST DIV SWAP3 POP PUSH1 0x20 DUP2 ADD SWAP1 POP JUMPDEST PUSH7 0x2386F26FC10000 DUP4 LT PUSH2 0x3DF9 JUMPI PUSH7 0x2386F26FC10000 DUP4 DUP2 PUSH2 0x3DEF JUMPI PUSH2 0x3DEE PUSH2 0x5350 JUMP JUMPDEST JUMPDEST DIV SWAP3 POP PUSH1 0x10 DUP2 ADD SWAP1 POP JUMPDEST PUSH4 0x5F5E100 DUP4 LT PUSH2 0x3E22 JUMPI PUSH4 0x5F5E100 DUP4 DUP2 PUSH2 0x3E18 JUMPI PUSH2 0x3E17 PUSH2 0x5350 JUMP JUMPDEST JUMPDEST DIV SWAP3 POP PUSH1 0x8 DUP2 ADD SWAP1 POP JUMPDEST PUSH2 0x2710 DUP4 LT PUSH2 0x3E47 JUMPI PUSH2 0x2710 DUP4 DUP2 PUSH2 0x3E3D JUMPI PUSH2 0x3E3C PUSH2 0x5350 JUMP JUMPDEST JUMPDEST DIV SWAP3 POP PUSH1 0x4 DUP2 ADD SWAP1 POP JUMPDEST PUSH1 0x64 DUP4 LT PUSH2 0x3E6A JUMPI PUSH1 0x64 DUP4 DUP2 PUSH2 0x3E60 JUMPI PUSH2 0x3E5F PUSH2 0x5350 JUMP JUMPDEST JUMPDEST DIV SWAP3 POP PUSH1 0x2 DUP2 ADD SWAP1 POP JUMPDEST PUSH1 0xA DUP4 LT PUSH2 0x3E79 JUMPI PUSH1 0x1 DUP2 ADD SWAP1 POP JUMPDEST DUP1 SWAP2 POP POP SWAP2 SWAP1 POP JUMP JUMPDEST POP DUP1 SLOAD PUSH2 0x3E8E SWAP1 PUSH2 0x5275 JUMP JUMPDEST PUSH1 0x0 DUP3 SSTORE DUP1 PUSH1 0x1F LT PUSH2 0x3EA0 JUMPI POP PUSH2 0x3EBF JUMP JUMPDEST PUSH1 0x1F ADD PUSH1 0x20 SWAP1 DIV SWAP1 PUSH1 0x0 MSTORE PUSH1 0x20 PUSH1 0x0 KECCAK256 SWAP1 DUP2 ADD SWAP1 PUSH2 0x3EBE SWAP2 SWAP1 PUSH2 0x3F48 JUMP JUMPDEST JUMPDEST POP JUMP JUMPDEST DUP3 DUP1 SLOAD PUSH2 0x3ECE SWAP1 PUSH2 0x5275 JUMP JUMPDEST SWAP1 PUSH1 0x0 MSTORE PUSH1 0x20 PUSH1 0x0 KECCAK256 SWAP1 PUSH1 0x1F ADD PUSH1 0x20 SWAP1 DIV DUP2 ADD SWAP3 DUP3 PUSH2 0x3EF0 JUMPI PUSH1 0x0 DUP6 SSTORE PUSH2 0x3F37 JUMP JUMPDEST DUP3 PUSH1 0x1F LT PUSH2 0x3F09 JUMPI DUP1 MLOAD PUSH1 0xFF NOT AND DUP4 DUP1 ADD OR DUP6 SSTORE PUSH2 0x3F37 JUMP JUMPDEST DUP3 DUP1 ADD PUSH1 0x1 ADD DUP6 SSTORE DUP3 ISZERO PUSH2 0x3F37 JUMPI SWAP2 DUP3 ADD JUMPDEST DUP3 DUP2 GT ISZERO PUSH2 0x3F36 JUMPI DUP3 MLOAD DUP3 SSTORE SWAP2 PUSH1 0x20 ADD SWAP2 SWAP1 PUSH1 0x1 ADD SWAP1 PUSH2 0x3F1B JUMP JUMPDEST JUMPDEST POP SWAP1 POP PUSH2 0x3F44 SWAP2 SWAP1 PUSH2 0x3F48 JUMP JUMPDEST POP SWAP1 JUMP JUMPDEST JUMPDEST DUP1 DUP3 GT ISZERO PUSH2 0x3F61 JUMPI PUSH1 0x0 DUP2 PUSH1 0x0 SWAP1 SSTORE POP PUSH1 0x1 ADD PUSH2 0x3F49 JUMP JUMPDEST POP SWAP1 JUMP JUMPDEST PUSH1 0x0 PUSH2 0x3F78 PUSH2 0x3F73 DUP5 PUSH2 0x50C7 JUMP JUMPDEST PUSH2 0x50A2 JUMP JUMPDEST SWAP1 POP DUP3 DUP2 MSTORE PUSH1 0x20 DUP2 ADD DUP5 DUP5 DUP5 ADD GT ISZERO PUSH2 0x3F94 JUMPI PUSH2 0x3F93 PUSH2 0x5411 JUMP JUMPDEST JUMPDEST PUSH2 0x3F9F DUP5 DUP3 DUP6 PUSH2 0x5233 JUMP JUMPDEST POP SWAP4 SWAP3 POP POP POP JUMP JUMPDEST PUSH1 0x0 DUP2 CALLDATALOAD SWAP1 POP PUSH2 0x3FB6 DUP2 PUSH2 0x545D JUMP JUMPDEST SWAP3 SWAP2 POP POP JUMP JUMPDEST PUSH1 0x0 DUP3 PUSH1 0x1F DUP4 ADD SLT PUSH2 0x3FD1 JUMPI PUSH2 0x3FD0 PUSH2 0x540C JUMP JUMPDEST JUMPDEST DUP2 CALLDATALOAD PUSH2 0x3FE1 DUP5 DUP3 PUSH1 0x20 DUP7 ADD PUSH2 0x3F65 JUMP JUMPDEST SWAP2 POP POP SWAP3 SWAP2 POP POP JUMP JUMPDEST PUSH1 0x0 DUP2 CALLDATALOAD SWAP1 POP PUSH2 0x3FF9 DUP2 PUSH2 0x5474 JUMP JUMPDEST SWAP3 SWAP2 POP POP JUMP JUMPDEST PUSH1 0x0 PUSH1 0x20 DUP3 DUP5 SUB SLT ISZERO PUSH2 0x4015 JUMPI PUSH2 0x4014 PUSH2 0x541B JUMP JUMPDEST JUMPDEST PUSH1 0x0 DUP3 ADD CALLDATALOAD PUSH8 0xFFFFFFFFFFFFFFFF DUP2 GT ISZERO PUSH2 0x4033 JUMPI PUSH2 0x4032 PUSH2 0x5416 JUMP JUMPDEST JUMPDEST PUSH2 0x403F DUP5 DUP3 DUP6 ADD PUSH2 0x3FBC JUMP JUMPDEST SWAP2 POP POP SWAP3 SWAP2 POP POP JUMP JUMPDEST PUSH1 0x0 DUP1 PUSH1 0x40 DUP4 DUP6 SUB SLT ISZERO PUSH2 0x405F JUMPI PUSH2 0x405E PUSH2 0x541B JUMP JUMPDEST JUMPDEST PUSH1 0x0 DUP4 ADD CALLDATALOAD PUSH8 0xFFFFFFFFFFFFFFFF DUP2 GT ISZERO PUSH2 0x407D JUMPI PUSH2 0x407C PUSH2 0x5416 JUMP JUMPDEST JUMPDEST PUSH2 0x4089 DUP6 DUP3 DUP7 ADD PUSH2 0x3FBC JUMP JUMPDEST SWAP3 POP POP PUSH1 0x20 DUP4 ADD CALLDATALOAD PUSH8 0xFFFFFFFFFFFFFFFF DUP2 GT ISZERO PUSH2 0x40AA JUMPI PUSH2 0x40A9 PUSH2 0x5416 JUMP JUMPDEST JUMPDEST PUSH2 0x40B6 DUP6 DUP3 DUP7 ADD PUSH2 0x3FBC JUMP JUMPDEST SWAP2 POP POP SWAP3 POP SWAP3 SWAP1 POP JUMP JUMPDEST PUSH1 0x0 DUP1 PUSH1 0x0 DUP1 PUSH1 0x0 PUSH1 0xA0 DUP7 DUP9 SUB SLT ISZERO PUSH2 0x40DC JUMPI PUSH2 0x40DB PUSH2 0x541B JUMP JUMPDEST JUMPDEST PUSH1 0x0 DUP7 ADD CALLDATALOAD PUSH8 0xFFFFFFFFFFFFFFFF DUP2 GT ISZERO PUSH2 0x40FA JUMPI PUSH2 0x40F9 PUSH2 0x5416 JUMP JUMPDEST JUMPDEST PUSH2 0x4106 DUP9 DUP3 DUP10 ADD PUSH2 0x3FBC JUMP JUMPDEST SWAP6 POP POP PUSH1 0x20 DUP7 ADD CALLDATALOAD PUSH8 0xFFFFFFFFFFFFFFFF DUP2 GT ISZERO PUSH2 0x4127 JUMPI PUSH2 0x4126 PUSH2 0x5416 JUMP JUMPDEST JUMPDEST PUSH2 0x4133 DUP9 DUP3 DUP10 ADD PUSH2 0x3FBC JUMP JUMPDEST SWAP5 POP POP PUSH1 0x40 DUP7 ADD CALLDATALOAD PUSH8 0xFFFFFFFFFFFFFFFF DUP2 GT ISZERO PUSH2 0x4154 JUMPI PUSH2 0x4153 PUSH2 0x5416 JUMP JUMPDEST JUMPDEST PUSH2 0x4160 DUP9 DUP3 DUP10 ADD PUSH2 0x3FBC JUMP JUMPDEST SWAP4 POP POP PUSH1 0x60 DUP7 ADD CALLDATALOAD PUSH8 0xFFFFFFFFFFFFFFFF DUP2 GT ISZERO PUSH2 0x4181 JUMPI PUSH2 0x4180 PUSH2 0x5416 JUMP JUMPDEST JUMPDEST PUSH2 0x418D DUP9 DUP3 DUP10 ADD PUSH2 0x3FBC JUMP JUMPDEST SWAP3 POP POP PUSH1 0x80 PUSH2 0x419E DUP9 DUP3 DUP10 ADD PUSH2 0x3FA7 JUMP JUMPDEST SWAP2 POP POP SWAP3 SWAP6 POP SWAP3 SWAP6 SWAP1 SWAP4 POP JUMP JUMPDEST PUSH1 0x0 PUSH1 0x20 DUP3 DUP5 SUB SLT ISZERO PUSH2 0x41C1 JUMPI PUSH2 0x41C0 PUSH2 0x541B JUMP JUMPDEST JUMPDEST PUSH1 0x0 PUSH2 0x41CF DUP5 DUP3 DUP6 ADD PUSH2 0x3FEA JUMP JUMPDEST SWAP2 POP POP SWAP3 SWAP2 POP POP JUMP JUMPDEST PUSH1 0x0 DUP1 PUSH1 0x40 DUP4 DUP6 SUB SLT ISZERO PUSH2 0x41EF JUMPI PUSH2 0x41EE PUSH2 0x541B JUMP JUMPDEST JUMPDEST PUSH1 0x0 PUSH2 0x41FD DUP6 DUP3 DUP7 ADD PUSH2 0x3FEA JUMP JUMPDEST SWAP3 POP POP PUSH1 0x20 DUP4 ADD CALLDATALOAD PUSH8 0xFFFFFFFFFFFFFFFF DUP2 GT ISZERO PUSH2 0x421E JUMPI PUSH2 0x421D PUSH2 0x5416 JUMP JUMPDEST JUMPDEST PUSH2 0x422A DUP6 DUP3 DUP7 ADD PUSH2 0x3FBC JUMP JUMPDEST SWAP2 POP POP SWAP3 POP SWAP3 SWAP1 POP JUMP JUMPDEST PUSH1 0x0 DUP1 PUSH1 0x0 DUP1 PUSH1 0x0 DUP1 PUSH1 0x0 DUP1 PUSH1 0x0 PUSH2 0x120 DUP11 DUP13 SUB SLT ISZERO PUSH2 0x4257 JUMPI PUSH2 0x4256 PUSH2 0x541B JUMP JUMPDEST JUMPDEST PUSH1 0x0 PUSH2 0x4265 DUP13 DUP3 DUP14 ADD PUSH2 0x3FEA JUMP JUMPDEST SWAP10 POP POP PUSH1 0x20 DUP11 ADD CALLDATALOAD PUSH8 0xFFFFFFFFFFFFFFFF DUP2 GT ISZERO PUSH2 0x4286 JUMPI PUSH2 0x4285 PUSH2 0x5416 JUMP JUMPDEST JUMPDEST PUSH2 0x4292 DUP13 DUP3 DUP14 ADD PUSH2 0x3FBC JUMP JUMPDEST SWAP9 POP POP PUSH1 0x40 DUP11 ADD CALLDATALOAD PUSH8 0xFFFFFFFFFFFFFFFF DUP2 GT ISZERO PUSH2 0x42B3 JUMPI PUSH2 0x42B2 PUSH2 0x5416 JUMP JUMPDEST JUMPDEST PUSH2 0x42BF DUP13 DUP3 DUP14 ADD PUSH2 0x3FBC JUMP JUMPDEST SWAP8 POP POP PUSH1 0x60 DUP11 ADD CALLDATALOAD PUSH8 0xFFFFFFFFFFFFFFFF DUP2 GT ISZERO PUSH2 0x42E0 JUMPI PUSH2 0x42DF PUSH2 0x5416 JUMP JUMPDEST JUMPDEST PUSH2 0x42EC DUP13 DUP3 DUP14 ADD PUSH2 0x3FBC JUMP JUMPDEST SWAP7 POP POP PUSH1 0x80 DUP11 ADD CALLDATALOAD PUSH8 0xFFFFFFFFFFFFFFFF DUP2 GT ISZERO PUSH2 0x430D JUMPI PUSH2 0x430C PUSH2 0x5416 JUMP JUMPDEST JUMPDEST PUSH2 0x4319 DUP13 DUP3 DUP14 ADD PUSH2 0x3FBC JUMP JUMPDEST SWAP6 POP POP PUSH1 0xA0 DUP11 ADD CALLDATALOAD PUSH8 0xFFFFFFFFFFFFFFFF DUP2 GT ISZERO PUSH2 0x433A JUMPI PUSH2 0x4339 PUSH2 0x5416 JUMP JUMPDEST JUMPDEST PUSH2 0x4346 DUP13 DUP3 DUP14 ADD PUSH2 0x3FBC JUMP JUMPDEST SWAP5 POP POP PUSH1 0xC0 DUP11 ADD CALLDATALOAD PUSH8 0xFFFFFFFFFFFFFFFF DUP2 GT ISZERO PUSH2 0x4367 JUMPI PUSH2 0x4366 PUSH2 0x5416 JUMP JUMPDEST JUMPDEST PUSH2 0x4373 DUP13 DUP3 DUP14 ADD PUSH2 0x3FBC JUMP JUMPDEST SWAP4 POP POP PUSH1 0xE0 DUP11 ADD CALLDATALOAD PUSH8 0xFFFFFFFFFFFFFFFF DUP2 GT ISZERO PUSH2 0x4394 JUMPI PUSH2 0x4393 PUSH2 0x5416 JUMP JUMPDEST JUMPDEST PUSH2 0x43A0 DUP13 DUP3 DUP14 ADD PUSH2 0x3FBC JUMP JUMPDEST SWAP3 POP POP PUSH2 0x100 PUSH2 0x43B2 DUP13 DUP3 DUP14 ADD PUSH2 0x3FA7 JUMP JUMPDEST SWAP2 POP POP SWAP3 SWAP6 SWAP9 POP SWAP3 SWAP6 SWAP9 POP SWAP3 SWAP6 SWAP9 JUMP JUMPDEST PUSH1 0x0 DUP1 PUSH1 0x0 DUP1 PUSH1 0x0 DUP1 PUSH1 0x0 DUP1 PUSH2 0x100 DUP10 DUP12 SUB SLT ISZERO PUSH2 0x43E3 JUMPI PUSH2 0x43E2 PUSH2 0x541B JUMP JUMPDEST JUMPDEST PUSH1 0x0 PUSH2 0x43F1 DUP12 DUP3 DUP13 ADD PUSH2 0x3FEA JUMP JUMPDEST SWAP9 POP POP PUSH1 0x20 DUP10 ADD CALLDATALOAD PUSH8 0xFFFFFFFFFFFFFFFF DUP2 GT ISZERO PUSH2 0x4412 JUMPI PUSH2 0x4411 PUSH2 0x5416 JUMP JUMPDEST JUMPDEST PUSH2 0x441E DUP12 DUP3 DUP13 ADD PUSH2 0x3FBC JUMP JUMPDEST SWAP8 POP POP PUSH1 0x40 DUP10 ADD CALLDATALOAD PUSH8 0xFFFFFFFFFFFFFFFF DUP2 GT ISZERO PUSH2 0x443F JUMPI PUSH2 0x443E PUSH2 0x5416 JUMP JUMPDEST JUMPDEST PUSH2 0x444B DUP12 DUP3 DUP13 ADD PUSH2 0x3FBC JUMP JUMPDEST SWAP7 POP POP PUSH1 0x60 DUP10 ADD CALLDATALOAD PUSH8 0xFFFFFFFFFFFFFFFF DUP2 GT ISZERO PUSH2 0x446C JUMPI PUSH2 0x446B PUSH2 0x5416 JUMP JUMPDEST JUMPDEST PUSH2 0x4478 DUP12 DUP3 DUP13 ADD PUSH2 0x3FBC JUMP JUMPDEST SWAP6 POP POP PUSH1 0x80 DUP10 ADD CALLDATALOAD PUSH8 0xFFFFFFFFFFFFFFFF DUP2 GT ISZERO PUSH2 0x4499 JUMPI PUSH2 0x4498 PUSH2 0x5416 JUMP JUMPDEST JUMPDEST PUSH2 0x44A5 DUP12 DUP3 DUP13 ADD PUSH2 0x3FBC JUMP JUMPDEST SWAP5 POP POP PUSH1 0xA0 PUSH2 0x44B6 DUP12 DUP3 DUP13 ADD PUSH2 0x3FEA JUMP JUMPDEST SWAP4 POP POP PUSH1 0xC0 PUSH2 0x44C7 DUP12 DUP3 DUP13 ADD PUSH2 0x3FEA JUMP JUMPDEST SWAP3 POP POP PUSH1 0xE0 PUSH2 0x44D8 DUP12 DUP3 DUP13 ADD PUSH2 0x3FEA JUMP JUMPDEST SWAP2 POP POP SWAP3 SWAP6 SWAP9 POP SWAP3 SWAP6 SWAP9 SWAP1 SWAP4 SWAP7 POP JUMP JUMPDEST PUSH1 0x0 DUP1 PUSH1 0x0 DUP1 PUSH1 0x0 PUSH1 0xA0 DUP7 DUP9 SUB SLT ISZERO PUSH2 0x4504 JUMPI PUSH2 0x4503 PUSH2 0x541B JUMP JUMPDEST JUMPDEST PUSH1 0x0 PUSH2 0x4512 DUP9 DUP3 DUP10 ADD PUSH2 0x3FEA JUMP JUMPDEST SWAP6 POP POP PUSH1 0x20 DUP7 ADD CALLDATALOAD PUSH8 0xFFFFFFFFFFFFFFFF DUP2 GT ISZERO PUSH2 0x4533 JUMPI PUSH2 0x4532 PUSH2 0x5416 JUMP JUMPDEST JUMPDEST PUSH2 0x453F DUP9 DUP3 DUP10 ADD PUSH2 0x3FBC JUMP JUMPDEST SWAP5 POP POP PUSH1 0x40 DUP7 ADD CALLDATALOAD PUSH8 0xFFFFFFFFFFFFFFFF DUP2 GT ISZERO PUSH2 0x4560 JUMPI PUSH2 0x455F PUSH2 0x5416 JUMP JUMPDEST JUMPDEST PUSH2 0x456C DUP9 DUP3 DUP10 ADD PUSH2 0x3FBC JUMP JUMPDEST SWAP4 POP POP PUSH1 0x60 DUP7 ADD CALLDATALOAD PUSH8 0xFFFFFFFFFFFFFFFF DUP2 GT ISZERO PUSH2 0x458D JUMPI PUSH2 0x458C PUSH2 0x5416 JUMP JUMPDEST JUMPDEST PUSH2 0x4599 DUP9 DUP3 DUP10 ADD PUSH2 0x3FBC JUMP JUMPDEST SWAP3 POP POP PUSH1 0x80 PUSH2 0x45AA DUP9 DUP3 DUP10 ADD PUSH2 0x3FEA JUMP JUMPDEST SWAP2 POP POP SWAP3 SWAP6 POP SWAP3 SWAP6 SWAP1 SWAP4 POP JUMP JUMPDEST PUSH1 0x0 DUP1 PUSH1 0x0 PUSH1 0x60 DUP5 DUP7 SUB SLT ISZERO PUSH2 0x45D0 JUMPI PUSH2 0x45CF PUSH2 0x541B JUMP JUMPDEST JUMPDEST PUSH1 0x0 PUSH2 0x45DE DUP7 DUP3 DUP8 ADD PUSH2 0x3FEA JUMP JUMPDEST SWAP4 POP POP PUSH1 0x20 DUP5 ADD CALLDATALOAD PUSH8 0xFFFFFFFFFFFFFFFF DUP2 GT ISZERO PUSH2 0x45FF JUMPI PUSH2 0x45FE PUSH2 0x5416 JUMP JUMPDEST JUMPDEST PUSH2 0x460B DUP7 DUP3 DUP8 ADD PUSH2 0x3FBC JUMP JUMPDEST SWAP3 POP POP PUSH1 0x40 PUSH2 0x461C DUP7 DUP3 DUP8 ADD PUSH2 0x3FEA JUMP JUMPDEST SWAP2 POP POP SWAP3 POP SWAP3 POP SWAP3 JUMP JUMPDEST PUSH1 0x0 DUP1 PUSH1 0x0 DUP1 PUSH1 0x80 DUP6 DUP8 SUB SLT ISZERO PUSH2 0x4640 JUMPI PUSH2 0x463F PUSH2 0x541B JUMP JUMPDEST JUMPDEST PUSH1 0x0 PUSH2 0x464E DUP8 DUP3 DUP9 ADD PUSH2 0x3FEA JUMP JUMPDEST SWAP5 POP POP PUSH1 0x20 DUP6 ADD CALLDATALOAD PUSH8 0xFFFFFFFFFFFFFFFF DUP2 GT ISZERO PUSH2 0x466F JUMPI PUSH2 0x466E PUSH2 0x5416 JUMP JUMPDEST JUMPDEST PUSH2 0x467B DUP8 DUP3 DUP9 ADD PUSH2 0x3FBC JUMP JUMPDEST SWAP4 POP POP PUSH1 0x40 PUSH2 0x468C DUP8 DUP3 DUP9 ADD PUSH2 0x3FEA JUMP JUMPDEST SWAP3 POP POP PUSH1 0x60 PUSH2 0x469D DUP8 DUP3 DUP9 ADD PUSH2 0x3FEA JUMP JUMPDEST SWAP2 POP POP SWAP3 SWAP6 SWAP2 SWAP5 POP SWAP3 POP JUMP JUMPDEST PUSH1 0x0 DUP1 PUSH1 0x40 DUP4 DUP6 SUB SLT ISZERO PUSH2 0x46C0 JUMPI PUSH2 0x46BF PUSH2 0x541B JUMP JUMPDEST JUMPDEST PUSH1 0x0 PUSH2 0x46CE DUP6 DUP3 DUP7 ADD PUSH2 0x3FEA JUMP JUMPDEST SWAP3 POP POP PUSH1 0x20 PUSH2 0x46DF DUP6 DUP3 DUP7 ADD PUSH2 0x3FEA JUMP JUMPDEST SWAP2 POP POP SWAP3 POP SWAP3 SWAP1 POP JUMP JUMPDEST PUSH1 0x0 DUP1 PUSH1 0x0 DUP1 PUSH1 0x80 DUP6 DUP8 SUB SLT ISZERO PUSH2 0x4703 JUMPI PUSH2 0x4702 PUSH2 0x541B JUMP JUMPDEST JUMPDEST PUSH1 0x0 PUSH2 0x4711 DUP8 DUP3 DUP9 ADD PUSH2 0x3FEA JUMP JUMPDEST SWAP5 POP POP PUSH1 0x20 PUSH2 0x4722 DUP8 DUP3 DUP9 ADD PUSH2 0x3FEA JUMP JUMPDEST SWAP4 POP POP PUSH1 0x40 DUP6 ADD CALLDATALOAD PUSH8 0xFFFFFFFFFFFFFFFF DUP2 GT ISZERO PUSH2 0x4743 JUMPI PUSH2 0x4742 PUSH2 0x5416 JUMP JUMPDEST JUMPDEST PUSH2 0x474F DUP8 DUP3 DUP9 ADD PUSH2 0x3FBC JUMP JUMPDEST SWAP3 POP POP PUSH1 0x60 DUP6 ADD CALLDATALOAD PUSH8 0xFFFFFFFFFFFFFFFF DUP2 GT ISZERO PUSH2 0x4770 JUMPI PUSH2 0x476F PUSH2 0x5416 JUMP JUMPDEST JUMPDEST PUSH2 0x477C DUP8 DUP3 DUP9 ADD PUSH2 0x3FBC JUMP JUMPDEST SWAP2 POP POP SWAP3 SWAP6 SWAP2 SWAP5 POP SWAP3 POP JUMP JUMPDEST PUSH1 0x0 DUP1 PUSH1 0x0 DUP1 PUSH1 0x0 DUP1 PUSH1 0x0 PUSH1 0xE0 DUP9 DUP11 SUB SLT ISZERO PUSH2 0x47A7 JUMPI PUSH2 0x47A6 PUSH2 0x541B JUMP JUMPDEST JUMPDEST PUSH1 0x0 PUSH2 0x47B5 DUP11 DUP3 DUP12 ADD PUSH2 0x3FEA JUMP JUMPDEST SWAP8 POP POP PUSH1 0x20 PUSH2 0x47C6 DUP11 DUP3 DUP12 ADD PUSH2 0x3FEA JUMP JUMPDEST SWAP7 POP POP PUSH1 0x40 DUP9 ADD CALLDATALOAD PUSH8 0xFFFFFFFFFFFFFFFF DUP2 GT ISZERO PUSH2 0x47E7 JUMPI PUSH2 0x47E6 PUSH2 0x5416 JUMP JUMPDEST JUMPDEST PUSH2 0x47F3 DUP11 DUP3 DUP12 ADD PUSH2 0x3FBC JUMP JUMPDEST SWAP6 POP POP PUSH1 0x60 DUP9 ADD CALLDATALOAD PUSH8 0xFFFFFFFFFFFFFFFF DUP2 GT ISZERO PUSH2 0x4814 JUMPI PUSH2 0x4813 PUSH2 0x5416 JUMP JUMPDEST JUMPDEST PUSH2 0x4820 DUP11 DUP3 DUP12 ADD PUSH2 0x3FBC JUMP JUMPDEST SWAP5 POP POP PUSH1 0x80 DUP9 ADD CALLDATALOAD PUSH8 0xFFFFFFFFFFFFFFFF DUP2 GT ISZERO PUSH2 0x4841 JUMPI PUSH2 0x4840 PUSH2 0x5416 JUMP JUMPDEST JUMPDEST PUSH2 0x484D DUP11 DUP3 DUP12 ADD PUSH2 0x3FBC JUMP JUMPDEST SWAP4 POP POP PUSH1 0xA0 DUP9 ADD CALLDATALOAD PUSH8 0xFFFFFFFFFFFFFFFF DUP2 GT ISZERO PUSH2 0x486E JUMPI PUSH2 0x486D PUSH2 0x5416 JUMP JUMPDEST JUMPDEST PUSH2 0x487A DUP11 DUP3 DUP12 ADD PUSH2 0x3FBC JUMP JUMPDEST SWAP3 POP POP PUSH1 0xC0 PUSH2 0x488B DUP11 DUP3 DUP12 ADD PUSH2 0x3FEA JUMP JUMPDEST SWAP2 POP POP SWAP3 SWAP6 SWAP9 SWAP2 SWAP5 SWAP8 POP SWAP3 SWAP6 POP JUMP JUMPDEST PUSH1 0x0 DUP1 PUSH1 0x0 DUP1 PUSH1 0x80 DUP6 DUP8 SUB SLT ISZERO PUSH2 0x48B4 JUMPI PUSH2 0x48B3 PUSH2 0x541B JUMP JUMPDEST JUMPDEST PUSH1 0x0 PUSH2 0x48C2 DUP8 DUP3 DUP9 ADD PUSH2 0x3FEA JUMP JUMPDEST SWAP5 POP POP PUSH1 0x20 PUSH2 0x48D3 DUP8 DUP3 DUP9 ADD PUSH2 0x3FEA JUMP JUMPDEST SWAP4 POP POP PUSH1 0x40 DUP6 ADD CALLDATALOAD PUSH8 0xFFFFFFFFFFFFFFFF DUP2 GT ISZERO PUSH2 0x48F4 JUMPI PUSH2 0x48F3 PUSH2 0x5416 JUMP JUMPDEST JUMPDEST PUSH2 0x4900 DUP8 DUP3 DUP9 ADD PUSH2 0x3FBC JUMP JUMPDEST SWAP3 POP POP PUSH1 0x60 PUSH2 0x4911 DUP8 DUP3 DUP9 ADD PUSH2 0x3FEA JUMP JUMPDEST SWAP2 POP POP SWAP3 SWAP6 SWAP2 SWAP5 POP SWAP3 POP JUMP JUMPDEST PUSH1 0x0 DUP1 PUSH1 0x0 DUP1 PUSH1 0x0 DUP1 PUSH1 0xC0 DUP8 DUP10 SUB SLT ISZERO PUSH2 0x493A JUMPI PUSH2 0x4939 PUSH2 0x541B JUMP JUMPDEST JUMPDEST PUSH1 0x0 PUSH2 0x4948 DUP10 DUP3 DUP11 ADD PUSH2 0x3FEA JUMP JUMPDEST SWAP7 POP POP PUSH1 0x20 PUSH2 0x4959 DUP10 DUP3 DUP11 ADD PUSH2 0x3FEA JUMP JUMPDEST SWAP6 POP POP PUSH1 0x40 PUSH2 0x496A DUP10 DUP3 DUP11 ADD PUSH2 0x3FEA JUMP JUMPDEST SWAP5 POP POP PUSH1 0x60 DUP8 ADD CALLDATALOAD PUSH8 0xFFFFFFFFFFFFFFFF DUP2 GT ISZERO PUSH2 0x498B JUMPI PUSH2 0x498A PUSH2 0x5416 JUMP JUMPDEST JUMPDEST PUSH2 0x4997 DUP10 DUP3 DUP11 ADD PUSH2 0x3FBC JUMP JUMPDEST SWAP4 POP POP PUSH1 0x80 DUP8 ADD CALLDATALOAD PUSH8 0xFFFFFFFFFFFFFFFF DUP2 GT ISZERO PUSH2 0x49B8 JUMPI PUSH2 0x49B7 PUSH2 0x5416 JUMP JUMPDEST JUMPDEST PUSH2 0x49C4 DUP10 DUP3 DUP11 ADD PUSH2 0x3FBC JUMP JUMPDEST SWAP3 POP POP PUSH1 0xA0 DUP8 ADD CALLDATALOAD PUSH8 0xFFFFFFFFFFFFFFFF DUP2 GT ISZERO PUSH2 0x49E5 JUMPI PUSH2 0x49E4 PUSH2 0x5416 JUMP JUMPDEST JUMPDEST PUSH2 0x49F1 DUP10 DUP3 DUP11 ADD PUSH2 0x3FBC JUMP JUMPDEST SWAP2 POP POP SWAP3 SWAP6 POP SWAP3 SWAP6 POP SWAP3 SWAP6 JUMP JUMPDEST PUSH1 0x0 PUSH2 0x4A0A DUP4 DUP4 PUSH2 0x4B81 JUMP JUMPDEST PUSH1 0x20 DUP4 ADD SWAP1 POP SWAP3 SWAP2 POP POP JUMP JUMPDEST PUSH2 0x4A1F DUP2 PUSH2 0x51F7 JUMP JUMPDEST DUP3 MSTORE POP POP JUMP JUMPDEST PUSH1 0x0 PUSH2 0x4A30 DUP3 PUSH2 0x511D JUMP JUMPDEST PUSH2 0x4A3A DUP2 DUP6 PUSH2 0x5140 JUMP JUMPDEST SWAP4 POP PUSH2 0x4A45 DUP4 PUSH2 0x50F8 JUMP JUMPDEST DUP1 PUSH1 0x0 JUMPDEST DUP4 DUP2 LT ISZERO PUSH2 0x4A76 JUMPI DUP2 MLOAD PUSH2 0x4A5D DUP9 DUP3 PUSH2 0x49FE JUMP JUMPDEST SWAP8 POP PUSH2 0x4A68 DUP4 PUSH2 0x5133 JUMP JUMPDEST SWAP3 POP POP PUSH1 0x1 DUP2 ADD SWAP1 POP PUSH2 0x4A49 JUMP JUMPDEST POP DUP6 SWAP4 POP POP POP POP SWAP3 SWAP2 POP POP JUMP JUMPDEST PUSH1 0x0 DUP2 SLOAD PUSH2 0x4A90 DUP2 PUSH2 0x5275 JUMP JUMPDEST PUSH2 0x4A9A DUP2 DUP7 PUSH2 0x5151 JUMP JUMPDEST SWAP5 POP PUSH1 0x1 DUP3 AND PUSH1 0x0 DUP2 EQ PUSH2 0x4AB5 JUMPI PUSH1 0x1 DUP2 EQ PUSH2 0x4AC6 JUMPI PUSH2 0x4AF9 JUMP JUMPDEST PUSH1 0xFF NOT DUP4 AND DUP7 MSTORE DUP2 DUP7 ADD SWAP4 POP PUSH2 0x4AF9 JUMP JUMPDEST PUSH2 0x4ACF DUP6 PUSH2 0x5108 JUMP JUMPDEST PUSH1 0x0 JUMPDEST DUP4 DUP2 LT ISZERO PUSH2 0x4AF1 JUMPI DUP2 SLOAD DUP2 DUP10 ADD MSTORE PUSH1 0x1 DUP3 ADD SWAP2 POP PUSH1 0x20 DUP2 ADD SWAP1 POP PUSH2 0x4AD2 JUMP JUMPDEST DUP4 DUP9 ADD SWAP6 POP POP POP JUMPDEST POP POP POP SWAP3 SWAP2 POP POP JUMP JUMPDEST PUSH1 0x0 PUSH2 0x4B0D DUP3 PUSH2 0x5128 JUMP JUMPDEST PUSH2 0x4B17 DUP2 DUP6 PUSH2 0x515C JUMP JUMPDEST SWAP4 POP PUSH2 0x4B27 DUP2 DUP6 PUSH1 0x20 DUP7 ADD PUSH2 0x5242 JUMP JUMPDEST PUSH2 0x4B30 DUP2 PUSH2 0x5420 JUMP JUMPDEST DUP5 ADD SWAP2 POP POP SWAP3 SWAP2 POP POP JUMP JUMPDEST PUSH1 0x0 PUSH2 0x4B48 PUSH1 0xB DUP4 PUSH2 0x515C JUMP JUMPDEST SWAP2 POP PUSH2 0x4B53 DUP3 PUSH2 0x5431 JUMP JUMPDEST PUSH1 0x20 DUP3 ADD SWAP1 POP SWAP2 SWAP1 POP JUMP JUMPDEST PUSH1 0x0 PUSH2 0x4B6B PUSH1 0x0 DUP4 PUSH2 0x5151 JUMP JUMPDEST SWAP2 POP PUSH2 0x4B76 DUP3 PUSH2 0x545A JUMP JUMPDEST PUSH1 0x0 DUP3 ADD SWAP1 POP SWAP2 SWAP1 POP JUMP JUMPDEST PUSH2 0x4B8A DUP2 PUSH2 0x5229 JUMP JUMPDEST DUP3 MSTORE POP POP JUMP JUMPDEST PUSH2 0x4B99 DUP2 PUSH2 0x5229 JUMP JUMPDEST DUP3 MSTORE POP POP JUMP JUMPDEST PUSH1 0x0 PUSH2 0x4BAB DUP3 DUP5 PUSH2 0x4A83 JUMP JUMPDEST SWAP2 POP DUP2 SWAP1 POP SWAP3 SWAP2 POP POP JUMP JUMPDEST PUSH1 0x0 PUSH2 0x4BC1 DUP3 PUSH2 0x4B5E JUMP JUMPDEST SWAP2 POP DUP2 SWAP1 POP SWAP2 SWAP1 POP JUMP JUMPDEST PUSH1 0x0 PUSH1 0x20 DUP3 ADD SWAP1 POP PUSH2 0x4BE0 PUSH1 0x0 DUP4 ADD DUP5 PUSH2 0x4A16 JUMP JUMPDEST SWAP3 SWAP2 POP POP JUMP JUMPDEST PUSH1 0x0 PUSH1 0x20 DUP3 ADD SWAP1 POP DUP2 DUP2 SUB PUSH1 0x0 DUP4 ADD MSTORE PUSH2 0x4C00 DUP2 DUP5 PUSH2 0x4A25 JUMP JUMPDEST SWAP1 POP SWAP3 SWAP2 POP POP JUMP JUMPDEST PUSH1 0x0 PUSH1 0x20 DUP3 ADD SWAP1 POP DUP2 DUP2 SUB PUSH1 0x0 DUP4 ADD MSTORE PUSH2 0x4C22 DUP2 DUP5 PUSH2 0x4B02 JUMP JUMPDEST SWAP1 POP SWAP3 SWAP2 POP POP JUMP JUMPDEST PUSH1 0x0 PUSH1 0x40 DUP3 ADD SWAP1 POP DUP2 DUP2 SUB PUSH1 0x0 DUP4 ADD MSTORE PUSH2 0x4C44 DUP2 DUP6 PUSH2 0x4B02 JUMP JUMPDEST SWAP1 POP DUP2 DUP2 SUB PUSH1 0x20 DUP4 ADD MSTORE PUSH2 0x4C58 DUP2 DUP5 PUSH2 0x4B02 JUMP JUMPDEST SWAP1 POP SWAP4 SWAP3 POP POP POP JUMP JUMPDEST PUSH1 0x0 PUSH1 0xE0 DUP3 ADD SWAP1 POP DUP2 DUP2 SUB PUSH1 0x0 DUP4 ADD MSTORE PUSH2 0x4C7B DUP2 DUP11 PUSH2 0x4B02 JUMP JUMPDEST SWAP1 POP PUSH2 0x4C8A PUSH1 0x20 DUP4 ADD DUP10 PUSH2 0x4B90 JUMP JUMPDEST DUP2 DUP2 SUB PUSH1 0x40 DUP4 ADD MSTORE PUSH2 0x4C9C DUP2 DUP9 PUSH2 0x4B02 JUMP JUMPDEST SWAP1 POP DUP2 DUP2 SUB PUSH1 0x60 DUP4 ADD MSTORE PUSH2 0x4CB0 DUP2 DUP8 PUSH2 0x4B02 JUMP JUMPDEST SWAP1 POP DUP2 DUP2 SUB PUSH1 0x80 DUP4 ADD MSTORE PUSH2 0x4CC4 DUP2 DUP7 PUSH2 0x4B02 JUMP JUMPDEST SWAP1 POP DUP2 DUP2 SUB PUSH1 0xA0 DUP4 ADD MSTORE PUSH2 0x4CD8 DUP2 DUP6 PUSH2 0x4B02 JUMP JUMPDEST SWAP1 POP PUSH2 0x4CE7 PUSH1 0xC0 DUP4 ADD DUP5 PUSH2 0x4B90 JUMP JUMPDEST SWAP9 SWAP8 POP POP POP POP POP POP POP POP JUMP JUMPDEST PUSH1 0x0 PUSH1 0x20 DUP3 ADD SWAP1 POP DUP2 DUP2 SUB PUSH1 0x0 DUP4 ADD MSTORE PUSH2 0x4D0C DUP2 PUSH2 0x4B3B JUMP JUMPDEST SWAP1 POP SWAP2 SWAP1 POP JUMP JUMPDEST PUSH1 0x0 PUSH1 0x20 DUP3 ADD SWAP1 POP PUSH2 0x4D28 PUSH1 0x0 DUP4 ADD DUP5 PUSH2 0x4B90 JUMP JUMPDEST SWAP3 SWAP2 POP POP JUMP JUMPDEST PUSH1 0x0 PUSH2 0x100 DUP3 ADD SWAP1 POP PUSH2 0x4D44 PUSH1 0x0 DUP4 ADD DUP12 PUSH2 0x4B90 JUMP JUMPDEST DUP2 DUP2 SUB PUSH1 0x20 DUP4 ADD MSTORE PUSH2 0x4D56 DUP2 DUP11 PUSH2 0x4B02 JUMP JUMPDEST SWAP1 POP DUP2 DUP2 SUB PUSH1 0x40 DUP4 ADD MSTORE PUSH2 0x4D6A DUP2 DUP10 PUSH2 0x4B02 JUMP JUMPDEST SWAP1 POP DUP2 DUP2 SUB PUSH1 0x60 DUP4 ADD MSTORE PUSH2 0x4D7E DUP2 DUP9 PUSH2 0x4B02 JUMP JUMPDEST SWAP1 POP DUP2 DUP2 SUB PUSH1 0x80 DUP4 ADD MSTORE PUSH2 0x4D92 DUP2 DUP8 PUSH2 0x4B02 JUMP JUMPDEST SWAP1 POP DUP2 DUP2 SUB PUSH1 0xA0 DUP4 ADD MSTORE PUSH2 0x4DA6 DUP2 DUP7 PUSH2 0x4B02 JUMP JUMPDEST SWAP1 POP DUP2 DUP2 SUB PUSH1 0xC0 DUP4 ADD MSTORE PUSH2 0x4DBA DUP2 DUP6 PUSH2 0x4B02 JUMP JUMPDEST SWAP1 POP DUP2 DUP2 SUB PUSH1 0xE0 DUP4 ADD MSTORE PUSH2 0x4DCE DUP2 DUP5 PUSH2 0x4B02 JUMP JUMPDEST SWAP1 POP SWAP10 SWAP9 POP POP POP POP POP POP POP POP POP JUMP JUMPDEST PUSH1 0x0 PUSH2 0x180 DUP3 ADD SWAP1 POP PUSH2 0x4DF3 PUSH1 0x0 DUP4 ADD DUP16 PUSH2 0x4B90 JUMP JUMPDEST PUSH2 0x4E00 PUSH1 0x20 DUP4 ADD DUP15 PUSH2 0x4B90 JUMP JUMPDEST DUP2 DUP2 SUB PUSH1 0x40 DUP4 ADD MSTORE PUSH2 0x4E12 DUP2 DUP14 PUSH2 0x4B02 JUMP JUMPDEST SWAP1 POP DUP2 DUP2 SUB PUSH1 0x60 DUP4 ADD MSTORE PUSH2 0x4E26 DUP2 DUP13 PUSH2 0x4B02 JUMP JUMPDEST SWAP1 POP DUP2 DUP2 SUB PUSH1 0x80 DUP4 ADD MSTORE PUSH2 0x4E3A DUP2 DUP12 PUSH2 0x4B02 JUMP JUMPDEST SWAP1 POP DUP2 DUP2 SUB PUSH1 0xA0 DUP4 ADD MSTORE PUSH2 0x4E4E DUP2 DUP11 PUSH2 0x4B02 JUMP JUMPDEST SWAP1 POP PUSH2 0x4E5D PUSH1 0xC0 DUP4 ADD DUP10 PUSH2 0x4B90 JUMP JUMPDEST PUSH2 0x4E6A PUSH1 0xE0 DUP4 ADD DUP9 PUSH2 0x4B90 JUMP JUMPDEST PUSH2 0x4E78 PUSH2 0x100 DUP4 ADD DUP8 PUSH2 0x4B90 JUMP JUMPDEST DUP2 DUP2 SUB PUSH2 0x120 DUP4 ADD MSTORE PUSH2 0x4E8B DUP2 DUP7 PUSH2 0x4B02 JUMP JUMPDEST SWAP1 POP PUSH2 0x4E9B PUSH2 0x140 DUP4 ADD DUP6 PUSH2 0x4B90 JUMP JUMPDEST PUSH2 0x4EA9 PUSH2 0x160 DUP4 ADD DUP5 PUSH2 0x4B90 JUMP JUMPDEST SWAP14 SWAP13 POP POP POP POP POP POP POP POP POP POP POP POP POP JUMP JUMPDEST PUSH1 0x0 PUSH1 0xA0 DUP3 ADD SWAP1 POP PUSH2 0x4ECF PUSH1 0x0 DUP4 ADD DUP9 PUSH2 0x4B90 JUMP JUMPDEST PUSH2 0x4EDC PUSH1 0x20 DUP4 ADD DUP8 PUSH2 0x4B90 JUMP JUMPDEST PUSH2 0x4EE9 PUSH1 0x40 DUP4 ADD DUP7 PUSH2 0x4B90 JUMP JUMPDEST DUP2 DUP2 SUB PUSH1 0x60 DUP4 ADD MSTORE PUSH2 0x4EFB DUP2 DUP6 PUSH2 0x4B02 JUMP JUMPDEST SWAP1 POP DUP2 DUP2 SUB PUSH1 0x80 DUP4 ADD MSTORE PUSH2 0x4F0F DUP2 DUP5 PUSH2 0x4B02 JUMP JUMPDEST SWAP1 POP SWAP7 SWAP6 POP POP POP POP POP POP JUMP JUMPDEST PUSH1 0x0 PUSH2 0x120 DUP3 ADD SWAP1 POP PUSH2 0x4F31 PUSH1 0x0 DUP4 ADD DUP13 PUSH2 0x4B90 JUMP JUMPDEST PUSH2 0x4F3E PUSH1 0x20 DUP4 ADD DUP12 PUSH2 0x4B90 JUMP JUMPDEST PUSH2 0x4F4B PUSH1 0x40 DUP4 ADD DUP11 PUSH2 0x4B90 JUMP JUMPDEST DUP2 DUP2 SUB PUSH1 0x60 DUP4 ADD MSTORE PUSH2 0x4F5D DUP2 DUP10 PUSH2 0x4B02 JUMP JUMPDEST SWAP1 POP DUP2 DUP2 SUB PUSH1 0x80 DUP4 ADD MSTORE PUSH2 0x4F71 DUP2 DUP9 PUSH2 0x4B02 JUMP JUMPDEST SWAP1 POP DUP2 DUP2 SUB PUSH1 0xA0 DUP4 ADD MSTORE PUSH2 0x4F85 DUP2 DUP8 PUSH2 0x4B02 JUMP JUMPDEST SWAP1 POP DUP2 DUP2 SUB PUSH1 0xC0 DUP4 ADD MSTORE PUSH2 0x4F99 DUP2 DUP7 PUSH2 0x4B02 JUMP JUMPDEST SWAP1 POP PUSH2 0x4FA8 PUSH1 0xE0 DUP4 ADD DUP6 PUSH2 0x4B90 JUMP JUMPDEST PUSH2 0x4FB6 PUSH2 0x100 DUP4 ADD DUP5 PUSH2 0x4B90 JUMP JUMPDEST SWAP11 SWAP10 POP POP POP POP POP POP POP POP POP POP JUMP JUMPDEST PUSH1 0x0 PUSH1 0xA0 DUP3 ADD SWAP1 POP PUSH2 0x4FD9 PUSH1 0x0 DUP4 ADD DUP9 PUSH2 0x4B90 JUMP JUMPDEST PUSH2 0x4FE6 PUSH1 0x20 DUP4 ADD DUP8 PUSH2 0x4B90 JUMP JUMPDEST PUSH2 0x4FF3 PUSH1 0x40 DUP4 ADD DUP7 PUSH2 0x4B90 JUMP JUMPDEST PUSH2 0x5000 PUSH1 0x60 DUP4 ADD DUP6 PUSH2 0x4B90 JUMP JUMPDEST DUP2 DUP2 SUB PUSH1 0x80 DUP4 ADD MSTORE PUSH2 0x5012 DUP2 DUP5 PUSH2 0x4B02 JUMP JUMPDEST SWAP1 POP SWAP7 SWAP6 POP POP POP POP POP POP JUMP JUMPDEST PUSH1 0x0 PUSH1 0xE0 DUP3 ADD SWAP1 POP PUSH2 0x5033 PUSH1 0x0 DUP4 ADD DUP11 PUSH2 0x4B90 JUMP JUMPDEST PUSH2 0x5040 PUSH1 0x20 DUP4 ADD DUP10 PUSH2 0x4B90 JUMP JUMPDEST PUSH2 0x504D PUSH1 0x40 DUP4 ADD DUP9 PUSH2 0x4B90 JUMP JUMPDEST PUSH2 0x505A PUSH1 0x60 DUP4 ADD DUP8 PUSH2 0x4B90 JUMP JUMPDEST DUP2 DUP2 SUB PUSH1 0x80 DUP4 ADD MSTORE PUSH2 0x506C DUP2 DUP7 PUSH2 0x4B02 JUMP JUMPDEST SWAP1 POP DUP2 DUP2 SUB PUSH1 0xA0 DUP4 ADD MSTORE PUSH2 0x5080 DUP2 DUP6 PUSH2 0x4B02 JUMP JUMPDEST SWAP1 POP DUP2 DUP2 SUB PUSH1 0xC0 DUP4 ADD MSTORE PUSH2 0x5094 DUP2 DUP5 PUSH2 0x4B02 JUMP JUMPDEST SWAP1 POP SWAP9 SWAP8 POP POP POP POP POP POP POP POP JUMP JUMPDEST PUSH1 0x0 PUSH2 0x50AC PUSH2 0x50BD JUMP JUMPDEST SWAP1 POP PUSH2 0x50B8 DUP3 DUP3 PUSH2 0x52A7 JUMP JUMPDEST SWAP2 SWAP1 POP JUMP JUMPDEST PUSH1 0x0 PUSH1 0x40 MLOAD SWAP1 POP SWAP1 JUMP JUMPDEST PUSH1 0x0 PUSH8 0xFFFFFFFFFFFFFFFF DUP3 GT ISZERO PUSH2 0x50E2 JUMPI PUSH2 0x50E1 PUSH2 0x53DD JUMP JUMPDEST JUMPDEST PUSH2 0x50EB DUP3 PUSH2 0x5420 JUMP JUMPDEST SWAP1 POP PUSH1 0x20 DUP2 ADD SWAP1 POP SWAP2 SWAP1 POP JUMP JUMPDEST PUSH1 0x0 DUP2 SWAP1 POP PUSH1 0x20 DUP3 ADD SWAP1 POP SWAP2 SWAP1 POP JUMP JUMPDEST PUSH1 0x0 DUP2 SWAP1 POP DUP2 PUSH1 0x0 MSTORE PUSH1 0x20 PUSH1 0x0 KECCAK256 SWAP1 POP SWAP2 SWAP1 POP JUMP JUMPDEST PUSH1 0x0 DUP2 MLOAD SWAP1 POP SWAP2 SWAP1 POP JUMP JUMPDEST PUSH1 0x0 DUP2 MLOAD SWAP1 POP SWAP2 SWAP1 POP JUMP JUMPDEST PUSH1 0x0 PUSH1 0x20 DUP3 ADD SWAP1 POP SWAP2 SWAP1 POP JUMP JUMPDEST PUSH1 0x0 DUP3 DUP3 MSTORE PUSH1 0x20 DUP3 ADD SWAP1 POP SWAP3 SWAP2 POP POP JUMP JUMPDEST PUSH1 0x0 DUP2 SWAP1 POP SWAP3 SWAP2 POP POP JUMP JUMPDEST PUSH1 0x0 DUP3 DUP3 MSTORE PUSH1 0x20 DUP3 ADD SWAP1 POP SWAP3 SWAP2 POP POP JUMP JUMPDEST PUSH1 0x0 PUSH2 0x5178 DUP3 PUSH2 0x5229 JUMP JUMPDEST SWAP2 POP PUSH2 0x5183 DUP4 PUSH2 0x5229 JUMP JUMPDEST SWAP3 POP DUP3 PUSH32 0xFFFFFFFFFFFFFFFFFFFFFFFFFFFFFFFFFFFFFFFFFFFFFFFFFFFFFFFFFFFFFFFF SUB DUP3 GT ISZERO PUSH2 0x51B8 JUMPI PUSH2 0x51B7 PUSH2 0x5321 JUMP JUMPDEST JUMPDEST DUP3 DUP3 ADD SWAP1 POP SWAP3 SWAP2 POP POP JUMP JUMPDEST PUSH1 0x0 PUSH2 0x51CE DUP3 PUSH2 0x5229 JUMP JUMPDEST SWAP2 POP PUSH2 0x51D9 DUP4 PUSH2 0x5229 JUMP JUMPDEST SWAP3 POP DUP3 DUP3 LT ISZERO PUSH2 0x51EC JUMPI PUSH2 0x51EB PUSH2 0x5321 JUMP JUMPDEST JUMPDEST DUP3 DUP3 SUB SWAP1 POP SWAP3 SWAP2 POP POP JUMP JUMPDEST PUSH1 0x0 PUSH2 0x5202 DUP3 PUSH2 0x5209 JUMP JUMPDEST SWAP1 POP SWAP2 SWAP1 POP JUMP JUMPDEST PUSH1 0x0 PUSH20 0xFFFFFFFFFFFFFFFFFFFFFFFFFFFFFFFFFFFFFFFF DUP3 AND SWAP1 POP SWAP2 SWAP1 POP JUMP JUMPDEST PUSH1 0x0 DUP2 SWAP1 POP SWAP2 SWAP1 POP JUMP JUMPDEST DUP3 DUP2 DUP4 CALLDATACOPY PUSH1 0x0 DUP4 DUP4 ADD MSTORE POP POP POP JUMP JUMPDEST PUSH1 0x0 JUMPDEST DUP4 DUP2 LT ISZERO PUSH2 0x5260 JUMPI DUP1 DUP3 ADD MLOAD DUP2 DUP5 ADD MSTORE PUSH1 0x20 DUP2 ADD SWAP1 POP PUSH2 0x5245 JUMP JUMPDEST DUP4 DUP2 GT ISZERO PUSH2 0x526F JUMPI PUSH1 0x0 DUP5 DUP5 ADD MSTORE JUMPDEST POP POP POP POP JUMP JUMPDEST PUSH1 0x0 PUSH1 0x2 DUP3 DIV SWAP1 POP PUSH1 0x1 DUP3 AND DUP1 PUSH2 0x528D JUMPI PUSH1 0x7F DUP3 AND SWAP2 POP JUMPDEST PUSH1 0x20 DUP3 LT DUP2 EQ ISZERO PUSH2 0x52A1 JUMPI PUSH2 0x52A0 PUSH2 0x537F JUMP JUMPDEST JUMPDEST POP SWAP2 SWAP1 POP JUMP JUMPDEST PUSH2 0x52B0 DUP3 PUSH2 0x5420 JUMP JUMPDEST DUP2 ADD DUP2 DUP2 LT PUSH8 0xFFFFFFFFFFFFFFFF DUP3 GT OR ISZERO PUSH2 0x52CF JUMPI PUSH2 0x52CE PUSH2 0x53DD JUMP JUMPDEST JUMPDEST DUP1 PUSH1 0x40 MSTORE POP POP POP JUMP JUMPDEST PUSH1 0x0 PUSH2 0x52E3 DUP3 PUSH2 0x5229 JUMP JUMPDEST SWAP2 POP PUSH32 0xFFFFFFFFFFFFFFFFFFFFFFFFFFFFFFFFFFFFFFFFFFFFFFFFFFFFFFFFFFFFFFFF DUP3 EQ ISZERO PUSH2 0x5316 JUMPI PUSH2 0x5315 PUSH2 0x5321 JUMP JUMPDEST JUMPDEST PUSH1 0x1 DUP3 ADD SWAP1 POP SWAP2 SWAP1 POP JUMP JUMPDEST PUSH32 0x4E487B7100000000000000000000000000000000000000000000000000000000 PUSH1 0x0 MSTORE PUSH1 0x11 PUSH1 0x4 MSTORE PUSH1 0x24 PUSH1 0x0 REVERT JUMPDEST PUSH32 0x4E487B7100000000000000000000000000000000000000000000000000000000 PUSH1 0x0 MSTORE PUSH1 0x12 PUSH1 0x4 MSTORE PUSH1 0x24 PUSH1 0x0 REVERT JUMPDEST PUSH32 0x4E487B7100000000000000000000000000000000000000000000000000000000 PUSH1 0x0 MSTORE PUSH1 0x22 PUSH1 0x4 MSTORE PUSH1 0x24 PUSH1 0x0 REVERT JUMPDEST PUSH32 0x4E487B7100000000000000000000000000000000000000000000000000000000 PUSH1 0x0 MSTORE PUSH1 0x32 PUSH1 0x4 MSTORE PUSH1 0x24 PUSH1 0x0 REVERT JUMPDEST PUSH32 0x4E487B7100000000000000000000000000000000000000000000000000000000 PUSH1 0x0 MSTORE PUSH1 0x41 PUSH1 0x4 MSTORE PUSH1 0x24 PUSH1 0x0 REVERT JUMPDEST PUSH1 0x0 DUP1 REVERT JUMPDEST PUSH1 0x0 DUP1 REVERT JUMPDEST PUSH1 0x0 DUP1 REVERT JUMPDEST PUSH1 0x0 DUP1 REVERT JUMPDEST PUSH1 0x0 PUSH1 0x1F NOT PUSH1 0x1F DUP4 ADD AND SWAP1 POP SWAP2 SWAP1 POP JUMP JUMPDEST PUSH32 0x53656E64206661696C6564000000000000000000000000000000000000000000 PUSH1 0x0 DUP3 ADD MSTORE POP JUMP JUMPDEST POP JUMP JUMPDEST PUSH2 0x5466 DUP2 PUSH2 0x51F7 JUMP JUMPDEST DUP2 EQ PUSH2 0x5471 JUMPI PUSH1 0x0 DUP1 REVERT JUMPDEST POP JUMP JUMPDEST PUSH2 0x547D DUP2 PUSH2 0x5229 JUMP JUMPDEST DUP2 EQ PUSH2 0x5488 JUMPI PUSH1 0x0 DUP1 REVERT JUMPDEST POP JUMP INVALID PUSH9 0x747470733A2F2F692E PUSH17 0x6F7374696D672E63632F53737847773563 GAS 0x2F PUSH17 0x6572736F6E2E6A7067A264697066735822 SLT KECCAK256 SWAP2 PUSH8 0xDDB647E76F64DDBA PUSH25 0x52EF4A9787294C35960FA0CC90663D1DC65B65DDA364736F6C PUSH4 0x43000806 STOP CALLER "},"gasEstimates":{"creation":{"codeDepositCost":"4347400","executionCost":"5034","totalCost":"4352434"},"external":{"CheckEmail(string)":"infinite","CreateAccount(string,string,string,string,address)":"infinite","CreateCompletedSurveys(uint256,uint256,string,uint256)":"infinite","CreateOngoingTrail(uint256,uint256,string,string)":"infinite","CreateOrSaveSections(uint256,string)":"infinite","CreateQuestionAnswer(uint256,uint256,uint256,string,string,string)":"infinite","CreateSurvey(uint256,uint256,string,string,string,string,uint256)":"infinite","CreateSurveyCategory(string,string)":"infinite","CreateTrial(uint256,string,string,string,string,uint256,uint256,uint256)":"infinite","GetOngoingTrial(uint256)":"infinite","Login(string,string)":"infinite","UpdateAccessToken(uint256,string)":"infinite","UpdateAudience(uint256,string)":"infinite","UpdateFhir(uint256,string,string,string,string,string,string,string,address)":"infinite","UpdatePrivatekey(uint256,string)":"infinite","UpdateReward(uint256,string,uint256,uint256)":"infinite","UpdateSurvey(uint256,string,string,string,uint256)":"infinite","UpdateTrial(uint256,string,string,string,uint256)":"infinite","UpdateUser(uint256,string,uint256)":"infinite","WithDrawAmount(uint256,uint256)":"infinite","_AnsweredIds()":"2476","_CompletedSurveyIds()":"2474","_FhirIds()":"2474","_OngoingIds()":"2473","_SurveyCategoryIds()":"2564","_SurveyIds()":"2498","_TrialIds()":"2497","_UserIds()":"2584","_categoryMap(uint256)":"infinite","_completedsurveyMap(uint256)":"infinite","_fhirMap(uint256)":"infinite","_ongoingMap(uint256)":"infinite","_questionanswerdMap(uint256)":"infinite","_sectionsMap(uint256)":"infinite","_surveyMap(uint256)":"infinite","_trialAudienceMap(uint256)":"infinite","_trialMap(uint256)":"infinite","delete_a_servey(uint256)":"infinite","delete_a_trial(uint256)":"infinite","getAllCompletedSurveysIDByUser(uint256)":"infinite","getAllSurveysIDByTrial(uint256)":"infinite","getUserAddress(uint256)":"2917","getUserDetails(uint256)":"infinite","owner()":"2603","reset_all()":"infinite","reset_app(uint256)":"infinite"}},"methodIdentifiers":{"CheckEmail(string)":"f8b7800f","CreateAccount(string,string,string,string,address)":"ad4bad38","CreateCompletedSurveys(uint256,uint256,string,uint256)":"7d423e10","CreateOngoingTrail(uint256,uint256,string,string)":"cdb9b58f","CreateOrSaveSections(uint256,string)":"66cad734","CreateQuestionAnswer(uint256,uint256,uint256,string,string,string)":"6c067b48","CreateSurvey(uint256,uint256,string,string,string,string,uint256)":"3896f130","CreateSurveyCategory(string,string)":"4f8b36eb","CreateTrial(uint256,string,string,string,string,uint256,uint256,uint256)":"6f4fe9c5","GetOngoingTrial(uint256)":"902841d4","Login(string,string)":"ccef4218","UpdateAccessToken(uint256,string)":"90b18a78","UpdateAudience(uint256,string)":"ad23f8f9","UpdateFhir(uint256,string,string,string,string,string,string,string,address)":"d98860b4","UpdatePrivatekey(uint256,string)":"e1da993f","UpdateReward(uint256,string,uint256,uint256)":"3eebd0d0","UpdateSurvey(uint256,string,string,string,uint256)":"5f27aea1","UpdateTrial(uint256,string,string,string,uint256)":"55391705","UpdateUser(uint256,string,uint256)":"e57f973f","WithDrawAmount(uint256,uint256)":"ff99942c","_AnsweredIds()":"01c66109","_CompletedSurveyIds()":"b6e604bd","_FhirIds()":"7c15641a","_OngoingIds()":"eb6b2870","_SurveyCategoryIds()":"29b36423","_SurveyIds()":"1429f775","_TrialIds()":"ac7aef0e","_UserIds()":"ce08988c","_categoryMap(uint256)":"f0d8e873","_completedsurveyMap(uint256)":"90d6cf05","_fhirMap(uint256)":"ebe197ca","_ongoingMap(uint256)":"f6aaa804","_questionanswerdMap(uint256)":"c13b2836","_sectionsMap(uint256)":"ea7efaa6","_surveyMap(uint256)":"de7acfd7","_trialAudienceMap(uint256)":"2a8caf4a","_trialMap(uint256)":"bed208fe","delete_a_servey(uint256)":"70da4ae1","delete_a_trial(uint256)":"1e178956","getAllCompletedSurveysIDByUser(uint256)":"49b9b07b","getAllSurveysIDByTrial(uint256)":"682d562b","getUserAddress(uint256)":"90d976e2","getUserDetails(uint256)":"1c1a9f7b","owner()":"8da5cb5b","reset_all()":"b16060a6","reset_app(uint256)":"dcdd86d5"}},"storageLayout":{"storage":[{"astId":1220,"contract":"contracts/WaveData.sol:WaveData","label":"_UserIds","offset":0,"slot":"0","type":"t_uint256"},{"astId":1222,"contract":"contracts/WaveData.sol:WaveData","label":"_FhirIds","offset":0,"slot":"1","type":"t_uint256"},{"astId":1224,"contract":"contracts/WaveData.sol:WaveData","label":"_TrialIds","offset":0,"slot":"2","type":"t_uint256"},{"astId":1226,"contract":"contracts/WaveData.sol:WaveData","label":"_SurveyIds","offset":0,"slot":"3","type":"t_uint256"},{"astId":1228,"contract":"contracts/WaveData.sol:WaveData","label":"_SurveyCategoryIds","offset":0,"slot":"4","type":"t_uint256"},{"astId":1230,"contract":"contracts/WaveData.sol:WaveData","label":"_OngoingIds","offset":0,"slot":"5","type":"t_uint256"},{"astId":1232,"contract":"contracts/WaveData.sol:WaveData","label":"_AnsweredIds","offset":0,"slot":"6","type":"t_uint256"},{"astId":1234,"contract":"contracts/WaveData.sol:WaveData","label":"_CompletedSurveyIds","offset":0,"slot":"7","type":"t_uint256"},{"astId":1240,"contract":"contracts/WaveData.sol:WaveData","label":"_userMap","offset":0,"slot":"8","type":"t_mapping(t_uint256,t_struct(user_struct)1073_storage)"},{"astId":1246,"contract":"contracts/WaveData.sol:WaveData","label":"_trialMap","offset":0,"slot":"9","type":"t_mapping(t_uint256,t_struct(trial_struct)1117_storage)"},{"astId":1251,"contract":"contracts/WaveData.sol:WaveData","label":"_trialAudienceMap","offset":0,"slot":"10","type":"t_mapping(t_uint256,t_string_storage)"},{"astId":1257,"contract":"contracts/WaveData.sol:WaveData","label":"_surveyMap","offset":0,"slot":"11","type":"t_mapping(t_uint256,t_struct(survey_struct)1145_storage)"},{"astId":1263,"contract":"contracts/WaveData.sol:WaveData","label":"_categoryMap","offset":0,"slot":"12","type":"t_mapping(t_uint256,t_struct(survey_category_struct)1080_storage)"},{"astId":1268,"contract":"contracts/WaveData.sol:WaveData","label":"_sectionsMap","offset":0,"slot":"13","type":"t_mapping(t_uint256,t_string_storage)"},{"astId":1274,"contract":"contracts/WaveData.sol:WaveData","label":"_fhirMap","offset":0,"slot":"14","type":"t_mapping(t_uint256,t_struct(fhir_struct)1170_storage)"},{"astId":1280,"contract":"contracts/WaveData.sol:WaveData","label":"_ongoingMap","offset":0,"slot":"15","type":"t_mapping(t_uint256,t_struct(ongoing_struct)1181_storage)"},{"astId":1286,"contract":"contracts/WaveData.sol:WaveData","label":"_questionanswerdMap","offset":0,"slot":"16","type":"t_mapping(t_uint256,t_struct(survey_question_answer_struct)1196_storage)"},{"astId":1292,"contract":"contracts/WaveData.sol:WaveData","label":"_completedsurveyMap","offset":0,"slot":"17","type":"t_mapping(t_uint256,t_struct(completed_survey_struct)1207_storage)"},{"astId":1294,"contract":"contracts/WaveData.sol:WaveData","label":"owner","offset":0,"slot":"18","type":"t_address"}],"types":{"t_address":{"encoding":"inplace","label":"address","numberOfBytes":"20"},"t_mapping(t_uint256,t_string_storage)":{"encoding":"mapping","key":"t_uint256","label":"mapping(uint256 => string)","numberOfBytes":"32","value":"t_string_storage"},"t_mapping(t_uint256,t_struct(completed_survey_struct)1207_storage)":{"encoding":"mapping","key":"t_uint256","label":"mapping(uint256 => struct WaveData.completed_survey_struct)","numberOfBytes":"32","value":"t_struct(completed_survey_struct)1207_storage"},"t_mapping(t_uint256,t_struct(fhir_struct)1170_storage)":{"encoding":"mapping","key":"t_uint256","label":"mapping(uint256 => struct WaveData.fhir_struct)","numberOfBytes":"32","value":"t_struct(fhir_struct)1170_storage"},"t_mapping(t_uint256,t_struct(ongoing_struct)1181_storage)":{"encoding":"mapping","key":"t_uint256","label":"mapping(uint256 => struct WaveData.ongoing_struct)","numberOfBytes":"32","value":"t_struct(ongoing_struct)1181_storage"},"t_mapping(t_uint256,t_struct(survey_category_struct)1080_storage)":{"encoding":"mapping","key":"t_uint256","label":"mapping(uint256 => struct WaveData.survey_category_struct)","numberOfBytes":"32","value":"t_struct(survey_category_struct)1080_storage"},"t_mapping(t_uint256,t_struct(survey_question_answer_struct)1196_storage)":{"encoding":"mapping","key":"t_uint256","label":"mapping(uint256 => struct WaveData.survey_question_answer_struct)","numberOfBytes":"32","value":"t_struct(survey_question_answer_struct)1196_storage"},"t_mapping(t_uint256,t_struct(survey_struct)1145_storage)":{"encoding":"mapping","key":"t_uint256","label":"mapping(uint256 => struct WaveData.survey_struct)","numberOfBytes":"32","value":"t_struct(survey_struct)1145_storage"},"t_mapping(t_uint256,t_struct(trial_struct)1117_storage)":{"encoding":"mapping","key":"t_uint256","label":"mapping(uint256 => struct WaveData.trial_struct)","numberOfBytes":"32","value":"t_struct(trial_struct)1117_storage"},"t_mapping(t_uint256,t_struct(user_struct)1073_storage)":{"encoding":"mapping","key":"t_uint256","label":"mapping(uint256 => struct WaveData.user_struct)","numberOfBytes":"32","value":"t_struct(user_struct)1073_storage"},"t_string_storage":{"encoding":"bytes","label":"string","numberOfBytes":"32"},"t_struct(completed_survey_struct)1207_storage":{"encoding":"inplace","label":"struct WaveData.completed_survey_struct","members":[{"astId":1198,"contract":"contracts/WaveData.sol:WaveData","label":"completed_survey_id","offset":0,"slot":"0","type":"t_uint256"},{"astId":1200,"contract":"contracts/WaveData.sol:WaveData","label":"trial_id","offset":0,"slot":"1","type":"t_uint256"},{"astId":1202,"contract":"contracts/WaveData.sol:WaveData","label":"user_id","offset":0,"slot":"2","type":"t_uint256"},{"astId":1204,"contract":"contracts/WaveData.sol:WaveData","label":"survey_id","offset":0,"slot":"3","type":"t_uint256"},{"astId":1206,"contract":"contracts/WaveData.sol:WaveData","label":"date","offset":0,"slot":"4","type":"t_string_storage"}],"numberOfBytes":"160"},"t_struct(fhir_struct)1170_storage":{"encoding":"inplace","label":"struct WaveData.fhir_struct","members":[{"astId":1148,"contract":"contracts/WaveData.sol:WaveData","label":"user_id","offset":0,"slot":"0","type":"t_uint256"},{"astId":1151,"contract":"contracts/WaveData.sol:WaveData","label":"family_name","offset":0,"slot":"1","type":"t_string_storage"},{"astId":1154,"contract":"contracts/WaveData.sol:WaveData","label":"given_name","offset":0,"slot":"2","type":"t_string_storage"},{"astId":1157,"contract":"contracts/WaveData.sol:WaveData","label":"identifier","offset":0,"slot":"3","type":"t_string_storage"},{"astId":1160,"contract":"contracts/WaveData.sol:WaveData","label":"phone","offset":0,"slot":"4","type":"t_string_storage"},{"astId":1163,"contract":"contracts/WaveData.sol:WaveData","label":"gender","offset":0,"slot":"5","type":"t_string_storage"},{"astId":1166,"contract":"contracts/WaveData.sol:WaveData","label":"about","offset":0,"slot":"6","type":"t_string_storage"},{"astId":1169,"contract":"contracts/WaveData.sol:WaveData","label":"patient_id","offset":0,"slot":"7","type":"t_string_storage"}],"numberOfBytes":"256"},"t_struct(ongoing_struct)1181_storage":{"encoding":"inplace","label":"struct WaveData.ongoing_struct","members":[{"astId":1172,"contract":"contracts/WaveData.sol:WaveData","label":"ongoing_id","offset":0,"slot":"0","type":"t_uint256"},{"astId":1174,"contract":"contracts/WaveData.sol:WaveData","label":"trial_id","offset":0,"slot":"1","type":"t_uint256"},{"astId":1176,"contract":"contracts/WaveData.sol:WaveData","label":"user_id","offset":0,"slot":"2","type":"t_uint256"},{"astId":1178,"contract":"contracts/WaveData.sol:WaveData","label":"date","offset":0,"slot":"3","type":"t_string_storage"},{"astId":1180,"contract":"contracts/WaveData.sol:WaveData","label":"given_permission","offset":0,"slot":"4","type":"t_string_storage"}],"numberOfBytes":"160"},"t_struct(survey_category_struct)1080_storage":{"encoding":"inplace","label":"struct WaveData.survey_category_struct","members":[{"astId":1076,"contract":"contracts/WaveData.sol:WaveData","label":"name","offset":0,"slot":"0","type":"t_string_storage"},{"astId":1079,"contract":"contracts/WaveData.sol:WaveData","label":"image","offset":0,"slot":"1","type":"t_string_storage"}],"numberOfBytes":"64"},"t_struct(survey_question_answer_struct)1196_storage":{"encoding":"inplace","label":"struct WaveData.survey_question_answer_struct","members":[{"astId":1183,"contract":"contracts/WaveData.sol:WaveData","label":"answer_id","offset":0,"slot":"0","type":"t_uint256"},{"astId":1185,"contract":"contracts/WaveData.sol:WaveData","label":"trial_id","offset":0,"slot":"1","type":"t_uint256"},{"astId":1187,"contract":"contracts/WaveData.sol:WaveData","label":"user_id","offset":0,"slot":"2","type":"t_uint256"},{"astId":1189,"contract":"contracts/WaveData.sol:WaveData","label":"survey_id","offset":0,"slot":"3","type":"t_uint256"},{"astId":1191,"contract":"contracts/WaveData.sol:WaveData","label":"section_id","offset":0,"slot":"4","type":"t_string_storage"},{"astId":1193,"contract":"contracts/WaveData.sol:WaveData","label":"question_id","offset":0,"slot":"5","type":"t_string_storage"},{"astId":1195,"contract":"contracts/WaveData.sol:WaveData","label":"answer","offset":0,"slot":"6","type":"t_string_storage"}],"numberOfBytes":"224"},"t_struct(survey_struct)1145_storage":{"encoding":"inplace","label":"struct WaveData.survey_struct","members":[{"astId":1120,"contract":"contracts/WaveData.sol:WaveData","label":"survey_id","offset":0,"slot":"0","type":"t_uint256"},{"astId":1123,"contract":"contracts/WaveData.sol:WaveData","label":"trial_id","offset":0,"slot":"1","type":"t_uint256"},{"astId":1126,"contract":"contracts/WaveData.sol:WaveData","label":"user_id","offset":0,"slot":"2","type":"t_uint256"},{"astId":1129,"contract":"contracts/WaveData.sol:WaveData","label":"name","offset":0,"slot":"3","type":"t_string_storage"},{"astId":1132,"contract":"contracts/WaveData.sol:WaveData","label":"description","offset":0,"slot":"4","type":"t_string_storage"},{"astId":1135,"contract":"contracts/WaveData.sol:WaveData","label":"date","offset":0,"slot":"5","type":"t_string_storage"},{"astId":1138,"contract":"contracts/WaveData.sol:WaveData","label":"image","offset":0,"slot":"6","type":"t_string_storage"},{"astId":1141,"contract":"contracts/WaveData.sol:WaveData","label":"reward","offset":0,"slot":"7","type":"t_uint256"},{"astId":1144,"contract":"contracts/WaveData.sol:WaveData","label":"submission","offset":0,"slot":"8","type":"t_uint256"}],"numberOfBytes":"288"},"t_struct(trial_struct)1117_storage":{"encoding":"inplace","label":"struct WaveData.trial_struct","members":[{"astId":1083,"contract":"contracts/WaveData.sol:WaveData","label":"trial_id","offset":0,"slot":"0","type":"t_uint256"},{"astId":1086,"contract":"contracts/WaveData.sol:WaveData","label":"user_id","offset":0,"slot":"1","type":"t_uint256"},{"astId":1089,"contract":"contracts/WaveData.sol:WaveData","label":"image","offset":0,"slot":"2","type":"t_string_storage"},{"astId":1092,"contract":"contracts/WaveData.sol:WaveData","label":"title","offset":0,"slot":"3","type":"t_string_storage"},{"astId":1095,"contract":"contracts/WaveData.sol:WaveData","label":"description","offset":0,"slot":"4","type":"t_string_storage"},{"astId":1098,"contract":"contracts/WaveData.sol:WaveData","label":"permission","offset":0,"slot":"5","type":"t_string_storage"},{"astId":1101,"contract":"contracts/WaveData.sol:WaveData","label":"contributors","offset":0,"slot":"6","type":"t_uint256"},{"astId":1104,"contract":"contracts/WaveData.sol:WaveData","label":"audience","offset":0,"slot":"7","type":"t_uint256"},{"astId":1107,"contract":"contracts/WaveData.sol:WaveData","label":"budget","offset":0,"slot":"8","type":"t_uint256"},{"astId":1110,"contract":"contracts/WaveData.sol:WaveData","label":"reward_type","offset":0,"slot":"9","type":"t_string_storage"},{"astId":1113,"contract":"contracts/WaveData.sol:WaveData","label":"reward_price","offset":0,"slot":"10","type":"t_uint256"},{"astId":1116,"contract":"contracts/WaveData.sol:WaveData","label":"total_spending_limit","offset":0,"slot":"11","type":"t_uint256"}],"numberOfBytes":"384"},"t_struct(user_struct)1073_storage":{"encoding":"inplace","label":"struct WaveData.user_struct","members":[{"astId":1045,"contract":"contracts/WaveData.sol:WaveData","label":"user_id","offset":0,"slot":"0","type":"t_uint256"},{"astId":1048,"contract":"contracts/WaveData.sol:WaveData","label":"name","offset":0,"slot":"1","type":"t_string_storage"},{"astId":1051,"contract":"contracts/WaveData.sol:WaveData","label":"email","offset":0,"slot":"2","type":"t_string_storage"},{"astId":1054,"contract":"contracts/WaveData.sol:WaveData","label":"password","offset":0,"slot":"3","type":"t_string_storage"},{"astId":1057,"contract":"contracts/WaveData.sol:WaveData","label":"walletaddress_address","offset":0,"slot":"4","type":"t_address"},{"astId":1060,"contract":"contracts/WaveData.sol:WaveData","label":"privatekey","offset":0,"slot":"5","type":"t_string_storage"},{"astId":1063,"contract":"contracts/WaveData.sol:WaveData","label":"image","offset":0,"slot":"6","type":"t_string_storage"},{"astId":1066,"contract":"contracts/WaveData.sol:WaveData","label":"credits","offset":0,"slot":"7","type":"t_uint256"},{"astId":1069,"contract":"contracts/WaveData.sol:WaveData","label":"accesstoken","offset":0,"slot":"8","type":"t_string_storage"},{"astId":1072,"contract":"contracts/WaveData.sol:WaveData","label":"fhirid","offset":0,"slot":"9","type":"t_uint256"}],"numberOfBytes":"320"},"t_uint256":{"encoding":"inplace","label":"uint256","numberOfBytes":"32"}}},"userdoc":{"kind":"user","methods":{"_categoryMap(uint256)":{"notice":"The map of all the Survey Category ."},"_completedsurveyMap(uint256)":{"notice":"The map of all the Completed Surveys."},"_fhirMap(uint256)":{"notice":"The map of all the FHIR information."},"_ongoingMap(uint256)":{"notice":"The map of all the OnGoing Trials."},"_questionanswerdMap(uint256)":{"notice":"The map of all the Question Answerd in a Survey."},"_sectionsMap(uint256)":{"notice":"The map of all the Survey Sections  ."},"_surveyMap(uint256)":{"notice":"The map of all the Surveys information."},"_trialAudienceMap(uint256)":{"notice":"The map of all the Rewards information."},"_trialMap(uint256)":{"notice":"The map of all the Trials information."}},"version":1}}}}